{
  "contractName": "DiscoAddr",
  "abi": [
    {
      "inputs": [
        {
          "internalType": "string",
          "name": "discoId",
          "type": "string"
        }
      ],
      "payable": false,
      "stateMutability": "nonpayable",
      "type": "constructor"
    },
    {
      "payable": true,
      "stateMutability": "payable",
      "type": "fallback"
    },
    {
      "constant": true,
      "inputs": [],
      "name": "id",
      "outputs": [
        {
          "internalType": "string",
          "name": "",
          "type": "string"
        }
      ],
      "payable": false,
      "stateMutability": "view",
      "type": "function"
    },
    {
      "constant": true,
      "inputs": [],
      "name": "getDiscoId",
      "outputs": [
        {
          "internalType": "string",
          "name": "",
          "type": "string"
        }
      ],
      "payable": false,
      "stateMutability": "view",
      "type": "function"
    },
    {
      "constant": false,
      "inputs": [
        {
          "internalType": "address payable",
          "name": "to",
          "type": "address"
        },
        {
          "internalType": "uint256",
          "name": "amount",
          "type": "uint256"
        }
      ],
      "name": "transfer",
      "outputs": [],
      "payable": false,
      "stateMutability": "nonpayable",
      "type": "function"
    },
    {
      "constant": true,
      "inputs": [],
      "name": "getPool",
      "outputs": [
        {
          "internalType": "address payable",
          "name": "",
          "type": "address"
        }
      ],
      "payable": false,
      "stateMutability": "view",
      "type": "function"
    }
  ],
  "bytecode": "0x608060405234801561001057600080fd5b5060405161070038038061070083398181016040526100329190810190610148565b806000908051906020019061004892919061004f565b5050610215565b828054600181600116156101000203166002900490600052602060002090601f016020900481019282601f1061009057805160ff19168380011785556100be565b828001600101855582156100be579182015b828111156100bd5782518255916020019190600101906100a2565b5b5090506100cb91906100cf565b5090565b6100f191905b808211156100ed5760008160009055506001016100d5565b5090565b90565b600082601f83011261010557600080fd5b8151610118610113826101b6565b610189565b9150808252602083016020830185838301111561013457600080fd5b61013f8382846101e2565b50505092915050565b60006020828403121561015a57600080fd5b600082015167ffffffffffffffff81111561017457600080fd5b610180848285016100f4565b91505092915050565b6000604051905081810181811067ffffffffffffffff821117156101ac57600080fd5b8060405250919050565b600067ffffffffffffffff8211156101cd57600080fd5b601f19601f8301169050602081019050919050565b60005b838110156102005780820151818401526020810190506101e5565b8381111561020f576000848401525b50505050565b6104dc806102246000396000f3fe60806040526004361061003f5760003560e01c8063026b1d5f14610041578063a9059cbb1461006c578063af640d0f14610095578063fb1e6a62146100c0575b005b34801561004d57600080fd5b506100566100eb565b6040516100639190610365565b60405180910390f35b34801561007857600080fd5b50610093600480360361008e91908101906102a8565b6100f3565b005b3480156100a157600080fd5b506100aa61013e565b6040516100b79190610380565b60405180910390f35b3480156100cc57600080fd5b506100d56101dc565b6040516100e291906103a2565b60405180910390f35b600030905090565b8173ffffffffffffffffffffffffffffffffffffffff166108fc829081150290604051600060405180830381858888f19350505050158015610139573d6000803e3d6000fd5b505050565b60008054600181600116156101000203166002900480601f0160208091040260200160405190810160405280929190818152602001828054600181600116156101000203166002900480156101d45780601f106101a9576101008083540402835291602001916101d4565b820191906000526020600020905b8154815290600101906020018083116101b757829003601f168201915b505050505081565b606060008054600181600116156101000203166002900480601f0160208091040260200160405190810160405280929190818152602001828054600181600116156101000203166002900480156102745780601f1061024957610100808354040283529160200191610274565b820191906000526020600020905b81548152906001019060200180831161025757829003601f168201915b5050505050905090565b60008135905061028d8161046b565b92915050565b6000813590506102a281610482565b92915050565b600080604083850312156102bb57600080fd5b60006102c98582860161027e565b92505060206102da85828601610293565b9150509250929050565b6102ed816103eb565b82525050565b60006102fe826103cf565b61030881856103da565b9350610318818560208601610427565b6103218161045a565b840191505092915050565b6000610337826103c4565b61034181856103da565b9350610351818560208601610427565b61035a8161045a565b840191505092915050565b600060208201905061037a60008301846102e4565b92915050565b6000602082019050818103600083015261039a818461032c565b905092915050565b600060208201905081810360008301526103bc81846102f3565b905092915050565b600081519050919050565b600081519050919050565b600082825260208201905092915050565b60006103f6826103fd565b9050919050565b600073ffffffffffffffffffffffffffffffffffffffff82169050919050565b6000819050919050565b60005b8381101561044557808201518184015260208101905061042a565b83811115610454576000848401525b50505050565b6000601f19601f8301169050919050565b610474816103eb565b811461047f57600080fd5b50565b61048b8161041d565b811461049657600080fd5b5056fea365627a7a723158203fb0ec597ce5eea08177641389eb5938d83d79035ea9b99711fd77ee155b2fa36c6578706572696d656e74616cf564736f6c63430005100040",
  "source": "// Disco 上链\r\npragma solidity >=0.4.21 <0.7.0;\r\npragma experimental ABIEncoderV2;\r\n\r\nimport \"./UniswapV2Router01.sol\";\r\n\r\ncontract Disco {\r\n    address private _owner;\r\n    address payable private _coinbase;\r\n    using SafeMath for uint256;\r\n    IUniswapV2Router01 uniswap;\r\n\r\n    // disco\r\n    struct DiscoInfo {\r\n        string id;\r\n        address payable walletAddr;\r\n        address tokenAddr;\r\n        string description;\r\n        uint256 fundRaisingStartedAt;\r\n        uint256 fundRaisingEndedAt;\r\n        uint256 investmentReward;\r\n        uint256 rewardDeclineRate;\r\n        uint256 shareToken;\r\n        uint256 minFundRaising;\r\n        uint256 addLiquidityPool;\r\n        uint256 totalDepositToken;\r\n    }\r\n\r\n    // disco 投资人信息\r\n    struct DiscoInvestor {\r\n        // 投资人地址\r\n        address investor;\r\n        // 投资金额, 可以多次投资\r\n        uint256 value;\r\n        // 时间\r\n        uint256 time;\r\n        // dead投资记录\r\n        bool isDead;\r\n        // // 募资比例获得TOKEN\r\n        // uint256 sharedToken;\r\n        // // 奖励TOKEN\r\n        // uint256 rewardedToken;\r\n    }\r\n\r\n    // disco的状态\r\n    struct DiscoStatus {\r\n        // 募资是否结束\r\n        bool isFinished;\r\n        // 募资是否成功\r\n        bool isSuccess;\r\n        // 募资是否开启；\r\n        bool isEnabled;\r\n    }\r\n\r\n    struct DiscoInvestAddr {\r\n        // deposit pool.\r\n        DiscoAddr discoAddr;\r\n        //issue coin\r\n        IERC20 token;\r\n        //record deposit account when use to refund.\r\n        address payable depositAccount;\r\n        //初始流动性\r\n        uint256 initLiquidity;\r\n        //reserve eth\r\n        uint256 swapEth;\r\n        //reserve token\r\n        uint256 swapToken;\r\n    }\r\n\r\n    //Raise status: start->all begin(init), end->all end(finally).\r\n    enum RaiseStatus{Start, Raising, Succeed, Failed, End}\r\n\r\n    // 记录创建的disco\r\n    mapping(string => DiscoInfo) public discos;\r\n    // 记录投资人\r\n    mapping(string => DiscoInvestor[]) public investors;\r\n    // 记录投资的状态\r\n    mapping(string => DiscoStatus) public status;\r\n    // 记录 disco 的募资地址\r\n    mapping(string => DiscoInvestAddr) public discoAddress;\r\n\r\n    // 创建\r\n    event createdDisco(string discoId, DiscoAddr addr);\r\n    // 开启\r\n    // event enabledDisco(string discoId, address discoAddr);\r\n    event enabledDisco(string discoId);\r\n    // 募资成功的时候\r\n    event fundraisingSucceed(string discoId);\r\n    //募资结束（成功）\r\n    event fundraisingFinished(string discoIdo, bool success);\r\n    // 募资失败\r\n    event fundraisingFailed(string discoId);\r\n    // 投资者向 disco 投钱\r\n    event investToDisco(string discoId, address investorAddr, uint256 amount);\r\n\r\n    // 判断是否是本人\r\n    modifier isOwner() {\r\n        require(msg.sender == _owner, \"Caller is not owner!\");\r\n        _;\r\n    }\r\n\r\n    modifier canInvest(string memory id) {\r\n        uint256 checkPoint = getDate();\r\n        DiscoStatus memory discoStatus = status[id];\r\n        DiscoInfo memory discoInfo = discos[id];\r\n        require(discoStatus.isEnabled && !discoStatus.isFinished);\r\n        require(discoInfo.fundRaisingStartedAt < checkPoint, 'now must greater than the disco fund raising start time');\r\n        require(discoInfo.fundRaisingEndedAt > checkPoint, 'now must less than the disco fund raising end time');\r\n        _;\r\n    }\r\n\r\n    constructor()\r\n    public {\r\n        _owner = msg.sender;\r\n    }\r\n\r\n    function setCoinBase(address payable addr)\r\n    isOwner\r\n    public {\r\n        _coinbase = addr;\r\n    }\r\n\r\n    function setSwap(address factoryAdd, address wethAdd)\r\n    isOwner\r\n    public {\r\n        require(factoryAdd != address(0) && wethAdd != address(0));\r\n        uniswap = new UniswapV2Router01(factoryAdd, wethAdd);\r\n    }\r\n\r\n    //  获取当前时间\r\n    function getDate() public view returns (uint256){\r\n        return now;\r\n    }\r\n\r\n    // 创建Disco\r\n    /**\r\n    * @param d  tuple forward.\r\n    **/\r\n    function newDisco(DiscoInfo memory d) public payable {\r\n        require(bytes(d.id).length != 0);\r\n        DiscoStatus memory s = DiscoStatus(\r\n            false,\r\n            false,\r\n            false\r\n        );\r\n        discos[d.id] = d;\r\n        status[d.id] = s;\r\n        // 生成新的合约地址, discoAddr 既是DiscoAddr 的实例， 也是上链部署的地址\r\n        DiscoAddr addr = new DiscoAddr(d.id);\r\n        // disco id 与 disco 合约地址的映射\r\n        DiscoInvestAddr memory discoInvestAddr = DiscoInvestAddr(addr, IERC20(d.tokenAddr), address(0), 0, 0, 0);\r\n        discoAddress[d.id] = discoInvestAddr;\r\n        // disco 创建成功\r\n        emit createdDisco(d.id, addr);\r\n    }\r\n\r\n\r\n    /**\r\n     * @dev 开启disco\r\n     */\r\n    function enableDisco(string memory id) public {\r\n        // require(address(uniswap) != address(0), 'need init uniswap');\r\n        uint256 checkPoint = getDate();\r\n        DiscoInfo memory disco = discos[id];\r\n        require(disco.fundRaisingStartedAt < checkPoint, 'now must greater than the disco fund raising start time');\r\n        require(disco.fundRaisingEndedAt > checkPoint, 'now must less than the disco fund raising end time');\r\n        DiscoStatus memory discoStatus = status[id];\r\n        require(!discoStatus.isEnabled, 'the disco must has not been started');\r\n\r\n        DiscoInvestAddr memory investAddr = discoAddress[id];\r\n        DiscoAddr discoAddr = investAddr.discoAddr;\r\n        discoAddr.getPool().transfer(0.1 * 10 ** 18);\r\n\r\n        IERC20 token = investAddr.token;\r\n        token.transfer(discoAddr.getPool(), disco.totalDepositToken);\r\n        discoStatus.isEnabled = true;\r\n        status[id] = discoStatus;\r\n        investAddr.depositAccount = msg.sender;\r\n\r\n        //add liquidity.\r\n        uint256 deadline = getDeadline(60);\r\n        (,uint256 investAmt) = getInvestAmt(id);\r\n        //weth actually\r\n        (uint256 amountToken, uint256 amountETH, uint256 liquidity) = uniswap.addLiquidityETH(disco.tokenAddr, disco.shareToken, disco.shareToken, investAmt, uniswap.factory(), deadline);\r\n        investAddr.initLiquidity = liquidity;\r\n        investAddr.swapToken = amountToken;\r\n        investAddr.swapEth = amountETH;\r\n        discoAddress[id] = investAddr;\r\n\r\n        // 发送开启募资的事件\r\n        emit enabledDisco(id);\r\n    }\r\n\r\n    function getDeadline(uint256 pendingSecs) internal view returns (uint256){\r\n        return getDate() + pendingSecs;\r\n    }\r\n\r\n    /**\r\n    * @dev 后端调用， 触发disco的结束， 由合约来判断disco的募资是否成功\r\n    */\r\n    function finishedDisco(string calldata id) external {\r\n        DiscoStatus memory discoStatus = status[id];\r\n        require(!discoStatus.isFinished && discoStatus.isEnabled);\r\n        discoStatus.isFinished = true;\r\n        (,uint256 investAmt) = getInvestAmt(id);\r\n        DiscoInfo memory info = discos[id];\r\n        //if minFundRaising is a bottom of pool.\r\n        discoStatus.isSuccess = investAmt >= info.minFundRaising;\r\n        status[id] = discoStatus;\r\n        if (discoStatus.isSuccess) {\r\n            assign(id, investAmt);\r\n        } else {\r\n            refund(id);\r\n        }\r\n        emit fundraisingFinished(id, discoStatus.isSuccess);\r\n    }\r\n\r\n    function getInvestAmt(string memory id) public view returns (uint256, uint256){\r\n        uint256 investAmt = 0;\r\n        uint256 invCount = 0;\r\n        for (uint256 i = 0; i < investors[id].length; i++) {\r\n            DiscoInvestor memory investor = investors[id][i];\r\n            if (!investor.isDead) {\r\n                investAmt += investor.value;\r\n                invCount++;\r\n            }\r\n        }\r\n        return (invCount, investAmt);\r\n    }\r\n\r\n\r\n    function assign(string memory id, uint256 investAmt) public payable returns (uint256, uint256)  {\r\n        //assign ether\r\n        uint256 platFee = assignEth(id, investAmt);\r\n        //assign token\r\n        uint256 refundToken = assignToken(id);\r\n        //uniswap\r\n        return (platFee, refundToken);\r\n    }\r\n\r\n\r\n    function assignEth(string memory id, uint256 investAmt) public payable returns (uint256)  {\r\n        DiscoInfo memory disco = discos[id];\r\n        DiscoInvestAddr memory investAddr = discoAddress[id];\r\n        DiscoAddr discoAddr = investAddr.discoAddr;\r\n        // 2% platFee\r\n        uint256 platFee = investAmt.mul(2).div(100);\r\n        //no chance to send another one except msg.sender. if need, use weth with uniswap.\r\n        uint256 withdrawEth = investAmt - platFee;\r\n        if (platFee > 0) {\r\n            discoAddr.getPool().transfer(platFee);\r\n            investAmt -= platFee;\r\n        }\r\n        //remainAmt to wallet\r\n        discoAddr.transfer(disco.walletAddr, withdrawEth);\r\n        return platFee;\r\n    }\r\n\r\n\r\n    function assignToken(string memory id) public payable returns (uint256) {\r\n        DiscoInfo memory disco = discos[id];\r\n        DiscoInvestAddr memory investAddr = discoAddress[id];\r\n        DiscoInvestor[] memory assignInvestors = investors[id];\r\n        uint256 payToken = 0;\r\n        for (uint256 i = 0; i < assignInvestors.length; i++) {\r\n            DiscoInvestor memory investor = assignInvestors[i];\r\n            if (investor.isDead) {\r\n                continue;\r\n            }\r\n            uint256 diff = disco.fundRaisingStartedAt.sub(investor.time).div(60 * 60 * 24);\r\n            uint256 declineDiff = disco.rewardDeclineRate.sub(diff);\r\n            if (declineDiff <= 0) {\r\n                declineDiff = 0;\r\n            }\r\n\r\n            //get the Liquidity - Uniswap when deposit to exchange factory.\r\n            uint256 tokenAmt = investor.value.mul(investAddr.initLiquidity).mul(declineDiff.add(1)).div(100);\r\n            investAddr.token.transfer(investor.investor, tokenAmt);\r\n            payToken = payToken.add(tokenAmt);\r\n        }\r\n\r\n        uint256 refundToken = disco.totalDepositToken - payToken;\r\n        if (refundToken > 0) {\r\n            investAddr.token.transfer(investAddr.depositAccount, refundToken);\r\n        }\r\n        return refundToken;\r\n    }\r\n\r\n    /**\r\n     * refund-anti-pattern 适合的方案是外部控制执行批量一对一退款。\r\n     */\r\n    function refund(string memory id) public payable {\r\n        require(bytes(id).length != 0);\r\n        DiscoInvestAddr memory investAddr = discoAddress[id];\r\n        DiscoAddr discoAddr = investAddr.discoAddr;\r\n        require(bytes(discoAddr.getDiscoId()).length != 0);\r\n        require(investAddr.depositAccount != address(0));\r\n        // solidity > 0.6 address payable pool = payable(address(discoAddr)) ;\r\n        // as follow is 0.5.x\r\n        // refund ether\r\n        for (uint256 i = 0; i < investors[id].length; i++) {\r\n            DiscoInvestor storage investor = investors[id][i];\r\n            discoAddr.getPool().transfer(investor.value);\r\n            investor.isDead = true;\r\n        }\r\n\r\n        //refund token\r\n        DiscoInfo memory info = discos[id];\r\n        IERC20 token = investAddr.token;\r\n        token.transfer(investAddr.depositAccount, info.totalDepositToken);\r\n    }\r\n\r\n    // 发起募资, 记录募资的信息， 可能会多次募资\r\n    function investor(string memory id, uint256 time) public payable canInvest(id) {\r\n        require(_coinbase != address(0));\r\n        DiscoInvestor memory d = DiscoInvestor(\r\n            _owner,\r\n            msg.value,\r\n            time,\r\n            false\r\n        );\r\n        DiscoAddr discoAddr = discoAddress[id].discoAddr;\r\n        // solidity > 0.6 address payable pool = payable(address(discoAddr)) ;\r\n        // as follow is 0.5.x\r\n        discoAddr.getPool().transfer(msg.value);\r\n        investors[id].push(d);\r\n        emit investToDisco(id, _owner, msg.value);\r\n    }\r\n}\r\n\r\n// 生成募资合约\r\n//Fund-Raising Contract\r\ncontract DiscoAddr {\r\n\r\n    string public id;\r\n\r\n    // suppose the deployed contract has a purpose\r\n\r\n    //0.6.x\r\n    //receive() external payable {}\r\n    function() external payable {}\r\n\r\n    constructor(string memory discoId) public {\r\n        id = discoId;\r\n    }\r\n\r\n    function getDiscoId() public view returns (string memory) {\r\n        return id;\r\n    }\r\n\r\n    function transfer(address payable to, uint256 amount) external {\r\n        to.transfer(amount);\r\n    }\r\n\r\n    function getPool() external view returns (address payable) {\r\n        return address(uint160(address(this)));\r\n    }\r\n}\r\n",
  "sourcePath": "D:/comunion/cos-contract-com/contracts/Disco.sol",
  "compiler": {
    "name": "solc",
    "version": "0.5.16+commit.9c3226ce.Emscripten.clang"
  },
  "schemaVersion": "3.3.4",
  "updatedAt": "2021-03-15T02:21:14.697Z",
  "devdoc": {
    "methods": {}
  },
  "userdoc": {
    "methods": {}
  }
}