{
  "contractName": "DiscoAddr",
  "abi": [
    {
      "inputs": [
        {
          "internalType": "string",
          "name": "discoId",
          "type": "string"
        }
      ],
      "payable": false,
      "stateMutability": "nonpayable",
      "type": "constructor"
    },
    {
      "payable": true,
      "stateMutability": "payable",
      "type": "fallback"
    },
    {
      "constant": true,
      "inputs": [],
      "name": "id",
      "outputs": [
        {
          "internalType": "string",
          "name": "",
          "type": "string"
        }
      ],
      "payable": false,
      "stateMutability": "view",
      "type": "function"
    },
    {
      "constant": true,
      "inputs": [],
      "name": "getDiscoId",
      "outputs": [
        {
          "internalType": "string",
          "name": "",
          "type": "string"
        }
      ],
      "payable": false,
      "stateMutability": "view",
      "type": "function"
    },
    {
      "constant": false,
      "inputs": [
        {
          "internalType": "address payable",
          "name": "to",
          "type": "address"
        },
        {
          "internalType": "uint256",
          "name": "amount",
          "type": "uint256"
        }
      ],
      "name": "ethTransfer",
      "outputs": [],
      "payable": true,
      "stateMutability": "payable",
      "type": "function"
    },
    {
      "constant": false,
      "inputs": [
        {
          "internalType": "contract IERC20",
          "name": "token",
          "type": "address"
        },
        {
          "internalType": "address",
          "name": "to",
          "type": "address"
        },
        {
          "internalType": "uint256",
          "name": "amount",
          "type": "uint256"
        }
      ],
      "name": "approve",
      "outputs": [],
      "payable": false,
      "stateMutability": "nonpayable",
      "type": "function"
    },
    {
      "constant": false,
      "inputs": [
        {
          "internalType": "contract IERC20",
          "name": "token",
          "type": "address"
        },
        {
          "internalType": "address",
          "name": "to",
          "type": "address"
        },
        {
          "internalType": "uint256",
          "name": "amount",
          "type": "uint256"
        }
      ],
      "name": "transfer",
      "outputs": [],
      "payable": false,
      "stateMutability": "nonpayable",
      "type": "function"
    },
    {
      "constant": true,
      "inputs": [],
      "name": "getPool",
      "outputs": [
        {
          "internalType": "address payable",
          "name": "",
          "type": "address"
        }
      ],
      "payable": false,
      "stateMutability": "view",
      "type": "function"
    }
  ],
  "bytecode": "0x608060405234801561001057600080fd5b5060405161077c38038061077c83398101604081905261002f91610138565b8051610042906000906020840190610049565b50506101f1565b828054600181600116156101000203166002900490600052602060002090601f016020900481019282601f1061008a57805160ff19168380011785556100b7565b828001600101855582156100b7579182015b828111156100b757825182559160200191906001019061009c565b506100c39291506100c7565b5090565b6100e191905b808211156100c357600081556001016100cd565b90565b600082601f8301126100f557600080fd5b81516101086101038261019a565b610174565b9150808252602083016020830185838301111561012457600080fd5b61012f8382846101c1565b50505092915050565b60006020828403121561014a57600080fd5b81516001600160401b0381111561016057600080fd5b61016c848285016100e4565b949350505050565b6040518181016001600160401b038111828210171561019257600080fd5b604052919050565b60006001600160401b038211156101b057600080fd5b506020601f91909101601f19160190565b60005b838110156101dc5781810151838201526020016101c4565b838111156101eb576000848401525b50505050565b61057c806102006000396000f3fe6080604052600436106100555760003560e01c8063026b1d5f146100575780634f95a04b14610082578063af640d0f14610095578063beabacc8146100b7578063e1f21c67146100d7578063fb1e6a62146100f7575b005b34801561006357600080fd5b5061006c61010c565b6040516100799190610455565b60405180910390f35b610055610090366004610358565b610110565b3480156100a157600080fd5b506100aa61014b565b6040516100799190610485565b3480156100c357600080fd5b506100556100d23660046103b8565b6101d9565b3480156100e357600080fd5b506100556100f23660046103b8565b610262565b34801561010357600080fd5b506100aa610290565b3090565b6040516001600160a01b0383169082156108fc029083906000818181858888f19350505050158015610146573d6000803e3d6000fd5b505050565b6000805460408051602060026001851615610100026000190190941693909304601f810184900484028201840190925281815292918301828280156101d15780601f106101a6576101008083540402835291602001916101d1565b820191906000526020600020905b8154815290600101906020018083116101b457829003601f168201915b505050505081565b60405163a9059cbb60e01b81526001600160a01b0384169063a9059cbb906102079085908590600401610463565b602060405180830381600087803b15801561022157600080fd5b505af1158015610235573d6000803e3d6000fd5b505050506040513d601f19601f820116820180604052506102599190810190610392565b61014657600080fd5b60405163095ea7b360e01b81526001600160a01b0384169063095ea7b3906102079085908590600401610463565b60008054604080516020601f600260001961010060018816150201909516949094049384018190048102820181019092528281526060939092909183018282801561031c5780601f106102f15761010080835404028352916020019161031c565b820191906000526020600020905b8154815290600101906020018083116102ff57829003601f168201915b5050505050905090565b803561033181610507565b92915050565b80516103318161051e565b803561033181610527565b803561033181610530565b6000806040838503121561036b57600080fd5b60006103778585610326565b92505060206103888582860161034d565b9150509250929050565b6000602082840312156103a457600080fd5b60006103b08484610337565b949350505050565b6000806000606084860312156103cd57600080fd5b60006103d98686610342565b93505060206103ea86828701610326565b92505060406103fb8682870161034d565b9150509250925092565b61040e816104a3565b82525050565b600061041f82610496565b610429818561049a565b93506104398185602086016104cd565b610442816104fd565b9093019392505050565b61040e816104ca565b602081016103318284610405565b604081016104718285610405565b61047e602083018461044c565b9392505050565b6020808252810161047e8184610414565b5190565b90815260200190565b6000610331826104be565b151590565b6000610331826104a3565b6001600160a01b031690565b90565b60005b838110156104e85781810151838201526020016104d0565b838111156104f7576000848401525b50505050565b601f01601f191690565b610510816104a3565b811461051b57600080fd5b50565b610510816104ae565b610510816104b3565b610510816104ca56fea365627a7a72315820ac1b767f999f5af5402cb7ac1f1341e335c11bbb0e1a6a3459abce97b0831db56c6578706572696d656e74616cf564736f6c63430005110040",
  "source": "// Disco 上链\r\npragma solidity ^0.5.17;\r\n\r\nimport \"./libraries/SafeMath.sol\";\r\nimport \"./interfaces/IUniswapV2Router01.sol\";\r\nimport \"./interfaces/IErc20.sol\";\r\npragma experimental ABIEncoderV2;\r\n\r\ncontract Disco {\r\n    address private _owner;\r\n    address payable private _coinbase;\r\n    using SafeMath for uint256;\r\n    IUniswapV2Router01 uniswap;\r\n    uint256 preFee;\r\n\r\n    // disco\r\n    struct DiscoInfo {\r\n        string id;\r\n        address payable walletAddr;\r\n        address tokenAddr;\r\n        string description;\r\n        uint256 fundRaisingStartedAt;\r\n        uint256 fundRaisingEndedAt;\r\n        uint256 investmentReward;\r\n        uint256 rewardDeclineRate;\r\n        uint256 shareToken;\r\n        uint256 minFundRaising;\r\n        uint256 addLiquidityPool;\r\n        uint256 totalDepositToken;\r\n    }\r\n\r\n    // disco 投资人信息\r\n    struct DiscoInvestor {\r\n        // 投资人地址\r\n        address investor;\r\n        // 投资金额, 可以多次投资\r\n        uint256 value;\r\n        // 时间\r\n        uint256 time;\r\n        // dead投资记录\r\n        bool isDead;\r\n        // // 募资比例获得TOKEN\r\n        // uint256 sharedToken;\r\n        // // 奖励TOKEN\r\n        // uint256 rewardedToken;\r\n    }\r\n\r\n    // disco的状态\r\n    struct DiscoStatus {\r\n        // 募资是否结束\r\n        bool isFinished;\r\n        // 募资是否成功\r\n        bool isSuccess;\r\n        // 募资是否开启；\r\n        bool isEnabled;\r\n    }\r\n\r\n    struct DiscoInvestAddr {\r\n        // deposit pool.\r\n        DiscoAddr discoAddr;\r\n        //issue coin\r\n        IERC20 token;\r\n        //record deposit account when use to refund.\r\n        address payable depositAccount;\r\n        //初始流动性\r\n        uint256 initLiquidity;\r\n        //reserve eth\r\n        uint256 swapEth;\r\n        //reserve token\r\n        uint256 swapToken;\r\n    }\r\n\r\n    //Raise status: start->all begin(init), end->all end(finally).\r\n    enum RaiseStatus{Start, Raising, Succeed, Failed, End}\r\n\r\n    // 记录创建的disco\r\n    mapping(string => DiscoInfo) public discos;\r\n    // 记录投资人\r\n    mapping(string => DiscoInvestor[]) public investors;\r\n    // 记录投资的状态\r\n    mapping(string => DiscoStatus) public status;\r\n    // 记录 disco 的募资地址\r\n    mapping(string => DiscoInvestAddr) public discoAddress;\r\n\r\n    // 创建\r\n    event createdDisco(string discoId, DiscoAddr addr);\r\n    // 开启\r\n    // event enabledDisco(string discoId, address discoAddr);\r\n    event enabledDisco(string discoId);\r\n    // 募资成功的时候\r\n    event fundraisingSucceed(string discoId);\r\n    //募资结束（成功）\r\n    event fundraisingFinished(string discoIdo, bool success);\r\n    // 募资失败\r\n    event fundraisingFailed(string discoId);\r\n    // 投资者向 disco 投钱\r\n    event investToDisco(string discoId, address investorAddr, uint256 amount);\r\n\r\n    // 判断是否是本人\r\n    modifier isOwner() {\r\n        require(msg.sender == _owner, \"Caller is not owner!\");\r\n        _;\r\n    }\r\n\r\n    modifier canInvest(string memory id) {\r\n        uint256 checkPoint = getDate();\r\n        DiscoStatus memory discoStatus = status[id];\r\n        DiscoInfo memory discoInfo = discos[id];\r\n        require(discoStatus.isEnabled && !discoStatus.isFinished);\r\n        require(discoInfo.fundRaisingStartedAt < checkPoint, 'now must greater than the disco fund raising start time');\r\n        require(discoInfo.fundRaisingEndedAt > checkPoint, 'now must less than the disco fund raising end time');\r\n        _;\r\n    }\r\n\r\n    constructor()\r\n    public {\r\n        _owner = msg.sender;\r\n    }\r\n\r\n    function setCoinBase(address payable addr)\r\n    isOwner\r\n    public {\r\n        _coinbase = addr;\r\n    }\r\n\r\n    function setSwap(address swapAddr)\r\n    isOwner\r\n    public {\r\n        uniswap = IUniswapV2Router01(swapAddr);\r\n    }\r\n\r\n    function setPreFee(uint256 pf)\r\n    isOwner\r\n    public {\r\n        preFee = pf;\r\n    }\r\n\r\n    function getPreFee() internal\r\n    returns (uint256){\r\n        if (preFee == 0) {\r\n            preFee = 0.1 * 10 ** 18;\r\n        }\r\n        return preFee;\r\n    }\r\n\r\n    //  获取当前时间\r\n    function getDate() public view returns (uint256){\r\n        return now;\r\n    }\r\n\r\n    // 创建Disco\r\n    /**\r\n    * @param d  tuple forward.\r\n    **/\r\n    function newDisco(DiscoInfo memory d) public payable {\r\n        require(bytes(d.id).length != 0);\r\n        DiscoStatus memory s = DiscoStatus(\r\n            false,\r\n            false,\r\n            false\r\n        );\r\n        discos[d.id] = d;\r\n        status[d.id] = s;\r\n        // 生成新的合约地址, discoAddr 既是DiscoAddr 的实例， 也是上链部署的地址\r\n        DiscoAddr addr = new DiscoAddr(d.id);\r\n        // disco id 与 disco 合约地址的映射\r\n        DiscoInvestAddr memory discoInvestAddr = DiscoInvestAddr(addr, IERC20(d.tokenAddr), address(0), 0, 0, 0);\r\n        discoAddress[d.id] = discoInvestAddr;\r\n        // disco 创建成功\r\n        emit createdDisco(d.id, addr);\r\n    }\r\n\r\n\r\n    /**\r\n     * @dev 开启disco\r\n     */\r\n    function enableDisco(string memory id) public payable {\r\n        // require(address(uniswap) != address(0), 'need init uniswap');\r\n        uint256 fee = getPreFee();\r\n        require(msg.value >= fee, \"fee not enough!\");\r\n        uint256 checkPoint = getDate();\r\n        DiscoInfo memory disco = discos[id];\r\n        // require(disco.fundRaisingStartedAt < checkPoint, 'now must greater than the disco fund raising start time');\r\n        // require(disco.fundRaisingEndedAt > checkPoint, 'now must less than the disco fund raising end time');\r\n        DiscoStatus memory discoStatus = status[id];\r\n        require(!discoStatus.isEnabled, 'the disco must has not been started');\r\n\r\n        DiscoInvestAddr memory investAddr = discoAddress[id];\r\n        DiscoAddr discoAddr = investAddr.discoAddr;\r\n        discoAddr.getPool().transfer(fee);\r\n\r\n        IERC20 token = investAddr.token;\r\n        token.transferFrom(msg.sender, discoAddr.getPool(), disco.totalDepositToken);\r\n        discoStatus.isEnabled = true;\r\n        status[id] = discoStatus;\r\n        investAddr.depositAccount = msg.sender;\r\n\r\n        // 发送开启募资的事件\r\n        emit enabledDisco(id);\r\n    }\r\n\r\n    function getDeadline(uint256 pendingSecs) internal view returns (uint256){\r\n        return getDate() + pendingSecs;\r\n    }\r\n\r\n    /**\r\n    * @dev 后端调用， 触发disco的结束， 由合约来判断disco的募资是否成功\r\n    */\r\n    function finishedDisco(string calldata id) external {\r\n        DiscoStatus memory discoStatus = status[id];\r\n        require(!discoStatus.isFinished && discoStatus.isEnabled);\r\n        discoStatus.isFinished = true;\r\n        (,uint256 investAmt) = getInvestAmt(id);\r\n        DiscoInfo memory info = discos[id];\r\n        //if minFundRaising is a bottom of pool.\r\n        discoStatus.isSuccess = investAmt >= info.minFundRaising;\r\n        status[id] = discoStatus;\r\n        if (discoStatus.isSuccess) {\r\n            assign(id, investAmt);\r\n        } else {\r\n            refund(id);\r\n        }\r\n        emit fundraisingFinished(id, discoStatus.isSuccess);\r\n    }\r\n\r\n    function getInvestAmt(string memory id) public view returns (uint256, uint256){\r\n        uint256 investAmt = 0;\r\n        uint256 invCount = 0;\r\n        for (uint256 i = 0; i < investors[id].length; i++) {\r\n            DiscoInvestor memory investor = investors[id][i];\r\n            if (!investor.isDead) {\r\n                investAmt += investor.value;\r\n                invCount++;\r\n            }\r\n        }\r\n        return (invCount, investAmt);\r\n    }\r\n\r\n\r\n    function assign(string memory id, uint256 investAmt) public payable returns (uint256, uint256)  {\r\n        //uniswap add liquidity.\r\n        assignLiquidity(id);\r\n        //assign ether\r\n        uint256 platFee = assignEth(id, investAmt);\r\n        //assign token\r\n        uint256 refundToken = assignToken(id);\r\n        return (platFee, refundToken);\r\n    }\r\n\r\n\r\n    function assignEth(string memory id, uint256 investAmt) public payable returns (uint256)  {\r\n        DiscoInfo memory disco = discos[id];\r\n        DiscoInvestAddr memory investAddr = discoAddress[id];\r\n        DiscoAddr discoAddr = investAddr.discoAddr;\r\n        // 2% platFee\r\n        uint256 platFee = investAmt.mul(2).div(100);\r\n        //no chance to send another one except msg.sender. if need, use weth with uniswap.\r\n        if (platFee > 0) {\r\n            //the account for receiving platFee has not been confirmed.\r\n            discoAddr.ethTransfer(address(0), platFee);\r\n            investAmt -= platFee;\r\n        }\r\n        //remainAmt to wallet\r\n        uint256 withdrawEth = investAmt - platFee - investAddr.swapEth;\r\n        discoAddr.ethTransfer(disco.walletAddr, withdrawEth);\r\n        return platFee;\r\n    }\r\n\r\n    function assignToken(string memory id) public payable returns (uint256) {\r\n        DiscoInfo memory disco = discos[id];\r\n        DiscoInvestAddr memory investAddr = discoAddress[id];\r\n        DiscoInvestor[] memory assignInvestors = investors[id];\r\n        uint256 payToken = 0;\r\n        for (uint256 i = 0; i < assignInvestors.length; i++) {\r\n            DiscoInvestor memory investor = assignInvestors[i];\r\n            if (investor.isDead) {\r\n                continue;\r\n            }\r\n            uint256 diff = disco.fundRaisingStartedAt.sub(investor.time).div(60 * 60 * 24);\r\n            uint256 declineDiff = disco.rewardDeclineRate.sub(diff);\r\n            if (declineDiff <= 0) {\r\n                declineDiff = 0;\r\n            }\r\n\r\n            //get the Liquidity - Uniswap when deposit to exchange factory.\r\n            uint256 tokenAmt = investor.value.mul(investAddr.initLiquidity).mul(declineDiff.add(1)).div(100);\r\n            investAddr.discoAddr.transfer(investAddr.token, investor.investor, tokenAmt);\r\n            payToken = payToken.add(tokenAmt);\r\n        }\r\n\r\n        //return the money to the original path(depositAccount).\r\n        uint256 refundToken = disco.totalDepositToken - payToken;\r\n        if (refundToken > 0) {\r\n            investAddr.discoAddr.transfer(investAddr.token, investAddr.depositAccount, refundToken);\r\n        }\r\n        return refundToken;\r\n    }\r\n\r\n    function assignLiquidity(string memory id) public payable {\r\n        DiscoInfo memory disco = discos[id];\r\n        DiscoInvestAddr memory investAddr = discoAddress[id];\r\n        DiscoAddr discoAddr = investAddr.discoAddr;\r\n        uint256 deadline = getDeadline(60);\r\n        (,uint256 investAmt) = getInvestAmt(id);\r\n\r\n        //token transfer\r\n        discoAddr.transfer(investAddr.token, address(this), disco.shareToken);\r\n        investAddr.token.approve(address(uniswap), disco.shareToken);\r\n\r\n        //eth transfer\r\n        uint256 desiredEth = investAmt.mul(disco.addLiquidityPool).div(100);\r\n        discoAddr.ethTransfer(address(uint160(address(uniswap))), desiredEth);\r\n\r\n        (uint256 amountToken, uint256 amountETH, uint256 liquidity) = uniswap.addLiquidityETH.value(desiredEth)(disco.tokenAddr, disco.shareToken, 0, 0, address(investAddr.discoAddr), deadline);\r\n        investAddr.initLiquidity = liquidity;\r\n        investAddr.swapToken = amountToken;\r\n        investAddr.swapEth = amountETH;\r\n        discoAddress[id] = investAddr;\r\n    }\r\n\r\n    function addLiquidity(string calldata id, uint256 eth, uint256 token)\r\n    external payable returns (uint256, uint256, uint256)  {\r\n        require(address(uniswap) != address(0), 'Uniswap not initialized.');\r\n        DiscoInvestAddr memory investAddr = discoAddress[id];\r\n        require(investAddr.token.transferFrom(msg.sender, address(this), token));\r\n        DiscoInfo memory disco = discos[id];\r\n        investAddr.token.approve(address(uniswap), token);\r\n        uint256 deadline = getDeadline(120);\r\n        (uint256 amountToken, uint256 amountETH, uint256 liquidity) = uniswap.addLiquidityETH.value(eth)(disco.tokenAddr, token, 0, 0, msg.sender, deadline);\r\n        return (amountToken, amountETH, liquidity);\r\n    }\r\n\r\n    function removeLiquidity(string calldata id, uint256 token)\r\n    external payable returns (uint256, uint256)  {\r\n        require(address(uniswap) != address(0), 'Uniswap not initialized.');\r\n        DiscoInvestAddr memory investAddr = discoAddress[id];\r\n        investAddr.token.approve(address(uniswap), token);\r\n        DiscoInfo memory disco = discos[id];\r\n        uint256 deadline = getDeadline(120);\r\n        (uint256 amountToken, uint256 amountETH) = uniswap.removeLiquidityETH(disco.tokenAddr, token, 0, 0, msg.sender, deadline);\r\n        return (amountToken, amountETH);\r\n    }\r\n\r\n    /**\r\n     * refund-anti-pattern 适合的方案是外部控制执行批量一对一退款。\r\n     */\r\n    function refund(string memory id) public payable {\r\n        require(bytes(id).length != 0);\r\n        DiscoInvestAddr memory investAddr = discoAddress[id];\r\n        DiscoAddr discoAddr = investAddr.discoAddr;\r\n        require(bytes(discoAddr.getDiscoId()).length != 0);\r\n        require(investAddr.depositAccount != address(0));\r\n        // solidity > 0.6 address payable pool = payable(address(discoAddr)) ;\r\n        // as follow is 0.5.x\r\n        // refund ether\r\n        for (uint256 i = 0; i < investors[id].length; i++) {\r\n            DiscoInvestor storage investor = investors[id][i];\r\n            discoAddr.getPool().transfer(investor.value);\r\n            investor.isDead = true;\r\n        }\r\n\r\n        //refund token\r\n        DiscoInfo memory info = discos[id];\r\n        IERC20 token = investAddr.token;\r\n        token.transfer(investAddr.depositAccount, info.totalDepositToken);\r\n    }\r\n\r\n    // 发起募资, 记录募资的信息， 可能会多次募资\r\n    function investor(string memory id, uint256 time) public payable canInvest(id) {\r\n        require(_coinbase != address(0));\r\n        DiscoInvestor memory d = DiscoInvestor(\r\n            _owner,\r\n            msg.value,\r\n            time,\r\n            false\r\n        );\r\n        DiscoAddr discoAddr = discoAddress[id].discoAddr;\r\n        // solidity > 0.6 address payable pool = payable(address(discoAddr)) ;\r\n        // as follow is 0.5.x\r\n        discoAddr.getPool().transfer(msg.value);\r\n        investors[id].push(d);\r\n        emit investToDisco(id, _owner, msg.value);\r\n    }\r\n}\r\n\r\n// 生成募资合约\r\n//Fund-Raising Contract\r\ncontract DiscoAddr {\r\n\r\n    string public id;\r\n\r\n    // suppose the deployed contract has a purpose\r\n\r\n    //0.6.x\r\n    //receive() external payable {}\r\n    function() external payable {}\r\n\r\n    constructor(string memory discoId) public {\r\n        id = discoId;\r\n    }\r\n\r\n    function getDiscoId() public view returns (string memory) {\r\n        return id;\r\n    }\r\n\r\n    function ethTransfer(address payable to, uint256 amount) external payable {\r\n        to.transfer(amount);\r\n    }\r\n\r\n    function approve(IERC20 token, address to, uint256 amount) external {\r\n        require(token.approve(to, amount));\r\n    }\r\n\r\n    function transfer(IERC20 token, address to, uint256 amount) external {\r\n        require(token.transfer(to, amount));\r\n    }\r\n\r\n    function getPool() public view returns (address payable) {\r\n        return address(uint160(address(this)));\r\n    }\r\n}\r\n",
  "sourcePath": "D:/comunion/cos-contract-com/contracts/Disco.sol",
  "compiler": {
    "name": "solc",
    "version": "0.5.17+commit.d19bba13.Emscripten.clang"
  },
  "schemaVersion": "3.3.4",
  "updatedAt": "2021-03-27T11:06:17.518Z",
  "devdoc": {
    "methods": {}
  },
  "userdoc": {
    "methods": {}
  }
}