{
  "contractName": "Disco",
  "abi": [
    {
      "inputs": [],
      "payable": false,
      "stateMutability": "nonpayable",
      "type": "constructor"
    },
    {
      "anonymous": false,
      "inputs": [
        {
          "indexed": false,
          "internalType": "string",
          "name": "discoId",
          "type": "string"
        },
        {
          "indexed": false,
          "internalType": "contract DiscoAddr",
          "name": "addr",
          "type": "address"
        }
      ],
      "name": "createdDisco",
      "type": "event"
    },
    {
      "anonymous": false,
      "inputs": [
        {
          "indexed": false,
          "internalType": "string",
          "name": "discoId",
          "type": "string"
        }
      ],
      "name": "enabledDisco",
      "type": "event"
    },
    {
      "anonymous": false,
      "inputs": [
        {
          "indexed": false,
          "internalType": "string",
          "name": "discoId",
          "type": "string"
        }
      ],
      "name": "fundraisingFailed",
      "type": "event"
    },
    {
      "anonymous": false,
      "inputs": [
        {
          "indexed": false,
          "internalType": "string",
          "name": "discoIdo",
          "type": "string"
        },
        {
          "indexed": false,
          "internalType": "bool",
          "name": "success",
          "type": "bool"
        }
      ],
      "name": "fundraisingFinished",
      "type": "event"
    },
    {
      "anonymous": false,
      "inputs": [
        {
          "indexed": false,
          "internalType": "string",
          "name": "discoId",
          "type": "string"
        }
      ],
      "name": "fundraisingSucceed",
      "type": "event"
    },
    {
      "anonymous": false,
      "inputs": [
        {
          "indexed": false,
          "internalType": "string",
          "name": "discoId",
          "type": "string"
        },
        {
          "indexed": false,
          "internalType": "address",
          "name": "investorAddr",
          "type": "address"
        },
        {
          "indexed": false,
          "internalType": "uint256",
          "name": "amount",
          "type": "uint256"
        }
      ],
      "name": "investToDisco",
      "type": "event"
    },
    {
      "constant": true,
      "inputs": [
        {
          "internalType": "string",
          "name": "",
          "type": "string"
        }
      ],
      "name": "discoAddress",
      "outputs": [
        {
          "internalType": "contract DiscoAddr",
          "name": "discoAddr",
          "type": "address"
        },
        {
          "internalType": "contract IERC20",
          "name": "token",
          "type": "address"
        },
        {
          "internalType": "address payable",
          "name": "depositAccount",
          "type": "address"
        },
        {
          "internalType": "uint256",
          "name": "initLiquidity",
          "type": "uint256"
        },
        {
          "internalType": "uint256",
          "name": "swapEth",
          "type": "uint256"
        },
        {
          "internalType": "uint256",
          "name": "swapToken",
          "type": "uint256"
        }
      ],
      "payable": false,
      "stateMutability": "view",
      "type": "function"
    },
    {
      "constant": true,
      "inputs": [
        {
          "internalType": "string",
          "name": "",
          "type": "string"
        }
      ],
      "name": "discos",
      "outputs": [
        {
          "internalType": "string",
          "name": "id",
          "type": "string"
        },
        {
          "internalType": "address payable",
          "name": "walletAddr",
          "type": "address"
        },
        {
          "internalType": "address",
          "name": "tokenAddr",
          "type": "address"
        },
        {
          "internalType": "string",
          "name": "description",
          "type": "string"
        },
        {
          "internalType": "uint256",
          "name": "fundRaisingStartedAt",
          "type": "uint256"
        },
        {
          "internalType": "uint256",
          "name": "fundRaisingEndedAt",
          "type": "uint256"
        },
        {
          "internalType": "uint256",
          "name": "investmentReward",
          "type": "uint256"
        },
        {
          "internalType": "uint256",
          "name": "rewardDeclineRate",
          "type": "uint256"
        },
        {
          "internalType": "uint256",
          "name": "shareToken",
          "type": "uint256"
        },
        {
          "internalType": "uint256",
          "name": "minFundRaising",
          "type": "uint256"
        },
        {
          "internalType": "uint256",
          "name": "addLiquidityPool",
          "type": "uint256"
        },
        {
          "internalType": "uint256",
          "name": "totalDepositToken",
          "type": "uint256"
        }
      ],
      "payable": false,
      "stateMutability": "view",
      "type": "function"
    },
    {
      "constant": true,
      "inputs": [
        {
          "internalType": "string",
          "name": "",
          "type": "string"
        },
        {
          "internalType": "uint256",
          "name": "",
          "type": "uint256"
        }
      ],
      "name": "investors",
      "outputs": [
        {
          "internalType": "address",
          "name": "investor",
          "type": "address"
        },
        {
          "internalType": "uint256",
          "name": "value",
          "type": "uint256"
        },
        {
          "internalType": "uint256",
          "name": "time",
          "type": "uint256"
        },
        {
          "internalType": "bool",
          "name": "isDead",
          "type": "bool"
        }
      ],
      "payable": false,
      "stateMutability": "view",
      "type": "function"
    },
    {
      "constant": true,
      "inputs": [
        {
          "internalType": "string",
          "name": "",
          "type": "string"
        }
      ],
      "name": "status",
      "outputs": [
        {
          "internalType": "bool",
          "name": "isFinished",
          "type": "bool"
        },
        {
          "internalType": "bool",
          "name": "isSuccess",
          "type": "bool"
        },
        {
          "internalType": "bool",
          "name": "isEnabled",
          "type": "bool"
        }
      ],
      "payable": false,
      "stateMutability": "view",
      "type": "function"
    },
    {
      "constant": false,
      "inputs": [
        {
          "internalType": "address payable",
          "name": "addr",
          "type": "address"
        }
      ],
      "name": "setCoinBase",
      "outputs": [],
      "payable": false,
      "stateMutability": "nonpayable",
      "type": "function"
    },
    {
      "constant": false,
      "inputs": [
        {
          "internalType": "address",
          "name": "factoryAdd",
          "type": "address"
        },
        {
          "internalType": "address",
          "name": "wethAdd",
          "type": "address"
        }
      ],
      "name": "setSwap",
      "outputs": [],
      "payable": false,
      "stateMutability": "nonpayable",
      "type": "function"
    },
    {
      "constant": true,
      "inputs": [],
      "name": "getDate",
      "outputs": [
        {
          "internalType": "uint256",
          "name": "",
          "type": "uint256"
        }
      ],
      "payable": false,
      "stateMutability": "view",
      "type": "function"
    },
    {
      "constant": false,
      "inputs": [
        {
          "components": [
            {
              "internalType": "string",
              "name": "id",
              "type": "string"
            },
            {
              "internalType": "address payable",
              "name": "walletAddr",
              "type": "address"
            },
            {
              "internalType": "address",
              "name": "tokenAddr",
              "type": "address"
            },
            {
              "internalType": "string",
              "name": "description",
              "type": "string"
            },
            {
              "internalType": "uint256",
              "name": "fundRaisingStartedAt",
              "type": "uint256"
            },
            {
              "internalType": "uint256",
              "name": "fundRaisingEndedAt",
              "type": "uint256"
            },
            {
              "internalType": "uint256",
              "name": "investmentReward",
              "type": "uint256"
            },
            {
              "internalType": "uint256",
              "name": "rewardDeclineRate",
              "type": "uint256"
            },
            {
              "internalType": "uint256",
              "name": "shareToken",
              "type": "uint256"
            },
            {
              "internalType": "uint256",
              "name": "minFundRaising",
              "type": "uint256"
            },
            {
              "internalType": "uint256",
              "name": "addLiquidityPool",
              "type": "uint256"
            },
            {
              "internalType": "uint256",
              "name": "totalDepositToken",
              "type": "uint256"
            }
          ],
          "internalType": "struct Disco.DiscoInfo",
          "name": "d",
          "type": "tuple"
        }
      ],
      "name": "newDisco",
      "outputs": [],
      "payable": true,
      "stateMutability": "payable",
      "type": "function"
    },
    {
      "constant": false,
      "inputs": [
        {
          "internalType": "string",
          "name": "id",
          "type": "string"
        }
      ],
      "name": "enableDisco",
      "outputs": [],
      "payable": false,
      "stateMutability": "nonpayable",
      "type": "function"
    },
    {
      "constant": false,
      "inputs": [
        {
          "internalType": "string",
          "name": "id",
          "type": "string"
        }
      ],
      "name": "finishedDisco",
      "outputs": [],
      "payable": false,
      "stateMutability": "nonpayable",
      "type": "function"
    },
    {
      "constant": true,
      "inputs": [
        {
          "internalType": "string",
          "name": "id",
          "type": "string"
        }
      ],
      "name": "getInvestAmt",
      "outputs": [
        {
          "internalType": "uint256",
          "name": "",
          "type": "uint256"
        },
        {
          "internalType": "uint256",
          "name": "",
          "type": "uint256"
        }
      ],
      "payable": false,
      "stateMutability": "view",
      "type": "function"
    },
    {
      "constant": false,
      "inputs": [
        {
          "internalType": "string",
          "name": "id",
          "type": "string"
        },
        {
          "internalType": "uint256",
          "name": "investAmt",
          "type": "uint256"
        }
      ],
      "name": "assign",
      "outputs": [
        {
          "internalType": "uint256",
          "name": "",
          "type": "uint256"
        },
        {
          "internalType": "uint256",
          "name": "",
          "type": "uint256"
        }
      ],
      "payable": true,
      "stateMutability": "payable",
      "type": "function"
    },
    {
      "constant": false,
      "inputs": [
        {
          "internalType": "string",
          "name": "id",
          "type": "string"
        },
        {
          "internalType": "uint256",
          "name": "investAmt",
          "type": "uint256"
        }
      ],
      "name": "assignEth",
      "outputs": [
        {
          "internalType": "uint256",
          "name": "",
          "type": "uint256"
        }
      ],
      "payable": true,
      "stateMutability": "payable",
      "type": "function"
    },
    {
      "constant": false,
      "inputs": [
        {
          "internalType": "string",
          "name": "id",
          "type": "string"
        }
      ],
      "name": "assignToken",
      "outputs": [
        {
          "internalType": "uint256",
          "name": "",
          "type": "uint256"
        }
      ],
      "payable": true,
      "stateMutability": "payable",
      "type": "function"
    },
    {
      "constant": false,
      "inputs": [
        {
          "internalType": "string",
          "name": "id",
          "type": "string"
        }
      ],
      "name": "refund",
      "outputs": [],
      "payable": true,
      "stateMutability": "payable",
      "type": "function"
    },
    {
      "constant": false,
      "inputs": [
        {
          "internalType": "string",
          "name": "id",
          "type": "string"
        },
        {
          "internalType": "uint256",
          "name": "time",
          "type": "uint256"
        }
      ],
      "name": "investor",
      "outputs": [],
      "payable": true,
      "stateMutability": "payable",
      "type": "function"
    }
  ],
  "bytecode": "0x608060405234801561001057600080fd5b50336000806101000a81548173ffffffffffffffffffffffffffffffffffffffff021916908373ffffffffffffffffffffffffffffffffffffffff16021790555061a8c380620000616000396000f3fe608060405260043610620001095760003560e01c806348569ee91162000097578063b16e68eb1162000061578063b16e68eb14620003af578063c79d192114620003cf578063e8ca64f414620003fd578063fe5f2e8814620004435762000109565b806348569ee914620002ea5780634df3f50b146200030a5780635e56fb0114620003385780637a328a7e14620003815762000109565b80632df7917211620000d95780632df7917214620001df57806334d30e40146200022e57806334e8e57b1462000273578063430fe9c114620002ba5762000109565b8062d05029146200010e5780631218bfff146200014557806320192402146200017b578063283e2e0414620001b1575b600080fd5b6200012c600480360362000126919081019062004413565b62000463565b6040516200013c92919062004f0f565b60405180910390f35b6200016360048036036200015d919081019062004389565b62000494565b60405162000172919062004ef2565b60405180910390f35b62000199600480360362000193919081019062004413565b62000bff565b604051620001a8919062004ef2565b60405180910390f35b348015620001be57600080fd5b50620001dd6004803603620001d7919081019062004236565b62001173565b005b348015620001ec57600080fd5b506200020b600480360362000205919081019062004344565b62001249565b604051620002259c9b9a9998979695949392919062004cce565b60405180910390f35b3480156200023b57600080fd5b506200025a600480360362000254919081019062004389565b62001437565b6040516200026a92919062004f0f565b60405180910390f35b3480156200028057600080fd5b506200029f60048036036200029991908101906200446d565b62001585565b604051620002b1949392919062004aa8565b60405180910390f35b348015620002c757600080fd5b50620002d262001613565b604051620002e1919062004ef2565b60405180910390f35b620003086004803603620003029190810190620044c7565b6200161b565b005b3480156200031757600080fd5b506200033660048036036200033091908101906200428e565b62001a53565b005b3480156200034557600080fd5b506200036460048036036200035e919081019062004344565b62001bd9565b604051620003789695949392919062004b9f565b60405180910390f35b3480156200038e57600080fd5b50620003ad6004803603620003a79190810190620042fb565b62001c8b565b005b620003cd6004803603620003c7919081019062004413565b620021b3565b005b348015620003dc57600080fd5b50620003fb6004803603620003f5919081019062004389565b62002881565b005b3480156200040a57600080fd5b5062000429600480360362000423919081019062004344565b620033a7565b6040516200043a9392919062004b62565b60405180910390f35b6200046160048036036200045b919081019062004389565b6200340e565b005b600080600062000474858562000bff565b90506000620004838662000494565b905081819350935050509250929050565b6000620004a062003c66565b600383604051620004b29190620049db565b908152602001604051809103902060405180610180016040529081600082018054600181600116156101000203166002900480601f016020809104026020016040519081016040528092919081815260200182805460018160011615610100020316600290048015620005695780601f106200053d5761010080835404028352916020019162000569565b820191906000526020600020905b8154815290600101906020018083116200054b57829003601f168201915b505050505081526020016001820160009054906101000a900473ffffffffffffffffffffffffffffffffffffffff1673ffffffffffffffffffffffffffffffffffffffff1673ffffffffffffffffffffffffffffffffffffffff1681526020016002820160009054906101000a900473ffffffffffffffffffffffffffffffffffffffff1673ffffffffffffffffffffffffffffffffffffffff1673ffffffffffffffffffffffffffffffffffffffff168152602001600382018054600181600116156101000203166002900480601f016020809104026020016040519081016040528092919081815260200182805460018160011615610100020316600290048015620006bb5780601f106200068f57610100808354040283529160200191620006bb565b820191906000526020600020905b8154815290600101906020018083116200069d57829003601f168201915b50505050508152602001600482015481526020016005820154815260200160068201548152602001600782015481526020016008820154815260200160098201548152602001600a8201548152602001600b8201548152505090506200072062003cf3565b600684604051620007329190620049db565b90815260200160405180910390206040518060c00160405290816000820160009054906101000a900473ffffffffffffffffffffffffffffffffffffffff1673ffffffffffffffffffffffffffffffffffffffff1673ffffffffffffffffffffffffffffffffffffffff1681526020016001820160009054906101000a900473ffffffffffffffffffffffffffffffffffffffff1673ffffffffffffffffffffffffffffffffffffffff1673ffffffffffffffffffffffffffffffffffffffff1681526020016002820160009054906101000a900473ffffffffffffffffffffffffffffffffffffffff1673ffffffffffffffffffffffffffffffffffffffff1673ffffffffffffffffffffffffffffffffffffffff168152602001600382015481526020016004820154815260200160058201548152505090506060600485604051620008819190620049db565b9081526020016040518091039020805480602002602001604051908101604052809291908181526020016000905b828210156200096857838290600052602060002090600402016040518060800160405290816000820160009054906101000a900473ffffffffffffffffffffffffffffffffffffffff1673ffffffffffffffffffffffffffffffffffffffff1673ffffffffffffffffffffffffffffffffffffffff16815260200160018201548152602001600282015481526020016003820160009054906101000a900460ff16151515158152505081526020019060010190620008af565b505050509050600080905060008090505b825181101562000b3e576200098d62003d6b565b8382815181106200099a57fe5b60200260200101519050806060015115620009b6575062000b30565b6000620009ec62015180620009dd84604001518a6080015162003aea90919063ffffffff16565b62003b3d90919063ffffffff16565b9050600062000a09828960e0015162003aea90919063ffffffff16565b90506000811162000a1957600090505b600062000a76606462000a6762000a3b60018662003b9790919063ffffffff16565b62000a588c60600151896020015162003bea90919063ffffffff16565b62003bea90919063ffffffff16565b62003b3d90919063ffffffff16565b9050876020015173ffffffffffffffffffffffffffffffffffffffff1663a9059cbb8560000151836040518363ffffffff1660e01b815260040162000abd92919062004a7b565b602060405180830381600087803b15801562000ad857600080fd5b505af115801562000aed573d6000803e3d6000fd5b505050506040513d601f19601f8201168201806040525062000b139190810190620042cf565b5062000b29818762003b9790919063ffffffff16565b9550505050505b808060010191505062000979565b50600081856101600151039050600081111562000bf257836020015173ffffffffffffffffffffffffffffffffffffffff1663a9059cbb8560400151836040518363ffffffff1660e01b815260040162000b9a92919062004a21565b602060405180830381600087803b15801562000bb557600080fd5b505af115801562000bca573d6000803e3d6000fd5b505050506040513d601f19601f8201168201806040525062000bf09190810190620042cf565b505b8095505050505050919050565b600062000c0b62003c66565b60038460405162000c1d9190620049db565b908152602001604051809103902060405180610180016040529081600082018054600181600116156101000203166002900480601f01602080910402602001604051908101604052809291908181526020018280546001816001161561010002031660029004801562000cd45780601f1062000ca85761010080835404028352916020019162000cd4565b820191906000526020600020905b81548152906001019060200180831162000cb657829003601f168201915b505050505081526020016001820160009054906101000a900473ffffffffffffffffffffffffffffffffffffffff1673ffffffffffffffffffffffffffffffffffffffff1673ffffffffffffffffffffffffffffffffffffffff1681526020016002820160009054906101000a900473ffffffffffffffffffffffffffffffffffffffff1673ffffffffffffffffffffffffffffffffffffffff1673ffffffffffffffffffffffffffffffffffffffff168152602001600382018054600181600116156101000203166002900480601f01602080910402602001604051908101604052809291908181526020018280546001816001161561010002031660029004801562000e265780601f1062000dfa5761010080835404028352916020019162000e26565b820191906000526020600020905b81548152906001019060200180831162000e0857829003601f168201915b50505050508152602001600482015481526020016005820154815260200160068201548152602001600782015481526020016008820154815260200160098201548152602001600a8201548152602001600b82015481525050905062000e8b62003cf3565b60068560405162000e9d9190620049db565b90815260200160405180910390206040518060c00160405290816000820160009054906101000a900473ffffffffffffffffffffffffffffffffffffffff1673ffffffffffffffffffffffffffffffffffffffff1673ffffffffffffffffffffffffffffffffffffffff1681526020016001820160009054906101000a900473ffffffffffffffffffffffffffffffffffffffff1673ffffffffffffffffffffffffffffffffffffffff1673ffffffffffffffffffffffffffffffffffffffff1681526020016002820160009054906101000a900473ffffffffffffffffffffffffffffffffffffffff1673ffffffffffffffffffffffffffffffffffffffff1673ffffffffffffffffffffffffffffffffffffffff1681526020016003820154815260200160048201548152602001600582015481525050905060008160000151905060006200100e606462000fff60028962003bea90919063ffffffff16565b62003b3d90919063ffffffff16565b9050600081870390506000821115620010f0578273ffffffffffffffffffffffffffffffffffffffff1663026b1d5f6040518163ffffffff1660e01b815260040160206040518083038186803b1580156200106857600080fd5b505afa1580156200107d573d6000803e3d6000fd5b505050506040513d601f19601f82011682018060405250620010a3919081019062004262565b73ffffffffffffffffffffffffffffffffffffffff166108fc839081150290604051600060405180830381858888f19350505050158015620010e9573d6000803e3d6000fd5b5081870396505b8273ffffffffffffffffffffffffffffffffffffffff1663a9059cbb8660200151836040518363ffffffff1660e01b815260040162001131929190620049f4565b600060405180830381600087803b1580156200114c57600080fd5b505af115801562001161573d6000803e3d6000fd5b50505050819550505050505092915050565b6000809054906101000a900473ffffffffffffffffffffffffffffffffffffffff1673ffffffffffffffffffffffffffffffffffffffff163373ffffffffffffffffffffffffffffffffffffffff161462001205576040517f08c379a0000000000000000000000000000000000000000000000000000000008152600401620011fc9062004e6a565b60405180910390fd5b80600160006101000a81548173ffffffffffffffffffffffffffffffffffffffff021916908373ffffffffffffffffffffffffffffffffffffffff16021790555050565b600381805160208101820180518482526020830160208501208183528095505050505050600091509050806000018054600181600116156101000203166002900480601f0160208091040260200160405190810160405280929190818152602001828054600181600116156101000203166002900480156200130f5780601f10620012e3576101008083540402835291602001916200130f565b820191906000526020600020905b815481529060010190602001808311620012f157829003601f168201915b5050505050908060010160009054906101000a900473ffffffffffffffffffffffffffffffffffffffff16908060020160009054906101000a900473ffffffffffffffffffffffffffffffffffffffff1690806003018054600181600116156101000203166002900480601f016020809104026020016040519081016040528092919081815260200182805460018160011615610100020316600290048015620013fd5780601f10620013d157610100808354040283529160200191620013fd565b820191906000526020600020905b815481529060010190602001808311620013df57829003601f168201915b50505050509080600401549080600501549080600601549080600701549080600801549080600901549080600a01549080600b015490508c565b6000806000809050600080905060008090505b6004866040516200145c9190620049db565b90815260200160405180910390208054905081101562001577576200148062003d6b565b600487604051620014929190620049db565b90815260200160405180910390208281548110620014ac57fe5b90600052602060002090600402016040518060800160405290816000820160009054906101000a900473ffffffffffffffffffffffffffffffffffffffff1673ffffffffffffffffffffffffffffffffffffffff1673ffffffffffffffffffffffffffffffffffffffff16815260200160018201548152602001600282015481526020016003820160009054906101000a900460ff16151515158152505090508060600151620015685780602001518401935082806001019350505b5080806001019150506200144a565b508082935093505050915091565b6004828051602081018201805184825260208301602085012081835280955050505050508181548110620015b557fe5b9060005260206000209060040201600091509150508060000160009054906101000a900473ffffffffffffffffffffffffffffffffffffffff16908060010154908060020154908060030160009054906101000a900460ff16905084565b600042905090565b600081600001515114156200162f57600080fd5b6200163962003dab565b60405180606001604052806000151581526020016000151581526020016000151581525090508160038360000151604051620016769190620049c2565b90815260200160405180910390206000820151816000019080519060200190620016a292919062003dd2565b5060208201518160010160006101000a81548173ffffffffffffffffffffffffffffffffffffffff021916908373ffffffffffffffffffffffffffffffffffffffff16021790555060408201518160020160006101000a81548173ffffffffffffffffffffffffffffffffffffffff021916908373ffffffffffffffffffffffffffffffffffffffff16021790555060608201518160030190805190602001906200174f92919062003dd2565b506080820151816004015560a0820151816005015560c0820151816006015560e082015181600701556101008201518160080155610120820151816009015561014082015181600a015561016082015181600b01559050508060058360000151604051620017be9190620049c2565b908152602001604051809103902060008201518160000160006101000a81548160ff02191690831515021790555060208201518160000160016101000a81548160ff02191690831515021790555060408201518160000160026101000a81548160ff02191690831515021790555090505060008260000151604051620018449062003e59565b62001850919062004c42565b604051809103906000f0801580156200186d573d6000803e3d6000fd5b5090506200187a62003cf3565b6040518060c001604052808373ffffffffffffffffffffffffffffffffffffffff168152602001856040015173ffffffffffffffffffffffffffffffffffffffff168152602001600073ffffffffffffffffffffffffffffffffffffffff16815260200160008152602001600081526020016000815250905080600685600001516040516200190a9190620049c2565b908152602001604051809103902060008201518160000160006101000a81548173ffffffffffffffffffffffffffffffffffffffff021916908373ffffffffffffffffffffffffffffffffffffffff16021790555060208201518160010160006101000a81548173ffffffffffffffffffffffffffffffffffffffff021916908373ffffffffffffffffffffffffffffffffffffffff16021790555060408201518160020160006101000a81548173ffffffffffffffffffffffffffffffffffffffff021916908373ffffffffffffffffffffffffffffffffffffffff160217905550606082015181600301556080820151816004015560a082015181600501559050507ff7e24b64c3d2ed7d191ce3009c2e12632005b58578ce39e23f97eaec9fd6c3e184600001518360405162001a4592919062004dae565b60405180910390a150505050565b6000809054906101000a900473ffffffffffffffffffffffffffffffffffffffff1673ffffffffffffffffffffffffffffffffffffffff163373ffffffffffffffffffffffffffffffffffffffff161462001ae5576040517f08c379a000000000000000000000000000000000000000000000000000000000815260040162001adc9062004e6a565b60405180910390fd5b600073ffffffffffffffffffffffffffffffffffffffff168273ffffffffffffffffffffffffffffffffffffffff161415801562001b505750600073ffffffffffffffffffffffffffffffffffffffff168173ffffffffffffffffffffffffffffffffffffffff1614155b62001b5a57600080fd5b818160405162001b6a9062003e67565b62001b7792919062004a4e565b604051809103906000f08015801562001b94573d6000803e3d6000fd5b50600260006101000a81548173ffffffffffffffffffffffffffffffffffffffff021916908373ffffffffffffffffffffffffffffffffffffffff1602179055505050565b6006818051602081018201805184825260208301602085012081835280955050505050506000915090508060000160009054906101000a900473ffffffffffffffffffffffffffffffffffffffff16908060010160009054906101000a900473ffffffffffffffffffffffffffffffffffffffff16908060020160009054906101000a900473ffffffffffffffffffffffffffffffffffffffff16908060030154908060040154908060050154905086565b62001c9562003dab565b6005838360405162001ca9929190620049a7565b90815260200160405180910390206040518060600160405290816000820160009054906101000a900460ff161515151581526020016000820160019054906101000a900460ff161515151581526020016000820160029054906101000a900460ff1615151515815250509050806000015115801562001d29575080604001515b62001d3357600080fd5b6001816000019015159081151581525050600062001d9584848080601f016020809104026020016040519081016040528093929190818152602001838380828437600081840152601f19601f8201169050808301925050505050505062001437565b91505062001da262003c66565b6003858560405162001db6929190620049a7565b908152602001604051809103902060405180610180016040529081600082018054600181600116156101000203166002900480601f01602080910402602001604051908101604052809291908181526020018280546001816001161561010002031660029004801562001e6d5780601f1062001e415761010080835404028352916020019162001e6d565b820191906000526020600020905b81548152906001019060200180831162001e4f57829003601f168201915b505050505081526020016001820160009054906101000a900473ffffffffffffffffffffffffffffffffffffffff1673ffffffffffffffffffffffffffffffffffffffff1673ffffffffffffffffffffffffffffffffffffffff1681526020016002820160009054906101000a900473ffffffffffffffffffffffffffffffffffffffff1673ffffffffffffffffffffffffffffffffffffffff1673ffffffffffffffffffffffffffffffffffffffff168152602001600382018054600181600116156101000203166002900480601f01602080910402602001604051908101604052809291908181526020018280546001816001161561010002031660029004801562001fbf5780601f1062001f935761010080835404028352916020019162001fbf565b820191906000526020600020905b81548152906001019060200180831162001fa157829003601f168201915b50505050508152602001600482015481526020016005820154815260200160068201548152602001600782015481526020016008820154815260200160098201548152602001600a8201548152602001600b820154815250509050806101200151821015836020019015159081151581525050826005868660405162002047929190620049a7565b908152602001604051809103902060008201518160000160006101000a81548160ff02191690831515021790555060208201518160000160016101000a81548160ff02191690831515021790555060408201518160000160026101000a81548160ff0219169083151502179055509050508260200151156200211b576200211385858080601f016020809104026020016040519081016040528093929190818152602001838380828437600081840152601f19601f820116905080830192505050505050508362000463565b50506200216b565b6200216a85858080601f016020809104026020016040519081016040528093929190818152602001838380828437600081840152601f19601f820116905080830192505050505050506200340e565b5b7f35714766e4544afd4526bc1bbe6a503c6b0f871ab72fb6939be49b8e3419e89e85858560200151604051620021a49392919062004c0c565b60405180910390a15050505050565b816000620021c062001613565b9050620021cc62003dab565b600583604051620021de9190620049db565b90815260200160405180910390206040518060600160405290816000820160009054906101000a900460ff161515151581526020016000820160019054906101000a900460ff161515151581526020016000820160029054906101000a900460ff16151515158152505090506200225462003c66565b600384604051620022669190620049db565b908152602001604051809103902060405180610180016040529081600082018054600181600116156101000203166002900480601f0160208091040260200160405190810160405280929190818152602001828054600181600116156101000203166002900480156200231d5780601f10620022f1576101008083540402835291602001916200231d565b820191906000526020600020905b815481529060010190602001808311620022ff57829003601f168201915b505050505081526020016001820160009054906101000a900473ffffffffffffffffffffffffffffffffffffffff1673ffffffffffffffffffffffffffffffffffffffff1673ffffffffffffffffffffffffffffffffffffffff1681526020016002820160009054906101000a900473ffffffffffffffffffffffffffffffffffffffff1673ffffffffffffffffffffffffffffffffffffffff1673ffffffffffffffffffffffffffffffffffffffff168152602001600382018054600181600116156101000203166002900480601f0160208091040260200160405190810160405280929190818152602001828054600181600116156101000203166002900480156200246f5780601f1062002443576101008083540402835291602001916200246f565b820191906000526020600020905b8154815290600101906020018083116200245157829003601f168201915b50505050508152602001600482015481526020016005820154815260200160068201548152602001600782015481526020016008820154815260200160098201548152602001600a8201548152602001600b82015481525050905081604001518015620024de57508160000151155b620024e857600080fd5b8281608001511062002531576040517f08c379a0000000000000000000000000000000000000000000000000000000008152600401620025289062004e04565b60405180910390fd5b828160a00151116200257a576040517f08c379a0000000000000000000000000000000000000000000000000000000008152600401620025719062004ed0565b60405180910390fd5b600073ffffffffffffffffffffffffffffffffffffffff16600160009054906101000a900473ffffffffffffffffffffffffffffffffffffffff1673ffffffffffffffffffffffffffffffffffffffff161415620025d757600080fd5b620025e162003d6b565b60405180608001604052806000809054906101000a900473ffffffffffffffffffffffffffffffffffffffff1673ffffffffffffffffffffffffffffffffffffffff1681526020013481526020018781526020016000151581525090506000600688604051620026529190620049db565b908152602001604051809103902060000160009054906101000a900473ffffffffffffffffffffffffffffffffffffffff1690508073ffffffffffffffffffffffffffffffffffffffff1663026b1d5f6040518163ffffffff1660e01b815260040160206040518083038186803b158015620026cd57600080fd5b505afa158015620026e2573d6000803e3d6000fd5b505050506040513d601f19601f8201168201806040525062002708919081019062004262565b73ffffffffffffffffffffffffffffffffffffffff166108fc349081150290604051600060405180830381858888f193505050501580156200274e573d6000803e3d6000fd5b50600488604051620027619190620049db565b9081526020016040518091039020829080600181540180825580915050906001820390600052602060002090600402016000909192909190915060008201518160000160006101000a81548173ffffffffffffffffffffffffffffffffffffffff021916908373ffffffffffffffffffffffffffffffffffffffff160217905550602082015181600101556040820151816002015560608201518160030160006101000a81548160ff0219169083151502179055505050507f5fec6c2d2d376aa6f4c793e34f6cc71d65285bd07d1e709292fafc2b28bf2fbe886000809054906101000a900473ffffffffffffffffffffffffffffffffffffffff16346040516200286f9392919062004c8a565b60405180910390a15050505050505050565b60006200288d62001613565b90506200289962003c66565b600383604051620028ab9190620049db565b908152602001604051809103902060405180610180016040529081600082018054600181600116156101000203166002900480601f016020809104026020016040519081016040528092919081815260200182805460018160011615610100020316600290048015620029625780601f10620029365761010080835404028352916020019162002962565b820191906000526020600020905b8154815290600101906020018083116200294457829003601f168201915b505050505081526020016001820160009054906101000a900473ffffffffffffffffffffffffffffffffffffffff1673ffffffffffffffffffffffffffffffffffffffff1673ffffffffffffffffffffffffffffffffffffffff1681526020016002820160009054906101000a900473ffffffffffffffffffffffffffffffffffffffff1673ffffffffffffffffffffffffffffffffffffffff1673ffffffffffffffffffffffffffffffffffffffff168152602001600382018054600181600116156101000203166002900480601f01602080910402602001604051908101604052809291908181526020018280546001816001161561010002031660029004801562002ab45780601f1062002a885761010080835404028352916020019162002ab4565b820191906000526020600020905b81548152906001019060200180831162002a9657829003601f168201915b50505050508152602001600482015481526020016005820154815260200160068201548152602001600782015481526020016008820154815260200160098201548152602001600a8201548152602001600b8201548152505090508181608001511062002b58576040517f08c379a000000000000000000000000000000000000000000000000000000000815260040162002b4f9062004e04565b60405180910390fd5b818160a001511162002ba1576040517f08c379a000000000000000000000000000000000000000000000000000000000815260040162002b989062004ed0565b60405180910390fd5b62002bab62003dab565b60058460405162002bbd9190620049db565b90815260200160405180910390206040518060600160405290816000820160009054906101000a900460ff161515151581526020016000820160019054906101000a900460ff161515151581526020016000820160029054906101000a900460ff161515151581525050905080604001511562002c71576040517f08c379a000000000000000000000000000000000000000000000000000000000815260040162002c689062004eae565b60405180910390fd5b62002c7b62003cf3565b60068560405162002c8d9190620049db565b90815260200160405180910390206040518060c00160405290816000820160009054906101000a900473ffffffffffffffffffffffffffffffffffffffff1673ffffffffffffffffffffffffffffffffffffffff1673ffffffffffffffffffffffffffffffffffffffff1681526020016001820160009054906101000a900473ffffffffffffffffffffffffffffffffffffffff1673ffffffffffffffffffffffffffffffffffffffff1673ffffffffffffffffffffffffffffffffffffffff1681526020016002820160009054906101000a900473ffffffffffffffffffffffffffffffffffffffff1673ffffffffffffffffffffffffffffffffffffffff1673ffffffffffffffffffffffffffffffffffffffff168152602001600382015481526020016004820154815260200160058201548152505090506000816000015190508073ffffffffffffffffffffffffffffffffffffffff1663026b1d5f6040518163ffffffff1660e01b815260040160206040518083038186803b15801562002e1857600080fd5b505afa15801562002e2d573d6000803e3d6000fd5b505050506040513d601f19601f8201168201806040525062002e53919081019062004262565b73ffffffffffffffffffffffffffffffffffffffff166108fc67016345785d8a00009081150290604051600060405180830381858888f1935050505015801562002ea1573d6000803e3d6000fd5b506000826020015190508073ffffffffffffffffffffffffffffffffffffffff1663a9059cbb8373ffffffffffffffffffffffffffffffffffffffff1663026b1d5f6040518163ffffffff1660e01b815260040160206040518083038186803b15801562002f0e57600080fd5b505afa15801562002f23573d6000803e3d6000fd5b505050506040513d601f19601f8201168201806040525062002f49919081019062004262565b8761016001516040518363ffffffff1660e01b815260040162002f6e92919062004a21565b602060405180830381600087803b15801562002f8957600080fd5b505af115801562002f9e573d6000803e3d6000fd5b505050506040513d601f19601f8201168201806040525062002fc49190810190620042cf565b5060018460400190151590811515815250508360058860405162002fe99190620049db565b908152602001604051809103902060008201518160000160006101000a81548160ff02191690831515021790555060208201518160000160016101000a81548160ff02191690831515021790555060408201518160000160026101000a81548160ff02191690831515021790555090505033836040019073ffffffffffffffffffffffffffffffffffffffff16908173ffffffffffffffffffffffffffffffffffffffff16815250506000620030a0603c62003c51565b90506000620030af8962001437565b9150506000806000600260009054906101000a900473ffffffffffffffffffffffffffffffffffffffff1673ffffffffffffffffffffffffffffffffffffffff1663f305d7198b604001518c61010001518d610100015188600260009054906101000a900473ffffffffffffffffffffffffffffffffffffffff1673ffffffffffffffffffffffffffffffffffffffff1663c45a01556040518163ffffffff1660e01b815260040160206040518083038186803b1580156200317057600080fd5b505afa15801562003185573d6000803e3d6000fd5b505050506040513d601f19601f82011682018060405250620031ab91908101906200420a565b8b6040518763ffffffff1660e01b8152600401620031cf9695949392919062004af5565b606060405180830381600087803b158015620031ea57600080fd5b505af1158015620031ff573d6000803e3d6000fd5b505050506040513d601f19601f820116820180604052506200322591908101906200450c565b92509250925080886060018181525050828860a0018181525050818860800181815250508760068d6040516200325c9190620049db565b908152602001604051809103902060008201518160000160006101000a81548173ffffffffffffffffffffffffffffffffffffffff021916908373ffffffffffffffffffffffffffffffffffffffff16021790555060208201518160010160006101000a81548173ffffffffffffffffffffffffffffffffffffffff021916908373ffffffffffffffffffffffffffffffffffffffff16021790555060408201518160020160006101000a81548173ffffffffffffffffffffffffffffffffffffffff021916908373ffffffffffffffffffffffffffffffffffffffff160217905550606082015181600301556080820151816004015560a082015181600501559050507f44ec18e6fb6c9893aa22a7236add99d912e21075f568b1f65c6b3d7a65e285d88c60405162003391919062004c66565b60405180910390a1505050505050505050505050565b6005818051602081018201805184825260208301602085012081835280955050505050506000915090508060000160009054906101000a900460ff16908060000160019054906101000a900460ff16908060000160029054906101000a900460ff16905083565b6000815114156200341e57600080fd5b6200342862003cf3565b6006826040516200343a9190620049db565b90815260200160405180910390206040518060c00160405290816000820160009054906101000a900473ffffffffffffffffffffffffffffffffffffffff1673ffffffffffffffffffffffffffffffffffffffff1673ffffffffffffffffffffffffffffffffffffffff1681526020016001820160009054906101000a900473ffffffffffffffffffffffffffffffffffffffff1673ffffffffffffffffffffffffffffffffffffffff1673ffffffffffffffffffffffffffffffffffffffff1681526020016002820160009054906101000a900473ffffffffffffffffffffffffffffffffffffffff1673ffffffffffffffffffffffffffffffffffffffff1673ffffffffffffffffffffffffffffffffffffffff1681526020016003820154815260200160048201548152602001600582015481525050905060008160000151905060008173ffffffffffffffffffffffffffffffffffffffff1663fb1e6a626040518163ffffffff1660e01b815260040160006040518083038186803b158015620035c757600080fd5b505afa158015620035dc573d6000803e3d6000fd5b505050506040513d6000823e3d601f19601f82011682018060405250620036079190810190620043ce565b5114156200361457600080fd5b600073ffffffffffffffffffffffffffffffffffffffff16826040015173ffffffffffffffffffffffffffffffffffffffff1614156200365357600080fd5b60008090505b6004846040516200366b9190620049db565b908152602001604051809103902080549050811015620037bc576000600485604051620036999190620049db565b90815260200160405180910390208281548110620036b357fe5b906000526020600020906004020190508273ffffffffffffffffffffffffffffffffffffffff1663026b1d5f6040518163ffffffff1660e01b815260040160206040518083038186803b1580156200370a57600080fd5b505afa1580156200371f573d6000803e3d6000fd5b505050506040513d601f19601f8201168201806040525062003745919081019062004262565b73ffffffffffffffffffffffffffffffffffffffff166108fc82600101549081150290604051600060405180830381858888f193505050501580156200378f573d6000803e3d6000fd5b5060018160030160006101000a81548160ff02191690831515021790555050808060010191505062003659565b50620037c762003c66565b600384604051620037d99190620049db565b908152602001604051809103902060405180610180016040529081600082018054600181600116156101000203166002900480601f016020809104026020016040519081016040528092919081815260200182805460018160011615610100020316600290048015620038905780601f10620038645761010080835404028352916020019162003890565b820191906000526020600020905b8154815290600101906020018083116200387257829003601f168201915b505050505081526020016001820160009054906101000a900473ffffffffffffffffffffffffffffffffffffffff1673ffffffffffffffffffffffffffffffffffffffff1673ffffffffffffffffffffffffffffffffffffffff1681526020016002820160009054906101000a900473ffffffffffffffffffffffffffffffffffffffff1673ffffffffffffffffffffffffffffffffffffffff1673ffffffffffffffffffffffffffffffffffffffff168152602001600382018054600181600116156101000203166002900480601f016020809104026020016040519081016040528092919081815260200182805460018160011615610100020316600290048015620039e25780601f10620039b657610100808354040283529160200191620039e2565b820191906000526020600020905b815481529060010190602001808311620039c457829003601f168201915b50505050508152602001600482015481526020016005820154815260200160068201548152602001600782015481526020016008820154815260200160098201548152602001600a8201548152602001600b8201548152505090506000836020015190508073ffffffffffffffffffffffffffffffffffffffff1663a9059cbb85604001518461016001516040518363ffffffff1660e01b815260040162003a8c92919062004a21565b602060405180830381600087803b15801562003aa757600080fd5b505af115801562003abc573d6000803e3d6000fd5b505050506040513d601f19601f8201168201806040525062003ae29190810190620042cf565b505050505050565b600082828403915081111562003b37576040517f08c379a000000000000000000000000000000000000000000000000000000000815260040162003b2e9062004de2565b60405180910390fd5b92915050565b600080821162003b84576040517f08c379a000000000000000000000000000000000000000000000000000000000815260040162003b7b9062004e8c565b60405180910390fd5b81838162003b8e57fe5b04905092915050565b600082828401915081101562003be4576040517f08c379a000000000000000000000000000000000000000000000000000000000815260040162003bdb9062004e48565b60405180910390fd5b92915050565b60008082148062003c09575082828385029250828162003c0657fe5b04145b62003c4b576040517f08c379a000000000000000000000000000000000000000000000000000000000815260040162003c429062004e26565b60405180910390fd5b92915050565b60008162003c5e62001613565b019050919050565b60405180610180016040528060608152602001600073ffffffffffffffffffffffffffffffffffffffff168152602001600073ffffffffffffffffffffffffffffffffffffffff1681526020016060815260200160008152602001600081526020016000815260200160008152602001600081526020016000815260200160008152602001600081525090565b6040518060c00160405280600073ffffffffffffffffffffffffffffffffffffffff168152602001600073ffffffffffffffffffffffffffffffffffffffff168152602001600073ffffffffffffffffffffffffffffffffffffffff1681526020016000815260200160008152602001600081525090565b6040518060800160405280600073ffffffffffffffffffffffffffffffffffffffff16815260200160008152602001600081526020016000151581525090565b60405180606001604052806000151581526020016000151581526020016000151581525090565b828054600181600116156101000203166002900490600052602060002090601f016020900481019282601f1062003e1557805160ff191683800117855562003e46565b8280016001018555821562003e46579182015b8281111562003e4557825182559160200191906001019062003e28565b5b50905062003e55919062003e75565b5090565b610700806200519f83390190565b614fe2806200589f83390190565b62003e9a91905b8082111562003e9657600081600090555060010162003e7c565b5090565b90565b60008135905062003eae8162005136565b92915050565b60008151905062003ec58162005136565b92915050565b60008135905062003edc8162005150565b92915050565b60008151905062003ef38162005150565b92915050565b60008151905062003f0a816200516a565b92915050565b60008083601f84011262003f2357600080fd5b8235905067ffffffffffffffff81111562003f3d57600080fd5b60208301915083600182028301111562003f5657600080fd5b9250929050565b600082601f83011262003f6f57600080fd5b813562003f8662003f808262004f6a565b62004f3c565b9150808252602083016020830185838301111562003fa357600080fd5b62003fb0838284620050e0565b50505092915050565b600082601f83011262003fcb57600080fd5b813562003fe262003fdc8262004f97565b62004f3c565b9150808252602083016020830185838301111562003fff57600080fd5b6200400c838284620050e0565b50505092915050565b600082601f8301126200402757600080fd5b81516200403e620040388262004f97565b62004f3c565b915080825260208301602083018583830111156200405b57600080fd5b62004068838284620050ef565b50505092915050565b600061018082840312156200408557600080fd5b6200409261018062004f3c565b9050600082013567ffffffffffffffff811115620040af57600080fd5b620040bd8482850162003f5d565b6000830152506020620040d38482850162003ecb565b6020830152506040620040e98482850162003e9d565b604083015250606082013567ffffffffffffffff8111156200410a57600080fd5b620041188482850162003f5d565b60608301525060806200412e84828501620041dc565b60808301525060a06200414484828501620041dc565b60a08301525060c06200415a84828501620041dc565b60c08301525060e06200417084828501620041dc565b60e0830152506101006200418784828501620041dc565b610100830152506101206200419f84828501620041dc565b61012083015250610140620041b784828501620041dc565b61014083015250610160620041cf84828501620041dc565b6101608301525092915050565b600081359050620041ed8162005184565b92915050565b600081519050620042048162005184565b92915050565b6000602082840312156200421d57600080fd5b60006200422d8482850162003eb4565b91505092915050565b6000602082840312156200424957600080fd5b6000620042598482850162003ecb565b91505092915050565b6000602082840312156200427557600080fd5b6000620042858482850162003ee2565b91505092915050565b60008060408385031215620042a257600080fd5b6000620042b28582860162003e9d565b9250506020620042c58582860162003e9d565b9150509250929050565b600060208284031215620042e257600080fd5b6000620042f28482850162003ef9565b91505092915050565b600080602083850312156200430f57600080fd5b600083013567ffffffffffffffff8111156200432a57600080fd5b620043388582860162003f10565b92509250509250929050565b6000602082840312156200435757600080fd5b600082013567ffffffffffffffff8111156200437257600080fd5b620043808482850162003f5d565b91505092915050565b6000602082840312156200439c57600080fd5b600082013567ffffffffffffffff811115620043b757600080fd5b620043c58482850162003fb9565b91505092915050565b600060208284031215620043e157600080fd5b600082015167ffffffffffffffff811115620043fc57600080fd5b6200440a8482850162004015565b91505092915050565b600080604083850312156200442757600080fd5b600083013567ffffffffffffffff8111156200444257600080fd5b620044508582860162003fb9565b92505060206200446385828601620041dc565b9150509250929050565b600080604083850312156200448157600080fd5b600083013567ffffffffffffffff8111156200449c57600080fd5b620044aa8582860162003f5d565b9250506020620044bd85828601620041dc565b9150509250929050565b600060208284031215620044da57600080fd5b600082013567ffffffffffffffff811115620044f557600080fd5b620045038482850162004071565b91505092915050565b6000806000606084860312156200452257600080fd5b60006200453286828701620041f3565b93505060206200454586828701620041f3565b92505060406200455886828701620041f3565b9150509250925092565b6200456d8162005054565b82525050565b6200457e816200500a565b82525050565b6200458f8162004ff6565b82525050565b620045a0816200501e565b82525050565b620045b18162005068565b82525050565b620045c28162005090565b82525050565b6000620045d6838562004fda565b9350620045e5838584620050e0565b620045f08362005125565b840190509392505050565b600062004609838562004feb565b935062004618838584620050e0565b82840190509392505050565b6000620046318262004fcf565b6200463d818562004fda565b93506200464f818560208601620050ef565b6200465a8162005125565b840191505092915050565b6000620046728262004fcf565b6200467e818562004feb565b935062004690818560208601620050ef565b80840191505092915050565b6000620046a98262004fc4565b620046b5818562004fda565b9350620046c7818560208601620050ef565b620046d28162005125565b840191505092915050565b6000620046ea8262004fc4565b620046f6818562004feb565b935062004708818560208601620050ef565b80840191505092915050565b60006200472360158362004fda565b91507f64732d6d6174682d7375622d756e646572666c6f7700000000000000000000006000830152602082019050919050565b60006200476560378362004fda565b91507f6e6f77206d7573742067726561746572207468616e2074686520646973636f2060008301527f66756e642072616973696e672073746172742074696d650000000000000000006020830152604082019050919050565b6000620047cd60148362004fda565b91507f64732d6d6174682d6d756c2d6f766572666c6f770000000000000000000000006000830152602082019050919050565b60006200480f60148362004fda565b91507f64732d6d6174682d6164642d6f766572666c6f770000000000000000000000006000830152602082019050919050565b60006200485160148362004fda565b91507f43616c6c6572206973206e6f74206f776e6572210000000000000000000000006000830152602082019050919050565b600062004893601a8362004fda565b91507f536166654d6174683a206469766973696f6e206279207a65726f0000000000006000830152602082019050919050565b6000620048d560238362004fda565b91507f74686520646973636f206d75737420686173206e6f74206265656e207374617260008301527f74656400000000000000000000000000000000000000000000000000000000006020830152604082019050919050565b60006200493d60328362004fda565b91507f6e6f77206d757374206c657373207468616e2074686520646973636f2066756e60008301527f642072616973696e6720656e642074696d6500000000000000000000000000006020830152604082019050919050565b620049a1816200504a565b82525050565b6000620049b6828486620045fb565b91508190509392505050565b6000620049d08284620046dd565b915081905092915050565b6000620049e9828462004665565b915081905092915050565b600060408201905062004a0b600083018562004573565b62004a1a602083018462004996565b9392505050565b600060408201905062004a38600083018562004562565b62004a47602083018462004996565b9392505050565b600060408201905062004a65600083018562004584565b62004a74602083018462004584565b9392505050565b600060408201905062004a92600083018562004584565b62004aa1602083018462004996565b9392505050565b600060808201905062004abf600083018762004584565b62004ace602083018662004996565b62004add604083018562004996565b62004aec606083018462004595565b95945050505050565b600060c08201905062004b0c600083018962004584565b62004b1b602083018862004996565b62004b2a604083018762004996565b62004b39606083018662004996565b62004b48608083018562004584565b62004b5760a083018462004996565b979650505050505050565b600060608201905062004b79600083018662004595565b62004b88602083018562004595565b62004b97604083018462004595565b949350505050565b600060c08201905062004bb66000830189620045a6565b62004bc56020830188620045b7565b62004bd4604083018762004573565b62004be3606083018662004996565b62004bf2608083018562004996565b62004c0160a083018462004996565b979650505050505050565b6000604082019050818103600083015262004c29818587620045c8565b905062004c3a602083018462004595565b949350505050565b6000602082019050818103600083015262004c5e81846200469c565b905092915050565b6000602082019050818103600083015262004c82818462004624565b905092915050565b6000606082019050818103600083015262004ca6818662004624565b905062004cb7602083018562004584565b62004cc6604083018462004996565b949350505050565b600061018082019050818103600083015262004ceb818f6200469c565b905062004cfc602083018e62004573565b62004d0b604083018d62004584565b818103606083015262004d1f818c6200469c565b905062004d30608083018b62004996565b62004d3f60a083018a62004996565b62004d4e60c083018962004996565b62004d5d60e083018862004996565b62004d6d61010083018762004996565b62004d7d61012083018662004996565b62004d8d61014083018562004996565b62004d9d61016083018462004996565b9d9c50505050505050505050505050565b6000604082019050818103600083015262004dca81856200469c565b905062004ddb6020830184620045a6565b9392505050565b6000602082019050818103600083015262004dfd8162004714565b9050919050565b6000602082019050818103600083015262004e1f8162004756565b9050919050565b6000602082019050818103600083015262004e4181620047be565b9050919050565b6000602082019050818103600083015262004e638162004800565b9050919050565b6000602082019050818103600083015262004e858162004842565b9050919050565b6000602082019050818103600083015262004ea78162004884565b9050919050565b6000602082019050818103600083015262004ec981620048c6565b9050919050565b6000602082019050818103600083015262004eeb816200492e565b9050919050565b600060208201905062004f09600083018462004996565b92915050565b600060408201905062004f26600083018562004996565b62004f35602083018462004996565b9392505050565b6000604051905081810181811067ffffffffffffffff8211171562004f6057600080fd5b8060405250919050565b600067ffffffffffffffff82111562004f8257600080fd5b601f19601f8301169050602081019050919050565b600067ffffffffffffffff82111562004faf57600080fd5b601f19601f8301169050602081019050919050565b600081519050919050565b600081519050919050565b600082825260208201905092915050565b600081905092915050565b600062005003826200502a565b9050919050565b600062005017826200502a565b9050919050565b60008115159050919050565b600073ffffffffffffffffffffffffffffffffffffffff82169050919050565b6000819050919050565b60006200506182620050b8565b9050919050565b600062005075826200507c565b9050919050565b600062005089826200502a565b9050919050565b60006200509d82620050a4565b9050919050565b6000620050b1826200502a565b9050919050565b6000620050c582620050cc565b9050919050565b6000620050d9826200502a565b9050919050565b82818337600083830152505050565b60005b838110156200510f578082015181840152602081019050620050f2565b838111156200511f576000848401525b50505050565b6000601f19601f8301169050919050565b620051418162004ff6565b81146200514d57600080fd5b50565b6200515b816200500a565b81146200516757600080fd5b50565b62005175816200501e565b81146200518157600080fd5b50565b6200518f816200504a565b81146200519b57600080fd5b5056fe608060405234801561001057600080fd5b5060405161070038038061070083398181016040526100329190810190610148565b806000908051906020019061004892919061004f565b5050610215565b828054600181600116156101000203166002900490600052602060002090601f016020900481019282601f1061009057805160ff19168380011785556100be565b828001600101855582156100be579182015b828111156100bd5782518255916020019190600101906100a2565b5b5090506100cb91906100cf565b5090565b6100f191905b808211156100ed5760008160009055506001016100d5565b5090565b90565b600082601f83011261010557600080fd5b8151610118610113826101b6565b610189565b9150808252602083016020830185838301111561013457600080fd5b61013f8382846101e2565b50505092915050565b60006020828403121561015a57600080fd5b600082015167ffffffffffffffff81111561017457600080fd5b610180848285016100f4565b91505092915050565b6000604051905081810181811067ffffffffffffffff821117156101ac57600080fd5b8060405250919050565b600067ffffffffffffffff8211156101cd57600080fd5b601f19601f8301169050602081019050919050565b60005b838110156102005780820151818401526020810190506101e5565b8381111561020f576000848401525b50505050565b6104dc806102246000396000f3fe60806040526004361061003f5760003560e01c8063026b1d5f14610041578063a9059cbb1461006c578063af640d0f14610095578063fb1e6a62146100c0575b005b34801561004d57600080fd5b506100566100eb565b6040516100639190610365565b60405180910390f35b34801561007857600080fd5b50610093600480360361008e91908101906102a8565b6100f3565b005b3480156100a157600080fd5b506100aa61013e565b6040516100b79190610380565b60405180910390f35b3480156100cc57600080fd5b506100d56101dc565b6040516100e291906103a2565b60405180910390f35b600030905090565b8173ffffffffffffffffffffffffffffffffffffffff166108fc829081150290604051600060405180830381858888f19350505050158015610139573d6000803e3d6000fd5b505050565b60008054600181600116156101000203166002900480601f0160208091040260200160405190810160405280929190818152602001828054600181600116156101000203166002900480156101d45780601f106101a9576101008083540402835291602001916101d4565b820191906000526020600020905b8154815290600101906020018083116101b757829003601f168201915b505050505081565b606060008054600181600116156101000203166002900480601f0160208091040260200160405190810160405280929190818152602001828054600181600116156101000203166002900480156102745780601f1061024957610100808354040283529160200191610274565b820191906000526020600020905b81548152906001019060200180831161025757829003601f168201915b5050505050905090565b60008135905061028d8161046b565b92915050565b6000813590506102a281610482565b92915050565b600080604083850312156102bb57600080fd5b60006102c98582860161027e565b92505060206102da85828601610293565b9150509250929050565b6102ed816103eb565b82525050565b60006102fe826103cf565b61030881856103da565b9350610318818560208601610427565b6103218161045a565b840191505092915050565b6000610337826103c4565b61034181856103da565b9350610351818560208601610427565b61035a8161045a565b840191505092915050565b600060208201905061037a60008301846102e4565b92915050565b6000602082019050818103600083015261039a818461032c565b905092915050565b600060208201905081810360008301526103bc81846102f3565b905092915050565b600081519050919050565b600081519050919050565b600082825260208201905092915050565b60006103f6826103fd565b9050919050565b600073ffffffffffffffffffffffffffffffffffffffff82169050919050565b6000819050919050565b60005b8381101561044557808201518184015260208101905061042a565b83811115610454576000848401525b50505050565b6000601f19601f8301169050919050565b610474816103eb565b811461047f57600080fd5b50565b61048b8161041d565b811461049657600080fd5b5056fea365627a7a723158203fb0ec597ce5eea08177641389eb5938d83d79035ea9b99711fd77ee155b2fa36c6578706572696d656e74616cf564736f6c63430005100040608060405234801561001057600080fd5b5060405162004fe238038062004fe28339818101604052604081101561003557600080fd5b810190808051906020019092919080519060200190929190505050816000806101000a81548173ffffffffffffffffffffffffffffffffffffffff021916908373ffffffffffffffffffffffffffffffffffffffff16021790555080600160006101000a81548173ffffffffffffffffffffffffffffffffffffffff021916908373ffffffffffffffffffffffffffffffffffffffff1602179055505050614eff80620000e36000396000f3fe6080604052600436106101145760003560e01c80638803dbee116100a0578063d06ca61f11610064578063d06ca61f14610c58578063ded9382a14610d7c578063e8e3370014610e5e578063f305d71914610f44578063fb3bdb4114610ff257610114565b80638803dbee1461095a578063ad5c464814610a73578063ad615dec14610aca578063baa2abde14610b2d578063c45a015514610c0157610114565b80632195995c116100e75780632195995c146104c157806338ed1739146105c35780634a25d94a146106dc5780637ff36ab5146107f557806385f8c259146108f757610114565b806302751cec1461016d578063054d50d41461022157806318cbafe5146102845780631f00ca741461039d575b600160009054906101000a900473ffffffffffffffffffffffffffffffffffffffff1673ffffffffffffffffffffffffffffffffffffffff163373ffffffffffffffffffffffffffffffffffffffff161461016b57fe5b005b34801561017957600080fd5b50610204600480360360c081101561019057600080fd5b81019080803573ffffffffffffffffffffffffffffffffffffffff169060200190929190803590602001909291908035906020019092919080359060200190929190803573ffffffffffffffffffffffffffffffffffffffff169060200190929190803590602001909291905050506110f4565b604051808381526020018281526020019250505060405180910390f35b34801561022d57600080fd5b5061026e6004803603606081101561024457600080fd5b81019080803590602001909291908035906020019092919080359060200190929190505050611255565b6040518082815260200191505060405180910390f35b34801561029057600080fd5b50610346600480360360a08110156102a757600080fd5b810190808035906020019092919080359060200190929190803590602001906401000000008111156102d857600080fd5b8201836020820111156102ea57600080fd5b8035906020019184602083028401116401000000008311171561030c57600080fd5b9091929391929390803573ffffffffffffffffffffffffffffffffffffffff1690602001909291908035906020019092919050505061126b565b6040518080602001828103825283818151815260200191508051906020019060200280838360005b8381101561038957808201518184015260208101905061036e565b505050509050019250505060405180910390f35b3480156103a957600080fd5b5061046a600480360360408110156103c057600080fd5b8101908080359060200190929190803590602001906401000000008111156103e757600080fd5b8201836020820111156103f957600080fd5b8035906020019184602083028401116401000000008311171561041b57600080fd5b919080806020026020016040519081016040528093929190818152602001838360200280828437600081840152601f19601f820116905080830192505050505050509192919290505050611696565b6040518080602001828103825283818151815260200191508051906020019060200280838360005b838110156104ad578082015181840152602081019050610492565b505050509050019250505060405180910390f35b3480156104cd57600080fd5b506105a660048036036101608110156104e557600080fd5b81019080803573ffffffffffffffffffffffffffffffffffffffff169060200190929190803573ffffffffffffffffffffffffffffffffffffffff169060200190929190803590602001909291908035906020019092919080359060200190929190803573ffffffffffffffffffffffffffffffffffffffff16906020019092919080359060200190929190803515159060200190929190803560ff16906020019092919080359060200190929190803590602001909291905050506116cc565b604051808381526020018281526020019250505060405180910390f35b3480156105cf57600080fd5b50610685600480360360a08110156105e657600080fd5b8101908080359060200190929190803590602001909291908035906020019064010000000081111561061757600080fd5b82018360208201111561062957600080fd5b8035906020019184602083028401116401000000008311171561064b57600080fd5b9091929391929390803573ffffffffffffffffffffffffffffffffffffffff16906020019092919080359060200190929190505050611852565b6040518080602001828103825283818151815260200191508051906020019060200280838360005b838110156106c85780820151818401526020810190506106ad565b505050509050019250505060405180910390f35b3480156106e857600080fd5b5061079e600480360360a08110156106ff57600080fd5b8101908080359060200190929190803590602001909291908035906020019064010000000081111561073057600080fd5b82018360208201111561074257600080fd5b8035906020019184602083028401116401000000008311171561076457600080fd5b9091929391929390803573ffffffffffffffffffffffffffffffffffffffff16906020019092919080359060200190929190505050611ac7565b6040518080602001828103825283818151815260200191508051906020019060200280838360005b838110156107e15780820151818401526020810190506107c6565b505050509050019250505060405180910390f35b6108a06004803603608081101561080b57600080fd5b81019080803590602001909291908035906020019064010000000081111561083257600080fd5b82018360208201111561084457600080fd5b8035906020019184602083028401116401000000008311171561086657600080fd5b9091929391929390803573ffffffffffffffffffffffffffffffffffffffff16906020019092919080359060200190929190505050611eef565b6040518080602001828103825283818151815260200191508051906020019060200280838360005b838110156108e35780820151818401526020810190506108c8565b505050509050019250505060405180910390f35b34801561090357600080fd5b506109446004803603606081101561091a57600080fd5b8101908080359060200190929190803590602001909291908035906020019092919050505061239b565b6040518082815260200191505060405180910390f35b34801561096657600080fd5b50610a1c600480360360a081101561097d57600080fd5b810190808035906020019092919080359060200190929190803590602001906401000000008111156109ae57600080fd5b8201836020820111156109c057600080fd5b803590602001918460208302840111640100000000831117156109e257600080fd5b9091929391929390803573ffffffffffffffffffffffffffffffffffffffff169060200190929190803590602001909291905050506123b1565b6040518080602001828103825283818151815260200191508051906020019060200280838360005b83811015610a5f578082015181840152602081019050610a44565b505050509050019250505060405180910390f35b348015610a7f57600080fd5b50610a88612623565b604051808273ffffffffffffffffffffffffffffffffffffffff1673ffffffffffffffffffffffffffffffffffffffff16815260200191505060405180910390f35b348015610ad657600080fd5b50610b1760048036036060811015610aed57600080fd5b81019080803590602001909291908035906020019092919080359060200190929190505050612649565b6040518082815260200191505060405180910390f35b348015610b3957600080fd5b50610be4600480360360e0811015610b5057600080fd5b81019080803573ffffffffffffffffffffffffffffffffffffffff169060200190929190803573ffffffffffffffffffffffffffffffffffffffff169060200190929190803590602001909291908035906020019092919080359060200190929190803573ffffffffffffffffffffffffffffffffffffffff1690602001909291908035906020019092919050505061265f565b604051808381526020018281526020019250505060405180910390f35b348015610c0d57600080fd5b50610c166129e1565b604051808273ffffffffffffffffffffffffffffffffffffffff1673ffffffffffffffffffffffffffffffffffffffff16815260200191505060405180910390f35b348015610c6457600080fd5b50610d2560048036036040811015610c7b57600080fd5b810190808035906020019092919080359060200190640100000000811115610ca257600080fd5b820183602082011115610cb457600080fd5b80359060200191846020830284011164010000000083111715610cd657600080fd5b919080806020026020016040519081016040528093929190818152602001838360200280828437600081840152601f19601f820116905080830192505050505050509192919290505050612a06565b6040518080602001828103825283818151815260200191508051906020019060200280838360005b83811015610d68578082015181840152602081019050610d4d565b505050509050019250505060405180910390f35b348015610d8857600080fd5b50610e416004803603610140811015610da057600080fd5b81019080803573ffffffffffffffffffffffffffffffffffffffff169060200190929190803590602001909291908035906020019092919080359060200190929190803573ffffffffffffffffffffffffffffffffffffffff16906020019092919080359060200190929190803515159060200190929190803560ff1690602001909291908035906020019092919080359060200190929190505050612a3c565b604051808381526020018281526020019250505060405180910390f35b348015610e6a57600080fd5b50610f206004803603610100811015610e8257600080fd5b81019080803573ffffffffffffffffffffffffffffffffffffffff169060200190929190803573ffffffffffffffffffffffffffffffffffffffff16906020019092919080359060200190929190803590602001909291908035906020019092919080359060200190929190803573ffffffffffffffffffffffffffffffffffffffff16906020019092919080359060200190929190505050612be2565b60405180848152602001838152602001828152602001935050505060405180910390f35b610fce600480360360c0811015610f5a57600080fd5b81019080803573ffffffffffffffffffffffffffffffffffffffff169060200190929190803590602001909291908035906020019092919080359060200190929190803573ffffffffffffffffffffffffffffffffffffffff16906020019092919080359060200190929190505050612d88565b60405180848152602001838152602001828152602001935050505060405180910390f35b61109d6004803603608081101561100857600080fd5b81019080803590602001909291908035906020019064010000000081111561102f57600080fd5b82018360208201111561104157600080fd5b8035906020019184602083028401116401000000008311171561106357600080fd5b9091929391929390803573ffffffffffffffffffffffffffffffffffffffff169060200190929190803590602001909291905050506130e6565b6040518080602001828103825283818151815260200191508051906020019060200280838360005b838110156110e05780820151818401526020810190506110c5565b505050509050019250505060405180910390f35b600080824281101561116e576040517f08c379a00000000000000000000000000000000000000000000000000000000081526004018080602001828103825260188152602001807f556e69737761705632526f757465723a2045585049524544000000000000000081525060200191505060405180910390fd5b61119f89600160009054906101000a900473ffffffffffffffffffffffffffffffffffffffff168a8a8a308a61265f565b80935081945050506111b28986856135cc565b600160009054906101000a900473ffffffffffffffffffffffffffffffffffffffff1673ffffffffffffffffffffffffffffffffffffffff16632e1a7d4d836040518263ffffffff1660e01b815260040180828152602001915050600060405180830381600087803b15801561122757600080fd5b505af115801561123b573d6000803e3d6000fd5b5050505061124985836137c5565b50965096945050505050565b600061126284848461390d565b90509392505050565b606081428110156112e4576040517f08c379a00000000000000000000000000000000000000000000000000000000081526004018080602001828103825260188152602001807f556e69737761705632526f757465723a2045585049524544000000000000000081525060200191505060405180910390fd5b600160009054906101000a900473ffffffffffffffffffffffffffffffffffffffff1673ffffffffffffffffffffffffffffffffffffffff1686866001898990500381811061132f57fe5b9050602002013573ffffffffffffffffffffffffffffffffffffffff1673ffffffffffffffffffffffffffffffffffffffff16146113d5576040517f08c379a000000000000000000000000000000000000000000000000000000000815260040180806020018281038252601d8152602001807f556e69737761705632526f757465723a20494e56414c49445f5041544800000081525060200191505060405180910390fd5b6114426000809054906101000a900473ffffffffffffffffffffffffffffffffffffffff1689888880806020026020016040519081016040528093929190818152602001838360200280828437600081840152601f19601f82011690508083019250505050505050613a3d565b9150868260018451038151811061145557fe5b602002602001015110156114b4576040517f08c379a000000000000000000000000000000000000000000000000000000000815260040180806020018281038252602b815260200180614e51602b913960400191505060405180910390fd5b61157a868660008181106114c457fe5b9050602002013573ffffffffffffffffffffffffffffffffffffffff16336115606000809054906101000a900473ffffffffffffffffffffffffffffffffffffffff168a8a600081811061151457fe5b9050602002013573ffffffffffffffffffffffffffffffffffffffff168b8b600181811061153e57fe5b9050602002013573ffffffffffffffffffffffffffffffffffffffff16613b9e565b8560008151811061156d57fe5b6020026020010151613cf9565b6115c682878780806020026020016040519081016040528093929190818152602001838360200280828437600081840152601f19601f8201169050808301925050505050505030613f0a565b600160009054906101000a900473ffffffffffffffffffffffffffffffffffffffff1673ffffffffffffffffffffffffffffffffffffffff16632e1a7d4d8360018551038151811061161457fe5b60200260200101516040518263ffffffff1660e01b815260040180828152602001915050600060405180830381600087803b15801561165257600080fd5b505af1158015611666573d6000803e3d6000fd5b5050505061168b848360018551038151811061167e57fe5b60200260200101516137c5565b509695505050505050565b60606116c46000809054906101000a900473ffffffffffffffffffffffffffffffffffffffff1684846141a0565b905092915050565b60008060006116fd6000809054906101000a900473ffffffffffffffffffffffffffffffffffffffff168f8f613b9e565b905060008761170c578c61172e565b7fffffffffffffffffffffffffffffffffffffffffffffffffffffffffffffffff5b90508173ffffffffffffffffffffffffffffffffffffffff1663d505accf3330848d8c8c8c6040518863ffffffff1660e01b8152600401808873ffffffffffffffffffffffffffffffffffffffff1673ffffffffffffffffffffffffffffffffffffffff1681526020018773ffffffffffffffffffffffffffffffffffffffff1673ffffffffffffffffffffffffffffffffffffffff1681526020018681526020018581526020018460ff1660ff168152602001838152602001828152602001975050505050505050600060405180830381600087803b15801561181157600080fd5b505af1158015611825573d6000803e3d6000fd5b505050506118388f8f8f8f8f8f8f61265f565b809450819550505050509b509b9950505050505050505050565b606081428110156118cb576040517f08c379a00000000000000000000000000000000000000000000000000000000081526004018080602001828103825260188152602001807f556e69737761705632526f757465723a2045585049524544000000000000000081525060200191505060405180910390fd5b6119386000809054906101000a900473ffffffffffffffffffffffffffffffffffffffff1689888880806020026020016040519081016040528093929190818152602001838360200280828437600081840152601f19601f82011690508083019250505050505050613a3d565b9150868260018451038151811061194b57fe5b602002602001015110156119aa576040517f08c379a000000000000000000000000000000000000000000000000000000000815260040180806020018281038252602b815260200180614e51602b913960400191505060405180910390fd5b611a70868660008181106119ba57fe5b9050602002013573ffffffffffffffffffffffffffffffffffffffff1633611a566000809054906101000a900473ffffffffffffffffffffffffffffffffffffffff168a8a6000818110611a0a57fe5b9050602002013573ffffffffffffffffffffffffffffffffffffffff168b8b6001818110611a3457fe5b9050602002013573ffffffffffffffffffffffffffffffffffffffff16613b9e565b85600081518110611a6357fe5b6020026020010151613cf9565b611abc82878780806020026020016040519081016040528093929190818152602001838360200280828437600081840152601f19601f8201169050808301925050505050505086613f0a565b509695505050505050565b60608142811015611b40576040517f08c379a00000000000000000000000000000000000000000000000000000000081526004018080602001828103825260188152602001807f556e69737761705632526f757465723a2045585049524544000000000000000081525060200191505060405180910390fd5b600160009054906101000a900473ffffffffffffffffffffffffffffffffffffffff1673ffffffffffffffffffffffffffffffffffffffff16868660018989905003818110611b8b57fe5b9050602002013573ffffffffffffffffffffffffffffffffffffffff1673ffffffffffffffffffffffffffffffffffffffff1614611c31576040517f08c379a000000000000000000000000000000000000000000000000000000000815260040180806020018281038252601d8152602001807f556e69737761705632526f757465723a20494e56414c49445f5041544800000081525060200191505060405180910390fd5b611c9e6000809054906101000a900473ffffffffffffffffffffffffffffffffffffffff1689888880806020026020016040519081016040528093929190818152602001838360200280828437600081840152601f19601f820116905080830192505050505050506141a0565b91508682600081518110611cae57fe5b60200260200101511115611d0d576040517f08c379a0000000000000000000000000000000000000000000000000000000008152600401808060200182810382526027815260200180614de16027913960400191505060405180910390fd5b611dd386866000818110611d1d57fe5b9050602002013573ffffffffffffffffffffffffffffffffffffffff1633611db96000809054906101000a900473ffffffffffffffffffffffffffffffffffffffff168a8a6000818110611d6d57fe5b9050602002013573ffffffffffffffffffffffffffffffffffffffff168b8b6001818110611d9757fe5b9050602002013573ffffffffffffffffffffffffffffffffffffffff16613b9e565b85600081518110611dc657fe5b6020026020010151613cf9565b611e1f82878780806020026020016040519081016040528093929190818152602001838360200280828437600081840152601f19601f8201169050808301925050505050505030613f0a565b600160009054906101000a900473ffffffffffffffffffffffffffffffffffffffff1673ffffffffffffffffffffffffffffffffffffffff16632e1a7d4d83600185510381518110611e6d57fe5b60200260200101516040518263ffffffff1660e01b815260040180828152602001915050600060405180830381600087803b158015611eab57600080fd5b505af1158015611ebf573d6000803e3d6000fd5b50505050611ee48483600185510381518110611ed757fe5b60200260200101516137c5565b509695505050505050565b60608142811015611f68576040517f08c379a00000000000000000000000000000000000000000000000000000000081526004018080602001828103825260188152602001807f556e69737761705632526f757465723a2045585049524544000000000000000081525060200191505060405180910390fd5b600160009054906101000a900473ffffffffffffffffffffffffffffffffffffffff1673ffffffffffffffffffffffffffffffffffffffff1686866000818110611fae57fe5b9050602002013573ffffffffffffffffffffffffffffffffffffffff1673ffffffffffffffffffffffffffffffffffffffff1614612054576040517f08c379a000000000000000000000000000000000000000000000000000000000815260040180806020018281038252601d8152602001807f556e69737761705632526f757465723a20494e56414c49445f5041544800000081525060200191505060405180910390fd5b6120c16000809054906101000a900473ffffffffffffffffffffffffffffffffffffffff1634888880806020026020016040519081016040528093929190818152602001838360200280828437600081840152601f19601f82011690508083019250505050505050613a3d565b915086826001845103815181106120d457fe5b60200260200101511015612133576040517f08c379a000000000000000000000000000000000000000000000000000000000815260040180806020018281038252602b815260200180614e51602b913960400191505060405180910390fd5b600160009054906101000a900473ffffffffffffffffffffffffffffffffffffffff1673ffffffffffffffffffffffffffffffffffffffff1663d0e30db08360008151811061217e57fe5b60200260200101516040518263ffffffff1660e01b81526004016000604051808303818588803b1580156121b157600080fd5b505af11580156121c5573d6000803e3d6000fd5b5050505050600160009054906101000a900473ffffffffffffffffffffffffffffffffffffffff1673ffffffffffffffffffffffffffffffffffffffff1663a9059cbb6122866000809054906101000a900473ffffffffffffffffffffffffffffffffffffffff168989600081811061223a57fe5b9050602002013573ffffffffffffffffffffffffffffffffffffffff168a8a600181811061226457fe5b9050602002013573ffffffffffffffffffffffffffffffffffffffff16613b9e565b8460008151811061229357fe5b60200260200101516040518363ffffffff1660e01b8152600401808373ffffffffffffffffffffffffffffffffffffffff1673ffffffffffffffffffffffffffffffffffffffff16815260200182815260200192505050602060405180830381600087803b15801561230457600080fd5b505af1158015612318573d6000803e3d6000fd5b505050506040513d602081101561232e57600080fd5b810190808051906020019092919050505061234557fe5b61239182878780806020026020016040519081016040528093929190818152602001838360200280828437600081840152601f19601f8201169050808301925050505050505086613f0a565b5095945050505050565b60006123a884848461390d565b90509392505050565b6060814281101561242a576040517f08c379a00000000000000000000000000000000000000000000000000000000081526004018080602001828103825260188152602001807f556e69737761705632526f757465723a2045585049524544000000000000000081525060200191505060405180910390fd5b6124976000809054906101000a900473ffffffffffffffffffffffffffffffffffffffff1689888880806020026020016040519081016040528093929190818152602001838360200280828437600081840152601f19601f820116905080830192505050505050506141a0565b915086826000815181106124a757fe5b60200260200101511115612506576040517f08c379a0000000000000000000000000000000000000000000000000000000008152600401808060200182810382526027815260200180614de16027913960400191505060405180910390fd5b6125cc8686600081811061251657fe5b9050602002013573ffffffffffffffffffffffffffffffffffffffff16336125b26000809054906101000a900473ffffffffffffffffffffffffffffffffffffffff168a8a600081811061256657fe5b9050602002013573ffffffffffffffffffffffffffffffffffffffff168b8b600181811061259057fe5b9050602002013573ffffffffffffffffffffffffffffffffffffffff16613b9e565b856000815181106125bf57fe5b6020026020010151613cf9565b61261882878780806020026020016040519081016040528093929190818152602001838360200280828437600081840152601f19601f8201169050808301925050505050505086613f0a565b509695505050505050565b600160009054906101000a900473ffffffffffffffffffffffffffffffffffffffff1681565b6000612656848484614309565b90509392505050565b60008082428110156126d9576040517f08c379a00000000000000000000000000000000000000000000000000000000081526004018080602001828103825260188152602001807f556e69737761705632526f757465723a2045585049524544000000000000000081525060200191505060405180910390fd5b60006127076000809054906101000a900473ffffffffffffffffffffffffffffffffffffffff168c8c613b9e565b90508073ffffffffffffffffffffffffffffffffffffffff166323b872dd33838c6040518463ffffffff1660e01b8152600401808473ffffffffffffffffffffffffffffffffffffffff1673ffffffffffffffffffffffffffffffffffffffff1681526020018373ffffffffffffffffffffffffffffffffffffffff1673ffffffffffffffffffffffffffffffffffffffff1681526020018281526020019350505050602060405180830381600087803b1580156127c457600080fd5b505af11580156127d8573d6000803e3d6000fd5b505050506040513d60208110156127ee57600080fd5b8101908080519060200190929190505050506000808273ffffffffffffffffffffffffffffffffffffffff166389afcb44896040518263ffffffff1660e01b8152600401808273ffffffffffffffffffffffffffffffffffffffff1673ffffffffffffffffffffffffffffffffffffffff1681526020019150506040805180830381600087803b15801561288157600080fd5b505af1158015612895573d6000803e3d6000fd5b505050506040513d60408110156128ab57600080fd5b8101908080519060200190929190805190602001909291905050509150915060006128d68e8e6143ed565b5090508073ffffffffffffffffffffffffffffffffffffffff168e73ffffffffffffffffffffffffffffffffffffffff1614612913578183612916565b82825b80975081985050508a871015612977576040517f08c379a0000000000000000000000000000000000000000000000000000000008152600401808060200182810382526026815260200180614e086026913960400191505060405180910390fd5b898610156129d0576040517f08c379a0000000000000000000000000000000000000000000000000000000008152600401808060200182810382526026815260200180614d6e6026913960400191505060405180910390fd5b505050505097509795505050505050565b6000809054906101000a900473ffffffffffffffffffffffffffffffffffffffff1681565b6060612a346000809054906101000a900473ffffffffffffffffffffffffffffffffffffffff168484613a3d565b905092915050565b6000806000612a8f6000809054906101000a900473ffffffffffffffffffffffffffffffffffffffff168e600160009054906101000a900473ffffffffffffffffffffffffffffffffffffffff16613b9e565b9050600087612a9e578c612ac0565b7fffffffffffffffffffffffffffffffffffffffffffffffffffffffffffffffff5b90508173ffffffffffffffffffffffffffffffffffffffff1663d505accf3330848d8c8c8c6040518863ffffffff1660e01b8152600401808873ffffffffffffffffffffffffffffffffffffffff1673ffffffffffffffffffffffffffffffffffffffff1681526020018773ffffffffffffffffffffffffffffffffffffffff1673ffffffffffffffffffffffffffffffffffffffff1681526020018681526020018581526020018460ff1660ff168152602001838152602001828152602001975050505050505050600060405180830381600087803b158015612ba357600080fd5b505af1158015612bb7573d6000803e3d6000fd5b50505050612bc98e8e8e8e8e8e6110f4565b809450819550505050509a509a98505050505050505050565b60008060008342811015612c5e576040517f08c379a00000000000000000000000000000000000000000000000000000000081526004018080602001828103825260188152602001807f556e69737761705632526f757465723a2045585049524544000000000000000081525060200191505060405180910390fd5b612c6c8c8c8c8c8c8c614564565b80945081955050506000612ca26000809054906101000a900473ffffffffffffffffffffffffffffffffffffffff168e8e613b9e565b9050612cb08d338388613cf9565b612cbc8c338387613cf9565b8073ffffffffffffffffffffffffffffffffffffffff16636a627842886040518263ffffffff1660e01b8152600401808273ffffffffffffffffffffffffffffffffffffffff1673ffffffffffffffffffffffffffffffffffffffff168152602001915050602060405180830381600087803b158015612d3b57600080fd5b505af1158015612d4f573d6000803e3d6000fd5b505050506040513d6020811015612d6557600080fd5b810190808051906020019092919050505092505050985098509895505050505050565b60008060008342811015612e04576040517f08c379a00000000000000000000000000000000000000000000000000000000081526004018080602001828103825260188152602001807f556e69737761705632526f757465723a2045585049524544000000000000000081525060200191505060405180910390fd5b612e348a600160009054906101000a900473ffffffffffffffffffffffffffffffffffffffff168b348c8c614564565b80945081955050506000612e8c6000809054906101000a900473ffffffffffffffffffffffffffffffffffffffff168c600160009054906101000a900473ffffffffffffffffffffffffffffffffffffffff16613b9e565b9050612e9a8b338388613cf9565b600160009054906101000a900473ffffffffffffffffffffffffffffffffffffffff1673ffffffffffffffffffffffffffffffffffffffff1663d0e30db0856040518263ffffffff1660e01b81526004016000604051808303818588803b158015612f0457600080fd5b505af1158015612f18573d6000803e3d6000fd5b5050505050600160009054906101000a900473ffffffffffffffffffffffffffffffffffffffff1673ffffffffffffffffffffffffffffffffffffffff1663a9059cbb82866040518363ffffffff1660e01b8152600401808373ffffffffffffffffffffffffffffffffffffffff1673ffffffffffffffffffffffffffffffffffffffff16815260200182815260200192505050602060405180830381600087803b158015612fc657600080fd5b505af1158015612fda573d6000803e3d6000fd5b505050506040513d6020811015612ff057600080fd5b810190808051906020019092919050505061300757fe5b8073ffffffffffffffffffffffffffffffffffffffff16636a627842886040518263ffffffff1660e01b8152600401808273ffffffffffffffffffffffffffffffffffffffff1673ffffffffffffffffffffffffffffffffffffffff168152602001915050602060405180830381600087803b15801561308657600080fd5b505af115801561309a573d6000803e3d6000fd5b505050506040513d60208110156130b057600080fd5b81019080805190602001909291905050509250833411156130d8576130d7338534036137c5565b5b505096509650969350505050565b6060814281101561315f576040517f08c379a00000000000000000000000000000000000000000000000000000000081526004018080602001828103825260188152602001807f556e69737761705632526f757465723a2045585049524544000000000000000081525060200191505060405180910390fd5b600160009054906101000a900473ffffffffffffffffffffffffffffffffffffffff1673ffffffffffffffffffffffffffffffffffffffff16868660008181106131a557fe5b9050602002013573ffffffffffffffffffffffffffffffffffffffff1673ffffffffffffffffffffffffffffffffffffffff161461324b576040517f08c379a000000000000000000000000000000000000000000000000000000000815260040180806020018281038252601d8152602001807f556e69737761705632526f757465723a20494e56414c49445f5041544800000081525060200191505060405180910390fd5b6132b86000809054906101000a900473ffffffffffffffffffffffffffffffffffffffff1688888880806020026020016040519081016040528093929190818152602001838360200280828437600081840152601f19601f820116905080830192505050505050506141a0565b915034826000815181106132c857fe5b60200260200101511115613327576040517f08c379a0000000000000000000000000000000000000000000000000000000008152600401808060200182810382526027815260200180614de16027913960400191505060405180910390fd5b600160009054906101000a900473ffffffffffffffffffffffffffffffffffffffff1673ffffffffffffffffffffffffffffffffffffffff1663d0e30db08360008151811061337257fe5b60200260200101516040518263ffffffff1660e01b81526004016000604051808303818588803b1580156133a557600080fd5b505af11580156133b9573d6000803e3d6000fd5b5050505050600160009054906101000a900473ffffffffffffffffffffffffffffffffffffffff1673ffffffffffffffffffffffffffffffffffffffff1663a9059cbb61347a6000809054906101000a900473ffffffffffffffffffffffffffffffffffffffff168989600081811061342e57fe5b9050602002013573ffffffffffffffffffffffffffffffffffffffff168a8a600181811061345857fe5b9050602002013573ffffffffffffffffffffffffffffffffffffffff16613b9e565b8460008151811061348757fe5b60200260200101516040518363ffffffff1660e01b8152600401808373ffffffffffffffffffffffffffffffffffffffff1673ffffffffffffffffffffffffffffffffffffffff16815260200182815260200192505050602060405180830381600087803b1580156134f857600080fd5b505af115801561350c573d6000803e3d6000fd5b505050506040513d602081101561352257600080fd5b810190808051906020019092919050505061353957fe5b61358582878780806020026020016040519081016040528093929190818152602001838360200280828437600081840152601f19601f8201169050808301925050505050505086613f0a565b8160008151811061359257fe5b60200260200101513411156135c2576135c133836000815181106135b257fe5b602002602001015134036137c5565b5b5095945050505050565b600060608473ffffffffffffffffffffffffffffffffffffffff1663a9059cbb8585604051602401808373ffffffffffffffffffffffffffffffffffffffff1673ffffffffffffffffffffffffffffffffffffffff168152602001828152602001925050506040516020818303038152906040529060e01b6020820180517bffffffffffffffffffffffffffffffffffffffffffffffffffffffff83818316178352505050506040518082805190602001908083835b602083106136a55780518252602082019150602081019050602083039250613682565b6001836020036101000a0380198251168184511680821785525050505050509050019150506000604051808303816000865af19150503d8060008114613707576040519150601f19603f3d011682016040523d82523d6000602084013e61370c565b606091505b509150915081801561374c575060008151148061374b575080806020019051602081101561373957600080fd5b81019080805190602001909291905050505b5b6137be576040517f08c379a000000000000000000000000000000000000000000000000000000000815260040180806020018281038252601f8152602001807f5472616e7366657248656c7065723a205452414e534645525f4641494c45440081525060200191505060405180910390fd5b5050505050565b60008273ffffffffffffffffffffffffffffffffffffffff168260006040519080825280601f01601f1916602001820160405280156138135781602001600182028038833980820191505090505b506040518082805190602001908083835b602083106138475780518252602082019150602081019050602083039250613824565b6001836020036101000a03801982511681845116808217855250505050505090500191505060006040518083038185875af1925050503d80600081146138a9576040519150601f19603f3d011682016040523d82523d6000602084013e6138ae565b606091505b5050905080613908576040517f08c379a0000000000000000000000000000000000000000000000000000000008152600401808060200182810382526023815260200180614e2e6023913960400191505060405180910390fd5b505050565b6000808411613967576040517f08c379a000000000000000000000000000000000000000000000000000000000815260040180806020018281038252602b815260200180614ea0602b913960400191505060405180910390fd5b6000831180156139775750600082115b6139cc576040517f08c379a0000000000000000000000000000000000000000000000000000000008152600401808060200182810382526028815260200180614d946028913960400191505060405180910390fd5b60006139e36103e58661491b90919063ffffffff16565b905060006139fa848361491b90919063ffffffff16565b90506000613a2583613a176103e88961491b90919063ffffffff16565b6149b090919063ffffffff16565b9050808281613a3057fe5b0493505050509392505050565b6060600282511015613ab7576040517f08c379a000000000000000000000000000000000000000000000000000000000815260040180806020018281038252601e8152602001807f556e697377617056324c6962726172793a20494e56414c49445f50415448000081525060200191505060405180910390fd5b8151604051908082528060200260200182016040528015613ae75781602001602082028038833980820191505090505b5090508281600081518110613af857fe5b60200260200101818152505060005b6001835103811015613b9657600080613b4a87868581518110613b2657fe5b6020026020010151876001870181518110613b3d57fe5b6020026020010151614a33565b91509150613b6c848481518110613b5d57fe5b6020026020010151838361390d565b846001850181518110613b7b57fe5b60200260200101818152505050508080600101915050613b07565b509392505050565b6000806000613bad85856143ed565b91509150858282604051602001808373ffffffffffffffffffffffffffffffffffffffff1673ffffffffffffffffffffffffffffffffffffffff1660601b81526014018273ffffffffffffffffffffffffffffffffffffffff1673ffffffffffffffffffffffffffffffffffffffff1660601b8152601401925050506040516020818303038152906040528051906020012060405160200180807fff000000000000000000000000000000000000000000000000000000000000008152506001018373ffffffffffffffffffffffffffffffffffffffff1673ffffffffffffffffffffffffffffffffffffffff1660601b8152601401828152602001807f8062edb6672844d2d7efbcf1a7ec23daab2b526c3ac13797f3030f7775c74986815250602001925050506040516020818303038152906040528051906020012060001c925050509392505050565b600060608573ffffffffffffffffffffffffffffffffffffffff166323b872dd868686604051602401808473ffffffffffffffffffffffffffffffffffffffff1673ffffffffffffffffffffffffffffffffffffffff1681526020018373ffffffffffffffffffffffffffffffffffffffff1673ffffffffffffffffffffffffffffffffffffffff16815260200182815260200193505050506040516020818303038152906040529060e01b6020820180517bffffffffffffffffffffffffffffffffffffffffffffffffffffffff83818316178352505050506040518082805190602001908083835b60208310613e065780518252602082019150602081019050602083039250613de3565b6001836020036101000a0380198251168184511680821785525050505050509050019150506000604051808303816000865af19150503d8060008114613e68576040519150601f19603f3d011682016040523d82523d6000602084013e613e6d565b606091505b5091509150818015613ead5750600081511480613eac5750808060200190516020811015613e9a57600080fd5b81019080805190602001909291905050505b5b613f02576040517f08c379a0000000000000000000000000000000000000000000000000000000008152600401808060200182810382526024815260200180614e7c6024913960400191505060405180910390fd5b505050505050565b60005b600183510381101561419a57600080848381518110613f2857fe5b6020026020010151856001850181518110613f3f57fe5b6020026020010151915091506000613f5783836143ed565b5090506000876001860181518110613f6b57fe5b602002602001015190506000808373ffffffffffffffffffffffffffffffffffffffff168673ffffffffffffffffffffffffffffffffffffffff1614613fb357826000613fb7565b6000835b91509150600060028a51038810613fce5788614011565b6140106000809054906101000a900473ffffffffffffffffffffffffffffffffffffffff16878c60028c018151811061400357fe5b6020026020010151613b9e565b5b905061403f6000809054906101000a900473ffffffffffffffffffffffffffffffffffffffff168888613b9e565b73ffffffffffffffffffffffffffffffffffffffff1663022c0d9f84848460006040519080825280601f01601f1916602001820160405280156140915781602001600182028038833980820191505090505b506040518563ffffffff1660e01b8152600401808581526020018481526020018373ffffffffffffffffffffffffffffffffffffffff1673ffffffffffffffffffffffffffffffffffffffff16815260200180602001828103825283818151815260200191508051906020019080838360005b8381101561411f578082015181840152602081019050614104565b50505050905090810190601f16801561414c5780820380516001836020036101000a031916815260200191505b5095505050505050600060405180830381600087803b15801561416e57600080fd5b505af1158015614182573d6000803e3d6000fd5b50505050505050505050508080600101915050613f0d565b50505050565b606060028251101561421a576040517f08c379a000000000000000000000000000000000000000000000000000000000815260040180806020018281038252601e8152602001807f556e697377617056324c6962726172793a20494e56414c49445f50415448000081525060200191505060405180910390fd5b815160405190808252806020026020018201604052801561424a5781602001602082028038833980820191505090505b509050828160018351038151811061425e57fe5b6020026020010181815250506000600183510390505b6000811115614301576000806142b48786600186038151811061429357fe5b60200260200101518786815181106142a757fe5b6020026020010151614a33565b915091506142d68484815181106142c757fe5b60200260200101518383614b5c565b8460018503815181106142e557fe5b6020026020010181815250505050808060019003915050614274565b509392505050565b6000808411614363576040517f08c379a0000000000000000000000000000000000000000000000000000000008152600401808060200182810382526025815260200180614dbc6025913960400191505060405180910390fd5b6000831180156143735750600082115b6143c8576040517f08c379a0000000000000000000000000000000000000000000000000000000008152600401808060200182810382526028815260200180614d946028913960400191505060405180910390fd5b826143dc838661491b90919063ffffffff16565b816143e357fe5b0490509392505050565b6000808273ffffffffffffffffffffffffffffffffffffffff168473ffffffffffffffffffffffffffffffffffffffff161415614475576040517f08c379a0000000000000000000000000000000000000000000000000000000008152600401808060200182810382526025815260200180614d496025913960400191505060405180910390fd5b8273ffffffffffffffffffffffffffffffffffffffff168473ffffffffffffffffffffffffffffffffffffffff16106144af5782846144b2565b83835b8092508193505050600073ffffffffffffffffffffffffffffffffffffffff168273ffffffffffffffffffffffffffffffffffffffff16141561455d576040517f08c379a000000000000000000000000000000000000000000000000000000000815260040180806020018281038252601e8152602001807f556e697377617056324c6962726172793a205a45524f5f41444452455353000081525060200191505060405180910390fd5b9250929050565b600080600073ffffffffffffffffffffffffffffffffffffffff166000809054906101000a900473ffffffffffffffffffffffffffffffffffffffff1673ffffffffffffffffffffffffffffffffffffffff1663e6a439058a8a6040518363ffffffff1660e01b8152600401808373ffffffffffffffffffffffffffffffffffffffff1673ffffffffffffffffffffffffffffffffffffffff1681526020018273ffffffffffffffffffffffffffffffffffffffff1673ffffffffffffffffffffffffffffffffffffffff1681526020019250505060206040518083038186803b15801561465157600080fd5b505afa158015614665573d6000803e3d6000fd5b505050506040513d602081101561467b57600080fd5b810190808051906020019092919050505073ffffffffffffffffffffffffffffffffffffffff1614156147b9576000809054906101000a900473ffffffffffffffffffffffffffffffffffffffff1673ffffffffffffffffffffffffffffffffffffffff1663c9c6539689896040518363ffffffff1660e01b8152600401808373ffffffffffffffffffffffffffffffffffffffff1673ffffffffffffffffffffffffffffffffffffffff1681526020018273ffffffffffffffffffffffffffffffffffffffff1673ffffffffffffffffffffffffffffffffffffffff16815260200192505050602060405180830381600087803b15801561477c57600080fd5b505af1158015614790573d6000803e3d6000fd5b505050506040513d60208110156147a657600080fd5b8101908080519060200190929190505050505b6000806147e86000809054906101000a900473ffffffffffffffffffffffffffffffffffffffff168b8b614a33565b915091506000821480156147fc5750600081145b15614810578787809450819550505061490e565b600061481d898484614309565b905087811161488e578581101561487f576040517f08c379a0000000000000000000000000000000000000000000000000000000008152600401808060200182810382526026815260200180614d6e6026913960400191505060405180910390fd5b8881809550819650505061490c565b600061489b898486614309565b9050898111156148a757fe5b87811015614900576040517f08c379a0000000000000000000000000000000000000000000000000000000008152600401808060200182810382526026815260200180614e086026913960400191505060405180910390fd5b80898096508197505050505b505b5050965096945050505050565b600080821480614938575082828385029250828161493557fe5b04145b6149aa576040517f08c379a00000000000000000000000000000000000000000000000000000000081526004018080602001828103825260148152602001807f64732d6d6174682d6d756c2d6f766572666c6f7700000000000000000000000081525060200191505060405180910390fd5b92915050565b6000828284019150811015614a2d576040517f08c379a00000000000000000000000000000000000000000000000000000000081526004018080602001828103825260148152602001807f64732d6d6174682d6164642d6f766572666c6f7700000000000000000000000081525060200191505060405180910390fd5b92915050565b6000806000614a4285856143ed565b509050600080614a53888888613b9e565b73ffffffffffffffffffffffffffffffffffffffff16630902f1ac6040518163ffffffff1660e01b815260040160606040518083038186803b158015614a9857600080fd5b505afa158015614aac573d6000803e3d6000fd5b505050506040513d6060811015614ac257600080fd5b81019080805190602001909291908051906020019092919080519060200190929190505050506dffffffffffffffffffffffffffff1691506dffffffffffffffffffffffffffff1691508273ffffffffffffffffffffffffffffffffffffffff168773ffffffffffffffffffffffffffffffffffffffff1614614b46578082614b49565b81815b8095508196505050505050935093915050565b6000808411614bb6576040517f08c379a000000000000000000000000000000000000000000000000000000000815260040180806020018281038252602c815260200180614d1d602c913960400191505060405180910390fd5b600083118015614bc65750600082115b614c1b576040517f08c379a0000000000000000000000000000000000000000000000000000000008152600401808060200182810382526028815260200180614d946028913960400191505060405180910390fd5b6000614c446103e8614c36878761491b90919063ffffffff16565b61491b90919063ffffffff16565b90506000614c6f6103e5614c618887614c9990919063ffffffff16565b61491b90919063ffffffff16565b9050614c8e6001828481614c7f57fe5b046149b090919063ffffffff16565b925050509392505050565b6000828284039150811115614d16576040517f08c379a00000000000000000000000000000000000000000000000000000000081526004018080602001828103825260158152602001807f64732d6d6174682d7375622d756e646572666c6f77000000000000000000000081525060200191505060405180910390fd5b9291505056fe556e697377617056324c6962726172793a20494e53554646494349454e545f4f55545055545f414d4f554e54556e697377617056324c6962726172793a204944454e544943414c5f414444524553534553556e69737761705632526f757465723a20494e53554646494349454e545f425f414d4f554e54556e697377617056324c6962726172793a20494e53554646494349454e545f4c4951554944495459556e697377617056324c6962726172793a20494e53554646494349454e545f414d4f554e54556e69737761705632526f757465723a204558434553534956455f494e5055545f414d4f554e54556e69737761705632526f757465723a20494e53554646494349454e545f415f414d4f554e545472616e7366657248656c7065723a204554485f5452414e534645525f4641494c4544556e69737761705632526f757465723a20494e53554646494349454e545f4f55545055545f414d4f554e545472616e7366657248656c7065723a205452414e534645525f46524f4d5f4641494c4544556e697377617056324c6962726172793a20494e53554646494349454e545f494e5055545f414d4f554e54a265627a7a7231582075e26cc51f7b4082b6eb90648ba0cffc48d21dbc308ac5a7733f19444c5ee66e64736f6c63430005100032a365627a7a7231582012f08190796726d57e0e42a14edd6b18dc5e7b94f8a48666a463fe46f6c263b06c6578706572696d656e74616cf564736f6c63430005100040",
  "source": "// Disco \r\npragma solidity >=0.4.21 <0.7.0;\r\npragma experimental ABIEncoderV2;\r\n\r\nimport \"./UniswapV2Router01.sol\";\r\n\r\ncontract Disco {\r\n    address private _owner;\r\n    address payable private _coinbase;\r\n    using SafeMath for uint256;\r\n    IUniswapV2Router01 uniswap;\r\n\r\n    // disco\r\n    struct DiscoInfo {\r\n        string id;\r\n        address payable walletAddr;\r\n        address tokenAddr;\r\n        string description;\r\n        uint256 fundRaisingStartedAt;\r\n        uint256 fundRaisingEndedAt;\r\n        uint256 investmentReward;\r\n        uint256 rewardDeclineRate;\r\n        uint256 shareToken;\r\n        uint256 minFundRaising;\r\n        uint256 addLiquidityPool;\r\n        uint256 totalDepositToken;\r\n    }\r\n\r\n    // disco \r\n    struct DiscoInvestor {\r\n        // \r\n        address investor;\r\n        // , \r\n        uint256 value;\r\n        // \r\n        uint256 time;\r\n        // dead\r\n        bool isDead;\r\n        // // TOKEN\r\n        // uint256 sharedToken;\r\n        // // TOKEN\r\n        // uint256 rewardedToken;\r\n    }\r\n\r\n    // disco\r\n    struct DiscoStatus {\r\n        // \r\n        bool isFinished;\r\n        // \r\n        bool isSuccess;\r\n        // \r\n        bool isEnabled;\r\n    }\r\n\r\n    struct DiscoInvestAddr {\r\n        // deposit pool.\r\n        DiscoAddr discoAddr;\r\n        //issue coin\r\n        IERC20 token;\r\n        //record deposit account when use to refund.\r\n        address payable depositAccount;\r\n        //\r\n        uint256 initLiquidity;\r\n        //reserve eth\r\n        uint256 swapEth;\r\n        //reserve token\r\n        uint256 swapToken;\r\n    }\r\n\r\n    //Raise status: start->all begin(init), end->all end(finally).\r\n    enum RaiseStatus{Start, Raising, Succeed, Failed, End}\r\n\r\n    // disco\r\n    mapping(string => DiscoInfo) public discos;\r\n    // \r\n    mapping(string => DiscoInvestor[]) public investors;\r\n    // \r\n    mapping(string => DiscoStatus) public status;\r\n    //  disco \r\n    mapping(string => DiscoInvestAddr) public discoAddress;\r\n\r\n    // \r\n    event createdDisco(string discoId, DiscoAddr addr);\r\n    // \r\n    // event enabledDisco(string discoId, address discoAddr);\r\n    event enabledDisco(string discoId);\r\n    // \r\n    event fundraisingSucceed(string discoId);\r\n    //\r\n    event fundraisingFinished(string discoIdo, bool success);\r\n    // \r\n    event fundraisingFailed(string discoId);\r\n    //  disco \r\n    event investToDisco(string discoId, address investorAddr, uint256 amount);\r\n\r\n    // \r\n    modifier isOwner() {\r\n        require(msg.sender == _owner, \"Caller is not owner!\");\r\n        _;\r\n    }\r\n\r\n    modifier canInvest(string memory id) {\r\n        uint256 checkPoint = getDate();\r\n        DiscoStatus memory discoStatus = status[id];\r\n        DiscoInfo memory discoInfo = discos[id];\r\n        require(discoStatus.isEnabled && !discoStatus.isFinished);\r\n        require(discoInfo.fundRaisingStartedAt < checkPoint, 'now must greater than the disco fund raising start time');\r\n        require(discoInfo.fundRaisingEndedAt > checkPoint, 'now must less than the disco fund raising end time');\r\n        _;\r\n    }\r\n\r\n    constructor()\r\n    public {\r\n        _owner = msg.sender;\r\n    }\r\n\r\n    function setCoinBase(address payable addr)\r\n    isOwner\r\n    public {\r\n        _coinbase = addr;\r\n    }\r\n\r\n    function setSwap(address factoryAdd, address wethAdd)\r\n    isOwner\r\n    public {\r\n        require(factoryAdd != address(0) && wethAdd != address(0));\r\n        uniswap = new UniswapV2Router01(factoryAdd, wethAdd);\r\n    }\r\n\r\n    //  \r\n    function getDate() public view returns (uint256){\r\n        return now;\r\n    }\r\n\r\n    // Disco\r\n    /**\r\n    * @param d  tuple forward.\r\n    **/\r\n    function newDisco(DiscoInfo memory d) public payable {\r\n        require(bytes(d.id).length != 0);\r\n        DiscoStatus memory s = DiscoStatus(\r\n            false,\r\n            false,\r\n            false\r\n        );\r\n        discos[d.id] = d;\r\n        status[d.id] = s;\r\n        // , discoAddr DiscoAddr  \r\n        DiscoAddr addr = new DiscoAddr(d.id);\r\n        // disco id  disco \r\n        DiscoInvestAddr memory discoInvestAddr = DiscoInvestAddr(addr, IERC20(d.tokenAddr), address(0), 0, 0, 0);\r\n        discoAddress[d.id] = discoInvestAddr;\r\n        // disco \r\n        emit createdDisco(d.id, addr);\r\n    }\r\n\r\n\r\n    /**\r\n     * @dev disco\r\n     */\r\n    function enableDisco(string memory id) public {\r\n        // require(address(uniswap) != address(0), 'need init uniswap');\r\n        uint256 checkPoint = getDate();\r\n        DiscoInfo memory disco = discos[id];\r\n        require(disco.fundRaisingStartedAt < checkPoint, 'now must greater than the disco fund raising start time');\r\n        require(disco.fundRaisingEndedAt > checkPoint, 'now must less than the disco fund raising end time');\r\n        DiscoStatus memory discoStatus = status[id];\r\n        require(!discoStatus.isEnabled, 'the disco must has not been started');\r\n\r\n        DiscoInvestAddr memory investAddr = discoAddress[id];\r\n        DiscoAddr discoAddr = investAddr.discoAddr;\r\n        discoAddr.getPool().transfer(0.1 * 10 ** 18);\r\n\r\n        IERC20 token = investAddr.token;\r\n        token.transfer(discoAddr.getPool(), disco.totalDepositToken);\r\n        discoStatus.isEnabled = true;\r\n        status[id] = discoStatus;\r\n        investAddr.depositAccount = msg.sender;\r\n\r\n        //add liquidity.\r\n        uint256 deadline = getDeadline(60);\r\n        (,uint256 investAmt) = getInvestAmt(id);\r\n        //weth actually\r\n        (uint256 amountToken, uint256 amountETH, uint256 liquidity) = uniswap.addLiquidityETH(disco.tokenAddr, disco.shareToken, disco.shareToken, investAmt, uniswap.factory(), deadline);\r\n        investAddr.initLiquidity = liquidity;\r\n        investAddr.swapToken = amountToken;\r\n        investAddr.swapEth = amountETH;\r\n        discoAddress[id] = investAddr;\r\n\r\n        // \r\n        emit enabledDisco(id);\r\n    }\r\n\r\n    function getDeadline(uint256 pendingSecs) internal view returns (uint256){\r\n        return getDate() + pendingSecs;\r\n    }\r\n\r\n    /**\r\n    * @dev  disco disco\r\n    */\r\n    function finishedDisco(string calldata id) external {\r\n        DiscoStatus memory discoStatus = status[id];\r\n        require(!discoStatus.isFinished && discoStatus.isEnabled);\r\n        discoStatus.isFinished = true;\r\n        (,uint256 investAmt) = getInvestAmt(id);\r\n        DiscoInfo memory info = discos[id];\r\n        //if minFundRaising is a bottom of pool.\r\n        discoStatus.isSuccess = investAmt >= info.minFundRaising;\r\n        status[id] = discoStatus;\r\n        if (discoStatus.isSuccess) {\r\n            assign(id, investAmt);\r\n        } else {\r\n            refund(id);\r\n        }\r\n        emit fundraisingFinished(id, discoStatus.isSuccess);\r\n    }\r\n\r\n    function getInvestAmt(string memory id) public view returns (uint256, uint256){\r\n        uint256 investAmt = 0;\r\n        uint256 invCount = 0;\r\n        for (uint256 i = 0; i < investors[id].length; i++) {\r\n            DiscoInvestor memory investor = investors[id][i];\r\n            if (!investor.isDead) {\r\n                investAmt += investor.value;\r\n                invCount++;\r\n            }\r\n        }\r\n        return (invCount, investAmt);\r\n    }\r\n\r\n\r\n    function assign(string memory id, uint256 investAmt) public payable returns (uint256, uint256)  {\r\n        //assign ether\r\n        uint256 platFee = assignEth(id, investAmt);\r\n        //assign token\r\n        uint256 refundToken = assignToken(id);\r\n        //uniswap\r\n        return (platFee, refundToken);\r\n    }\r\n\r\n\r\n    function assignEth(string memory id, uint256 investAmt) public payable returns (uint256)  {\r\n        DiscoInfo memory disco = discos[id];\r\n        DiscoInvestAddr memory investAddr = discoAddress[id];\r\n        DiscoAddr discoAddr = investAddr.discoAddr;\r\n        // 2% platFee\r\n        uint256 platFee = investAmt.mul(2).div(100);\r\n        //no chance to send another one except msg.sender. if need, use weth with uniswap.\r\n        uint256 withdrawEth = investAmt - platFee;\r\n        if (platFee > 0) {\r\n            discoAddr.getPool().transfer(platFee);\r\n            investAmt -= platFee;\r\n        }\r\n        //remainAmt to wallet\r\n        discoAddr.transfer(disco.walletAddr, withdrawEth);\r\n        return platFee;\r\n    }\r\n\r\n\r\n    function assignToken(string memory id) public payable returns (uint256) {\r\n        DiscoInfo memory disco = discos[id];\r\n        DiscoInvestAddr memory investAddr = discoAddress[id];\r\n        DiscoInvestor[] memory assignInvestors = investors[id];\r\n        uint256 payToken = 0;\r\n        for (uint256 i = 0; i < assignInvestors.length; i++) {\r\n            DiscoInvestor memory investor = assignInvestors[i];\r\n            if (investor.isDead) {\r\n                continue;\r\n            }\r\n            uint256 diff = disco.fundRaisingStartedAt.sub(investor.time).div(60 * 60 * 24);\r\n            uint256 declineDiff = disco.rewardDeclineRate.sub(diff);\r\n            if (declineDiff <= 0) {\r\n                declineDiff = 0;\r\n            }\r\n\r\n            //get the Liquidity - Uniswap when deposit to exchange factory.\r\n            uint256 tokenAmt = investor.value.mul(investAddr.initLiquidity).mul(declineDiff.add(1)).div(100);\r\n            investAddr.token.transfer(investor.investor, tokenAmt);\r\n            payToken = payToken.add(tokenAmt);\r\n        }\r\n\r\n        uint256 refundToken = disco.totalDepositToken - payToken;\r\n        if (refundToken > 0) {\r\n            investAddr.token.transfer(investAddr.depositAccount, refundToken);\r\n        }\r\n        return refundToken;\r\n    }\r\n\r\n    /**\r\n     * refund-anti-pattern \r\n     */\r\n    function refund(string memory id) public payable {\r\n        require(bytes(id).length != 0);\r\n        DiscoInvestAddr memory investAddr = discoAddress[id];\r\n        DiscoAddr discoAddr = investAddr.discoAddr;\r\n        require(bytes(discoAddr.getDiscoId()).length != 0);\r\n        require(investAddr.depositAccount != address(0));\r\n        // solidity > 0.6 address payable pool = payable(address(discoAddr)) ;\r\n        // as follow is 0.5.x\r\n        // refund ether\r\n        for (uint256 i = 0; i < investors[id].length; i++) {\r\n            DiscoInvestor storage investor = investors[id][i];\r\n            discoAddr.getPool().transfer(investor.value);\r\n            investor.isDead = true;\r\n        }\r\n\r\n        //refund token\r\n        DiscoInfo memory info = discos[id];\r\n        IERC20 token = investAddr.token;\r\n        token.transfer(investAddr.depositAccount, info.totalDepositToken);\r\n    }\r\n\r\n    // ,  \r\n    function investor(string memory id, uint256 time) public payable canInvest(id) {\r\n        require(_coinbase != address(0));\r\n        DiscoInvestor memory d = DiscoInvestor(\r\n            _owner,\r\n            msg.value,\r\n            time,\r\n            false\r\n        );\r\n        DiscoAddr discoAddr = discoAddress[id].discoAddr;\r\n        // solidity > 0.6 address payable pool = payable(address(discoAddr)) ;\r\n        // as follow is 0.5.x\r\n        discoAddr.getPool().transfer(msg.value);\r\n        investors[id].push(d);\r\n        emit investToDisco(id, _owner, msg.value);\r\n    }\r\n}\r\n\r\n// \r\n//Fund-Raising Contract\r\ncontract DiscoAddr {\r\n\r\n    string public id;\r\n\r\n    // suppose the deployed contract has a purpose\r\n\r\n    //0.6.x\r\n    //receive() external payable {}\r\n    function() external payable {}\r\n\r\n    constructor(string memory discoId) public {\r\n        id = discoId;\r\n    }\r\n\r\n    function getDiscoId() public view returns (string memory) {\r\n        return id;\r\n    }\r\n\r\n    function transfer(address payable to, uint256 amount) external {\r\n        to.transfer(amount);\r\n    }\r\n\r\n    function getPool() external view returns (address payable) {\r\n        return address(uint160(address(this)));\r\n    }\r\n}\r\n",
  "sourcePath": "D:/comunion/cos-contract-com/contracts/Disco.sol",
  "compiler": {
    "name": "solc",
    "version": "0.5.16+commit.9c3226ce.Emscripten.clang"
  },
  "schemaVersion": "3.3.4",
  "updatedAt": "2021-03-15T02:21:14.666Z",
  "devdoc": {
    "methods": {
      "enableDisco(string)": {
        "details": "disco"
      },
      "finishedDisco(string)": {
        "details": " disco disco"
      },
      "newDisco((string,address,address,string,uint256,uint256,uint256,uint256,uint256,uint256,uint256,uint256))": {
        "params": {
          "d": "tuple forward.*"
        }
      }
    }
  },
  "userdoc": {
    "methods": {
      "refund(string)": {
        "notice": "refund-anti-pattern "
      }
    }
  }
}