{
  "contractName": "Disco",
  "abi": [
    {
      "inputs": [],
      "payable": false,
      "stateMutability": "nonpayable",
      "type": "constructor"
    },
    {
      "anonymous": false,
      "inputs": [
        {
          "indexed": false,
          "internalType": "string",
          "name": "discoId",
          "type": "string"
        },
        {
          "indexed": false,
          "internalType": "contract DiscoAddr",
          "name": "addr",
          "type": "address"
        }
      ],
      "name": "createdDisco",
      "type": "event"
    },
    {
      "anonymous": false,
      "inputs": [
        {
          "indexed": false,
          "internalType": "string",
          "name": "discoId",
          "type": "string"
        }
      ],
      "name": "enabledDisco",
      "type": "event"
    },
    {
      "anonymous": false,
      "inputs": [
        {
          "indexed": false,
          "internalType": "string",
          "name": "discoId",
          "type": "string"
        }
      ],
      "name": "fundraisingFailed",
      "type": "event"
    },
    {
      "anonymous": false,
      "inputs": [
        {
          "indexed": false,
          "internalType": "string",
          "name": "discoIdo",
          "type": "string"
        },
        {
          "indexed": false,
          "internalType": "bool",
          "name": "success",
          "type": "bool"
        }
      ],
      "name": "fundraisingFinished",
      "type": "event"
    },
    {
      "anonymous": false,
      "inputs": [
        {
          "indexed": false,
          "internalType": "string",
          "name": "discoId",
          "type": "string"
        }
      ],
      "name": "fundraisingSucceed",
      "type": "event"
    },
    {
      "anonymous": false,
      "inputs": [
        {
          "indexed": false,
          "internalType": "string",
          "name": "discoId",
          "type": "string"
        },
        {
          "indexed": false,
          "internalType": "address",
          "name": "investorAddr",
          "type": "address"
        },
        {
          "indexed": false,
          "internalType": "uint256",
          "name": "amount",
          "type": "uint256"
        }
      ],
      "name": "investToDisco",
      "type": "event"
    },
    {
      "constant": true,
      "inputs": [
        {
          "internalType": "string",
          "name": "",
          "type": "string"
        }
      ],
      "name": "discoAddress",
      "outputs": [
        {
          "internalType": "contract DiscoAddr",
          "name": "discoAddr",
          "type": "address"
        }
      ],
      "payable": false,
      "stateMutability": "view",
      "type": "function"
    },
    {
      "constant": true,
      "inputs": [
        {
          "internalType": "string",
          "name": "",
          "type": "string"
        }
      ],
      "name": "discos",
      "outputs": [
        {
          "internalType": "string",
          "name": "id",
          "type": "string"
        },
        {
          "internalType": "address",
          "name": "walletAddr",
          "type": "address"
        },
        {
          "internalType": "address",
          "name": "tokenAddr",
          "type": "address"
        },
        {
          "internalType": "string",
          "name": "description",
          "type": "string"
        },
        {
          "internalType": "uint256",
          "name": "fundRaisingStartedAt",
          "type": "uint256"
        },
        {
          "internalType": "uint256",
          "name": "fundRaisingEndedAt",
          "type": "uint256"
        },
        {
          "internalType": "uint256",
          "name": "investmentReward",
          "type": "uint256"
        },
        {
          "internalType": "uint256",
          "name": "rewardDeclineRate",
          "type": "uint256"
        },
        {
          "internalType": "uint256",
          "name": "shareToken",
          "type": "uint256"
        },
        {
          "internalType": "uint256",
          "name": "minFundRaising",
          "type": "uint256"
        },
        {
          "internalType": "uint256",
          "name": "addLiquidityPool",
          "type": "uint256"
        },
        {
          "internalType": "uint256",
          "name": "totalDepositToken",
          "type": "uint256"
        }
      ],
      "payable": false,
      "stateMutability": "view",
      "type": "function"
    },
    {
      "constant": true,
      "inputs": [
        {
          "internalType": "string",
          "name": "",
          "type": "string"
        },
        {
          "internalType": "uint256",
          "name": "",
          "type": "uint256"
        }
      ],
      "name": "investors",
      "outputs": [
        {
          "internalType": "address",
          "name": "investor",
          "type": "address"
        },
        {
          "internalType": "uint256",
          "name": "value",
          "type": "uint256"
        },
        {
          "internalType": "uint256",
          "name": "time",
          "type": "uint256"
        },
        {
          "internalType": "bool",
          "name": "isDead",
          "type": "bool"
        }
      ],
      "payable": false,
      "stateMutability": "view",
      "type": "function"
    },
    {
      "constant": true,
      "inputs": [
        {
          "internalType": "string",
          "name": "",
          "type": "string"
        }
      ],
      "name": "status",
      "outputs": [
        {
          "internalType": "bool",
          "name": "isFinished",
          "type": "bool"
        },
        {
          "internalType": "bool",
          "name": "isSuccess",
          "type": "bool"
        },
        {
          "internalType": "bool",
          "name": "isEnabled",
          "type": "bool"
        }
      ],
      "payable": false,
      "stateMutability": "view",
      "type": "function"
    },
    {
      "constant": false,
      "inputs": [
        {
          "internalType": "address payable",
          "name": "addr",
          "type": "address"
        }
      ],
      "name": "setCoinBase",
      "outputs": [],
      "payable": false,
      "stateMutability": "nonpayable",
      "type": "function"
    },
    {
      "constant": true,
      "inputs": [],
      "name": "getDate",
      "outputs": [
        {
          "internalType": "uint256",
          "name": "",
          "type": "uint256"
        }
      ],
      "payable": false,
      "stateMutability": "view",
      "type": "function"
    },
    {
      "constant": false,
      "inputs": [
        {
          "components": [
            {
              "internalType": "string",
              "name": "id",
              "type": "string"
            },
            {
              "internalType": "address",
              "name": "walletAddr",
              "type": "address"
            },
            {
              "internalType": "address",
              "name": "tokenAddr",
              "type": "address"
            },
            {
              "internalType": "string",
              "name": "description",
              "type": "string"
            },
            {
              "internalType": "uint256",
              "name": "fundRaisingStartedAt",
              "type": "uint256"
            },
            {
              "internalType": "uint256",
              "name": "fundRaisingEndedAt",
              "type": "uint256"
            },
            {
              "internalType": "uint256",
              "name": "investmentReward",
              "type": "uint256"
            },
            {
              "internalType": "uint256",
              "name": "rewardDeclineRate",
              "type": "uint256"
            },
            {
              "internalType": "uint256",
              "name": "shareToken",
              "type": "uint256"
            },
            {
              "internalType": "uint256",
              "name": "minFundRaising",
              "type": "uint256"
            },
            {
              "internalType": "uint256",
              "name": "addLiquidityPool",
              "type": "uint256"
            },
            {
              "internalType": "uint256",
              "name": "totalDepositToken",
              "type": "uint256"
            }
          ],
          "internalType": "struct Disco.DiscoInfo",
          "name": "d",
          "type": "tuple"
        }
      ],
      "name": "newDisco",
      "outputs": [],
      "payable": true,
      "stateMutability": "payable",
      "type": "function"
    },
    {
      "constant": false,
      "inputs": [
        {
          "internalType": "string",
          "name": "id",
          "type": "string"
        }
      ],
      "name": "enableDisco",
      "outputs": [],
      "payable": false,
      "stateMutability": "nonpayable",
      "type": "function"
    },
    {
      "constant": false,
      "inputs": [
        {
          "internalType": "string",
          "name": "id",
          "type": "string"
        }
      ],
      "name": "finishedDisco",
      "outputs": [],
      "payable": false,
      "stateMutability": "nonpayable",
      "type": "function"
    },
    {
      "constant": false,
      "inputs": [
        {
          "internalType": "string",
          "name": "id",
          "type": "string"
        }
      ],
      "name": "refund",
      "outputs": [],
      "payable": true,
      "stateMutability": "payable",
      "type": "function"
    },
    {
      "constant": false,
      "inputs": [
        {
          "internalType": "string",
          "name": "id",
          "type": "string"
        },
        {
          "internalType": "uint256",
          "name": "time",
          "type": "uint256"
        }
      ],
      "name": "investor",
      "outputs": [],
      "payable": true,
      "stateMutability": "payable",
      "type": "function"
    }
  ],
  "bytecode": "0x608060405234801561001057600080fd5b50336000806101000a81548173ffffffffffffffffffffffffffffffffffffffff021916908373ffffffffffffffffffffffffffffffffffffffff160217905550612c3c806100606000396000f3fe608060405260043610620000aa5760003560e01c80635e56fb01116200006d5780635e56fb0114620001c35780637a328a7e1462000207578063b16e68eb1462000235578063c79d19211462000255578063e8ca64f41462000283578063fe5f2e8814620002c957620000aa565b8063283e2e0414620000af5780632df7917214620000dd57806334e8e57b146200012c578063430fe9c1146200017357806348569ee914620001a3575b600080fd5b348015620000bc57600080fd5b50620000db6004803603620000d5919081019062001d2a565b620002e9565b005b348015620000ea57600080fd5b5062000109600480360362000103919081019062001d9f565b620003bf565b604051620001239c9b9a9998979695949392919062002357565b60405180910390f35b3480156200013957600080fd5b5062000158600480360362000152919081019062001ec8565b620005ad565b6040516200016a9493929190620021ee565b60405180910390f35b3480156200018057600080fd5b506200018b6200063b565b6040516200019a9190620024af565b60405180910390f35b620001c16004803603620001bb919081019062001f22565b62000643565b005b348015620001d057600080fd5b50620001ef6004803603620001e9919081019062001d9f565b6200097d565b604051620001fe919062002278565b60405180910390f35b3480156200021457600080fd5b506200023360048036036200022d919081019062001d56565b620009d1565b005b6200025360048036036200024d919081019062001e6e565b62000f26565b005b3480156200026257600080fd5b506200028160048036036200027b919081019062001de4565b620014ed565b005b3480156200029057600080fd5b50620002af6004803603620002a9919081019062001d9f565b620015e8565b604051620002c0939291906200223b565b60405180910390f35b620002e76004803603620002e1919081019062001d56565b6200164f565b005b6000809054906101000a900473ffffffffffffffffffffffffffffffffffffffff1673ffffffffffffffffffffffffffffffffffffffff163373ffffffffffffffffffffffffffffffffffffffff16146200037b576040517f08c379a000000000000000000000000000000000000000000000000000000000815260040162000372906200246b565b60405180910390fd5b80600160006101000a81548173ffffffffffffffffffffffffffffffffffffffff021916908373ffffffffffffffffffffffffffffffffffffffff16021790555050565b600281805160208101820180518482526020830160208501208183528095505050505050600091509050806000018054600181600116156101000203166002900480601f016020809104026020016040519081016040528092919081815260200182805460018160011615610100020316600290048015620004855780601f10620004595761010080835404028352916020019162000485565b820191906000526020600020905b8154815290600101906020018083116200046757829003601f168201915b5050505050908060010160009054906101000a900473ffffffffffffffffffffffffffffffffffffffff16908060020160009054906101000a900473ffffffffffffffffffffffffffffffffffffffff1690806003018054600181600116156101000203166002900480601f016020809104026020016040519081016040528092919081815260200182805460018160011615610100020316600290048015620005735780601f10620005475761010080835404028352916020019162000573565b820191906000526020600020905b8154815290600101906020018083116200055557829003601f168201915b50505050509080600401549080600501549080600601549080600701549080600801549080600901549080600a01549080600b015490508c565b6003828051602081018201805184825260208301602085012081835280955050505050508181548110620005dd57fe5b9060005260206000209060040201600091509150508060000160009054906101000a900473ffffffffffffffffffffffffffffffffffffffff16908060010154908060020154908060030160009054906101000a900460ff16905084565b600042905090565b600081600001515114156200065757600080fd5b620006616200183f565b604051806060016040528060001515815260200160001515815260200160001515815250905081600283600001516040516200069e9190620021bc565b90815260200160405180910390206000820151816000019080519060200190620006ca92919062001866565b5060208201518160010160006101000a81548173ffffffffffffffffffffffffffffffffffffffff021916908373ffffffffffffffffffffffffffffffffffffffff16021790555060408201518160020160006101000a81548173ffffffffffffffffffffffffffffffffffffffff021916908373ffffffffffffffffffffffffffffffffffffffff16021790555060608201518160030190805190602001906200077792919062001866565b506080820151816004015560a0820151816005015560c0820151816006015560e082015181600701556101008201518160080155610120820151816009015561014082015181600a015561016082015181600b01559050508060048360000151604051620007e69190620021bc565b908152602001604051809103902060008201518160000160006101000a81548160ff02191690831515021790555060208201518160000160016101000a81548160ff02191690831515021790555060408201518160000160026101000a81548160ff021916908315150217905550905050600082600001516040516200086c90620018ed565b620008789190620022cb565b604051809103906000f08015801562000895573d6000803e3d6000fd5b509050620008a2620018fb565b60405180602001604052808373ffffffffffffffffffffffffffffffffffffffff1681525090508060058560000151604051620008e09190620021bc565b908152602001604051809103902060008201518160000160006101000a81548173ffffffffffffffffffffffffffffffffffffffff021916908373ffffffffffffffffffffffffffffffffffffffff1602179055509050507ff7e24b64c3d2ed7d191ce3009c2e12632005b58578ce39e23f97eaec9fd6c3e18460000151836040516200096f92919062002437565b60405180910390a150505050565b6005818051602081018201805184825260208301602085012081835280955050505050506000915090508060000160009054906101000a900473ffffffffffffffffffffffffffffffffffffffff16905081565b620009db6200183f565b60048383604051620009ef929190620021a1565b90815260200160405180910390206040518060600160405290816000820160009054906101000a900460ff161515151581526020016000820160019054906101000a900460ff161515151581526020016000820160029054906101000a900460ff1615151515815250509050806000015115801562000a6f575080604001515b62000a7957600080fd5b6001816000019015159081151581525050600080905060008090505b6003858560405162000aa9929190620021a1565b90815260200160405180910390208054905081101562000bbe5762000acd62001924565b6003868660405162000ae1929190620021a1565b9081526020016040518091039020828154811062000afb57fe5b90600052602060002090600402016040518060800160405290816000820160009054906101000a900473ffffffffffffffffffffffffffffffffffffffff1673ffffffffffffffffffffffffffffffffffffffff1673ffffffffffffffffffffffffffffffffffffffff16815260200160018201548152602001600282015481526020016003820160009054906101000a900460ff1615151515815250509050806060015162000baf578060200151830192505b50808060010191505062000a95565b5062000bc962001964565b6002858560405162000bdd929190620021a1565b908152602001604051809103902060405180610180016040529081600082018054600181600116156101000203166002900480601f01602080910402602001604051908101604052809291908181526020018280546001816001161561010002031660029004801562000c945780601f1062000c685761010080835404028352916020019162000c94565b820191906000526020600020905b81548152906001019060200180831162000c7657829003601f168201915b505050505081526020016001820160009054906101000a900473ffffffffffffffffffffffffffffffffffffffff1673ffffffffffffffffffffffffffffffffffffffff1673ffffffffffffffffffffffffffffffffffffffff1681526020016002820160009054906101000a900473ffffffffffffffffffffffffffffffffffffffff1673ffffffffffffffffffffffffffffffffffffffff1673ffffffffffffffffffffffffffffffffffffffff168152602001600382018054600181600116156101000203166002900480601f01602080910402602001604051908101604052809291908181526020018280546001816001161561010002031660029004801562000de65780601f1062000dba5761010080835404028352916020019162000de6565b820191906000526020600020905b81548152906001019060200180831162000dc857829003601f168201915b50505050508152602001600482015481526020016005820154815260200160068201548152602001600782015481526020016008820154815260200160098201548152602001600a8201548152602001600b8201548152505090508181610120015111836020019015159081151581525050826004868660405162000e6d929190620021a1565b908152602001604051809103902060008201518160000160006101000a81548160ff02191690831515021790555060208201518160000160016101000a81548160ff02191690831515021790555060408201518160000160026101000a81548160ff0219169083151502179055509050507f35714766e4544afd4526bc1bbe6a503c6b0f871ab72fb6939be49b8e3419e89e8585856020015160405162000f179392919062002295565b60405180910390a15050505050565b81600062000f336200063b565b905062000f3f6200183f565b60048360405162000f519190620021d5565b90815260200160405180910390206040518060600160405290816000820160009054906101000a900460ff161515151581526020016000820160019054906101000a900460ff161515151581526020016000820160029054906101000a900460ff161515151581525050905062000fc762001964565b60028460405162000fd99190620021d5565b908152602001604051809103902060405180610180016040529081600082018054600181600116156101000203166002900480601f016020809104026020016040519081016040528092919081815260200182805460018160011615610100020316600290048015620010905780601f10620010645761010080835404028352916020019162001090565b820191906000526020600020905b8154815290600101906020018083116200107257829003601f168201915b505050505081526020016001820160009054906101000a900473ffffffffffffffffffffffffffffffffffffffff1673ffffffffffffffffffffffffffffffffffffffff1673ffffffffffffffffffffffffffffffffffffffff1681526020016002820160009054906101000a900473ffffffffffffffffffffffffffffffffffffffff1673ffffffffffffffffffffffffffffffffffffffff1673ffffffffffffffffffffffffffffffffffffffff168152602001600382018054600181600116156101000203166002900480601f016020809104026020016040519081016040528092919081815260200182805460018160011615610100020316600290048015620011e25780601f10620011b657610100808354040283529160200191620011e2565b820191906000526020600020905b815481529060010190602001808311620011c457829003601f168201915b50505050508152602001600482015481526020016005820154815260200160068201548152602001600782015481526020016008820154815260200160098201548152602001600a8201548152602001600b820154815250509050816040015180156200125157508160000151155b6200125b57600080fd5b600073ffffffffffffffffffffffffffffffffffffffff16600160009054906101000a900473ffffffffffffffffffffffffffffffffffffffff1673ffffffffffffffffffffffffffffffffffffffff161415620012b857600080fd5b620012c262001924565b60405180608001604052806000809054906101000a900473ffffffffffffffffffffffffffffffffffffffff1673ffffffffffffffffffffffffffffffffffffffff1681526020013481526020018781526020016000151581525090506000600588604051620013339190620021d5565b908152602001604051809103902060000160009054906101000a900473ffffffffffffffffffffffffffffffffffffffff169050600081905060008190508073ffffffffffffffffffffffffffffffffffffffff166108fc349081150290604051600060405180830381858888f19350505050158015620013b8573d6000803e3d6000fd5b5060038a604051620013cb9190620021d5565b9081526020016040518091039020849080600181540180825580915050906001820390600052602060002090600402016000909192909190915060008201518160000160006101000a81548173ffffffffffffffffffffffffffffffffffffffff021916908373ffffffffffffffffffffffffffffffffffffffff160217905550602082015181600101556040820151816002015560608201518160030160006101000a81548160ff0219169083151502179055505050507f5fec6c2d2d376aa6f4c793e34f6cc71d65285bd07d1e709292fafc2b28bf2fbe8a6000809054906101000a900473ffffffffffffffffffffffffffffffffffffffff1634604051620014d99392919062002313565b60405180910390a150505050505050505050565b6000620014f96200063b565b90506004826040516200150d9190620021d5565b908152602001604051809103902060000160029054906101000a900460ff16156200156f576040517f08c379a000000000000000000000000000000000000000000000000000000000815260040162001566906200248d565b60405180910390fd5b6001600483604051620015839190620021d5565b908152602001604051809103902060000160026101000a81548160ff0219169083151502179055507f44ec18e6fb6c9893aa22a7236add99d912e21075f568b1f65c6b3d7a65e285d882604051620015dc9190620022ef565b60405180910390a15050565b6004818051602081018201805184825260208301602085012081835280955050505050506000915090508060000160009054906101000a900460ff16908060000160019054906101000a900460ff16908060000160029054906101000a900460ff16905083565b60008282905014156200166157600080fd5b60006005838360405162001677929190620021a1565b908152602001604051809103902060000160009054906101000a900473ffffffffffffffffffffffffffffffffffffffff16905060008173ffffffffffffffffffffffffffffffffffffffff1663fb1e6a626040518163ffffffff1660e01b815260040160006040518083038186803b158015620016f457600080fd5b505afa15801562001709573d6000803e3d6000fd5b505050506040513d6000823e3d601f19601f8201168201806040525062001734919081019062001e29565b5114156200174157600080fd5b6000819050600081905060008090505b6003868660405162001765929190620021a1565b908152602001604051809103902080549050811015620018375760006003878760405162001795929190620021a1565b90815260200160405180910390208281548110620017af57fe5b906000526020600020906004020190508273ffffffffffffffffffffffffffffffffffffffff166108fc82600101549081150290604051600060405180830381858888f193505050501580156200180a573d6000803e3d6000fd5b5060018160030160006101000a81548160ff02191690831515021790555050808060010191505062001751565b505050505050565b60405180606001604052806000151581526020016000151581526020016000151581525090565b828054600181600116156101000203166002900490600052602060002090601f016020900481019282601f10620018a957805160ff1916838001178555620018da565b82800160010185558215620018da579182015b82811115620018d9578251825591602001919060010190620018bc565b5b509050620018e99190620019f1565b5090565b61054980620026b183390190565b6040518060200160405280600073ffffffffffffffffffffffffffffffffffffffff1681525090565b6040518060800160405280600073ffffffffffffffffffffffffffffffffffffffff16815260200160008152602001600081526020016000151581525090565b60405180610180016040528060608152602001600073ffffffffffffffffffffffffffffffffffffffff168152602001600073ffffffffffffffffffffffffffffffffffffffff1681526020016060815260200160008152602001600081526020016000815260200160008152602001600081526020016000815260200160008152602001600081525090565b62001a1691905b8082111562001a12576000816000905550600101620019f8565b5090565b90565b60008135905062001a2a8162002662565b92915050565b60008135905062001a41816200267c565b92915050565b60008083601f84011262001a5a57600080fd5b8235905067ffffffffffffffff81111562001a7457600080fd5b60208301915083600182028301111562001a8d57600080fd5b9250929050565b600082601f83011262001aa657600080fd5b813562001abd62001ab782620024fa565b620024cc565b9150808252602083016020830185838301111562001ada57600080fd5b62001ae78382846200260c565b50505092915050565b600082601f83011262001b0257600080fd5b813562001b1962001b138262002527565b620024cc565b9150808252602083016020830185838301111562001b3657600080fd5b62001b438382846200260c565b50505092915050565b600082601f83011262001b5e57600080fd5b815162001b7562001b6f8262002527565b620024cc565b9150808252602083016020830185838301111562001b9257600080fd5b62001b9f8382846200261b565b50505092915050565b6000610180828403121562001bbc57600080fd5b62001bc9610180620024cc565b9050600082013567ffffffffffffffff81111562001be657600080fd5b62001bf48482850162001a94565b600083015250602062001c0a8482850162001a19565b602083015250604062001c208482850162001a19565b604083015250606082013567ffffffffffffffff81111562001c4157600080fd5b62001c4f8482850162001a94565b606083015250608062001c658482850162001d13565b60808301525060a062001c7b8482850162001d13565b60a08301525060c062001c918482850162001d13565b60c08301525060e062001ca78482850162001d13565b60e08301525061010062001cbe8482850162001d13565b6101008301525061012062001cd68482850162001d13565b6101208301525061014062001cee8482850162001d13565b6101408301525061016062001d068482850162001d13565b6101608301525092915050565b60008135905062001d248162002696565b92915050565b60006020828403121562001d3d57600080fd5b600062001d4d8482850162001a30565b91505092915050565b6000806020838503121562001d6a57600080fd5b600083013567ffffffffffffffff81111562001d8557600080fd5b62001d938582860162001a47565b92509250509250929050565b60006020828403121562001db257600080fd5b600082013567ffffffffffffffff81111562001dcd57600080fd5b62001ddb8482850162001a94565b91505092915050565b60006020828403121562001df757600080fd5b600082013567ffffffffffffffff81111562001e1257600080fd5b62001e208482850162001af0565b91505092915050565b60006020828403121562001e3c57600080fd5b600082015167ffffffffffffffff81111562001e5757600080fd5b62001e658482850162001b4c565b91505092915050565b6000806040838503121562001e8257600080fd5b600083013567ffffffffffffffff81111562001e9d57600080fd5b62001eab8582860162001af0565b925050602062001ebe8582860162001d13565b9150509250929050565b6000806040838503121562001edc57600080fd5b600083013567ffffffffffffffff81111562001ef757600080fd5b62001f058582860162001a94565b925050602062001f188582860162001d13565b9150509250929050565b60006020828403121562001f3557600080fd5b600082013567ffffffffffffffff81111562001f5057600080fd5b62001f5e8482850162001ba8565b91505092915050565b62001f728162002586565b82525050565b62001f8381620025ae565b82525050565b62001f9481620025e4565b82525050565b600062001fa883856200256a565b935062001fb78385846200260c565b62001fc28362002651565b840190509392505050565b600062001fdb83856200257b565b935062001fea8385846200260c565b82840190509392505050565b600062002003826200255f565b6200200f81856200256a565b9350620020218185602086016200261b565b6200202c8162002651565b840191505092915050565b600062002044826200255f565b6200205081856200257b565b9350620020628185602086016200261b565b80840191505092915050565b60006200207b8262002554565b6200208781856200256a565b9350620020998185602086016200261b565b620020a48162002651565b840191505092915050565b6000620020bc8262002554565b620020c881856200257b565b9350620020da8185602086016200261b565b80840191505092915050565b6000620020f56014836200256a565b91507f43616c6c6572206973206e6f74206f776e6572210000000000000000000000006000830152602082019050919050565b6000620021376027836200256a565b91507f63757272656e7420646973636f206d75737420686173206e6f74206265656e2060008301527f656e61626c6564000000000000000000000000000000000000000000000000006020830152604082019050919050565b6200219b81620025da565b82525050565b6000620021b082848662001fcd565b91508190509392505050565b6000620021ca8284620020af565b915081905092915050565b6000620021e3828462002037565b915081905092915050565b600060808201905062002205600083018762001f67565b62002214602083018662002190565b62002223604083018562002190565b62002232606083018462001f78565b95945050505050565b600060608201905062002252600083018662001f78565b62002261602083018562001f78565b62002270604083018462001f78565b949350505050565b60006020820190506200228f600083018462001f89565b92915050565b60006040820190508181036000830152620022b281858762001f9a565b9050620022c3602083018462001f78565b949350505050565b60006020820190508181036000830152620022e781846200206e565b905092915050565b600060208201905081810360008301526200230b818462001ff6565b905092915050565b600060608201905081810360008301526200232f818662001ff6565b905062002340602083018562001f67565b6200234f604083018462002190565b949350505050565b600061018082019050818103600083015262002374818f6200206e565b905062002385602083018e62001f67565b62002394604083018d62001f67565b8181036060830152620023a8818c6200206e565b9050620023b9608083018b62002190565b620023c860a083018a62002190565b620023d760c083018962002190565b620023e660e083018862002190565b620023f661010083018762002190565b6200240661012083018662002190565b6200241661014083018562002190565b6200242661016083018462002190565b9d9c50505050505050505050505050565b600060408201905081810360008301526200245381856200206e565b905062002464602083018462001f89565b9392505050565b600060208201905081810360008301526200248681620020e6565b9050919050565b60006020820190508181036000830152620024a88162002128565b9050919050565b6000602082019050620024c6600083018462002190565b92915050565b6000604051905081810181811067ffffffffffffffff82111715620024f057600080fd5b8060405250919050565b600067ffffffffffffffff8211156200251257600080fd5b601f19601f8301169050602081019050919050565b600067ffffffffffffffff8211156200253f57600080fd5b601f19601f8301169050602081019050919050565b600081519050919050565b600081519050919050565b600082825260208201905092915050565b600081905092915050565b60006200259382620025ba565b9050919050565b6000620025a782620025ba565b9050919050565b60008115159050919050565b600073ffffffffffffffffffffffffffffffffffffffff82169050919050565b6000819050919050565b6000620025f182620025f8565b9050919050565b60006200260582620025ba565b9050919050565b82818337600083830152505050565b60005b838110156200263b5780820151818401526020810190506200261e565b838111156200264b576000848401525b50505050565b6000601f19601f8301169050919050565b6200266d8162002586565b81146200267957600080fd5b50565b62002687816200259a565b81146200269357600080fd5b50565b620026a181620025da565b8114620026ad57600080fd5b5056fe608060405234801561001057600080fd5b5060405161054938038061054983398181016040526100329190810190610148565b806000908051906020019061004892919061004f565b5050610215565b828054600181600116156101000203166002900490600052602060002090601f016020900481019282601f1061009057805160ff19168380011785556100be565b828001600101855582156100be579182015b828111156100bd5782518255916020019190600101906100a2565b5b5090506100cb91906100cf565b5090565b6100f191905b808211156100ed5760008160009055506001016100d5565b5090565b90565b600082601f83011261010557600080fd5b8151610118610113826101b6565b610189565b9150808252602083016020830185838301111561013457600080fd5b61013f8382846101e2565b50505092915050565b60006020828403121561015a57600080fd5b600082015167ffffffffffffffff81111561017457600080fd5b610180848285016100f4565b91505092915050565b6000604051905081810181811067ffffffffffffffff821117156101ac57600080fd5b8060405250919050565b600067ffffffffffffffff8211156101cd57600080fd5b601f19601f8301169050602081019050919050565b60005b838110156102005780820151818401526020810190506101e5565b8381111561020f576000848401525b50505050565b610325806102246000396000f3fe6080604052600436106100295760003560e01c8063af640d0f1461002b578063fb1e6a6214610056575b005b34801561003757600080fd5b50610040610081565b60405161004d9190610233565b60405180910390f35b34801561006257600080fd5b5061006b61011f565b6040516100789190610255565b60405180910390f35b60008054600181600116156101000203166002900480601f0160208091040260200160405190810160405280929190818152602001828054600181600116156101000203166002900480156101175780601f106100ec57610100808354040283529160200191610117565b820191906000526020600020905b8154815290600101906020018083116100fa57829003601f168201915b505050505081565b606060008054600181600116156101000203166002900480601f0160208091040260200160405190810160405280929190818152602001828054600181600116156101000203166002900480156101b75780601f1061018c576101008083540402835291602001916101b7565b820191906000526020600020905b81548152906001019060200180831161019a57829003601f168201915b5050505050905090565b60006101cc82610282565b6101d6818561028d565b93506101e681856020860161029e565b6101ef816102d1565b840191505092915050565b600061020582610277565b61020f818561028d565b935061021f81856020860161029e565b610228816102d1565b840191505092915050565b6000602082019050818103600083015261024d81846101fa565b905092915050565b6000602082019050818103600083015261026f81846101c1565b905092915050565b600081519050919050565b600081519050919050565b600082825260208201905092915050565b60005b838110156102bc5780820151818401526020810190506102a1565b838111156102cb576000848401525b50505050565b6000601f19601f830116905091905056fea365627a7a723158203b04e5b96b7170b254b410d49123663c763e9a0a846f81ed9c99cca69d0a57936c6578706572696d656e74616cf564736f6c63430005100040a365627a7a72315820f1e977572176619731e54323401cccf9dc09da6c950f23674c9b03adf0b53dfd6c6578706572696d656e74616cf564736f6c63430005100040",
  "source": "// Disco \r\npragma solidity >=0.4.21 <0.7.0;\r\npragma experimental ABIEncoderV2;\r\n\r\ncontract Disco {\r\n    address private _owner;\r\n    address payable private _coinbase;\r\n\r\n    // disco\r\n    struct DiscoInfo {\r\n        string id;\r\n        address walletAddr;\r\n        address tokenAddr;\r\n        string description;\r\n        uint256 fundRaisingStartedAt;\r\n        uint256 fundRaisingEndedAt;\r\n        uint256 investmentReward;\r\n        uint256 rewardDeclineRate;\r\n        uint256 shareToken;\r\n        uint256 minFundRaising;\r\n        uint256 addLiquidityPool;\r\n        uint256 totalDepositToken;\r\n    }\r\n\r\n    // disco \r\n    struct DiscoInvestor {\r\n        // \r\n        address investor;\r\n        // , \r\n        uint256 value;\r\n        // \r\n        uint256 time;\r\n        // dead\r\n        bool isDead;\r\n        // // TOKEN\r\n        // uint256 sharedToken;\r\n        // // TOKEN\r\n        // uint256 rewardedToken;\r\n    }\r\n\r\n    // disco\r\n    struct DiscoStatus {\r\n        // \r\n        bool isFinished;\r\n        // \r\n        bool isSuccess;\r\n        // \r\n        bool isEnabled;\r\n    }\r\n\r\n    struct DiscoInvestAddr {\r\n        DiscoAddr discoAddr;\r\n    }\r\n\r\n    // disco\r\n    mapping(string => DiscoInfo) public discos;\r\n    // \r\n    mapping(string => DiscoInvestor[]) public investors;\r\n    // \r\n    mapping(string => DiscoStatus) public status;\r\n    //  disco \r\n    mapping(string => DiscoInvestAddr) public discoAddress;\r\n\r\n    // \r\n    event createdDisco(string discoId, DiscoAddr addr);\r\n    // \r\n    // event enabledDisco(string discoId, address discoAddr);\r\n    event enabledDisco(string discoId);\r\n    // \r\n    event fundraisingSucceed(string discoId);\r\n    //\r\n    event fundraisingFinished(string discoIdo, bool success);\r\n    // \r\n    event fundraisingFailed(string discoId);\r\n    //  disco \r\n    event investToDisco(string discoId, address investorAddr, uint256 amount);\r\n\r\n    // \r\n    modifier isOwner() {\r\n        require(msg.sender == _owner, \"Caller is not owner!\");\r\n        _;\r\n    }\r\n\r\n    modifier canInvest(string memory id) {\r\n        uint256 checkPoint = getDate();\r\n        DiscoStatus memory status = status[id];\r\n        DiscoInfo memory discoInfo = discos[id];\r\n        require(status.isEnabled && !status.isFinished);\r\n        // require(discoInfo.fundRaisingStartedAt < checkPoint, 'current time must greater than start time');\r\n        // require(checkPoint < discoInfo.fundRaisingEndedAt, 'current time must less than end time');\r\n        _;\r\n    }\r\n\r\n    constructor()\r\n    public {\r\n        _owner = msg.sender;\r\n    }\r\n\r\n    function setCoinBase(address payable addr)\r\n    isOwner\r\n    public {\r\n        _coinbase = addr;\r\n    }\r\n\r\n    //  \r\n    function getDate() public view returns (uint256){\r\n        return now;\r\n    }\r\n\r\n    // Disco\r\n    /**\r\n    * @param d  tuple forward.\r\n    **/\r\n    function newDisco(DiscoInfo memory d) public payable {\r\n        require(bytes(d.id).length != 0);\r\n        DiscoStatus memory s = DiscoStatus(\r\n            false,\r\n            false,\r\n            false\r\n        );\r\n        discos[d.id] = d;\r\n        status[d.id] = s;\r\n        // , discoAddr DiscoAddr  \r\n        DiscoAddr addr = new DiscoAddr(d.id);\r\n        // disco id  disco \r\n        DiscoInvestAddr memory discoInvestAddr = DiscoInvestAddr(addr);\r\n        discoAddress[d.id] = discoInvestAddr;\r\n        // disco \r\n        emit createdDisco(d.id, addr);\r\n    }\r\n\r\n\r\n    /**\r\n     * @dev disco\r\n     */\r\n    function enableDisco(string memory id) public {\r\n        uint256 checkPoint = getDate();\r\n        // require(discos[id].fundRaisingStartedAt < checkPoint, 'current time must greater than start time');\r\n        // require(discos[id].fundRaisingEndedAt > checkPoint, 'current time must less than end time');\r\n        require(!status[id].isEnabled, 'current disco must has not been enabled');\r\n\r\n        status[id].isEnabled = true;\r\n        // \r\n        emit enabledDisco(id);\r\n    }\r\n\r\n\r\n\r\n    /**\r\n    * @dev  disco disco\r\n    */\r\n    function finishedDisco(string calldata id) external {\r\n        DiscoStatus memory discoStatus = status[id];\r\n        require(!discoStatus.isFinished && discoStatus.isEnabled);\r\n        discoStatus.isFinished = true;\r\n        uint256 investAmt = 0;\r\n        for (uint256 i = 0; i < investors[id].length; i++) {\r\n            DiscoInvestor memory investor = investors[id][i];\r\n            if (!investor.isDead) {\r\n                investAmt += investor.value;\r\n            }\r\n        }\r\n        DiscoInfo memory info = discos[id];\r\n        //if minFundRaising is a bottom of pool.\r\n        discoStatus.isSuccess = info.minFundRaising > investAmt;\r\n        status[id] = discoStatus;\r\n        emit fundraisingFinished(id, discoStatus.isSuccess);\r\n    }\r\n\r\n\r\n    /**\r\n     * refund-anti-pattern \r\n     */\r\n    function refund(string calldata id) external payable {\r\n        require(bytes(id).length != 0);\r\n        DiscoAddr discoAddr = discoAddress[id].discoAddr;\r\n        require(bytes(discoAddr.getDiscoId()).length != 0);\r\n        // solidity > 0.6 address payable pool = payable(address(discoAddr)) ;\r\n        // as follow is 0.5.x\r\n        address tmp = address(discoAddr);\r\n        address payable pool = address(uint160(tmp));\r\n        for (uint256 i = 0; i < investors[id].length; i++) {\r\n            DiscoInvestor storage investor = investors[id][i];\r\n            pool.transfer(investor.value);\r\n            investor.isDead = true;\r\n        }\r\n    }\r\n\r\n    // ,  \r\n    function investor(string memory id, uint256 time) public payable canInvest(id) {\r\n        require(_coinbase != address(0));\r\n        DiscoInvestor memory d = DiscoInvestor(\r\n            _owner,\r\n            msg.value,\r\n            time,\r\n            false\r\n        );\r\n        DiscoAddr discoAddr = discoAddress[id].discoAddr;\r\n        // solidity > 0.6 address payable pool = payable(address(discoAddr)) ;\r\n        // as follow is 0.5.x\r\n        address tmp = address(discoAddr);\r\n        address payable pool = address(uint160(tmp));\r\n        pool.transfer(msg.value);\r\n        investors[id].push(d);\r\n        emit investToDisco(id, _owner, msg.value);\r\n    }\r\n}\r\n\r\n\r\n// \r\ncontract DiscoAddr {\r\n\r\n    string public id;\r\n    // suppose the deployed contract has a purpose\r\n\r\n    function() external payable {}\r\n\r\n    constructor(string memory discoId) public {\r\n        id = discoId;\r\n    }\r\n\r\n\r\n    function getDiscoId() public view returns (string memory) {\r\n        return id;\r\n    }\r\n}\r\n",
  "sourcePath": "F:/cos-contract-com/contracts/Disco.sol",
  "compiler": {
    "name": "solc",
    "version": "0.5.16+commit.9c3226ce.Emscripten.clang"
  },
  "schemaVersion": "3.2.3",
  "updatedAt": "2021-03-07T14:53:40.809Z",
  "devdoc": {
    "methods": {
      "enableDisco(string)": {
        "details": "disco"
      },
      "finishedDisco(string)": {
        "details": " disco disco"
      },
      "newDisco((string,address,address,string,uint256,uint256,uint256,uint256,uint256,uint256,uint256,uint256))": {
        "params": {
          "d": "tuple forward.*"
        }
      }
    }
  },
  "userdoc": {
    "methods": {
      "refund(string)": {
        "notice": "refund-anti-pattern "
      }
    }
  }
}