{
  "contractName": "Disco",
  "abi": [
    {
      "inputs": [],
      "payable": false,
      "stateMutability": "nonpayable",
      "type": "constructor"
    },
    {
      "anonymous": false,
      "inputs": [
        {
          "indexed": false,
          "internalType": "string",
          "name": "discoId",
          "type": "string"
        },
        {
          "indexed": false,
          "internalType": "contract DiscoAddr",
          "name": "addr",
          "type": "address"
        }
      ],
      "name": "createdDisco",
      "type": "event"
    },
    {
      "anonymous": false,
      "inputs": [
        {
          "indexed": false,
          "internalType": "string",
          "name": "discoId",
          "type": "string"
        }
      ],
      "name": "enabledDisco",
      "type": "event"
    },
    {
      "anonymous": false,
      "inputs": [
        {
          "indexed": false,
          "internalType": "string",
          "name": "discoId",
          "type": "string"
        }
      ],
      "name": "fundraisingFailed",
      "type": "event"
    },
    {
      "anonymous": false,
      "inputs": [
        {
          "indexed": false,
          "internalType": "string",
          "name": "discoIdo",
          "type": "string"
        },
        {
          "indexed": false,
          "internalType": "bool",
          "name": "success",
          "type": "bool"
        }
      ],
      "name": "fundraisingFinished",
      "type": "event"
    },
    {
      "anonymous": false,
      "inputs": [
        {
          "indexed": false,
          "internalType": "string",
          "name": "discoId",
          "type": "string"
        }
      ],
      "name": "fundraisingSucceed",
      "type": "event"
    },
    {
      "anonymous": false,
      "inputs": [
        {
          "indexed": false,
          "internalType": "string",
          "name": "discoId",
          "type": "string"
        },
        {
          "indexed": false,
          "internalType": "address",
          "name": "investorAddr",
          "type": "address"
        },
        {
          "indexed": false,
          "internalType": "uint256",
          "name": "amount",
          "type": "uint256"
        }
      ],
      "name": "investToDisco",
      "type": "event"
    },
    {
      "constant": true,
      "inputs": [
        {
          "internalType": "string",
          "name": "",
          "type": "string"
        }
      ],
      "name": "discoAddress",
      "outputs": [
        {
          "internalType": "contract DiscoAddr",
          "name": "discoAddr",
          "type": "address"
        },
        {
          "internalType": "contract IERC20",
          "name": "token",
          "type": "address"
        },
        {
          "internalType": "address payable",
          "name": "depositAccount",
          "type": "address"
        },
        {
          "internalType": "uint256",
          "name": "initLiquidity",
          "type": "uint256"
        },
        {
          "internalType": "uint256",
          "name": "swapEth",
          "type": "uint256"
        },
        {
          "internalType": "uint256",
          "name": "swapToken",
          "type": "uint256"
        }
      ],
      "payable": false,
      "stateMutability": "view",
      "type": "function"
    },
    {
      "constant": true,
      "inputs": [
        {
          "internalType": "string",
          "name": "",
          "type": "string"
        }
      ],
      "name": "discos",
      "outputs": [
        {
          "internalType": "string",
          "name": "id",
          "type": "string"
        },
        {
          "internalType": "address payable",
          "name": "walletAddr",
          "type": "address"
        },
        {
          "internalType": "address",
          "name": "tokenAddr",
          "type": "address"
        },
        {
          "internalType": "string",
          "name": "description",
          "type": "string"
        },
        {
          "internalType": "uint256",
          "name": "fundRaisingStartedAt",
          "type": "uint256"
        },
        {
          "internalType": "uint256",
          "name": "fundRaisingEndedAt",
          "type": "uint256"
        },
        {
          "internalType": "uint256",
          "name": "investmentReward",
          "type": "uint256"
        },
        {
          "internalType": "uint256",
          "name": "rewardDeclineRate",
          "type": "uint256"
        },
        {
          "internalType": "uint256",
          "name": "shareToken",
          "type": "uint256"
        },
        {
          "internalType": "uint256",
          "name": "minFundRaising",
          "type": "uint256"
        },
        {
          "internalType": "uint256",
          "name": "addLiquidityPool",
          "type": "uint256"
        },
        {
          "internalType": "uint256",
          "name": "totalDepositToken",
          "type": "uint256"
        }
      ],
      "payable": false,
      "stateMutability": "view",
      "type": "function"
    },
    {
      "constant": true,
      "inputs": [
        {
          "internalType": "string",
          "name": "",
          "type": "string"
        },
        {
          "internalType": "uint256",
          "name": "",
          "type": "uint256"
        }
      ],
      "name": "investors",
      "outputs": [
        {
          "internalType": "address",
          "name": "investor",
          "type": "address"
        },
        {
          "internalType": "uint256",
          "name": "value",
          "type": "uint256"
        },
        {
          "internalType": "uint256",
          "name": "time",
          "type": "uint256"
        },
        {
          "internalType": "bool",
          "name": "isDead",
          "type": "bool"
        }
      ],
      "payable": false,
      "stateMutability": "view",
      "type": "function"
    },
    {
      "constant": true,
      "inputs": [
        {
          "internalType": "string",
          "name": "",
          "type": "string"
        }
      ],
      "name": "status",
      "outputs": [
        {
          "internalType": "bool",
          "name": "isFinished",
          "type": "bool"
        },
        {
          "internalType": "bool",
          "name": "isSuccess",
          "type": "bool"
        },
        {
          "internalType": "bool",
          "name": "isEnabled",
          "type": "bool"
        }
      ],
      "payable": false,
      "stateMutability": "view",
      "type": "function"
    },
    {
      "constant": false,
      "inputs": [
        {
          "internalType": "address payable",
          "name": "addr",
          "type": "address"
        }
      ],
      "name": "setCoinBase",
      "outputs": [],
      "payable": false,
      "stateMutability": "nonpayable",
      "type": "function"
    },
    {
      "constant": false,
      "inputs": [
        {
          "internalType": "address",
          "name": "swapAddr",
          "type": "address"
        }
      ],
      "name": "setSwap",
      "outputs": [],
      "payable": false,
      "stateMutability": "nonpayable",
      "type": "function"
    },
    {
      "constant": false,
      "inputs": [
        {
          "internalType": "uint256",
          "name": "pf",
          "type": "uint256"
        }
      ],
      "name": "setPreFee",
      "outputs": [],
      "payable": false,
      "stateMutability": "nonpayable",
      "type": "function"
    },
    {
      "constant": true,
      "inputs": [],
      "name": "getDate",
      "outputs": [
        {
          "internalType": "uint256",
          "name": "",
          "type": "uint256"
        }
      ],
      "payable": false,
      "stateMutability": "view",
      "type": "function"
    },
    {
      "constant": false,
      "inputs": [
        {
          "components": [
            {
              "internalType": "string",
              "name": "id",
              "type": "string"
            },
            {
              "internalType": "address payable",
              "name": "walletAddr",
              "type": "address"
            },
            {
              "internalType": "address",
              "name": "tokenAddr",
              "type": "address"
            },
            {
              "internalType": "string",
              "name": "description",
              "type": "string"
            },
            {
              "internalType": "uint256",
              "name": "fundRaisingStartedAt",
              "type": "uint256"
            },
            {
              "internalType": "uint256",
              "name": "fundRaisingEndedAt",
              "type": "uint256"
            },
            {
              "internalType": "uint256",
              "name": "investmentReward",
              "type": "uint256"
            },
            {
              "internalType": "uint256",
              "name": "rewardDeclineRate",
              "type": "uint256"
            },
            {
              "internalType": "uint256",
              "name": "shareToken",
              "type": "uint256"
            },
            {
              "internalType": "uint256",
              "name": "minFundRaising",
              "type": "uint256"
            },
            {
              "internalType": "uint256",
              "name": "addLiquidityPool",
              "type": "uint256"
            },
            {
              "internalType": "uint256",
              "name": "totalDepositToken",
              "type": "uint256"
            }
          ],
          "internalType": "struct Disco.DiscoInfo",
          "name": "d",
          "type": "tuple"
        }
      ],
      "name": "newDisco",
      "outputs": [],
      "payable": true,
      "stateMutability": "payable",
      "type": "function"
    },
    {
      "constant": false,
      "inputs": [
        {
          "internalType": "string",
          "name": "id",
          "type": "string"
        }
      ],
      "name": "enableDisco",
      "outputs": [],
      "payable": true,
      "stateMutability": "payable",
      "type": "function"
    },
    {
      "constant": false,
      "inputs": [
        {
          "internalType": "string",
          "name": "id",
          "type": "string"
        }
      ],
      "name": "finishedDisco",
      "outputs": [],
      "payable": false,
      "stateMutability": "nonpayable",
      "type": "function"
    },
    {
      "constant": true,
      "inputs": [
        {
          "internalType": "string",
          "name": "id",
          "type": "string"
        }
      ],
      "name": "getInvestAmt",
      "outputs": [
        {
          "internalType": "uint256",
          "name": "",
          "type": "uint256"
        },
        {
          "internalType": "uint256",
          "name": "",
          "type": "uint256"
        }
      ],
      "payable": false,
      "stateMutability": "view",
      "type": "function"
    },
    {
      "constant": false,
      "inputs": [
        {
          "internalType": "string",
          "name": "id",
          "type": "string"
        },
        {
          "internalType": "uint256",
          "name": "investAmt",
          "type": "uint256"
        }
      ],
      "name": "assign",
      "outputs": [
        {
          "internalType": "uint256",
          "name": "",
          "type": "uint256"
        },
        {
          "internalType": "uint256",
          "name": "",
          "type": "uint256"
        }
      ],
      "payable": true,
      "stateMutability": "payable",
      "type": "function"
    },
    {
      "constant": false,
      "inputs": [
        {
          "internalType": "string",
          "name": "id",
          "type": "string"
        },
        {
          "internalType": "uint256",
          "name": "investAmt",
          "type": "uint256"
        }
      ],
      "name": "assignEth",
      "outputs": [
        {
          "internalType": "uint256",
          "name": "",
          "type": "uint256"
        }
      ],
      "payable": true,
      "stateMutability": "payable",
      "type": "function"
    },
    {
      "constant": false,
      "inputs": [
        {
          "internalType": "string",
          "name": "id",
          "type": "string"
        }
      ],
      "name": "assignToken",
      "outputs": [
        {
          "internalType": "uint256",
          "name": "",
          "type": "uint256"
        }
      ],
      "payable": true,
      "stateMutability": "payable",
      "type": "function"
    },
    {
      "constant": false,
      "inputs": [
        {
          "internalType": "string",
          "name": "id",
          "type": "string"
        }
      ],
      "name": "assignLiquidity",
      "outputs": [],
      "payable": true,
      "stateMutability": "payable",
      "type": "function"
    },
    {
      "constant": false,
      "inputs": [
        {
          "internalType": "string",
          "name": "id",
          "type": "string"
        },
        {
          "internalType": "uint256",
          "name": "eth",
          "type": "uint256"
        },
        {
          "internalType": "uint256",
          "name": "token",
          "type": "uint256"
        }
      ],
      "name": "addLiquidity",
      "outputs": [
        {
          "internalType": "uint256",
          "name": "",
          "type": "uint256"
        },
        {
          "internalType": "uint256",
          "name": "",
          "type": "uint256"
        },
        {
          "internalType": "uint256",
          "name": "",
          "type": "uint256"
        }
      ],
      "payable": true,
      "stateMutability": "payable",
      "type": "function"
    },
    {
      "constant": false,
      "inputs": [
        {
          "internalType": "string",
          "name": "id",
          "type": "string"
        },
        {
          "internalType": "uint256",
          "name": "token",
          "type": "uint256"
        }
      ],
      "name": "removeLiquidity",
      "outputs": [
        {
          "internalType": "uint256",
          "name": "",
          "type": "uint256"
        },
        {
          "internalType": "uint256",
          "name": "",
          "type": "uint256"
        }
      ],
      "payable": true,
      "stateMutability": "payable",
      "type": "function"
    },
    {
      "constant": false,
      "inputs": [
        {
          "internalType": "string",
          "name": "id",
          "type": "string"
        }
      ],
      "name": "refund",
      "outputs": [],
      "payable": true,
      "stateMutability": "payable",
      "type": "function"
    },
    {
      "constant": false,
      "inputs": [
        {
          "internalType": "string",
          "name": "id",
          "type": "string"
        },
        {
          "internalType": "uint256",
          "name": "time",
          "type": "uint256"
        }
      ],
      "name": "investor",
      "outputs": [],
      "payable": true,
      "stateMutability": "payable",
      "type": "function"
    }
  ],
  "bytecode": "0x608060405234801561001057600080fd5b50600080546001600160a01b03191633179055614d3c806100326000396000f3fe608060405260043610620001395760003560e01c8063512518b511620000af578063b16e68eb116200006d578063b16e68eb1462000372578063bff390a71462000389578063c79d192114620003b1578063e8ca64f414620003c8578063fe5f2e8814620003fe5762000139565b8063512518b514620002c15780635e56fb0114620002d85780637a328a7e146200031157806399fcd6e41462000336578063acb3c073146200034d5762000139565b80632df7917211620000fd5780632df7917214620001f757806334d30e40146200023657806334e8e57b146200025b578063430fe9c1146200029257806348569ee914620002aa5762000139565b8062d05029146200013e5780631218bfff146200016e57806315282c9e14620001945780632019240214620001bb578063283e2e0414620001d2575b600080fd5b620001556200014f36600462003b8f565b62000415565b6040516200016592919062004432565b60405180910390f35b620001856200017f36600462003b1d565b6200044f565b60405162000165919062004422565b348015620001a157600080fd5b50620001b9620001b336600462003c1f565b62000961565b005b62000185620001cc36600462003b8f565b6200099c565b348015620001df57600080fd5b50620001b9620001f1366004620039a0565b62000d04565b3480156200020457600080fd5b506200021c6200021636600462003b1d565b62000d53565b604051620001659c9b9a9998979695949392919062004273565b3480156200024357600080fd5b50620001556200025536600462003b1d565b62000ee7565b3480156200026857600080fd5b50620002806200027a36600462003b8f565b62000fcc565b60405162000165949392919062004137565b3480156200029f57600080fd5b50620001856200102c565b620001b9620002bb36600462003be6565b62001031565b620001b9620002d236600462003b1d565b62001328565b348015620002e557600080fd5b50620002fd620002f736600462003b1d565b6200188b565b6040516200016596959493929190620041ab565b3480156200031e57600080fd5b50620001b96200033036600462003a0b565b620018d9565b620001556200034736600462003a51565b62001cd1565b3480156200035a57600080fd5b50620001b96200036c366004620039a0565b6200208e565b620001b96200038336600462003b8f565b620020dd565b620003a06200039a36600462003aac565b62002574565b604051620001659392919062004442565b620001b9620003c236600462003b1d565b620029e7565b348015620003d557600080fd5b50620003ed620003e736600462003b1d565b62002f52565b60405162000165939291906200417d565b620001b96200040f36600462003b1d565b62002f85565b600080620004238462001328565b60006200043185856200099c565b9050600062000440866200044f565b919350909150505b9250929050565b60006200045b62003545565b6004836040516200046d919062004040565b9081526040805160209281900383018120805460026001821615610100026000190190911604601f810185900490940282016101a090810190935261018082018481529193909284929184918401828280156200050e5780601f10620004e2576101008083540402835291602001916200050e565b820191906000526020600020905b815481529060010190602001808311620004f057829003601f168201915b50505091835250506001828101546001600160a01b0390811660208085019190915260028086015490921660408086019190915260038601805482516101009682161596909602600019011693909304601f810183900483028501830190915280845260609094019390830182828015620005cd5780601f10620005a157610100808354040283529160200191620005cd565b820191906000526020600020905b815481529060010190602001808311620005af57829003601f168201915b50505050508152602001600482015481526020016005820154815260200160068201548152602001600782015481526020016008820154815260200160098201548152602001600a8201548152602001600b82015481525050905062000632620035b8565b60078460405162000644919062004040565b90815260408051918290036020908101832060c08401835280546001600160a01b039081168552600182015481169285019290925260028101549091168383015260038101546060808501919091526004820154608085015260059182015460a085015291519293509091620006bc90879062004040565b9081526020016040518091039020805480602002602001604051908101604052809291908181526020016000905b828210156200074e576000848152602090819020604080516080810182526004860290920180546001600160a01b03168352600180820154848601526002820154928401929092526003015460ff16151560608301529083529092019101620006ea565b5092935060009250829150505b8251811015620008d4576200076f62003609565b8382815181106200077c57fe5b60200260200101519050806060015115620007985750620008cb565b6000620007cc62015180620007bf84604001518a608001516200345190919063ffffffff16565b9063ffffffff6200347716565b90506000620007e9828960e001516200345190919063ffffffff16565b905060008111620007f8575060005b60006200083f6064620007bf6200081785600163ffffffff620034ad16565b60608c01516020890151620008329163ffffffff620034d316565b9063ffffffff620034d316565b885160208a015186516040516317d5759960e31b81529394506001600160a01b039092169263beabacc8926200087b9291869060040162004207565b600060405180830381600087803b1580156200089657600080fd5b505af1158015620008ab573d6000803e3d6000fd5b50505050620008c48187620034ad90919063ffffffff16565b9550505050505b6001016200075b565b50610160840151819003801562000957578351602085015160408087015190516317d5759960e31b81526001600160a01b039093169263beabacc892620009229290918690600401620041f7565b600060405180830381600087803b1580156200093d57600080fd5b505af115801562000952573d6000803e3d6000fd5b505050505b9695505050505050565b6000546001600160a01b03163314620009975760405162461bcd60e51b81526004016200098e90620043b6565b60405180910390fd5b600355565b6000620009a862003545565b600484604051620009ba919062004040565b9081526040805160209281900383018120805460026001821615610100026000190190911604601f810185900490940282016101a0908101909352610180820184815291939092849291849184018282801562000a5b5780601f1062000a2f5761010080835404028352916020019162000a5b565b820191906000526020600020905b81548152906001019060200180831162000a3d57829003601f168201915b50505091835250506001828101546001600160a01b0390811660208085019190915260028086015490921660408086019190915260038601805482516101009682161596909602600019011693909304601f81018390048302850183019091528084526060909401939083018282801562000b1a5780601f1062000aee5761010080835404028352916020019162000b1a565b820191906000526020600020905b81548152906001019060200180831162000afc57829003601f168201915b50505050508152602001600482015481526020016005820154815260200160068201548152602001600782015481526020016008820154815260200160098201548152602001600a8201548152602001600b82015481525050905062000b7f620035b8565b60078560405162000b91919062004040565b908152604080516020928190038301812060c08201835280546001600160a01b0390811680845260018301548216958401959095526002808301549091169383019390935260038101546060830152600481015460808301526005015460a0820152925060009062000c0d90606490620007bf908990620034d3565b9050801562000c8157604051634f95a04b60e01b81526001600160a01b03831690634f95a04b9062000c47906000908590600401620040a2565b600060405180830381600087803b15801562000c6257600080fd5b505af115801562000c77573d6000803e3d6000fd5b5050505080860395505b60808301516020850151604051634f95a04b60e01b815283890392909203916001600160a01b03851691634f95a04b9162000cc291908590600401620040a2565b600060405180830381600087803b15801562000cdd57600080fd5b505af115801562000cf2573d6000803e3d6000fd5b50939750505050505050505b92915050565b6000546001600160a01b0316331462000d315760405162461bcd60e51b81526004016200098e90620043b6565b600180546001600160a01b0319166001600160a01b0392909216919091179055565b805160208183018101805160048252928201938201939093209190925280546040805160026001841615610100026000190190931692909204601f810185900485028301850190915280825291929091839183018282801562000dfa5780601f1062000dce5761010080835404028352916020019162000dfa565b820191906000526020600020905b81548152906001019060200180831162000ddc57829003601f168201915b505050600180850154600280870154600388018054604080516020601f60001999851615610100029990990190931695909504968701829004820285018201905285845297986001600160a01b039485169892909416965092945090929083018282801562000ead5780601f1062000e815761010080835404028352916020019162000ead565b820191906000526020600020905b81548152906001019060200180831162000e8f57829003601f168201915b50505050509080600401549080600501549080600601549080600701549080600801549080600901549080600a01549080600b015490508c565b6000808080805b60058660405162000f00919062004040565b9081526040519081900360200190205481101562000fc25762000f2262003609565b60058760405162000f34919062004040565b9081526020016040518091039020828154811062000f4e57fe5b600091825260209182902060408051608081018252600490930290910180546001600160a01b0316835260018101549383019390935260028301549082015260039091015460ff1615156060820181905290915062000fb857602081015193909301926001909201915b5060010162000eee565b5092509050915091565b8151602081840181018051600582529282019185019190912091905280548290811062000ff557fe5b600091825260209091206004909102018054600182015460028301546003909301546001600160a01b039092169450925060ff1684565b425b90565b8051516200103e57600080fd5b620010486200363c565b5060408051606081018252600080825260208201819052818301528251915190918391600491620010799162004040565b90815260200160405180910390206000820151816000019080519060200190620010a59291906200365c565b506020828101516001830180546001600160a01b039283166001600160a01b031991821617909155604085015160028501805491909316911617905560608301518051620010fa92600385019201906200365c565b506080820151816004015560a0820151816005015560c0820151816006015560e082015181600701556101008201518160080155610120820151816009015561014082015181600a015561016082015181600b0155905050806006836000015160405162001169919062004040565b908152604080519182900360209081018320845181549286015195909301511515620100000262ff0000199515156101000261ff001994151560ff1990941693909317939093169190911793909316179091558251600091620011cc90620036e1565b620011d891906200423c565b604051809103906000f080158015620011f5573d6000803e3d6000fd5b50905062001202620035b8565b6040518060c00160405280836001600160a01b0316815260200185604001516001600160a01b0316815260200160006001600160a01b0316815260200160008152602001600081526020016000815250905080600785600001516040516200126b919062004040565b9081526040805160209281900383018120845181546001600160a01b03199081166001600160a01b0392831617835594860151600183018054871691831691909117905592850151600282018054909516931692909217909255606083015160038201556080830151600482015560a09092015160059092019190915584517ff7e24b64c3d2ed7d191ce3009c2e12632005b58578ce39e23f97eaec9fd6c3e1916200131a919085906200434a565b60405180910390a150505050565b6200133262003545565b60048260405162001344919062004040565b9081526040805160209281900383018120805460026001821615610100026000190190911604601f810185900490940282016101a09081019093526101808201848152919390928492918491840182828015620013e55780601f10620013b957610100808354040283529160200191620013e5565b820191906000526020600020905b815481529060010190602001808311620013c757829003601f168201915b50505091835250506001828101546001600160a01b0390811660208085019190915260028086015490921660408086019190915260038601805482516101009682161596909602600019011693909304601f810183900483028501830190915280845260609094019390830182828015620014a45780601f106200147857610100808354040283529160200191620014a4565b820191906000526020600020905b8154815290600101906020018083116200148657829003601f168201915b50505050508152602001600482015481526020016005820154815260200160068201548152602001600782015481526020016008820154815260200160098201548152602001600a8201548152602001600b82015481525050905062001509620035b8565b6007836040516200151b919062004040565b908152604080516020928190038301812060c08201835280546001600160a01b03908116808452600183015482169584019590955260028201541692820192909252600382015460608201526004820154608082015260059091015460a0820152915060006200158c603c6200350f565b905060006200159b8662000ee7565b60208601516101008801516040516317d5759960e31b81529294506001600160a01b038716935063beabacc892620015d99291309160040162004207565b600060405180830381600087803b158015620015f457600080fd5b505af115801562001609573d6000803e3d6000fd5b505050602085015160025461010088015160405163095ea7b360e01b81526001600160a01b03938416945063095ea7b3936200164b93169190600401620040a2565b602060405180830381600087803b1580156200166657600080fd5b505af11580156200167b573d6000803e3d6000fd5b505050506040513d601f19601f82011682018060405250620016a19190810190620039ea565b506000620016c46064620007bf88610140015185620034d390919063ffffffff16565b600254604051634f95a04b60e01b81529192506001600160a01b0380871692634f95a04b92620016fb9216908590600401620040a2565b600060405180830381600087803b1580156200171657600080fd5b505af11580156200172b573d6000803e3d6000fd5b50506002546040808a01516101008b01518a51925163f305d71960e01b81526000965086955085946001600160a01b03169363f305d7199389936200177d9391929091889182918f90600401620040d1565b6060604051808303818588803b1580156200179757600080fd5b505af1158015620017ac573d6000803e3d6000fd5b50505050506040513d601f19601f82011682018060405250620017d3919081019062003c75565b60608b0181905260a08b0183905260808b018290526040519295509093509150889060079062001805908d9062004040565b9081526040805160209281900383019020835181546001600160a01b03199081166001600160a01b0392831617835593850151600183018054861691831691909117905591840151600282018054909416921691909117909155606082015160038201556080820151600482015560a09091015160059091015550505050505050505050565b80516020818301810180516007825292820191909301209152805460018201546002830154600384015460048501546005909501546001600160a01b03948516959385169490921692909186565b620018e36200363c565b60068383604051620018f792919062004031565b90815260408051602092819003830181206060820183525460ff8082161580158085526101008404831615159685019690965262010000909204161515928201929092529250906200194a575080604001515b6200195457600080fd5b60018152604080516020601f85018190048102820181019092528381526000916200199b9190869086908190840183828082843760009201919091525062000ee792505050565b915050620019a862003545565b60048585604051620019bc92919062004031565b9081526040805160209281900383018120805460026001821615610100026000190190911604601f810185900490940282016101a0908101909352610180820184815291939092849291849184018282801562001a5d5780601f1062001a315761010080835404028352916020019162001a5d565b820191906000526020600020905b81548152906001019060200180831162001a3f57829003601f168201915b50505091835250506001828101546001600160a01b0390811660208085019190915260028086015490921660408086019190915260038601805482516101009682161596909602600019011693909304601f81018390048302850183019091528084526060909401939083018282801562001b1c5780601f1062001af05761010080835404028352916020019162001b1c565b820191906000526020600020905b81548152906001019060200180831162001afe57829003601f168201915b50505050508152602001600482015481526020016005820154815260200160068201548152602001600782015481526020016008820154815260200160098201548152602001600a8201548152602001600b820154815250509050806101200151821015836020019015159081151581525050826006868660405162001ba492919062004031565b90815260408051602092819003830190208351815485850151959093015160ff199093169015151761ff001916610100941515949094029390931762ff000019166201000091151591909102179091558301511562001c485762001c4085858080601f01602080910402602001604051908101604052809392919081815260200183838082843760009201919091525086925062000415915050565b505062001c89565b62001c8985858080601f01602080910402602001604051908101604052809392919081815260200183838082843760009201919091525062002f8592505050565b7f35714766e4544afd4526bc1bbe6a503c6b0f871ab72fb6939be49b8e3419e89e8585856020015160405162001cc29392919062004217565b60405180910390a15050505050565b60025460009081906001600160a01b031662001d015760405162461bcd60e51b81526004016200098e90620043ec565b62001d0b620035b8565b6007868660405162001d1f92919062004031565b908152604080516020928190038301812060c08201835280546001600160a01b0390811683526001820154811694830185905260028083015482168486015260038301546060850152600480840154608086015260059093015460a085015254935163095ea7b360e01b815292955063095ea7b39362001da593911691899101620040a2565b602060405180830381600087803b15801562001dc057600080fd5b505af115801562001dd5573d6000803e3d6000fd5b505050506040513d601f19601f8201168201806040525062001dfb9190810190620039ea565b5062001e0662003545565b6004878760405162001e1a92919062004031565b9081526040805160209281900383018120805460026001821615610100026000190190911604601f810185900490940282016101a0908101909352610180820184815291939092849291849184018282801562001ebb5780601f1062001e8f5761010080835404028352916020019162001ebb565b820191906000526020600020905b81548152906001019060200180831162001e9d57829003601f168201915b50505091835250506001828101546001600160a01b0390811660208085019190915260028086015490921660408086019190915260038601805482516101009682161596909602600019011693909304601f81018390048302850183019091528084526060909401939083018282801562001f7a5780601f1062001f4e5761010080835404028352916020019162001f7a565b820191906000526020600020905b81548152906001019060200180831162001f5c57829003601f168201915b50505050508152602001600482015481526020016005820154815260200160068201548152602001600782015481526020016008820154815260200160098201548152602001600a8201548152602001600b820154815250509050600062001fe360786200350f565b6002546040808501519051629d473b60e21b815292935060009283926001600160a01b0316916302751cec916200202891908c908690819033908b90600401620040d1565b6040805180830381600087803b1580156200204257600080fd5b505af115801562002057573d6000803e3d6000fd5b505050506040513d601f19601f820116820180604052506200207d919081019062003c40565b909b909a5098505050505050505050565b6000546001600160a01b03163314620020bb5760405162461bcd60e51b81526004016200098e90620043b6565b600280546001600160a01b0319166001600160a01b0392909216919091179055565b816000620020ea6200102c565b9050620020f66200363c565b60068360405162002108919062004040565b9081526040805191829003602090810183206060840183525460ff80821615158552610100820481161515928501929092526201000090041615159082015290506200215362003545565b60048460405162002165919062004040565b9081526040805160209281900383018120805460026001821615610100026000190190911604601f810185900490940282016101a09081019093526101808201848152919390928492918491840182828015620022065780601f10620021da5761010080835404028352916020019162002206565b820191906000526020600020905b815481529060010190602001808311620021e857829003601f168201915b50505091835250506001828101546001600160a01b0390811660208085019190915260028086015490921660408086019190915260038601805482516101009682161596909602600019011693909304601f810183900483028501830190915280845260609094019390830182828015620022c55780601f106200229957610100808354040283529160200191620022c5565b820191906000526020600020905b815481529060010190602001808311620022a757829003601f168201915b50505050508152602001600482015481526020016005820154815260200160068201548152602001600782015481526020016008820154815260200160098201548152602001600a8201548152602001600b820154815250509050816040015180156200233157508151155b6200233b57600080fd5b82816080015110620023615760405162461bcd60e51b81526004016200098e9062004380565b828160a0015111620023875760405162461bcd60e51b81526004016200098e90620043fe565b6001546001600160a01b03166200239d57600080fd5b620023a762003609565b5060408051608081018252600080546001600160a01b03168252346020830152818301889052606082018190529151909190600790620023e9908a9062004040565b90815260408051602092819003830181205463026b1d5f60e01b825291516001600160a01b039092169350839263026b1d5f92600480840193829003018186803b1580156200243757600080fd5b505afa1580156200244c573d6000803e3d6000fd5b505050506040513d601f19601f82011682018060405250620024729190810190620039c9565b6001600160a01b03166108fc349081150290604051600060405180830381858888f19350505050158015620024ab573d6000803e3d6000fd5b50600588604051620024be919062004040565b90815260408051602092819003830181208054600180820183556000928352858320885160049093020180546001600160a01b0319166001600160a01b03938416178155958801519086015592860151600285015560608601516003909401805460ff19169415159490941790935591547f5fec6c2d2d376aa6f4c793e34f6cc71d65285bd07d1e709292fafc2b28bf2fbe9262002562928c92169034906200424f565b60405180910390a15050505050505050565b600254600090819081906001600160a01b0316620025a65760405162461bcd60e51b81526004016200098e90620043ec565b620025b0620035b8565b60078888604051620025c492919062004031565b908152604080516020928190038301812060c08201835280546001600160a01b039081168352600182015481169483018590526002820154168284015260038101546060830152600480820154608084015260059091015460a083015291516323b872dd60e01b81529093506323b872dd916200264891339130918b910162004083565b602060405180830381600087803b1580156200266357600080fd5b505af115801562002678573d6000803e3d6000fd5b505050506040513d601f19601f820116820180604052506200269e9190810190620039ea565b620026a857600080fd5b620026b262003545565b60048989604051620026c692919062004031565b9081526040805160209281900383018120805460026001821615610100026000190190911604601f810185900490940282016101a09081019093526101808201848152919390928492918491840182828015620027675780601f106200273b5761010080835404028352916020019162002767565b820191906000526020600020905b8154815290600101906020018083116200274957829003601f168201915b50505091835250506001828101546001600160a01b0390811660208085019190915260028086015490921660408086019190915260038601805482516101009682161596909602600019011693909304601f810183900483028501830190915280845260609094019390830182828015620028265780601f10620027fa5761010080835404028352916020019162002826565b820191906000526020600020905b8154815290600101906020018083116200280857829003601f168201915b50505050508152602001600482015481526020016005820154815260200160068201548152602001600782015481526020016008820154815260200160098201548152602001600a8201548152602001600b82015481525050905081602001516001600160a01b031663095ea7b3600260009054906101000a90046001600160a01b0316886040518363ffffffff1660e01b8152600401620028ca929190620040a2565b602060405180830381600087803b158015620028e557600080fd5b505af1158015620028fa573d6000803e3d6000fd5b505050506040513d601f19601f82011682018060405250620029209190810190620039ea565b5060006200292f60786200350f565b600254604080850151905163f305d71960e01b8152929350600092839283926001600160a01b039091169163f305d719918e916200297b91908f908790819033908d90600401620040d1565b6060604051808303818588803b1580156200299557600080fd5b505af1158015620029aa573d6000803e3d6000fd5b50505050506040513d601f19601f82011682018060405250620029d1919081019062003c75565b919f909e50909c509a5050505050505050505050565b6000620029f362003523565b90508034101562002a185760405162461bcd60e51b81526004016200098e9062004410565b600062002a246200102c565b905062002a3062003545565b60048460405162002a42919062004040565b9081526040805160209281900383018120805460026001821615610100026000190190911604601f810185900490940282016101a0908101909352610180820184815291939092849291849184018282801562002ae35780601f1062002ab75761010080835404028352916020019162002ae3565b820191906000526020600020905b81548152906001019060200180831162002ac557829003601f168201915b50505091835250506001828101546001600160a01b0390811660208085019190915260028086015490921660408086019190915260038601805482516101009682161596909602600019011693909304601f81018390048302850183019091528084526060909401939083018282801562002ba25780601f1062002b765761010080835404028352916020019162002ba2565b820191906000526020600020905b81548152906001019060200180831162002b8457829003601f168201915b50505050508152602001600482015481526020016005820154815260200160068201548152602001600782015481526020016008820154815260200160098201548152602001600a8201548152602001600b82015481525050905062002c076200363c565b60068560405162002c19919062004040565b9081526040805191829003602090810183206060840183525460ff8082161515855261010082048116151592850192909252620100009004161580159183019190915290915062002c7e5760405162461bcd60e51b81526004016200098e90620043da565b62002c88620035b8565b60078660405162002c9a919062004040565b908152604080516020928190038301812060c08201835280546001600160a01b03908116808452600183015482168685015260028301549091168385015260038201546060840152600480830154608085015260059092015460a0840152835163026b1d5f60e01b8152935192955093849363026b1d5f93818401939091829003018186803b15801562002d2d57600080fd5b505afa15801562002d42573d6000803e3d6000fd5b505050506040513d601f19601f8201168201806040525062002d689190810190620039c9565b6001600160a01b03166108fc879081150290604051600060405180830381858888f1935050505015801562002da1573d6000803e3d6000fd5b50600082602001519050806001600160a01b03166323b872dd33846001600160a01b031663026b1d5f6040518163ffffffff1660e01b815260040160206040518083038186803b15801562002df557600080fd5b505afa15801562002e0a573d6000803e3d6000fd5b505050506040513d601f19601f8201168201806040525062002e309190810190620039c9565b8861016001516040518463ffffffff1660e01b815260040162002e569392919062004055565b602060405180830381600087803b15801562002e7157600080fd5b505af115801562002e86573d6000803e3d6000fd5b505050506040513d601f19601f8201168201806040525062002eac9190810190620039ea565b50600160408086019190915251849060069062002ecb908b9062004040565b908152604080516020928190038301902083518154938501519483015160ff199094169015151761ff001916610100941515949094029390931762ff000019166201000092151592909202919091179091553384820152517f44ec18e6fb6c9893aa22a7236add99d912e21075f568b1f65c6b3d7a65e285d89062002562908a906200423c565b805160208183018101805160068252928201919093012091525460ff808216916101008104821691620100009091041683565b805162002f9157600080fd5b62002f9b620035b8565b60078260405162002fad919062004040565b908152604080516020928190038301812060c08201835280546001600160a01b0390811680845260018301548216958401959095526002820154168284015260038101546060830152600480820154608084015260059091015460a08301528251637d8f353160e11b81529251919450839263fb1e6a629281830192600092829003018186803b1580156200304157600080fd5b505afa15801562003056573d6000803e3d6000fd5b505050506040513d6000823e601f3d908101601f1916820160405262003080919081019062003b56565b516200308b57600080fd5b60408201516001600160a01b0316620030a357600080fd5b60005b600584604051620030b8919062004040565b90815260405190819003602001902054811015620031d9576000600585604051620030e4919062004040565b90815260200160405180910390208281548110620030fe57fe5b90600052602060002090600402019050826001600160a01b031663026b1d5f6040518163ffffffff1660e01b815260040160206040518083038186803b1580156200314857600080fd5b505afa1580156200315d573d6000803e3d6000fd5b505050506040513d601f19601f82011682018060405250620031839190810190620039c9565b6001600160a01b03166108fc82600101549081150290604051600060405180830381858888f19350505050158015620031c0573d6000803e3d6000fd5b50600301805460ff1916600190811790915501620030a6565b50620031e462003545565b600484604051620031f6919062004040565b9081526040805160209281900383018120805460026001821615610100026000190190911604601f810185900490940282016101a09081019093526101808201848152919390928492918491840182828015620032975780601f106200326b5761010080835404028352916020019162003297565b820191906000526020600020905b8154815290600101906020018083116200327957829003601f168201915b50505091835250506001828101546001600160a01b0390811660208085019190915260028086015490921660408086019190915260038601805482516101009682161596909602600019011693909304601f810183900483028501830190915280845260609094019390830182828015620033565780601f106200332a5761010080835404028352916020019162003356565b820191906000526020600020905b8154815290600101906020018083116200333857829003601f168201915b50505050508152602001600482015481526020016005820154815260200160068201548152602001600782015481526020016008820154815260200160098201548152602001600a8201548152602001600b820154815250509050600083602001519050806001600160a01b031663a9059cbb85604001518461016001516040518363ffffffff1660e01b8152600401620033f3929190620040c1565b602060405180830381600087803b1580156200340e57600080fd5b505af115801562003423573d6000803e3d6000fd5b505050506040513d601f19601f82011682018060405250620034499190810190620039ea565b505050505050565b8082038281111562000cfe5760405162461bcd60e51b81526004016200098e906200436e565b60008082116200349b5760405162461bcd60e51b81526004016200098e90620043c8565b818381620034a557fe5b049392505050565b8082018281101562000cfe5760405162461bcd60e51b81526004016200098e90620043a4565b6000811580620034f057505080820282828281620034ed57fe5b04145b62000cfe5760405162461bcd60e51b81526004016200098e9062004392565b6000816200351c6200102c565b0192915050565b6000600354600014156200353e5767016345785d8a00006003555b5060035490565b6040518061018001604052806060815260200160006001600160a01b0316815260200160006001600160a01b031681526020016060815260200160008152602001600081526020016000815260200160008152602001600081526020016000815260200160008152602001600081525090565b6040518060c0016040528060006001600160a01b0316815260200160006001600160a01b0316815260200160006001600160a01b031681526020016000815260200160008152602001600081525090565b604051806080016040528060006001600160a01b0316815260200160008152602001600081526020016000151581525090565b604080516060810182526000808252602082018190529181019190915290565b828054600181600116156101000203166002900490600052602060002090601f016020900481019282601f106200369f57805160ff1916838001178555620036cf565b82800160010185558215620036cf579182015b82811115620036cf578251825591602001919060010190620036b2565b50620036dd929150620036ef565b5090565b61077c806200457e83390190565b6200102e91905b80821115620036dd5760008155600101620036f6565b803562000cfe816200454d565b805162000cfe816200454d565b805162000cfe8162004567565b60008083601f8401126200374657600080fd5b50813567ffffffffffffffff8111156200375f57600080fd5b6020830191508360018202830111156200044857600080fd5b600082601f8301126200378a57600080fd5b8135620037a16200379b8262004489565b62004461565b91508082526020830160208301858383011115620037be57600080fd5b620037cb83828462004504565b50505092915050565b600082601f830112620037e657600080fd5b8151620037f76200379b8262004489565b915080825260208301602083018583830111156200381457600080fd5b620037cb83828462004510565b600061018082840312156200383557600080fd5b6200384261018062004461565b9050813567ffffffffffffffff8111156200385c57600080fd5b6200386a8482850162003778565b82525060206200387d848483016200370c565b602083015250604062003893848285016200370c565b604083015250606082013567ffffffffffffffff811115620038b457600080fd5b620038c28482850162003778565b6060830152506080620038d88482850162003986565b60808301525060a0620038ee8482850162003986565b60a08301525060c0620039048482850162003986565b60c08301525060e06200391a8482850162003986565b60e083015250610100620039318482850162003986565b61010083015250610120620039498482850162003986565b61012083015250610140620039618482850162003986565b61014083015250610160620039798482850162003986565b6101608301525092915050565b803562000cfe8162004572565b805162000cfe8162004572565b600060208284031215620039b357600080fd5b6000620039c184846200370c565b949350505050565b600060208284031215620039dc57600080fd5b6000620039c1848462003719565b600060208284031215620039fd57600080fd5b6000620039c1848462003726565b6000806020838503121562003a1f57600080fd5b823567ffffffffffffffff81111562003a3757600080fd5b62003a458582860162003733565b92509250509250929050565b60008060006040848603121562003a6757600080fd5b833567ffffffffffffffff81111562003a7f57600080fd5b62003a8d8682870162003733565b9350935050602062003aa28682870162003986565b9150509250925092565b6000806000806060858703121562003ac357600080fd5b843567ffffffffffffffff81111562003adb57600080fd5b62003ae98782880162003733565b9450945050602062003afe8782880162003986565b925050604062003b118782880162003986565b91505092959194509250565b60006020828403121562003b3057600080fd5b813567ffffffffffffffff81111562003b4857600080fd5b620039c18482850162003778565b60006020828403121562003b6957600080fd5b815167ffffffffffffffff81111562003b8157600080fd5b620039c184828501620037d4565b6000806040838503121562003ba357600080fd5b823567ffffffffffffffff81111562003bbb57600080fd5b62003bc98582860162003778565b925050602062003bdc8582860162003986565b9150509250929050565b60006020828403121562003bf957600080fd5b813567ffffffffffffffff81111562003c1157600080fd5b620039c18482850162003821565b60006020828403121562003c3257600080fd5b6000620039c1848462003986565b6000806040838503121562003c5457600080fd5b600062003c62858562003993565b925050602062003bdc8582860162003993565b60008060006060848603121562003c8b57600080fd5b600062003c99868662003993565b935050602062003cac8682870162003993565b925050604062003aa28682870162003993565b62003cca81620044e2565b82525050565b62003cca81620044c4565b62003cca81620044d1565b62003cca81620044ea565b62003cca81620044f7565b600062003d0a8385620044b6565b935062003d1983858462004504565b62003d248362004543565b9093019392505050565b600062003d3c8385620044bf565b935062003d4b83858462004504565b50500190565b600062003d5e82620044b2565b62003d6a8185620044b6565b935062003d7c81856020860162004510565b62003d248162004543565b600062003d9482620044b2565b62003da08185620044bf565b935062003db281856020860162004510565b9290920192915050565b600062003dcb601583620044b6565b7464732d6d6174682d7375622d756e646572666c6f7760581b815260200192915050565b600062003dfe603783620044b6565b7f6e6f77206d7573742067726561746572207468616e2074686520646973636f2081527f66756e642072616973696e672073746172742074696d65000000000000000000602082015260400192915050565b600062003e5f601483620044b6565b7364732d6d6174682d6d756c2d6f766572666c6f7760601b815260200192915050565b600062003e91601483620044b6565b7364732d6d6174682d6164642d6f766572666c6f7760601b815260200192915050565b600062003ec3601483620044b6565b7343616c6c6572206973206e6f74206f776e65722160601b815260200192915050565b600062003ef5601a83620044b6565b7f536166654d6174683a206469766973696f6e206279207a65726f000000000000815260200192915050565b600062003f30602383620044b6565b7f74686520646973636f206d75737420686173206e6f74206265656e20737461728152621d195960ea1b602082015260400192915050565b600062003f77601883620044b6565b7f556e6973776170206e6f7420696e697469616c697a65642e0000000000000000815260200192915050565b600062003fb2603283620044b6565b7f6e6f77206d757374206c657373207468616e2074686520646973636f2066756e815271642072616973696e6720656e642074696d6560701b602082015260400192915050565b600062004008600f83620044b6565b6e666565206e6f7420656e6f7567682160881b815260200192915050565b62003cca816200102e565b6000620039c182848662003d2e565b60006200404e828462003d87565b9392505050565b6060810162004065828662003cbf565b62004074602083018562003cbf565b620039c1604083018462004026565b6060810162004093828662003cbf565b62004074602083018562003cd0565b60408101620040b2828562003cd0565b6200404e602083018462004026565b60408101620040b2828562003cbf565b60c08101620040e1828962003cd0565b620040f0602083018862004026565b620040ff604083018762003cf1565b6200410e606083018662003cf1565b6200411d608083018562003cbf565b6200412c60a083018462004026565b979650505050505050565b6080810162004147828762003cd0565b62004156602083018662004026565b62004165604083018562004026565b62004174606083018462003cdb565b95945050505050565b606081016200418d828662003cdb565b6200419c602083018562003cdb565b620039c1604083018462003cdb565b60c08101620041bb828962003ce6565b620041ca602083018862003ce6565b620041d9604083018762003cd0565b620041e8606083018662004026565b6200411d608083018562004026565b6060810162004065828662003ce6565b6060810162004093828662003ce6565b604080825281016200422b81858762003cfc565b9050620039c1602083018462003cdb565b602080825281016200404e818462003d51565b6060808252810162004262818662003d51565b905062004074602083018562003cd0565b610180808252810162004287818f62003d51565b905062004298602083018e62003cd0565b620042a7604083018d62003cd0565b8181036060830152620042bb818c62003d51565b9050620042cc608083018b62004026565b620042db60a083018a62004026565b620042ea60c083018962004026565b620042f960e083018862004026565b6200430961010083018762004026565b6200431961012083018662004026565b6200432961014083018562004026565b6200433961016083018462004026565b9d9c50505050505050505050505050565b604080825281016200435d818562003d51565b90506200404e602083018462003ce6565b6020808252810162000cfe8162003dbc565b6020808252810162000cfe8162003def565b6020808252810162000cfe8162003e50565b6020808252810162000cfe8162003e82565b6020808252810162000cfe8162003eb4565b6020808252810162000cfe8162003ee6565b6020808252810162000cfe8162003f21565b6020808252810162000cfe8162003f68565b6020808252810162000cfe8162003fa3565b6020808252810162000cfe8162003ff9565b6020810162000cfe828462004026565b60408101620040b2828562004026565b6060810162004452828662004026565b62004074602083018562004026565b60405181810167ffffffffffffffff811182821017156200448157600080fd5b604052919050565b600067ffffffffffffffff821115620044a157600080fd5b506020601f91909101601f19160190565b5190565b90815260200190565b919050565b600062000cfe82620044d6565b151590565b6001600160a01b031690565b600062000cfe825b600062000cfe82620044c4565b600062000cfe826200102e565b82818337506000910152565b60005b838110156200452d57818101518382015260200162004513565b838111156200453d576000848401525b50505050565b601f01601f191690565b6200455881620044c4565b81146200456457600080fd5b50565b6200455881620044d1565b62004558816200102e56fe608060405234801561001057600080fd5b5060405161077c38038061077c83398101604081905261002f91610138565b8051610042906000906020840190610049565b50506101f1565b828054600181600116156101000203166002900490600052602060002090601f016020900481019282601f1061008a57805160ff19168380011785556100b7565b828001600101855582156100b7579182015b828111156100b757825182559160200191906001019061009c565b506100c39291506100c7565b5090565b6100e191905b808211156100c357600081556001016100cd565b90565b600082601f8301126100f557600080fd5b81516101086101038261019a565b610174565b9150808252602083016020830185838301111561012457600080fd5b61012f8382846101c1565b50505092915050565b60006020828403121561014a57600080fd5b81516001600160401b0381111561016057600080fd5b61016c848285016100e4565b949350505050565b6040518181016001600160401b038111828210171561019257600080fd5b604052919050565b60006001600160401b038211156101b057600080fd5b506020601f91909101601f19160190565b60005b838110156101dc5781810151838201526020016101c4565b838111156101eb576000848401525b50505050565b61057c806102006000396000f3fe6080604052600436106100555760003560e01c8063026b1d5f146100575780634f95a04b14610082578063af640d0f14610095578063beabacc8146100b7578063e1f21c67146100d7578063fb1e6a62146100f7575b005b34801561006357600080fd5b5061006c61010c565b6040516100799190610455565b60405180910390f35b610055610090366004610358565b610110565b3480156100a157600080fd5b506100aa61014b565b6040516100799190610485565b3480156100c357600080fd5b506100556100d23660046103b8565b6101d9565b3480156100e357600080fd5b506100556100f23660046103b8565b610262565b34801561010357600080fd5b506100aa610290565b3090565b6040516001600160a01b0383169082156108fc029083906000818181858888f19350505050158015610146573d6000803e3d6000fd5b505050565b6000805460408051602060026001851615610100026000190190941693909304601f810184900484028201840190925281815292918301828280156101d15780601f106101a6576101008083540402835291602001916101d1565b820191906000526020600020905b8154815290600101906020018083116101b457829003601f168201915b505050505081565b60405163a9059cbb60e01b81526001600160a01b0384169063a9059cbb906102079085908590600401610463565b602060405180830381600087803b15801561022157600080fd5b505af1158015610235573d6000803e3d6000fd5b505050506040513d601f19601f820116820180604052506102599190810190610392565b61014657600080fd5b60405163095ea7b360e01b81526001600160a01b0384169063095ea7b3906102079085908590600401610463565b60008054604080516020601f600260001961010060018816150201909516949094049384018190048102820181019092528281526060939092909183018282801561031c5780601f106102f15761010080835404028352916020019161031c565b820191906000526020600020905b8154815290600101906020018083116102ff57829003601f168201915b5050505050905090565b803561033181610507565b92915050565b80516103318161051e565b803561033181610527565b803561033181610530565b6000806040838503121561036b57600080fd5b60006103778585610326565b92505060206103888582860161034d565b9150509250929050565b6000602082840312156103a457600080fd5b60006103b08484610337565b949350505050565b6000806000606084860312156103cd57600080fd5b60006103d98686610342565b93505060206103ea86828701610326565b92505060406103fb8682870161034d565b9150509250925092565b61040e816104a3565b82525050565b600061041f82610496565b610429818561049a565b93506104398185602086016104cd565b610442816104fd565b9093019392505050565b61040e816104ca565b602081016103318284610405565b604081016104718285610405565b61047e602083018461044c565b9392505050565b6020808252810161047e8184610414565b5190565b90815260200190565b6000610331826104be565b151590565b6000610331826104a3565b6001600160a01b031690565b90565b60005b838110156104e85781810151838201526020016104d0565b838111156104f7576000848401525b50505050565b601f01601f191690565b610510816104a3565b811461051b57600080fd5b50565b610510816104ae565b610510816104b3565b610510816104ca56fea365627a7a723158205c507e6580821e2d426bdc91f47f530ed3a9aafb47ebfc180369c4d2b2d178376c6578706572696d656e74616cf564736f6c63430005100040a365627a7a72315820590fb0f9c96782ae7ddea354c2a00ae9c44ed61a8521d0a0ff140333588ebd546c6578706572696d656e74616cf564736f6c63430005100040",
  "source": "// Disco \r\npragma solidity >=0.4.21 <0.7.0;\r\n\r\nimport \"./libraries/SafeMath.sol\";\r\nimport \"./interfaces/IUniswapV2Router01.sol\";\r\nimport \"./interfaces/IErc20.sol\";\r\npragma experimental ABIEncoderV2;\r\n\r\ncontract Disco {\r\n    address private _owner;\r\n    address payable private _coinbase;\r\n    using SafeMath for uint256;\r\n    IUniswapV2Router01 uniswap;\r\n    uint256 preFee;\r\n\r\n    // disco\r\n    struct DiscoInfo {\r\n        string id;\r\n        address payable walletAddr;\r\n        address tokenAddr;\r\n        string description;\r\n        uint256 fundRaisingStartedAt;\r\n        uint256 fundRaisingEndedAt;\r\n        uint256 investmentReward;\r\n        uint256 rewardDeclineRate;\r\n        uint256 shareToken;\r\n        uint256 minFundRaising;\r\n        uint256 addLiquidityPool;\r\n        uint256 totalDepositToken;\r\n    }\r\n\r\n    // disco \r\n    struct DiscoInvestor {\r\n        // \r\n        address investor;\r\n        // , \r\n        uint256 value;\r\n        // \r\n        uint256 time;\r\n        // dead\r\n        bool isDead;\r\n        // // TOKEN\r\n        // uint256 sharedToken;\r\n        // // TOKEN\r\n        // uint256 rewardedToken;\r\n    }\r\n\r\n    // disco\r\n    struct DiscoStatus {\r\n        // \r\n        bool isFinished;\r\n        // \r\n        bool isSuccess;\r\n        // \r\n        bool isEnabled;\r\n    }\r\n\r\n    struct DiscoInvestAddr {\r\n        // deposit pool.\r\n        DiscoAddr discoAddr;\r\n        //issue coin\r\n        IERC20 token;\r\n        //record deposit account when use to refund.\r\n        address payable depositAccount;\r\n        //\r\n        uint256 initLiquidity;\r\n        //reserve eth\r\n        uint256 swapEth;\r\n        //reserve token\r\n        uint256 swapToken;\r\n    }\r\n\r\n    //Raise status: start->all begin(init), end->all end(finally).\r\n    enum RaiseStatus{Start, Raising, Succeed, Failed, End}\r\n\r\n    // disco\r\n    mapping(string => DiscoInfo) public discos;\r\n    // \r\n    mapping(string => DiscoInvestor[]) public investors;\r\n    // \r\n    mapping(string => DiscoStatus) public status;\r\n    //  disco \r\n    mapping(string => DiscoInvestAddr) public discoAddress;\r\n\r\n    // \r\n    event createdDisco(string discoId, DiscoAddr addr);\r\n    // \r\n    // event enabledDisco(string discoId, address discoAddr);\r\n    event enabledDisco(string discoId);\r\n    // \r\n    event fundraisingSucceed(string discoId);\r\n    //\r\n    event fundraisingFinished(string discoIdo, bool success);\r\n    // \r\n    event fundraisingFailed(string discoId);\r\n    //  disco \r\n    event investToDisco(string discoId, address investorAddr, uint256 amount);\r\n\r\n    // \r\n    modifier isOwner() {\r\n        require(msg.sender == _owner, \"Caller is not owner!\");\r\n        _;\r\n    }\r\n\r\n    modifier canInvest(string memory id) {\r\n        uint256 checkPoint = getDate();\r\n        DiscoStatus memory discoStatus = status[id];\r\n        DiscoInfo memory discoInfo = discos[id];\r\n        require(discoStatus.isEnabled && !discoStatus.isFinished);\r\n        require(discoInfo.fundRaisingStartedAt < checkPoint, 'now must greater than the disco fund raising start time');\r\n        require(discoInfo.fundRaisingEndedAt > checkPoint, 'now must less than the disco fund raising end time');\r\n        _;\r\n    }\r\n\r\n    constructor()\r\n    public {\r\n        _owner = msg.sender;\r\n    }\r\n\r\n    function setCoinBase(address payable addr)\r\n    isOwner\r\n    public {\r\n        _coinbase = addr;\r\n    }\r\n\r\n    function setSwap(address swapAddr)\r\n    isOwner\r\n    public {\r\n        uniswap = IUniswapV2Router01(swapAddr);\r\n    }\r\n\r\n    function setPreFee(uint256 pf)\r\n    isOwner\r\n    public {\r\n        preFee = pf;\r\n    }\r\n\r\n    function getPreFee() internal\r\n    returns (uint256){\r\n        if (preFee == 0) {\r\n            preFee = 0.1 * 10 ** 18;\r\n        }\r\n        return preFee;\r\n    }\r\n\r\n    //  \r\n    function getDate() public view returns (uint256){\r\n        return now;\r\n    }\r\n\r\n    // Disco\r\n    /**\r\n    * @param d  tuple forward.\r\n    **/\r\n    function newDisco(DiscoInfo memory d) public payable {\r\n        require(bytes(d.id).length != 0);\r\n        DiscoStatus memory s = DiscoStatus(\r\n            false,\r\n            false,\r\n            false\r\n        );\r\n        discos[d.id] = d;\r\n        status[d.id] = s;\r\n        // , discoAddr DiscoAddr  \r\n        DiscoAddr addr = new DiscoAddr(d.id);\r\n        // disco id  disco \r\n        DiscoInvestAddr memory discoInvestAddr = DiscoInvestAddr(addr, IERC20(d.tokenAddr), address(0), 0, 0, 0);\r\n        discoAddress[d.id] = discoInvestAddr;\r\n        // disco \r\n        emit createdDisco(d.id, addr);\r\n    }\r\n\r\n\r\n    /**\r\n     * @dev disco\r\n     */\r\n    function enableDisco(string memory id) public payable {\r\n        // require(address(uniswap) != address(0), 'need init uniswap');\r\n        uint256 fee = getPreFee();\r\n        require(msg.value >= fee, \"fee not enough!\");\r\n        uint256 checkPoint = getDate();\r\n        DiscoInfo memory disco = discos[id];\r\n        // require(disco.fundRaisingStartedAt < checkPoint, 'now must greater than the disco fund raising start time');\r\n        // require(disco.fundRaisingEndedAt > checkPoint, 'now must less than the disco fund raising end time');\r\n        DiscoStatus memory discoStatus = status[id];\r\n        require(!discoStatus.isEnabled, 'the disco must has not been started');\r\n\r\n        DiscoInvestAddr memory investAddr = discoAddress[id];\r\n        DiscoAddr discoAddr = investAddr.discoAddr;\r\n        discoAddr.getPool().transfer(fee);\r\n\r\n        IERC20 token = investAddr.token;\r\n        token.transferFrom(msg.sender, discoAddr.getPool(), disco.totalDepositToken);\r\n        discoStatus.isEnabled = true;\r\n        status[id] = discoStatus;\r\n        investAddr.depositAccount = msg.sender;\r\n\r\n        // \r\n        emit enabledDisco(id);\r\n    }\r\n\r\n    function getDeadline(uint256 pendingSecs) internal view returns (uint256){\r\n        return getDate() + pendingSecs;\r\n    }\r\n\r\n    /**\r\n    * @dev  disco disco\r\n    */\r\n    function finishedDisco(string calldata id) external {\r\n        DiscoStatus memory discoStatus = status[id];\r\n        require(!discoStatus.isFinished && discoStatus.isEnabled);\r\n        discoStatus.isFinished = true;\r\n        (,uint256 investAmt) = getInvestAmt(id);\r\n        DiscoInfo memory info = discos[id];\r\n        //if minFundRaising is a bottom of pool.\r\n        discoStatus.isSuccess = investAmt >= info.minFundRaising;\r\n        status[id] = discoStatus;\r\n        if (discoStatus.isSuccess) {\r\n            assign(id, investAmt);\r\n        } else {\r\n            refund(id);\r\n        }\r\n        emit fundraisingFinished(id, discoStatus.isSuccess);\r\n    }\r\n\r\n    function getInvestAmt(string memory id) public view returns (uint256, uint256){\r\n        uint256 investAmt = 0;\r\n        uint256 invCount = 0;\r\n        for (uint256 i = 0; i < investors[id].length; i++) {\r\n            DiscoInvestor memory investor = investors[id][i];\r\n            if (!investor.isDead) {\r\n                investAmt += investor.value;\r\n                invCount++;\r\n            }\r\n        }\r\n        return (invCount, investAmt);\r\n    }\r\n\r\n\r\n    function assign(string memory id, uint256 investAmt) public payable returns (uint256, uint256)  {\r\n        //uniswap add liquidity.\r\n        assignLiquidity(id);\r\n        //assign ether\r\n        uint256 platFee = assignEth(id, investAmt);\r\n        //assign token\r\n        uint256 refundToken = assignToken(id);\r\n        return (platFee, refundToken);\r\n    }\r\n\r\n\r\n    function assignEth(string memory id, uint256 investAmt) public payable returns (uint256)  {\r\n        DiscoInfo memory disco = discos[id];\r\n        DiscoInvestAddr memory investAddr = discoAddress[id];\r\n        DiscoAddr discoAddr = investAddr.discoAddr;\r\n        // 2% platFee\r\n        uint256 platFee = investAmt.mul(2).div(100);\r\n        //no chance to send another one except msg.sender. if need, use weth with uniswap.\r\n        if (platFee > 0) {\r\n            //the account for receiving platFee has not been confirmed.\r\n            discoAddr.ethTransfer(address(0), platFee);\r\n            investAmt -= platFee;\r\n        }\r\n        //remainAmt to wallet\r\n        uint256 withdrawEth = investAmt - platFee - investAddr.swapEth;\r\n        discoAddr.ethTransfer(disco.walletAddr, withdrawEth);\r\n        return platFee;\r\n    }\r\n\r\n    function assignToken(string memory id) public payable returns (uint256) {\r\n        DiscoInfo memory disco = discos[id];\r\n        DiscoInvestAddr memory investAddr = discoAddress[id];\r\n        DiscoInvestor[] memory assignInvestors = investors[id];\r\n        uint256 payToken = 0;\r\n        for (uint256 i = 0; i < assignInvestors.length; i++) {\r\n            DiscoInvestor memory investor = assignInvestors[i];\r\n            if (investor.isDead) {\r\n                continue;\r\n            }\r\n            uint256 diff = disco.fundRaisingStartedAt.sub(investor.time).div(60 * 60 * 24);\r\n            uint256 declineDiff = disco.rewardDeclineRate.sub(diff);\r\n            if (declineDiff <= 0) {\r\n                declineDiff = 0;\r\n            }\r\n\r\n            //get the Liquidity - Uniswap when deposit to exchange factory.\r\n            uint256 tokenAmt = investor.value.mul(investAddr.initLiquidity).mul(declineDiff.add(1)).div(100);\r\n            investAddr.discoAddr.transfer(investAddr.token, investor.investor, tokenAmt);\r\n            payToken = payToken.add(tokenAmt);\r\n        }\r\n\r\n        //return the money to the original path(depositAccount).\r\n        uint256 refundToken = disco.totalDepositToken - payToken;\r\n        if (refundToken > 0) {\r\n            investAddr.discoAddr.transfer(investAddr.token, investAddr.depositAccount, refundToken);\r\n        }\r\n        return refundToken;\r\n    }\r\n\r\n    function assignLiquidity(string memory id) public payable {\r\n        DiscoInfo memory disco = discos[id];\r\n        DiscoInvestAddr memory investAddr = discoAddress[id];\r\n        DiscoAddr discoAddr = investAddr.discoAddr;\r\n        uint256 deadline = getDeadline(60);\r\n        (,uint256 investAmt) = getInvestAmt(id);\r\n\r\n        //token transfer\r\n        discoAddr.transfer(investAddr.token, address(this), disco.shareToken);\r\n        investAddr.token.approve(address(uniswap), disco.shareToken);\r\n\r\n        //eth transfer\r\n        uint256 desiredEth = investAmt.mul(disco.addLiquidityPool).div(100);\r\n        discoAddr.ethTransfer(address(uint160(address(uniswap))), desiredEth);\r\n\r\n        (uint256 amountToken, uint256 amountETH, uint256 liquidity) = uniswap.addLiquidityETH.value(desiredEth)(disco.tokenAddr, disco.shareToken, 0, 0, address(investAddr.discoAddr), deadline);\r\n        investAddr.initLiquidity = liquidity;\r\n        investAddr.swapToken = amountToken;\r\n        investAddr.swapEth = amountETH;\r\n        discoAddress[id] = investAddr;\r\n    }\r\n\r\n    function addLiquidity(string calldata id, uint256 eth, uint256 token)\r\n    external payable returns (uint256, uint256, uint256)  {\r\n        require(address(uniswap) != address(0), 'Uniswap not initialized.');\r\n        DiscoInvestAddr memory investAddr = discoAddress[id];\r\n        require(investAddr.token.transferFrom(msg.sender, address(this), token));\r\n        DiscoInfo memory disco = discos[id];\r\n        investAddr.token.approve(address(uniswap), token);\r\n        uint256 deadline = getDeadline(120);\r\n        (uint256 amountToken, uint256 amountETH, uint256 liquidity) = uniswap.addLiquidityETH.value(eth)(disco.tokenAddr, token, 0, 0, msg.sender, deadline);\r\n        return (amountToken, amountETH, liquidity);\r\n    }\r\n\r\n    function removeLiquidity(string calldata id, uint256 token)\r\n    external payable returns (uint256, uint256)  {\r\n        require(address(uniswap) != address(0), 'Uniswap not initialized.');\r\n        DiscoInvestAddr memory investAddr = discoAddress[id];\r\n        investAddr.token.approve(address(uniswap), token);\r\n        DiscoInfo memory disco = discos[id];\r\n        uint256 deadline = getDeadline(120);\r\n        (uint256 amountToken, uint256 amountETH) = uniswap.removeLiquidityETH(disco.tokenAddr, token, 0, 0, msg.sender, deadline);\r\n        return (amountToken, amountETH);\r\n    }\r\n\r\n    /**\r\n     * refund-anti-pattern \r\n     */\r\n    function refund(string memory id) public payable {\r\n        require(bytes(id).length != 0);\r\n        DiscoInvestAddr memory investAddr = discoAddress[id];\r\n        DiscoAddr discoAddr = investAddr.discoAddr;\r\n        require(bytes(discoAddr.getDiscoId()).length != 0);\r\n        require(investAddr.depositAccount != address(0));\r\n        // solidity > 0.6 address payable pool = payable(address(discoAddr)) ;\r\n        // as follow is 0.5.x\r\n        // refund ether\r\n        for (uint256 i = 0; i < investors[id].length; i++) {\r\n            DiscoInvestor storage investor = investors[id][i];\r\n            discoAddr.getPool().transfer(investor.value);\r\n            investor.isDead = true;\r\n        }\r\n\r\n        //refund token\r\n        DiscoInfo memory info = discos[id];\r\n        IERC20 token = investAddr.token;\r\n        token.transfer(investAddr.depositAccount, info.totalDepositToken);\r\n    }\r\n\r\n    // ,  \r\n    function investor(string memory id, uint256 time) public payable canInvest(id) {\r\n        require(_coinbase != address(0));\r\n        DiscoInvestor memory d = DiscoInvestor(\r\n            _owner,\r\n            msg.value,\r\n            time,\r\n            false\r\n        );\r\n        DiscoAddr discoAddr = discoAddress[id].discoAddr;\r\n        // solidity > 0.6 address payable pool = payable(address(discoAddr)) ;\r\n        // as follow is 0.5.x\r\n        discoAddr.getPool().transfer(msg.value);\r\n        investors[id].push(d);\r\n        emit investToDisco(id, _owner, msg.value);\r\n    }\r\n}\r\n\r\n// \r\n//Fund-Raising Contract\r\ncontract DiscoAddr {\r\n\r\n    string public id;\r\n\r\n    // suppose the deployed contract has a purpose\r\n\r\n    //0.6.x\r\n    //receive() external payable {}\r\n    function() external payable {}\r\n\r\n    constructor(string memory discoId) public {\r\n        id = discoId;\r\n    }\r\n\r\n    function getDiscoId() public view returns (string memory) {\r\n        return id;\r\n    }\r\n\r\n    function ethTransfer(address payable to, uint256 amount) external payable {\r\n        to.transfer(amount);\r\n    }\r\n\r\n    function approve(IERC20 token, address to, uint256 amount) external {\r\n        require(token.approve(to, amount));\r\n    }\r\n\r\n    function transfer(IERC20 token, address to, uint256 amount) external {\r\n        require(token.transfer(to, amount));\r\n    }\r\n\r\n    function getPool() public view returns (address payable) {\r\n        return address(uint160(address(this)));\r\n    }\r\n}\r\n",
  "sourcePath": "D:/comunion/cos-contract-com/contracts/Disco.sol",
  "compiler": {
    "name": "solc",
    "version": "0.5.16+commit.9c3226ce.Emscripten.clang"
  },
  "schemaVersion": "3.3.4",
  "updatedAt": "2021-03-19T14:23:31.600Z",
  "networkType": "ethereum",
  "devdoc": {
    "methods": {
      "enableDisco(string)": {
        "details": "disco"
      },
      "finishedDisco(string)": {
        "details": " disco disco"
      },
      "newDisco((string,address,address,string,uint256,uint256,uint256,uint256,uint256,uint256,uint256,uint256))": {
        "params": {
          "d": "tuple forward.*"
        }
      }
    }
  },
  "userdoc": {
    "methods": {
      "refund(string)": {
        "notice": "refund-anti-pattern "
      }
    }
  }
}