{
  "contractName": "DiscoAddr",
  "abi": [
    {
      "inputs": [
        {
          "internalType": "string",
          "name": "discoId",
          "type": "string"
        }
      ],
      "payable": false,
      "stateMutability": "nonpayable",
      "type": "constructor"
    },
    {
      "payable": true,
      "stateMutability": "payable",
      "type": "fallback"
    },
    {
      "constant": true,
      "inputs": [],
      "name": "getAddress",
      "outputs": [
        {
          "internalType": "address payable",
          "name": "",
          "type": "address"
        }
      ],
      "payable": false,
      "stateMutability": "view",
      "type": "function"
    },
    {
      "constant": true,
      "inputs": [],
      "name": "id",
      "outputs": [
        {
          "internalType": "string",
          "name": "",
          "type": "string"
        }
      ],
      "payable": false,
      "stateMutability": "view",
      "type": "function"
    },
    {
      "constant": true,
      "inputs": [],
      "name": "getDiscoId",
      "outputs": [
        {
          "internalType": "string",
          "name": "",
          "type": "string"
        }
      ],
      "payable": false,
      "stateMutability": "view",
      "type": "function"
    },
    {
      "constant": false,
      "inputs": [
        {
          "internalType": "address payable",
          "name": "to",
          "type": "address"
        },
        {
          "internalType": "uint256",
          "name": "amount",
          "type": "uint256"
        }
      ],
      "name": "ethTransfer",
      "outputs": [],
      "payable": true,
      "stateMutability": "payable",
      "type": "function"
    },
    {
      "constant": false,
      "inputs": [
        {
          "internalType": "contract IERC20",
          "name": "token",
          "type": "address"
        },
        {
          "internalType": "address",
          "name": "to",
          "type": "address"
        },
        {
          "internalType": "uint256",
          "name": "amount",
          "type": "uint256"
        }
      ],
      "name": "approve",
      "outputs": [],
      "payable": false,
      "stateMutability": "nonpayable",
      "type": "function"
    },
    {
      "constant": false,
      "inputs": [
        {
          "internalType": "contract IERC20",
          "name": "token",
          "type": "address"
        },
        {
          "internalType": "address",
          "name": "to",
          "type": "address"
        },
        {
          "internalType": "uint256",
          "name": "amount",
          "type": "uint256"
        }
      ],
      "name": "transferFrom",
      "outputs": [],
      "payable": false,
      "stateMutability": "nonpayable",
      "type": "function"
    },
    {
      "constant": false,
      "inputs": [
        {
          "internalType": "contract IERC20",
          "name": "token",
          "type": "address"
        },
        {
          "internalType": "address",
          "name": "to",
          "type": "address"
        },
        {
          "internalType": "uint256",
          "name": "amount",
          "type": "uint256"
        }
      ],
      "name": "transfer",
      "outputs": [],
      "payable": false,
      "stateMutability": "nonpayable",
      "type": "function"
    },
    {
      "constant": true,
      "inputs": [],
      "name": "ethBalance",
      "outputs": [
        {
          "internalType": "uint256",
          "name": "",
          "type": "uint256"
        }
      ],
      "payable": false,
      "stateMutability": "view",
      "type": "function"
    },
    {
      "constant": true,
      "inputs": [
        {
          "internalType": "contract IERC20",
          "name": "token",
          "type": "address"
        }
      ],
      "name": "tokenBalance",
      "outputs": [
        {
          "internalType": "uint256",
          "name": "",
          "type": "uint256"
        }
      ],
      "payable": false,
      "stateMutability": "view",
      "type": "function"
    },
    {
      "constant": true,
      "inputs": [],
      "name": "getPool",
      "outputs": [
        {
          "internalType": "address payable",
          "name": "",
          "type": "address"
        }
      ],
      "payable": false,
      "stateMutability": "view",
      "type": "function"
    },
    {
      "constant": false,
      "inputs": [
        {
          "internalType": "contract IUniswapV2Router01",
          "name": "pu",
          "type": "address"
        }
      ],
      "name": "setSwap",
      "outputs": [],
      "payable": false,
      "stateMutability": "nonpayable",
      "type": "function"
    },
    {
      "constant": false,
      "inputs": [
        {
          "internalType": "contract IERC20",
          "name": "pt",
          "type": "address"
        }
      ],
      "name": "setToken",
      "outputs": [],
      "payable": false,
      "stateMutability": "nonpayable",
      "type": "function"
    },
    {
      "constant": false,
      "inputs": [
        {
          "internalType": "uint256",
          "name": "amountTokenDesired",
          "type": "uint256"
        },
        {
          "internalType": "uint256",
          "name": "amountTokenMin",
          "type": "uint256"
        },
        {
          "internalType": "uint256",
          "name": "amountETHMin",
          "type": "uint256"
        },
        {
          "internalType": "address",
          "name": "to",
          "type": "address"
        },
        {
          "internalType": "uint256",
          "name": "deadline",
          "type": "uint256"
        }
      ],
      "name": "addLiquidityETH",
      "outputs": [
        {
          "internalType": "uint256",
          "name": "amountToken",
          "type": "uint256"
        },
        {
          "internalType": "uint256",
          "name": "amountETH",
          "type": "uint256"
        },
        {
          "internalType": "uint256",
          "name": "liquidity",
          "type": "uint256"
        }
      ],
      "payable": true,
      "stateMutability": "payable",
      "type": "function"
    }
  ],
  "bytecode": "0x60806040523480156200001157600080fd5b5060405162000c5638038062000c5683398101604081905262000034916200016b565b805181906200004b9060009060208401906200006a565b50508051620000629060019060208401906200006a565b50506200022d565b828054600181600116156101000203166002900490600052602060002090601f016020900481019282601f10620000ad57805160ff1916838001178555620000dd565b82800160010185558215620000dd579182015b82811115620000dd578251825591602001919060010190620000c0565b50620000eb929150620000ef565b5090565b6200010c91905b80821115620000eb5760008155600101620000f6565b90565b600082601f8301126200012157600080fd5b8151620001386200013282620001d2565b620001ab565b915080825260208301602083018583830111156200015557600080fd5b62000162838284620001fa565b50505092915050565b6000602082840312156200017e57600080fd5b81516001600160401b038111156200019557600080fd5b620001a3848285016200010f565b949350505050565b6040518181016001600160401b0381118282101715620001ca57600080fd5b604052919050565b60006001600160401b03821115620001e957600080fd5b506020601f91909101601f19160190565b60005b8381101562000217578181015183820152602001620001fd565b8381111562000227576000848401525b50505050565b610a19806200023d6000396000f3fe6080604052600436106100c25760003560e01c8063acb3c0731161007f578063beabacc811610059578063beabacc8146101c8578063e1f21c67146101e8578063eedc966a14610208578063fb1e6a6214610228576100c2565b8063acb3c07314610164578063af640d0f14610184578063bb8a88bb146101a6576100c2565b8063026b1d5f146100c4578063144fa6d7146100ef57806323b872dd1461010f57806338cc4831146100c45780634e6630b01461012f5780634f95a04b14610151575b005b3480156100d057600080fd5b506100d961023d565b6040516100e6919061083c565b60405180910390f35b3480156100fb57600080fd5b506100c261010a366004610694565b610241565b34801561011b57600080fd5b506100c261012a3660046106b2565b610263565b34801561013b57600080fd5b506101446102f3565b6040516100e691906108ff565b6100c261015f366004610634565b6102f7565b34801561017057600080fd5b506100c261017f366004610694565b61032d565b34801561019057600080fd5b5061019961034f565b6040516100e691906108ee565b6101b96101b4366004610760565b6103dc565b6040516100e69392919061090d565b3480156101d457600080fd5b506100c26101e33660046106b2565b610487565b3480156101f457600080fd5b506100c26102033660046106b2565b6104b5565b34801561021457600080fd5b50610144610223366004610694565b6104e3565b34801561023457600080fd5b50610199610568565b3090565b600380546001600160a01b0319166001600160a01b0392909216919091179055565b6040516323b872dd60e01b81526001600160a01b038416906323b872dd906102939030908690869060040161084a565b602060405180830381600087803b1580156102ad57600080fd5b505af11580156102c1573d6000803e3d6000fd5b505050506040513d601f19601f820116820180604052506102e5919081019061066e565b6102ee57600080fd5b505050565b4790565b6040516001600160a01b0383169082156108fc029083906000818181858888f193505050501580156102ee573d6000803e3d6000fd5b600280546001600160a01b0319166001600160a01b0392909216919091179055565b60018054604080516020600284861615610100026000190190941693909304601f810184900484028201840190925281815292918301828280156103d45780601f106103a9576101008083540402835291602001916103d4565b820191906000526020600020905b8154815290600101906020018083116103b757829003601f168201915b505050505081565b60025460035460405163f305d71960e01b8152600092839283926001600160a01b039283169263f305d71992349261042492909116908d908d908d908d908d90600401610894565b6060604051808303818588803b15801561043d57600080fd5b505af1158015610451573d6000803e3d6000fd5b50505050506040513d601f19601f82011682018060405250610476919081019061071d565b925092509250955095509592505050565b60405163a9059cbb60e01b81526001600160a01b0384169063a9059cbb906102939085908590600401610872565b60405163095ea7b360e01b81526001600160a01b0384169063095ea7b3906102939085908590600401610872565b6040516370a0823160e01b81526000906001600160a01b038316906370a082319061051290309060040161082e565b60206040518083038186803b15801561052a57600080fd5b505afa15801561053e573d6000803e3d6000fd5b505050506040513d601f19601f8201168201806040525061056291908101906106ff565b92915050565b60018054604080516020601f600260001961010087891615020190951694909404938401819004810282018101909252828152606093909290918301828280156105f35780601f106105c8576101008083540402835291602001916105f3565b820191906000526020600020905b8154815290600101906020018083116105d657829003601f168201915b5050505050905090565b8035610562816109a4565b8051610562816109bb565b8035610562816109c4565b8035610562816109cd565b8051610562816109cd565b6000806040838503121561064757600080fd5b600061065385856105fd565b92505060206106648582860161061e565b9150509250929050565b60006020828403121561068057600080fd5b600061068c8484610608565b949350505050565b6000602082840312156106a657600080fd5b600061068c8484610613565b6000806000606084860312156106c757600080fd5b60006106d38686610613565b93505060206106e4868287016105fd565b92505060406106f58682870161061e565b9150509250925092565b60006020828403121561071157600080fd5b600061068c8484610629565b60008060006060848603121561073257600080fd5b600061073e8686610629565b935050602061074f86828701610629565b92505060406106f586828701610629565b600080600080600060a0868803121561077857600080fd5b6000610784888861061e565b95505060206107958882890161061e565b94505060406107a68882890161061e565b93505060606107b7888289016105fd565b92505060806107c88882890161061e565b9150509295509295909350565b6107de8161095f565b82525050565b6107de81610935565b60006107f882610928565b610802818561092c565b935061081281856020860161096a565b61081b8161099a565b9093019392505050565b6107de8161095c565b6020810161056282846107d5565b6020810161056282846107e4565b6060810161085882866107d5565b61086560208301856107e4565b61068c6040830184610825565b6040810161088082856107e4565b61088d6020830184610825565b9392505050565b60c081016108a282896107e4565b6108af6020830188610825565b6108bc6040830187610825565b6108c96060830186610825565b6108d660808301856107e4565b6108e360a0830184610825565b979650505050505050565b6020808252810161088d81846107ed565b602081016105628284610825565b6060810161091b8286610825565b6108656020830185610825565b5190565b90815260200190565b600061056282610950565b151590565b600061056282610935565b6001600160a01b031690565b90565b600061056282610945565b60005b8381101561098557818101518382015260200161096d565b83811115610994576000848401525b50505050565b601f01601f191690565b6109ad81610935565b81146109b857600080fd5b50565b6109ad81610940565b6109ad81610945565b6109ad8161095c56fea365627a7a723158207b071f2d10c708d39815a2b2559495b4cbe50beeb28f275413d24cabf975c4456c6578706572696d656e74616cf564736f6c63430005100040",
  "source": "// Disco 上链\r\npragma solidity >=0.4.21 <0.7.0;\r\n\r\nimport \"./libraries/SafeMath.sol\";\r\nimport \"./interfaces/IUniswapV2Router01.sol\";\r\nimport \"./interfaces/IErc20.sol\";\r\nimport \"./common/FundPool.sol\";\r\npragma experimental ABIEncoderV2;\r\n\r\ncontract Disco {\r\n    address private _owner;\r\n    using SafeMath for uint256;\r\n    IUniswapV2Router01 uniswap;\r\n    uint256 preFee;\r\n\r\n    // disco\r\n    struct DiscoInfo {\r\n        string id;\r\n        address payable walletAddr;\r\n        address tokenAddr;\r\n        string description;\r\n        uint256 fundRaisingStartedAt;\r\n        uint256 fundRaisingEndedAt;\r\n        uint256 investmentReward;\r\n        uint256 rewardDeclineRate;\r\n        uint256 shareToken;\r\n        uint256 minFundRaising;\r\n        uint256 addLiquidityPool;\r\n        uint256 totalDepositToken;\r\n    }\r\n\r\n    // disco 投资人信息\r\n    struct DiscoInvestor {\r\n        // 投资人地址\r\n        address payable investor;\r\n        // 投资金额, 可以多次投资\r\n        uint256 value;\r\n        // 时间\r\n        uint256 time;\r\n        // dead投资记录\r\n        bool isDead;\r\n        // // 募资比例获得TOKEN\r\n        // uint256 sharedToken;\r\n        // // 奖励TOKEN\r\n        // uint256 rewardedToken;\r\n    }\r\n\r\n    // disco的状态\r\n    struct DiscoStatus {\r\n        // 募资是否结束\r\n        bool isFinished;\r\n        // 募资是否成功\r\n        bool isSuccess;\r\n        // 募资是否开启；\r\n        bool isEnabled;\r\n    }\r\n\r\n    struct DiscoInvestAddr {\r\n        // deposit pool.\r\n        DiscoAddr discoAddr;\r\n        //issue coin\r\n        IERC20 token;\r\n        //record deposit account when use to refund.\r\n        address payable depositAccount;\r\n        //初始流动性\r\n        uint256 initLiquidity;\r\n        //reserve eth\r\n        uint256 swapEth;\r\n        //reserve token\r\n        uint256 swapToken;\r\n    }\r\n\r\n    //Raise status: start->all begin(init), end->all end(finally).\r\n    enum RaiseStatus{Start, Raising, Succeed, Failed, End}\r\n\r\n    // 记录创建的disco\r\n    mapping(string => DiscoInfo) public discos;\r\n    // 记录投资人\r\n    mapping(string => DiscoInvestor[]) public investors;\r\n    // 记录投资的状态\r\n    mapping(string => DiscoStatus) public status;\r\n    // 记录 disco 的募资地址\r\n    mapping(string => DiscoInvestAddr) public discoAddress;\r\n\r\n    // 创建\r\n    event createdDisco(string discoId, DiscoAddr addr);\r\n    // 开启\r\n    // event enabledDisco(string discoId, address discoAddr);\r\n    event enabledDisco(string discoId);\r\n    // 募资成功的时候\r\n    event fundraisingSucceed(string discoId);\r\n    //募资结束（成功）\r\n    event fundraisingFinished(string discoIdo, bool success);\r\n    // 募资失败\r\n    event fundraisingFailed(string discoId);\r\n    // 投资者向 disco 投钱\r\n    event investToDisco(string discoId, address investorAddr, uint256 amount);\r\n\r\n    // 判断是否是本人\r\n    modifier isOwner() {\r\n        require(msg.sender == _owner, \"Caller is not owner!\");\r\n        _;\r\n    }\r\n\r\n    modifier canInvest(string memory id) {\r\n        uint256 checkPoint = getDate();\r\n        DiscoStatus memory discoStatus = status[id];\r\n        DiscoInfo memory discoInfo = discos[id];\r\n        require(discoStatus.isEnabled && !discoStatus.isFinished);\r\n        require(discoInfo.fundRaisingStartedAt < checkPoint, 'now must greater than the disco fund raising start time');\r\n        require(discoInfo.fundRaisingEndedAt > checkPoint, 'now must less than the disco fund raising end time');\r\n        _;\r\n    }\r\n\r\n    constructor()\r\n    public {\r\n        _owner = msg.sender;\r\n    }\r\n\r\n    function setSwap(address swapAddr)\r\n    isOwner\r\n    public {\r\n        uniswap = IUniswapV2Router01(swapAddr);\r\n    }\r\n\r\n    function setPreFee(uint256 pf)\r\n    isOwner\r\n    public {\r\n        preFee = pf;\r\n    }\r\n\r\n    function getPreFee() internal\r\n    returns (uint256){\r\n        if (preFee == 0) {\r\n            preFee = 0.1 * 10 ** 18;\r\n        }\r\n        return preFee;\r\n    }\r\n\r\n    //  获取当前时间\r\n    function getDate() public view returns (uint256){\r\n        return now;\r\n    }\r\n\r\n    // 创建Disco\r\n    /**\r\n    * @param d  tuple forward.\r\n    **/\r\n    function newDisco(DiscoInfo memory d) public payable {\r\n        require(bytes(d.id).length != 0);\r\n        DiscoStatus memory s = DiscoStatus(\r\n            false,\r\n            false,\r\n            false\r\n        );\r\n        discos[d.id] = d;\r\n        status[d.id] = s;\r\n        // 生成新的合约地址, discoAddr 既是DiscoAddr 的实例， 也是上链部署的地址\r\n        DiscoAddr addr = new DiscoAddr(d.id);\r\n        IERC20 token = IERC20(d.tokenAddr);\r\n        addr.setToken(token);\r\n        addr.setSwap(uniswap);\r\n\r\n        // disco id 与 disco 合约地址的映射\r\n        DiscoInvestAddr memory discoInvestAddr = DiscoInvestAddr(addr, token, address(0), 0, 0, 0);\r\n        discoAddress[d.id] = discoInvestAddr;\r\n        // disco 创建成功\r\n        emit createdDisco(d.id, addr);\r\n    }\r\n\r\n\r\n    /**\r\n     * @dev 开启disco\r\n     */\r\n    function enableDisco(string memory id) public payable {\r\n        // require(address(uniswap) != address(0), 'need init uniswap');\r\n        uint256 fee = getPreFee();\r\n        require(msg.value >= fee, \"fee not enough!\");\r\n        uint256 checkPoint = getDate();\r\n        DiscoInfo memory disco = discos[id];\r\n        require(disco.fundRaisingStartedAt < checkPoint, 'now must greater than the disco fund raising start time');\r\n        require(disco.fundRaisingEndedAt > checkPoint, 'now must less than the disco fund raising end time');\r\n        DiscoStatus memory discoStatus = status[id];\r\n        require(!discoStatus.isEnabled, 'the disco must has not been started');\r\n\r\n        DiscoInvestAddr storage investAddr = discoAddress[id];\r\n        DiscoAddr discoAddr = investAddr.discoAddr;\r\n        discoAddr.getPool().transfer(fee);\r\n\r\n        IERC20 token = investAddr.token;\r\n        token.transferFrom(msg.sender, discoAddr.getPool(), disco.totalDepositToken);\r\n        discoStatus.isEnabled = true;\r\n        status[id] = discoStatus;\r\n        investAddr.depositAccount = msg.sender;\r\n\r\n        // 发送开启募资的事件\r\n        emit enabledDisco(id);\r\n    }\r\n\r\n    function getDeadline(uint256 pendingSecs) internal view returns (uint256){\r\n        return getDate() + pendingSecs;\r\n    }\r\n\r\n    function discoToken(string calldata id) external view returns (IERC20){\r\n        DiscoInvestAddr memory investAddr = discoAddress[id];\r\n        return investAddr.token;\r\n    }\r\n\r\n    function poolEthBalance(string calldata id) external view isOwner returns (uint256) {\r\n        DiscoInvestAddr memory investAddr = discoAddress[id];\r\n        DiscoAddr discoAddr = investAddr.discoAddr;\r\n        return discoAddr.ethBalance();\r\n    }\r\n\r\n\r\n    function poolTokenBalance(string calldata id) external view isOwner returns (uint256){\r\n        DiscoInvestAddr memory investAddr = discoAddress[id];\r\n        DiscoAddr discoAddr = investAddr.discoAddr;\r\n        IERC20 token = investAddr.token;\r\n        return discoAddr.tokenBalance(token);\r\n    }\r\n\r\n    /**\r\n    * @dev 后端调用， 触发disco的结束， 由合约来判断disco的募资是否成功\r\n    */\r\n    function finishedDisco(string calldata id) external {\r\n        DiscoStatus storage discoStatus = status[id];\r\n        require(!discoStatus.isFinished && discoStatus.isEnabled);\r\n        discoStatus.isFinished = true;\r\n        (,uint256 investAmt) = getInvestAmt(id);\r\n        DiscoInfo memory info = discos[id];\r\n        //if minFundRaising is a bottom of pool.\r\n        discoStatus.isSuccess = investAmt >= info.minFundRaising;\r\n        status[id] = discoStatus;\r\n        if (discoStatus.isSuccess) {\r\n            assign(id, investAmt);\r\n        } else {\r\n            refund(id);\r\n        }\r\n        emit fundraisingFinished(id, discoStatus.isSuccess);\r\n    }\r\n\r\n    function getInvestAmt(string memory id) public view returns (uint256, uint256){\r\n        uint256 investAmt = 0;\r\n        uint256 invCount = 0;\r\n        for (uint256 i = 0; i < investors[id].length; i++) {\r\n            DiscoInvestor memory investor = investors[id][i];\r\n            if (!investor.isDead) {\r\n                investAmt += investor.value;\r\n                invCount++;\r\n            }\r\n        }\r\n        return (invCount, investAmt);\r\n    }\r\n\r\n\r\n    function assign(string memory id, uint256 investAmt) public payable returns (uint256, uint256)  {\r\n        //uniswap add liquidity.\r\n        assignLiquidity(id);\r\n        //assign ether\r\n        uint256 platFee = assignEth(id, investAmt);\r\n        //assign token\r\n        uint256 refundToken = assignToken(id);\r\n        return (platFee, refundToken);\r\n    }\r\n\r\n\r\n    function assignEth(string memory id, uint256 investAmt) public payable returns (uint256)  {\r\n        DiscoInfo memory disco = discos[id];\r\n        DiscoInvestAddr memory investAddr = discoAddress[id];\r\n        DiscoAddr discoAddr = investAddr.discoAddr;\r\n        // 2% platFee\r\n        uint256 platFee = investAmt.mul(2).div(100);\r\n        //no chance to send another one except msg.sender. if need, use weth with uniswap.\r\n        if (platFee > 0) {\r\n            //the account for receiving platFee has not been confirmed.\r\n            discoAddr.ethTransfer(address(0), platFee);\r\n            investAmt -= platFee;\r\n        }\r\n        //remainAmt to wallet\r\n        uint256 withdrawEth = investAmt - platFee - investAddr.swapEth;\r\n        discoAddr.ethTransfer(disco.walletAddr, withdrawEth);\r\n        return platFee;\r\n    }\r\n\r\n    function assignToken(string memory id) public payable returns (uint256) {\r\n        DiscoInfo memory disco = discos[id];\r\n        DiscoInvestAddr memory investAddr = discoAddress[id];\r\n        DiscoInvestor[] memory assignInvestors = investors[id];\r\n        IERC20 token = investAddr.token;\r\n        uint256 payToken = 0;\r\n        for (uint256 i = 0; i < assignInvestors.length; i++) {\r\n            DiscoInvestor memory investor = assignInvestors[i];\r\n            if (investor.isDead) {\r\n                continue;\r\n            }\r\n            uint256 diff = investor.time.sub(disco.fundRaisingStartedAt).div(60 * 60 * 24);\r\n            uint256 declineDiff = disco.rewardDeclineRate.sub(diff);\r\n            if (declineDiff <= 0) {\r\n                declineDiff = 0;\r\n            }\r\n\r\n            //get the Liquidity - Uniswap when deposit to exchange factory.\r\n            uint256 tokenAmt = investor.value.mul(investAddr.initLiquidity).mul(declineDiff.add(1)).div(100);\r\n            investAddr.discoAddr.approve(token, address(this), tokenAmt);\r\n            token.transferFrom(investAddr.discoAddr.getPool(), investor.investor, tokenAmt);\r\n            payToken = payToken.add(tokenAmt);\r\n        }\r\n\r\n        //return the money to the original path(depositAccount).\r\n        uint256 refundToken = disco.totalDepositToken - payToken;\r\n        if (refundToken > 0) {\r\n            investAddr.discoAddr.approve(token, address(this), refundToken);\r\n            token.transferFrom(investAddr.discoAddr.getPool(), investAddr.depositAccount, refundToken);\r\n        }\r\n        return refundToken;\r\n    }\r\n\r\n    function assignLiquidity(string memory id) public payable {\r\n        DiscoInfo memory disco = discos[id];\r\n        DiscoInvestAddr memory investAddr = discoAddress[id];\r\n        DiscoAddr discoAddr = investAddr.discoAddr;\r\n        uint256 deadline = getDeadline(60);\r\n        (,uint256 investAmt) = getInvestAmt(id);\r\n\r\n        //approve token transfer\r\n        discoAddr.approve(investAddr.token, address(uniswap), disco.shareToken);\r\n\r\n        //eth transfer\r\n        uint256 desiredEth = investAmt.mul(disco.addLiquidityPool).div(100);\r\n        discoAddr.ethTransfer(address(uint160(address(uniswap))), desiredEth);\r\n\r\n        (uint256 amountToken, uint256 amountETH, uint256 liquidity) = discoAddr.addLiquidityETH.value(desiredEth)(disco.shareToken, 0, 0, address(investAddr.discoAddr), deadline);\r\n        investAddr.initLiquidity = liquidity;\r\n        investAddr.swapToken = amountToken;\r\n        investAddr.swapEth = amountETH;\r\n        discoAddress[id] = investAddr;\r\n    }\r\n\r\n    function addLiquidity(string calldata id, uint256 eth, uint256 token)\r\n    external payable returns (uint256, uint256, uint256)  {\r\n        require(address(uniswap) != address(0), 'Uniswap not initialized.');\r\n        DiscoInvestAddr memory investAddr = discoAddress[id];\r\n        require(investAddr.token.transferFrom(msg.sender, address(this), token));\r\n        DiscoInfo memory disco = discos[id];\r\n        investAddr.token.approve(address(uniswap), token);\r\n        uint256 deadline = getDeadline(120);\r\n        (uint256 amountToken, uint256 amountETH, uint256 liquidity) = uniswap.addLiquidityETH.value(eth)(disco.tokenAddr, token, 0, 0, msg.sender, deadline);\r\n        return (amountToken, amountETH, liquidity);\r\n    }\r\n\r\n    function removeLiquidity(string calldata id, uint256 token)\r\n    external payable returns (uint256, uint256)  {\r\n        require(address(uniswap) != address(0), 'Uniswap not initialized.');\r\n        DiscoInvestAddr memory investAddr = discoAddress[id];\r\n        investAddr.token.approve(address(uniswap), token);\r\n        DiscoInfo memory disco = discos[id];\r\n        uint256 deadline = getDeadline(120);\r\n        (uint256 amountToken, uint256 amountETH) = uniswap.removeLiquidityETH(disco.tokenAddr, token, 0, 0, msg.sender, deadline);\r\n        return (amountToken, amountETH);\r\n    }\r\n\r\n    /**\r\n     * refund-anti-pattern 适合的方案是外部控制执行批量一对一退款。\r\n     */\r\n    function refund(string memory id) public payable {\r\n        require(bytes(id).length != 0);\r\n        DiscoInvestAddr memory investAddr = discoAddress[id];\r\n        DiscoAddr discoAddr = investAddr.discoAddr;\r\n        require(bytes(discoAddr.getDiscoId()).length != 0);\r\n        require(investAddr.depositAccount != address(0));\r\n        // solidity > 0.6 address payable pool = payable(address(discoAddr)) ;\r\n        // as follow is 0.5.x\r\n        // refund ether\r\n        for (uint256 i = 0; i < investors[id].length; i++) {\r\n            DiscoInvestor storage investor = investors[id][i];\r\n            discoAddr.ethTransfer(investor.investor, investor.value);\r\n            investor.isDead = true;\r\n        }\r\n\r\n        //refund token\r\n        DiscoInfo memory info = discos[id];\r\n        IERC20 token = investAddr.token;\r\n        discoAddr.approve(token, address(this), info.totalDepositToken);\r\n        token.transferFrom(discoAddr.getPool(), investAddr.depositAccount, info.totalDepositToken);\r\n    }\r\n\r\n    // 发起募资, 记录募资的信息， 可能会多次募资\r\n    function investor(string memory id, uint256 time) public payable canInvest(id) {\r\n        DiscoInvestor memory d = DiscoInvestor(\r\n            msg.sender,\r\n            msg.value,\r\n            time,\r\n            false\r\n        );\r\n        DiscoAddr discoAddr = discoAddress[id].discoAddr;\r\n        // solidity > 0.6 address payable pool = payable(address(discoAddr)) ;\r\n        // as follow is 0.5.x\r\n        discoAddr.getPool().transfer(msg.value);\r\n        investors[id].push(d);\r\n        emit investToDisco(id, _owner, msg.value);\r\n    }\r\n}\r\n\r\n// 生成募资合约\r\n//Fund-Raising Contract\r\ncontract DiscoAddr is FundPool {\r\n\r\n    string public id;\r\n\r\n    IUniswapV2Router01 poolUniswap;\r\n\r\n    IERC20 poolToken;\r\n\r\n    // suppose the deployed contract has a purpose\r\n\r\n    //0.6.x\r\n    //receive() external payable {}\r\n    function() external payable {}\r\n\r\n    constructor(string memory discoId) FundPool(discoId) public {\r\n        id = discoId;\r\n    }\r\n\r\n    function getDiscoId() public view returns (string memory) {\r\n        return id;\r\n    }\r\n\r\n    function ethTransfer(address payable to, uint256 amount) external payable {\r\n        to.transfer(amount);\r\n    }\r\n\r\n    function approve(IERC20 token, address to, uint256 amount) external {\r\n        require(token.approve(to, amount));\r\n    }\r\n\r\n    function transferFrom(IERC20 token, address to, uint256 amount) external {\r\n        require(token.transferFrom(address(this), to, amount));\r\n    }\r\n\r\n    function transfer(IERC20 token, address to, uint256 amount) external {\r\n        require(token.transfer(to, amount));\r\n    }\r\n\r\n    function ethBalance() external view returns (uint256) {\r\n        return address(this).balance;\r\n    }\r\n\r\n    function tokenBalance(IERC20 token) external view returns (uint256) {\r\n        return token.balanceOf(address(this));\r\n    }\r\n\r\n    function getPool() public view returns (address payable) {\r\n        return address(uint160(address(this)));\r\n    }\r\n\r\n    function setSwap(IUniswapV2Router01 pu) public {\r\n        poolUniswap = pu;\r\n    }\r\n\r\n    function setToken(IERC20 pt) public {\r\n        poolToken = pt;\r\n    }\r\n\r\n    function addLiquidityETH(\r\n        uint256 amountTokenDesired,\r\n        uint256 amountTokenMin,\r\n        uint256 amountETHMin,\r\n        address to,\r\n        uint256 deadline\r\n    )\r\n    external payable returns (\r\n        uint256 amountToken,\r\n        uint256 amountETH,\r\n        uint256 liquidity\r\n    ) {\r\n        return poolUniswap.addLiquidityETH.value(msg.value)(address(poolToken), amountTokenDesired, amountTokenMin, amountETHMin, to, deadline);\r\n    }\r\n}\r\n",
  "sourcePath": "D:/comunion/cos-contract-com/contracts/Disco.sol",
  "compiler": {
    "name": "solc",
    "version": "0.5.16+commit.9c3226ce.Emscripten.clang"
  },
  "schemaVersion": "3.3.4",
  "updatedAt": "2021-06-01T06:13:58.307Z",
  "devdoc": {
    "methods": {}
  },
  "userdoc": {
    "methods": {}
  }
}