{
  "contractName": "Disco",
  "abi": [
    {
      "inputs": [],
      "payable": false,
      "stateMutability": "nonpayable",
      "type": "constructor"
    },
    {
      "anonymous": false,
      "inputs": [
        {
          "indexed": false,
          "internalType": "string",
          "name": "discoId",
          "type": "string"
        },
        {
          "indexed": false,
          "internalType": "contract DiscoAddr",
          "name": "addr",
          "type": "address"
        }
      ],
      "name": "createdDisco",
      "type": "event"
    },
    {
      "anonymous": false,
      "inputs": [
        {
          "indexed": false,
          "internalType": "string",
          "name": "discoId",
          "type": "string"
        }
      ],
      "name": "enabledDisco",
      "type": "event"
    },
    {
      "anonymous": false,
      "inputs": [
        {
          "indexed": false,
          "internalType": "string",
          "name": "discoId",
          "type": "string"
        }
      ],
      "name": "fundraisingFailed",
      "type": "event"
    },
    {
      "anonymous": false,
      "inputs": [
        {
          "indexed": false,
          "internalType": "string",
          "name": "discoIdo",
          "type": "string"
        },
        {
          "indexed": false,
          "internalType": "bool",
          "name": "success",
          "type": "bool"
        }
      ],
      "name": "fundraisingFinished",
      "type": "event"
    },
    {
      "anonymous": false,
      "inputs": [
        {
          "indexed": false,
          "internalType": "string",
          "name": "discoId",
          "type": "string"
        }
      ],
      "name": "fundraisingSucceed",
      "type": "event"
    },
    {
      "anonymous": false,
      "inputs": [
        {
          "indexed": false,
          "internalType": "string",
          "name": "discoId",
          "type": "string"
        },
        {
          "indexed": false,
          "internalType": "address",
          "name": "investorAddr",
          "type": "address"
        },
        {
          "indexed": false,
          "internalType": "uint256",
          "name": "amount",
          "type": "uint256"
        }
      ],
      "name": "investToDisco",
      "type": "event"
    },
    {
      "constant": true,
      "inputs": [
        {
          "internalType": "string",
          "name": "",
          "type": "string"
        }
      ],
      "name": "discoAddress",
      "outputs": [
        {
          "internalType": "contract DiscoAddr",
          "name": "discoAddr",
          "type": "address"
        },
        {
          "internalType": "contract IERC20",
          "name": "token",
          "type": "address"
        },
        {
          "internalType": "address payable",
          "name": "depositAccount",
          "type": "address"
        },
        {
          "internalType": "uint256",
          "name": "initLiquidity",
          "type": "uint256"
        },
        {
          "internalType": "uint256",
          "name": "swapEth",
          "type": "uint256"
        },
        {
          "internalType": "uint256",
          "name": "swapToken",
          "type": "uint256"
        }
      ],
      "payable": false,
      "stateMutability": "view",
      "type": "function"
    },
    {
      "constant": true,
      "inputs": [
        {
          "internalType": "string",
          "name": "",
          "type": "string"
        }
      ],
      "name": "discos",
      "outputs": [
        {
          "internalType": "string",
          "name": "id",
          "type": "string"
        },
        {
          "internalType": "address payable",
          "name": "walletAddr",
          "type": "address"
        },
        {
          "internalType": "address",
          "name": "tokenAddr",
          "type": "address"
        },
        {
          "internalType": "string",
          "name": "description",
          "type": "string"
        },
        {
          "internalType": "uint256",
          "name": "fundRaisingStartedAt",
          "type": "uint256"
        },
        {
          "internalType": "uint256",
          "name": "fundRaisingEndedAt",
          "type": "uint256"
        },
        {
          "internalType": "uint256",
          "name": "investmentReward",
          "type": "uint256"
        },
        {
          "internalType": "uint256",
          "name": "rewardDeclineRate",
          "type": "uint256"
        },
        {
          "internalType": "uint256",
          "name": "shareToken",
          "type": "uint256"
        },
        {
          "internalType": "uint256",
          "name": "minFundRaising",
          "type": "uint256"
        },
        {
          "internalType": "uint256",
          "name": "addLiquidityPool",
          "type": "uint256"
        },
        {
          "internalType": "uint256",
          "name": "totalDepositToken",
          "type": "uint256"
        }
      ],
      "payable": false,
      "stateMutability": "view",
      "type": "function"
    },
    {
      "constant": true,
      "inputs": [
        {
          "internalType": "string",
          "name": "",
          "type": "string"
        },
        {
          "internalType": "uint256",
          "name": "",
          "type": "uint256"
        }
      ],
      "name": "investors",
      "outputs": [
        {
          "internalType": "address payable",
          "name": "investor",
          "type": "address"
        },
        {
          "internalType": "uint256",
          "name": "value",
          "type": "uint256"
        },
        {
          "internalType": "uint256",
          "name": "time",
          "type": "uint256"
        },
        {
          "internalType": "bool",
          "name": "isDead",
          "type": "bool"
        }
      ],
      "payable": false,
      "stateMutability": "view",
      "type": "function"
    },
    {
      "constant": true,
      "inputs": [
        {
          "internalType": "string",
          "name": "",
          "type": "string"
        }
      ],
      "name": "status",
      "outputs": [
        {
          "internalType": "bool",
          "name": "isFinished",
          "type": "bool"
        },
        {
          "internalType": "bool",
          "name": "isSuccess",
          "type": "bool"
        },
        {
          "internalType": "bool",
          "name": "isEnabled",
          "type": "bool"
        }
      ],
      "payable": false,
      "stateMutability": "view",
      "type": "function"
    },
    {
      "constant": false,
      "inputs": [
        {
          "internalType": "address",
          "name": "swapAddr",
          "type": "address"
        }
      ],
      "name": "setSwap",
      "outputs": [],
      "payable": false,
      "stateMutability": "nonpayable",
      "type": "function"
    },
    {
      "constant": false,
      "inputs": [
        {
          "internalType": "uint256",
          "name": "pf",
          "type": "uint256"
        }
      ],
      "name": "setPreFee",
      "outputs": [],
      "payable": false,
      "stateMutability": "nonpayable",
      "type": "function"
    },
    {
      "constant": true,
      "inputs": [],
      "name": "getDate",
      "outputs": [
        {
          "internalType": "uint256",
          "name": "",
          "type": "uint256"
        }
      ],
      "payable": false,
      "stateMutability": "view",
      "type": "function"
    },
    {
      "constant": false,
      "inputs": [
        {
          "components": [
            {
              "internalType": "string",
              "name": "id",
              "type": "string"
            },
            {
              "internalType": "address payable",
              "name": "walletAddr",
              "type": "address"
            },
            {
              "internalType": "address",
              "name": "tokenAddr",
              "type": "address"
            },
            {
              "internalType": "string",
              "name": "description",
              "type": "string"
            },
            {
              "internalType": "uint256",
              "name": "fundRaisingStartedAt",
              "type": "uint256"
            },
            {
              "internalType": "uint256",
              "name": "fundRaisingEndedAt",
              "type": "uint256"
            },
            {
              "internalType": "uint256",
              "name": "investmentReward",
              "type": "uint256"
            },
            {
              "internalType": "uint256",
              "name": "rewardDeclineRate",
              "type": "uint256"
            },
            {
              "internalType": "uint256",
              "name": "shareToken",
              "type": "uint256"
            },
            {
              "internalType": "uint256",
              "name": "minFundRaising",
              "type": "uint256"
            },
            {
              "internalType": "uint256",
              "name": "addLiquidityPool",
              "type": "uint256"
            },
            {
              "internalType": "uint256",
              "name": "totalDepositToken",
              "type": "uint256"
            }
          ],
          "internalType": "struct Disco.DiscoInfo",
          "name": "d",
          "type": "tuple"
        }
      ],
      "name": "newDisco",
      "outputs": [],
      "payable": true,
      "stateMutability": "payable",
      "type": "function"
    },
    {
      "constant": false,
      "inputs": [
        {
          "internalType": "string",
          "name": "id",
          "type": "string"
        }
      ],
      "name": "enableDisco",
      "outputs": [],
      "payable": true,
      "stateMutability": "payable",
      "type": "function"
    },
    {
      "constant": true,
      "inputs": [
        {
          "internalType": "string",
          "name": "id",
          "type": "string"
        }
      ],
      "name": "discoToken",
      "outputs": [
        {
          "internalType": "contract IERC20",
          "name": "",
          "type": "address"
        }
      ],
      "payable": false,
      "stateMutability": "view",
      "type": "function"
    },
    {
      "constant": true,
      "inputs": [
        {
          "internalType": "string",
          "name": "id",
          "type": "string"
        }
      ],
      "name": "poolEthBalance",
      "outputs": [
        {
          "internalType": "uint256",
          "name": "",
          "type": "uint256"
        }
      ],
      "payable": false,
      "stateMutability": "view",
      "type": "function"
    },
    {
      "constant": true,
      "inputs": [
        {
          "internalType": "string",
          "name": "id",
          "type": "string"
        }
      ],
      "name": "poolTokenBalance",
      "outputs": [
        {
          "internalType": "uint256",
          "name": "",
          "type": "uint256"
        }
      ],
      "payable": false,
      "stateMutability": "view",
      "type": "function"
    },
    {
      "constant": false,
      "inputs": [
        {
          "internalType": "string",
          "name": "id",
          "type": "string"
        }
      ],
      "name": "finishedDisco",
      "outputs": [],
      "payable": false,
      "stateMutability": "nonpayable",
      "type": "function"
    },
    {
      "constant": true,
      "inputs": [
        {
          "internalType": "string",
          "name": "id",
          "type": "string"
        }
      ],
      "name": "getInvestAmt",
      "outputs": [
        {
          "internalType": "uint256",
          "name": "",
          "type": "uint256"
        },
        {
          "internalType": "uint256",
          "name": "",
          "type": "uint256"
        }
      ],
      "payable": false,
      "stateMutability": "view",
      "type": "function"
    },
    {
      "constant": false,
      "inputs": [
        {
          "internalType": "string",
          "name": "id",
          "type": "string"
        },
        {
          "internalType": "uint256",
          "name": "investAmt",
          "type": "uint256"
        }
      ],
      "name": "assign",
      "outputs": [
        {
          "internalType": "uint256",
          "name": "",
          "type": "uint256"
        },
        {
          "internalType": "uint256",
          "name": "",
          "type": "uint256"
        }
      ],
      "payable": true,
      "stateMutability": "payable",
      "type": "function"
    },
    {
      "constant": false,
      "inputs": [
        {
          "internalType": "string",
          "name": "id",
          "type": "string"
        },
        {
          "internalType": "uint256",
          "name": "investAmt",
          "type": "uint256"
        }
      ],
      "name": "assignEth",
      "outputs": [
        {
          "internalType": "uint256",
          "name": "",
          "type": "uint256"
        }
      ],
      "payable": true,
      "stateMutability": "payable",
      "type": "function"
    },
    {
      "constant": false,
      "inputs": [
        {
          "internalType": "string",
          "name": "id",
          "type": "string"
        }
      ],
      "name": "assignToken",
      "outputs": [
        {
          "internalType": "uint256",
          "name": "",
          "type": "uint256"
        }
      ],
      "payable": true,
      "stateMutability": "payable",
      "type": "function"
    },
    {
      "constant": false,
      "inputs": [
        {
          "internalType": "string",
          "name": "id",
          "type": "string"
        }
      ],
      "name": "assignLiquidity",
      "outputs": [],
      "payable": true,
      "stateMutability": "payable",
      "type": "function"
    },
    {
      "constant": false,
      "inputs": [
        {
          "internalType": "string",
          "name": "id",
          "type": "string"
        },
        {
          "internalType": "uint256",
          "name": "eth",
          "type": "uint256"
        },
        {
          "internalType": "uint256",
          "name": "token",
          "type": "uint256"
        }
      ],
      "name": "addLiquidity",
      "outputs": [
        {
          "internalType": "uint256",
          "name": "",
          "type": "uint256"
        },
        {
          "internalType": "uint256",
          "name": "",
          "type": "uint256"
        },
        {
          "internalType": "uint256",
          "name": "",
          "type": "uint256"
        }
      ],
      "payable": true,
      "stateMutability": "payable",
      "type": "function"
    },
    {
      "constant": false,
      "inputs": [
        {
          "internalType": "string",
          "name": "id",
          "type": "string"
        },
        {
          "internalType": "uint256",
          "name": "token",
          "type": "uint256"
        }
      ],
      "name": "removeLiquidity",
      "outputs": [
        {
          "internalType": "uint256",
          "name": "",
          "type": "uint256"
        },
        {
          "internalType": "uint256",
          "name": "",
          "type": "uint256"
        }
      ],
      "payable": true,
      "stateMutability": "payable",
      "type": "function"
    },
    {
      "constant": false,
      "inputs": [
        {
          "internalType": "string",
          "name": "id",
          "type": "string"
        }
      ],
      "name": "refund",
      "outputs": [],
      "payable": true,
      "stateMutability": "payable",
      "type": "function"
    },
    {
      "constant": false,
      "inputs": [
        {
          "internalType": "string",
          "name": "id",
          "type": "string"
        },
        {
          "internalType": "uint256",
          "name": "time",
          "type": "uint256"
        }
      ],
      "name": "investor",
      "outputs": [],
      "payable": true,
      "stateMutability": "payable",
      "type": "function"
    }
  ],
  "bytecode": "0x608060405234801561001057600080fd5b50600080546001600160a01b0319163317905561581b806100326000396000f3fe608060405260043610620001515760003560e01c80635e56fb0111620000bb578063acb3c0731162000079578063acb3c07314620003be578063b16e68eb14620003e3578063bff390a714620003fa578063c79d19211462000422578063e8ca64f41462000439578063fe5f2e88146200046f5762000151565b80635e56fb0114620002f057806366f61fb914620003295780637a328a7e146200035d57806395a16979146200038257806399fcd6e414620003a75762000151565b806334d30e40116200011557806334d30e40146200022957806334e8e57b146200024e578063430fe9c1146200028557806348569ee9146200029d578063512518b514620002b457806356bf994214620002cb5762000151565b8062d0502914620001565780631218bfff146200018657806315282c9e14620001ac5780632019240214620001d35780632df7917214620001ea575b600080fd5b6200016d620001673660046200414b565b62000486565b6040516200017d92919062004a37565b60405180910390f35b6200019d62000197366004620040d9565b620004c0565b6040516200017d9190620049db565b348015620001b957600080fd5b50620001d1620001cb366004620041db565b62000bd2565b005b6200019d620001e43660046200414b565b62000c0d565b348015620001f757600080fd5b506200020f62000209366004620040d9565b62000f75565b6040516200017d9c9b9a999897969594939291906200482c565b3480156200023657600080fd5b506200016d62000248366004620040d9565b62001109565b3480156200025b57600080fd5b50620002736200026d3660046200414b565b620011ee565b6040516200017d94939291906200469e565b3480156200029257600080fd5b506200019d6200124e565b620001d1620002ae366004620041a2565b62001253565b620001d1620002c5366004620040d9565b62001616565b348015620002d857600080fd5b506200019d620002ea36600462003fc7565b62001ae0565b348015620002fd57600080fd5b50620003156200030f366004620040d9565b62001c12565b6040516200017d9695949392919062004764565b3480156200033657600080fd5b506200034e6200034836600462003fc7565b62001c60565b6040516200017d9190620047b0565b3480156200036a57600080fd5b50620001d16200037c36600462003fc7565b62001ce8565b3480156200038f57600080fd5b506200019d620003a136600462003fc7565b620020cf565b6200016d620003b83660046200400d565b620021f2565b348015620003cb57600080fd5b50620001d1620003dd36600462003f5c565b620025af565b620001d1620003f43660046200414b565b620025fe565b620004116200040b36600462004068565b62002a80565b6040516200017d9392919062004a47565b620001d162000433366004620040d9565b62002ef3565b3480156200044657600080fd5b506200045e62000458366004620040d9565b62003472565b6040516200017d9392919062004736565b620001d162000480366004620040d9565b620034a5565b600080620004948462001616565b6000620004a2858562000c0d565b90506000620004b186620004c0565b919350909150505b9250929050565b6000620004cc62003b01565b600383604051620004de91906200461d565b9081526040805160209281900383018120805460026001821615610100026000190190911604601f810185900490940282016101a090810190935261018082018481529193909284929184918401828280156200057f5780601f1062000553576101008083540402835291602001916200057f565b820191906000526020600020905b8154815290600101906020018083116200056157829003601f168201915b50505091835250506001828101546001600160a01b0390811660208085019190915260028086015490921660408086019190915260038601805482516101009682161596909602600019011693909304601f8101839004830285018301909152808452606090940193908301828280156200063e5780601f1062000612576101008083540402835291602001916200063e565b820191906000526020600020905b8154815290600101906020018083116200062057829003601f168201915b50505050508152602001600482015481526020016005820154815260200160068201548152602001600782015481526020016008820154815260200160098201548152602001600a8201548152602001600b820154815250509050620006a362003b74565b600684604051620006b591906200461d565b90815260408051918290036020908101832060c08401835280546001600160a01b03908116855260018201548116928501929092526002810154909116838301526003810154606080850191909152600480830154608086015260059092015460a0850152915192935090916200072e9087906200461d565b9081526020016040518091039020805480602002602001604051908101604052809291908181526020016000905b82821015620007c0576000848152602090819020604080516080810182526004860290920180546001600160a01b03168352600180820154848601526002820154928401929092526003015460ff161515606083015290835290920191016200075c565b5050505060208301519091506000805b835181101562000a4757620007e462003bc5565b848281518110620007f157fe5b602002602001015190508060600151156200080d575062000a3e565b60006200084162015180620008348a60800151856040015162003a0d90919063ffffffff16565b9063ffffffff62003a3316565b905060006200085e828a60e0015162003a0d90919063ffffffff16565b9050600081116200086d575060005b6000620008b46064620008346200088c85600163ffffffff62003a6916565b60608d01516020890151620008a79163ffffffff62003a8f16565b9063ffffffff62003a8f16565b895160405163e1f21c6760e01b81529192506001600160a01b03169063e1f21c6790620008ea908a9030908690600401620047c0565b600060405180830381600087803b1580156200090557600080fd5b505af11580156200091a573d6000803e3d6000fd5b50505050866001600160a01b03166323b872dd8a600001516001600160a01b031663026b1d5f6040518163ffffffff1660e01b815260040160206040518083038186803b1580156200096b57600080fd5b505afa15801562000980573d6000803e3d6000fd5b505050506040513d601f19601f82011682018060405250620009a6919081019062003f85565b86516040516001600160e01b031960e085901b168152620009ce929190869060040162004632565b602060405180830381600087803b158015620009e957600080fd5b505af1158015620009fe573d6000803e3d6000fd5b505050506040513d601f19601f8201168201806040525062000a24919081019062003fa6565b5062000a37868263ffffffff62003a6916565b9550505050505b600101620007d0565b50610160850151819003801562000bc757845160405163e1f21c6760e01b81526001600160a01b039091169063e1f21c679062000a8d90869030908690600401620047c0565b600060405180830381600087803b15801562000aa857600080fd5b505af115801562000abd573d6000803e3d6000fd5b50505050826001600160a01b03166323b872dd86600001516001600160a01b031663026b1d5f6040518163ffffffff1660e01b815260040160206040518083038186803b15801562000b0e57600080fd5b505afa15801562000b23573d6000803e3d6000fd5b505050506040513d601f19601f8201168201806040525062000b49919081019062003f85565b8760400151846040518463ffffffff1660e01b815260040162000b6f9392919062004632565b602060405180830381600087803b15801562000b8a57600080fd5b505af115801562000b9f573d6000803e3d6000fd5b505050506040513d601f19601f8201168201806040525062000bc5919081019062003fa6565b505b979650505050505050565b6000546001600160a01b0316331462000c085760405162461bcd60e51b815260040162000bff906200496f565b60405180910390fd5b600255565b600062000c1962003b01565b60038460405162000c2b91906200461d565b9081526040805160209281900383018120805460026001821615610100026000190190911604601f810185900490940282016101a0908101909352610180820184815291939092849291849184018282801562000ccc5780601f1062000ca05761010080835404028352916020019162000ccc565b820191906000526020600020905b81548152906001019060200180831162000cae57829003601f168201915b50505091835250506001828101546001600160a01b0390811660208085019190915260028086015490921660408086019190915260038601805482516101009682161596909602600019011693909304601f81018390048302850183019091528084526060909401939083018282801562000d8b5780601f1062000d5f5761010080835404028352916020019162000d8b565b820191906000526020600020905b81548152906001019060200180831162000d6d57829003601f168201915b50505050508152602001600482015481526020016005820154815260200160068201548152602001600782015481526020016008820154815260200160098201548152602001600a8201548152602001600b82015481525050905062000df062003b74565b60068560405162000e0291906200461d565b908152604080516020928190038301812060c08201835280546001600160a01b0390811680845260018301548216958401959095526002808301549091169383019390935260038101546060830152600481015460808301526005015460a0820152925060009062000e7e906064906200083490899062003a8f565b9050801562000ef257604051634f95a04b60e01b81526001600160a01b03831690634f95a04b9062000eb89060009085906004016200467f565b600060405180830381600087803b15801562000ed357600080fd5b505af115801562000ee8573d6000803e3d6000fd5b5050505080860395505b60808301516020850151604051634f95a04b60e01b815283890392909203916001600160a01b03851691634f95a04b9162000f33919085906004016200467f565b600060405180830381600087803b15801562000f4e57600080fd5b505af115801562000f63573d6000803e3d6000fd5b50939750505050505050505b92915050565b805160208183018101805160038252928201938201939093209190925280546040805160026001841615610100026000190190931692909204601f81018590048502830185019091528082529192909183918301828280156200101c5780601f1062000ff0576101008083540402835291602001916200101c565b820191906000526020600020905b81548152906001019060200180831162000ffe57829003601f168201915b505050600180850154600280870154600388018054604080516020601f60001999851615610100029990990190931695909504968701829004820285018201905285845297986001600160a01b0394851698929094169650929450909290830182828015620010cf5780601f10620010a357610100808354040283529160200191620010cf565b820191906000526020600020905b815481529060010190602001808311620010b157829003601f168201915b50505050509080600401549080600501549080600601549080600701549080600801549080600901549080600a01549080600b015490508c565b6000808080805b6004866040516200112291906200461d565b90815260405190819003602001902054811015620011e4576200114462003bc5565b6004876040516200115691906200461d565b908152602001604051809103902082815481106200117057fe5b600091825260209182902060408051608081018252600490930290910180546001600160a01b0316835260018101549383019390935260028301549082015260039091015460ff16151560608201819052909150620011da57602081015193909301926001909201915b5060010162001110565b5092509050915091565b815160208184018101805160048252928201918501919091209190528054829081106200121757fe5b600091825260209091206004909102018054600182015460028301546003909301546001600160a01b039092169450925060ff1684565b425b90565b8051516200126057600080fd5b6200126a62003bf8565b50604080516060810182526000808252602082018190528183015282519151909183916003916200129b916200461d565b90815260200160405180910390206000820151816000019080519060200190620012c792919062003c18565b506020828101516001830180546001600160a01b039283166001600160a01b0319918216179091556040850151600285018054919093169116179055606083015180516200131c926003850192019062003c18565b506080820151816004015560a0820151816005015560c0820151816006015560e082015181600701556101008201518160080155610120820151816009015561014082015181600a015561016082015181600b015590505080600583600001516040516200138b91906200461d565b908152604080519182900360209081018320845181549286015195909301511515620100000262ff0000199515156101000261ff001994151560ff1990941693909317939093169190911793909316179091558251600091620013ee9062003c9d565b620013fa9190620047f5565b604051809103906000f08015801562001417573d6000803e3d6000fd5b50604080850151905163144fa6d760e01b8152919250906001600160a01b0383169063144fa6d7906200144f908490600401620047b0565b600060405180830381600087803b1580156200146a57600080fd5b505af11580156200147f573d6000803e3d6000fd5b505060015460405163acb3c07360e01b81526001600160a01b03808716945063acb3c0739350620014b5921690600401620047b0565b600060405180830381600087803b158015620014d057600080fd5b505af1158015620014e5573d6000803e3d6000fd5b50505050620014f362003b74565b6040518060c00160405280846001600160a01b03168152602001836001600160a01b0316815260200160006001600160a01b0316815260200160008152602001600081526020016000815250905080600686600001516040516200155891906200461d565b9081526040805160209281900383018120845181546001600160a01b03199081166001600160a01b0392831617835594860151600183018054871691831691909117905592850151600282018054909516931692909217909255606083015160038201556080830151600482015560a09092015160059092019190915585517ff7e24b64c3d2ed7d191ce3009c2e12632005b58578ce39e23f97eaec9fd6c3e191620016079190869062004903565b60405180910390a15050505050565b6200162062003b01565b6003826040516200163291906200461d565b9081526040805160209281900383018120805460026001821615610100026000190190911604601f810185900490940282016101a09081019093526101808201848152919390928492918491840182828015620016d35780601f10620016a757610100808354040283529160200191620016d3565b820191906000526020600020905b815481529060010190602001808311620016b557829003601f168201915b50505091835250506001828101546001600160a01b0390811660208085019190915260028086015490921660408086019190915260038601805482516101009682161596909602600019011693909304601f810183900483028501830190915280845260609094019390830182828015620017925780601f10620017665761010080835404028352916020019162001792565b820191906000526020600020905b8154815290600101906020018083116200177457829003601f168201915b50505050508152602001600482015481526020016005820154815260200160068201548152602001600782015481526020016008820154815260200160098201548152602001600a8201548152602001600b820154815250509050620017f762003b74565b6006836040516200180991906200461d565b908152604080516020928190038301812060c08201835280546001600160a01b03908116808452600183015482169584019590955260028201541692820192909252600382015460608201526004820154608082015260059091015460a0820152915060006200187a603c62003acb565b90506000620018898662001109565b602086015160015461010089015160405163e1f21c6760e01b81529395506001600160a01b03808916955063e1f21c6794620018ce94939091169190600401620047c0565b600060405180830381600087803b158015620018e957600080fd5b505af1158015620018fe573d6000803e3d6000fd5b505050506000620019246064620008348861014001518562003a8f90919063ffffffff16565b600154604051634f95a04b60e01b81529192506001600160a01b0380871692634f95a04b926200195b92169085906004016200467f565b600060405180830381600087803b1580156200197657600080fd5b505af11580156200198b573d6000803e3d6000fd5b505050610100870151865160405163bb8a88bb60e01b815260009350839283926001600160a01b038a169263bb8a88bb928892620019d292879182918e90600401620049eb565b6060604051808303818588803b158015620019ec57600080fd5b505af115801562001a01573d6000803e3d6000fd5b50505050506040513d601f19601f8201168201806040525062001a28919081019062004252565b60608b0181905260a08b0183905260808b018290526040519295509093509150889060069062001a5a908d906200461d565b9081526040805160209281900383019020835181546001600160a01b03199081166001600160a01b0392831617835593850151600183018054861691831691909117905591840151600282018054909416921691909117909155606082015160038201556080820151600482015560a09091015160059091015550505050505050505050565b600080546001600160a01b0316331462001b0e5760405162461bcd60e51b815260040162000bff906200496f565b62001b1862003b74565b6006848460405162001b2c9291906200460e565b908152604080516020928190038301812060c08201835280546001600160a01b039081168084526001830154821695840186905260028301549091168385015260038201546060840152600480830154608085015260059092015460a0840152925163776e4b3560e11b8152919450919291839163eedc966a9162001bb491859101620047b0565b60206040518083038186803b15801562001bcd57600080fd5b505afa15801562001be2573d6000803e3d6000fd5b505050506040513d601f19601f8201168201806040525062001c089190810190620041fc565b9695505050505050565b80516020818301810180516006825292820191909301209152805460018201546002830154600384015460048501546005909501546001600160a01b03948516959385169490921692909186565b600062001c6c62003b74565b6006848460405162001c809291906200460e565b908152604080516020928190038301812060c08201835280546001600160a01b0390811683526001820154811694830185905260028201541692820192909252600382015460608201526004820154608082015260059091015460a090910152949350505050565b60006005838360405162001cfe9291906200460e565b908152604051908190036020019020805490915060ff1615801562001d2a5750805462010000900460ff165b62001d3457600080fd5b805460ff19166001178155604080516020601f850181900481028201810190925283815260009162001d82919086908690819084018382808284376000920191909152506200110992505050565b91505062001d8f62003b01565b6003858560405162001da39291906200460e565b9081526040805160209281900383018120805460026001821615610100026000190190911604601f810185900490940282016101a0908101909352610180820184815291939092849291849184018282801562001e445780601f1062001e185761010080835404028352916020019162001e44565b820191906000526020600020905b81548152906001019060200180831162001e2657829003601f168201915b50505091835250506001828101546001600160a01b0390811660208085019190915260028086015490921660408086019190915260038601805482516101009682161596909602600019011693909304601f81018390048302850183019091528084526060909401939083018282801562001f035780601f1062001ed75761010080835404028352916020019162001f03565b820191906000526020600020905b81548152906001019060200180831162001ee557829003601f168201915b50505050508152602001600482015481526020016005820154815260200160068201548152602001600782015481526020016008820154815260200160098201548152602001600a8201548152602001600b8201548152505090508061012001518210158360000160016101000a81548160ff021916908315150217905550826005868660405162001f979291906200460e565b9081526040519081900360200190208154815460ff918216151560ff199091161780835583546101009081900483161515810261ff00199092169190911780845593546201000090819004831615150262ff0000199094169390931790915584549190910416156200204e576200204685858080601f01602080910402602001604051908101604052809392919081815260200183838082843760009201919091525086925062000486915050565b50506200208f565b6200208f85858080601f016020809104026020016040519081016040528093929190818152602001838380828437600092019190915250620034a592505050565b82546040517f35714766e4544afd4526bc1bbe6a503c6b0f871ab72fb6939be49b8e3419e89e9162001607918891889161010090910460ff1690620047d0565b600080546001600160a01b03163314620020fd5760405162461bcd60e51b815260040162000bff906200496f565b6200210762003b74565b600684846040516200211b9291906200460e565b908152604080516020928190038301812060c08201835280546001600160a01b03908116808452600183015482168685015260028301549091168385015260038201546060840152600480830154608085015260059092015460a084015283516304e6630b60e41b81529351929550938493634e6630b093818401939091829003018186803b158015620021ae57600080fd5b505afa158015620021c3573d6000803e3d6000fd5b505050506040513d601f19601f82011682018060405250620021e99190810190620041fc565b95945050505050565b60015460009081906001600160a01b0316620022225760405162461bcd60e51b815260040162000bff90620049a5565b6200222c62003b74565b60068686604051620022409291906200460e565b908152604080516020928190038301812060c08201835280546001600160a01b0390811683526001808301548216958401869052600283015482168486015260038301546060850152600480840154608086015260059093015460a085015254935163095ea7b360e01b815292955063095ea7b393620022c6939116918991016200467f565b602060405180830381600087803b158015620022e157600080fd5b505af1158015620022f6573d6000803e3d6000fd5b505050506040513d601f19601f820116820180604052506200231c919081019062003fa6565b506200232762003b01565b600387876040516200233b9291906200460e565b9081526040805160209281900383018120805460026001821615610100026000190190911604601f810185900490940282016101a09081019093526101808201848152919390928492918491840182828015620023dc5780601f10620023b057610100808354040283529160200191620023dc565b820191906000526020600020905b815481529060010190602001808311620023be57829003601f168201915b50505091835250506001828101546001600160a01b0390811660208085019190915260028086015490921660408086019190915260038601805482516101009682161596909602600019011693909304601f8101839004830285018301909152808452606090940193908301828280156200249b5780601f106200246f576101008083540402835291602001916200249b565b820191906000526020600020905b8154815290600101906020018083116200247d57829003601f168201915b50505050508152602001600482015481526020016005820154815260200160068201548152602001600782015481526020016008820154815260200160098201548152602001600a8201548152602001600b820154815250509050600062002504607862003acb565b6001546040808501519051629d473b60e21b815292935060009283926001600160a01b0316916302751cec916200254991908c908690819033908b90600401620046db565b6040805180830381600087803b1580156200256357600080fd5b505af115801562002578573d6000803e3d6000fd5b505050506040513d601f19601f820116820180604052506200259e91908101906200421d565b909b909a5098505050505050505050565b6000546001600160a01b03163314620025dc5760405162461bcd60e51b815260040162000bff906200496f565b600180546001600160a01b0319166001600160a01b0392909216919091179055565b8160006200260b6200124e565b90506200261762003bf8565b6005836040516200262991906200461d565b9081526040805191829003602090810183206060840183525460ff80821615158552610100820481161515928501929092526201000090041615159082015290506200267462003b01565b6003846040516200268691906200461d565b9081526040805160209281900383018120805460026001821615610100026000190190911604601f810185900490940282016101a09081019093526101808201848152919390928492918491840182828015620027275780601f10620026fb5761010080835404028352916020019162002727565b820191906000526020600020905b8154815290600101906020018083116200270957829003601f168201915b50505091835250506001828101546001600160a01b0390811660208085019190915260028086015490921660408086019190915260038601805482516101009682161596909602600019011693909304601f810183900483028501830190915280845260609094019390830182828015620027e65780601f10620027ba57610100808354040283529160200191620027e6565b820191906000526020600020905b815481529060010190602001808311620027c857829003601f168201915b50505050508152602001600482015481526020016005820154815260200160068201548152602001600782015481526020016008820154815260200160098201548152602001600a8201548152602001600b820154815250509050816040015180156200285257508151155b6200285c57600080fd5b82816080015110620028825760405162461bcd60e51b815260040162000bff9062004939565b828160a0015111620028a85760405162461bcd60e51b815260040162000bff90620049b7565b620028b262003bc5565b6040518060800160405280336001600160a01b031681526020013481526020018781526020016000151581525090506000600688604051620028f591906200461d565b90815260408051602092819003830181205463026b1d5f60e01b825291516001600160a01b039092169350839263026b1d5f92600480840193829003018186803b1580156200294357600080fd5b505afa15801562002958573d6000803e3d6000fd5b505050506040513d601f19601f820116820180604052506200297e919081019062003f85565b6001600160a01b03166108fc349081150290604051600060405180830381858888f19350505050158015620029b7573d6000803e3d6000fd5b50600488604051620029ca91906200461d565b90815260408051602092819003830181208054600180820183556000928352858320885160049093020180546001600160a01b0319166001600160a01b03938416178155958801519086015592860151600285015560608601516003909401805460ff19169415159490941790935591547f5fec6c2d2d376aa6f4c793e34f6cc71d65285bd07d1e709292fafc2b28bf2fbe9262002a6e928c921690349062004808565b60405180910390a15050505050505050565b600154600090819081906001600160a01b031662002ab25760405162461bcd60e51b815260040162000bff90620049a5565b62002abc62003b74565b6006888860405162002ad09291906200460e565b908152604080516020928190038301812060c08201835280546001600160a01b039081168352600182015481169483018590526002820154168284015260038101546060830152600480820154608084015260059091015460a083015291516323b872dd60e01b81529093506323b872dd9162002b5491339130918b910162004660565b602060405180830381600087803b15801562002b6f57600080fd5b505af115801562002b84573d6000803e3d6000fd5b505050506040513d601f19601f8201168201806040525062002baa919081019062003fa6565b62002bb457600080fd5b62002bbe62003b01565b6003898960405162002bd29291906200460e565b9081526040805160209281900383018120805460026001821615610100026000190190911604601f810185900490940282016101a0908101909352610180820184815291939092849291849184018282801562002c735780601f1062002c475761010080835404028352916020019162002c73565b820191906000526020600020905b81548152906001019060200180831162002c5557829003601f168201915b50505091835250506001828101546001600160a01b0390811660208085019190915260028086015490921660408086019190915260038601805482516101009682161596909602600019011693909304601f81018390048302850183019091528084526060909401939083018282801562002d325780601f1062002d065761010080835404028352916020019162002d32565b820191906000526020600020905b81548152906001019060200180831162002d1457829003601f168201915b50505050508152602001600482015481526020016005820154815260200160068201548152602001600782015481526020016008820154815260200160098201548152602001600a8201548152602001600b82015481525050905081602001516001600160a01b031663095ea7b3600160009054906101000a90046001600160a01b0316886040518363ffffffff1660e01b815260040162002dd69291906200467f565b602060405180830381600087803b15801562002df157600080fd5b505af115801562002e06573d6000803e3d6000fd5b505050506040513d601f19601f8201168201806040525062002e2c919081019062003fa6565b50600062002e3b607862003acb565b600154604080850151905163f305d71960e01b8152929350600092839283926001600160a01b039091169163f305d719918e9162002e8791908f908790819033908d90600401620046db565b6060604051808303818588803b15801562002ea157600080fd5b505af115801562002eb6573d6000803e3d6000fd5b50505050506040513d601f19601f8201168201806040525062002edd919081019062004252565b919f909e50909c509a5050505050505050505050565b600062002eff62003adf565b90508034101562002f245760405162461bcd60e51b815260040162000bff90620049c9565b600062002f306200124e565b905062002f3c62003b01565b60038460405162002f4e91906200461d565b9081526040805160209281900383018120805460026001821615610100026000190190911604601f810185900490940282016101a0908101909352610180820184815291939092849291849184018282801562002fef5780601f1062002fc35761010080835404028352916020019162002fef565b820191906000526020600020905b81548152906001019060200180831162002fd157829003601f168201915b50505091835250506001828101546001600160a01b0390811660208085019190915260028086015490921660408086019190915260038601805482516101009682161596909602600019011693909304601f810183900483028501830190915280845260609094019390830182828015620030ae5780601f106200308257610100808354040283529160200191620030ae565b820191906000526020600020905b8154815290600101906020018083116200309057829003601f168201915b50505050508152602001600482015481526020016005820154815260200160068201548152602001600782015481526020016008820154815260200160098201548152602001600a8201548152602001600b820154815250509050818160800151106200312f5760405162461bcd60e51b815260040162000bff9062004939565b818160a0015111620031555760405162461bcd60e51b815260040162000bff90620049b7565b6200315f62003bf8565b6005856040516200317191906200461d565b9081526040805191829003602090810183206060840183525460ff80821615158552610100820481161515928501929092526201000090041615801591830191909152909150620031d65760405162461bcd60e51b815260040162000bff9062004993565b6000600686604051620031ea91906200461d565b9081526040805160209281900383018120805463026b1d5f60e01b835292519094506001600160a01b0390921692839263026b1d5f926004808201939291829003018186803b1580156200323d57600080fd5b505afa15801562003252573d6000803e3d6000fd5b505050506040513d601f19601f8201168201806040525062003278919081019062003f85565b6001600160a01b03166108fc879081150290604051600060405180830381858888f19350505050158015620032b1573d6000803e3d6000fd5b5060018201546040805163026b1d5f60e01b815290516001600160a01b039283169283926323b872dd92339287169163026b1d5f916004808301926020929190829003018186803b1580156200330657600080fd5b505afa1580156200331b573d6000803e3d6000fd5b505050506040513d601f19601f8201168201806040525062003341919081019062003f85565b8861016001516040518463ffffffff1660e01b8152600401620033679392919062004632565b602060405180830381600087803b1580156200338257600080fd5b505af115801562003397573d6000803e3d6000fd5b505050506040513d601f19601f82011682018060405250620033bd919081019062003fa6565b506001604080860191909152518490600590620033dc908b906200461d565b908152604080519182900360209081018320845181549286015195909301511515620100000262ff0000199515156101000261ff001994151560ff1990941693909317939093169190911793909316179091556002840180546001600160a01b031916331790557f44ec18e6fb6c9893aa22a7236add99d912e21075f568b1f65c6b3d7a65e285d89062002a6e908a90620047f5565b805160208183018101805160058252928201919093012091525460ff808216916101008104821691620100009091041683565b8051620034b157600080fd5b620034bb62003b74565b600682604051620034cd91906200461d565b908152604080516020928190038301812060c08201835280546001600160a01b0390811680845260018301548216958401959095526002820154168284015260038101546060830152600480820154608084015260059091015460a08301528251637d8f353160e11b81529251919450839263fb1e6a629281830192600092829003018186803b1580156200356157600080fd5b505afa15801562003576573d6000803e3d6000fd5b505050506040513d6000823e601f3d908101601f19168201604052620035a0919081019062004112565b51620035ab57600080fd5b60408201516001600160a01b0316620035c357600080fd5b60005b600484604051620035d891906200461d565b90815260405190819003602001902054811015620036b45760006004856040516200360491906200461d565b908152602001604051809103902082815481106200361e57fe5b6000918252602090912060049182020180546001820154604051634f95a04b60e01b81529294506001600160a01b0380881694634f95a04b9462003668949092169291016200467f565b600060405180830381600087803b1580156200368357600080fd5b505af115801562003698573d6000803e3d6000fd5b50505050600301805460ff1916600190811790915501620035c6565b50620036bf62003b01565b600384604051620036d191906200461d565b9081526040805160209281900383018120805460026001821615610100026000190190911604601f810185900490940282016101a09081019093526101808201848152919390928492918491840182828015620037725780601f10620037465761010080835404028352916020019162003772565b820191906000526020600020905b8154815290600101906020018083116200375457829003601f168201915b50505091835250506001828101546001600160a01b0390811660208085019190915260028086015490921660408086019190915260038601805482516101009682161596909602600019011693909304601f810183900483028501830190915280845260609094019390830182828015620038315780601f10620038055761010080835404028352916020019162003831565b820191906000526020600020905b8154815290600101906020018083116200381357829003601f168201915b50505050508152602001600482015481526020016005820154815260200160068201548152602001600782015481526020016008820154815260200160098201548152602001600a8201548152602001600b820154815250509050600083602001519050826001600160a01b031663e1f21c6782308561016001516040518463ffffffff1660e01b8152600401620038cc93929190620047c0565b600060405180830381600087803b158015620038e757600080fd5b505af1158015620038fc573d6000803e3d6000fd5b50505050806001600160a01b03166323b872dd846001600160a01b031663026b1d5f6040518163ffffffff1660e01b815260040160206040518083038186803b1580156200394957600080fd5b505afa1580156200395e573d6000803e3d6000fd5b505050506040513d601f19601f8201168201806040525062003984919081019062003f85565b86604001518561016001516040518463ffffffff1660e01b8152600401620039af9392919062004632565b602060405180830381600087803b158015620039ca57600080fd5b505af1158015620039df573d6000803e3d6000fd5b505050506040513d601f19601f8201168201806040525062003a05919081019062003fa6565b505050505050565b8082038281111562000f6f5760405162461bcd60e51b815260040162000bff9062004927565b600080821162003a575760405162461bcd60e51b815260040162000bff9062004981565b81838162003a6157fe5b049392505050565b8082018281101562000f6f5760405162461bcd60e51b815260040162000bff906200495d565b600081158062003aac5750508082028282828162003aa957fe5b04145b62000f6f5760405162461bcd60e51b815260040162000bff906200494b565b60008162003ad86200124e565b0192915050565b60006002546000141562003afa5767016345785d8a00006002555b5060025490565b6040518061018001604052806060815260200160006001600160a01b0316815260200160006001600160a01b031681526020016060815260200160008152602001600081526020016000815260200160008152602001600081526020016000815260200160008152602001600081525090565b6040518060c0016040528060006001600160a01b0316815260200160006001600160a01b0316815260200160006001600160a01b031681526020016000815260200160008152602001600081525090565b604051806080016040528060006001600160a01b0316815260200160008152602001600081526020016000151581525090565b604080516060810182526000808252602082018190529181019190915290565b828054600181600116156101000203166002900490600052602060002090601f016020900481019282601f1062003c5b57805160ff191683800117855562003c8b565b8280016001018555821562003c8b579182015b8281111562003c8b57825182559160200191906001019062003c6e565b5062003c9992915062003cab565b5090565b610c568062004b8383390190565b6200125091905b8082111562003c99576000815560010162003cb2565b803562000f6f8162004b52565b805162000f6f8162004b52565b805162000f6f8162004b6c565b60008083601f84011262003d0257600080fd5b50813567ffffffffffffffff81111562003d1b57600080fd5b602083019150836001820283011115620004b957600080fd5b600082601f83011262003d4657600080fd5b813562003d5d62003d578262004a8e565b62004a66565b9150808252602083016020830185838301111562003d7a57600080fd5b62003d8783828462004b09565b50505092915050565b600082601f83011262003da257600080fd5b815162003db362003d578262004a8e565b9150808252602083016020830185838301111562003dd057600080fd5b62003d8783828462004b15565b6000610180828403121562003df157600080fd5b62003dfe61018062004a66565b9050813567ffffffffffffffff81111562003e1857600080fd5b62003e268482850162003d34565b825250602062003e398484830162003cc8565b602083015250604062003e4f8482850162003cc8565b604083015250606082013567ffffffffffffffff81111562003e7057600080fd5b62003e7e8482850162003d34565b606083015250608062003e948482850162003f42565b60808301525060a062003eaa8482850162003f42565b60a08301525060c062003ec08482850162003f42565b60c08301525060e062003ed68482850162003f42565b60e08301525061010062003eed8482850162003f42565b6101008301525061012062003f058482850162003f42565b6101208301525061014062003f1d8482850162003f42565b6101408301525061016062003f358482850162003f42565b6101608301525092915050565b803562000f6f8162004b77565b805162000f6f8162004b77565b60006020828403121562003f6f57600080fd5b600062003f7d848462003cc8565b949350505050565b60006020828403121562003f9857600080fd5b600062003f7d848462003cd5565b60006020828403121562003fb957600080fd5b600062003f7d848462003ce2565b6000806020838503121562003fdb57600080fd5b823567ffffffffffffffff81111562003ff357600080fd5b620040018582860162003cef565b92509250509250929050565b6000806000604084860312156200402357600080fd5b833567ffffffffffffffff8111156200403b57600080fd5b620040498682870162003cef565b935093505060206200405e8682870162003f42565b9150509250925092565b600080600080606085870312156200407f57600080fd5b843567ffffffffffffffff8111156200409757600080fd5b620040a58782880162003cef565b94509450506020620040ba8782880162003f42565b9250506040620040cd8782880162003f42565b91505092959194509250565b600060208284031215620040ec57600080fd5b813567ffffffffffffffff8111156200410457600080fd5b62003f7d8482850162003d34565b6000602082840312156200412557600080fd5b815167ffffffffffffffff8111156200413d57600080fd5b62003f7d8482850162003d90565b600080604083850312156200415f57600080fd5b823567ffffffffffffffff8111156200417757600080fd5b620041858582860162003d34565b9250506020620041988582860162003f42565b9150509250929050565b600060208284031215620041b557600080fd5b813567ffffffffffffffff811115620041cd57600080fd5b62003f7d8482850162003ddd565b600060208284031215620041ee57600080fd5b600062003f7d848462003f42565b6000602082840312156200420f57600080fd5b600062003f7d848462003f4f565b600080604083850312156200423157600080fd5b60006200423f858562003f4f565b9250506020620041988582860162003f4f565b6000806000606084860312156200426857600080fd5b600062004276868662003f4f565b9350506020620042898682870162003f4f565b92505060406200405e8682870162003f4f565b620042a78162004ae7565b82525050565b620042a78162004ac9565b620042a78162004ad6565b620042a78162004aef565b620042a78162004afc565b6000620042e7838562004abb565b9350620042f683858462004b09565b620043018362004b48565b9093019392505050565b600062004319838562004ac4565b93506200432883858462004b09565b50500190565b60006200433b8262004ab7565b62004347818562004abb565b93506200435981856020860162004b15565b620043018162004b48565b6000620043718262004ab7565b6200437d818562004ac4565b93506200438f81856020860162004b15565b9290920192915050565b6000620043a860158362004abb565b7464732d6d6174682d7375622d756e646572666c6f7760581b815260200192915050565b6000620043db60378362004abb565b7f6e6f77206d7573742067726561746572207468616e2074686520646973636f2081527f66756e642072616973696e672073746172742074696d65000000000000000000602082015260400192915050565b60006200443c60148362004abb565b7364732d6d6174682d6d756c2d6f766572666c6f7760601b815260200192915050565b60006200446e60148362004abb565b7364732d6d6174682d6164642d6f766572666c6f7760601b815260200192915050565b6000620044a060148362004abb565b7343616c6c6572206973206e6f74206f776e65722160601b815260200192915050565b6000620044d2601a8362004abb565b7f536166654d6174683a206469766973696f6e206279207a65726f000000000000815260200192915050565b60006200450d60238362004abb565b7f74686520646973636f206d75737420686173206e6f74206265656e20737461728152621d195960ea1b602082015260400192915050565b60006200455460188362004abb565b7f556e6973776170206e6f7420696e697469616c697a65642e0000000000000000815260200192915050565b60006200458f60328362004abb565b7f6e6f77206d757374206c657373207468616e2074686520646973636f2066756e815271642072616973696e6720656e642074696d6560701b602082015260400192915050565b6000620045e5600f8362004abb565b6e666565206e6f7420656e6f7567682160881b815260200192915050565b620042a78162001250565b600062003f7d8284866200430b565b60006200462b828462004364565b9392505050565b606081016200464282866200429c565b6200465160208301856200429c565b62003f7d604083018462004603565b606081016200467082866200429c565b620046516020830185620042ad565b604081016200468f8285620042ad565b6200462b602083018462004603565b60808101620046ae8287620042ad565b620046bd602083018662004603565b620046cc604083018562004603565b620021e96060830184620042b8565b60c08101620046eb8289620042ad565b620046fa602083018862004603565b620047096040830187620042ce565b620047186060830186620042ce565b6200472760808301856200429c565b62000bc760a083018462004603565b60608101620047468286620042b8565b620047556020830185620042b8565b62003f7d6040830184620042b8565b60c08101620047748289620042c3565b620047836020830188620042c3565b620047926040830187620042ad565b620047a1606083018662004603565b62004727608083018562004603565b6020810162000f6f8284620042c3565b60608101620046708286620042c3565b60408082528101620047e4818587620042d9565b905062003f7d6020830184620042b8565b602080825281016200462b81846200432e565b606080825281016200481b81866200432e565b9050620046516020830185620042ad565b610180808252810162004840818f6200432e565b905062004851602083018e620042ad565b62004860604083018d620042ad565b818103606083015262004874818c6200432e565b905062004885608083018b62004603565b6200489460a083018a62004603565b620048a360c083018962004603565b620048b260e083018862004603565b620048c261010083018762004603565b620048d261012083018662004603565b620048e261014083018562004603565b620048f261016083018462004603565b9d9c50505050505050505050505050565b604080825281016200491681856200432e565b90506200462b6020830184620042c3565b6020808252810162000f6f8162004399565b6020808252810162000f6f81620043cc565b6020808252810162000f6f816200442d565b6020808252810162000f6f816200445f565b6020808252810162000f6f8162004491565b6020808252810162000f6f81620044c3565b6020808252810162000f6f81620044fe565b6020808252810162000f6f8162004545565b6020808252810162000f6f8162004580565b6020808252810162000f6f81620045d6565b6020810162000f6f828462004603565b60a08101620049fb828862004603565b62004a0a6020830187620042ce565b62004a196040830186620042ce565b62004a2860608301856200429c565b62001c08608083018462004603565b604081016200468f828562004603565b6060810162004a57828662004603565b62004651602083018562004603565b60405181810167ffffffffffffffff8111828210171562004a8657600080fd5b604052919050565b600067ffffffffffffffff82111562004aa657600080fd5b506020601f91909101601f19160190565b5190565b90815260200190565b919050565b600062000f6f8262004adb565b151590565b6001600160a01b031690565b600062000f6f825b600062000f6f8262004ac9565b600062000f6f8262001250565b82818337506000910152565b60005b8381101562004b3257818101518382015260200162004b18565b8381111562004b42576000848401525b50505050565b601f01601f191690565b62004b5d8162004ac9565b811462004b6957600080fd5b50565b62004b5d8162004ad6565b62004b5d816200125056fe60806040523480156200001157600080fd5b5060405162000c5638038062000c5683398101604081905262000034916200016b565b805181906200004b9060009060208401906200006a565b50508051620000629060019060208401906200006a565b50506200022d565b828054600181600116156101000203166002900490600052602060002090601f016020900481019282601f10620000ad57805160ff1916838001178555620000dd565b82800160010185558215620000dd579182015b82811115620000dd578251825591602001919060010190620000c0565b50620000eb929150620000ef565b5090565b6200010c91905b80821115620000eb5760008155600101620000f6565b90565b600082601f8301126200012157600080fd5b8151620001386200013282620001d2565b620001ab565b915080825260208301602083018583830111156200015557600080fd5b62000162838284620001fa565b50505092915050565b6000602082840312156200017e57600080fd5b81516001600160401b038111156200019557600080fd5b620001a3848285016200010f565b949350505050565b6040518181016001600160401b0381118282101715620001ca57600080fd5b604052919050565b60006001600160401b03821115620001e957600080fd5b506020601f91909101601f19160190565b60005b8381101562000217578181015183820152602001620001fd565b8381111562000227576000848401525b50505050565b610a19806200023d6000396000f3fe6080604052600436106100c25760003560e01c8063acb3c0731161007f578063beabacc811610059578063beabacc8146101c8578063e1f21c67146101e8578063eedc966a14610208578063fb1e6a6214610228576100c2565b8063acb3c07314610164578063af640d0f14610184578063bb8a88bb146101a6576100c2565b8063026b1d5f146100c4578063144fa6d7146100ef57806323b872dd1461010f57806338cc4831146100c45780634e6630b01461012f5780634f95a04b14610151575b005b3480156100d057600080fd5b506100d961023d565b6040516100e6919061083c565b60405180910390f35b3480156100fb57600080fd5b506100c261010a366004610694565b610241565b34801561011b57600080fd5b506100c261012a3660046106b2565b610263565b34801561013b57600080fd5b506101446102f3565b6040516100e691906108ff565b6100c261015f366004610634565b6102f7565b34801561017057600080fd5b506100c261017f366004610694565b61032d565b34801561019057600080fd5b5061019961034f565b6040516100e691906108ee565b6101b96101b4366004610760565b6103dc565b6040516100e69392919061090d565b3480156101d457600080fd5b506100c26101e33660046106b2565b610487565b3480156101f457600080fd5b506100c26102033660046106b2565b6104b5565b34801561021457600080fd5b50610144610223366004610694565b6104e3565b34801561023457600080fd5b50610199610568565b3090565b600380546001600160a01b0319166001600160a01b0392909216919091179055565b6040516323b872dd60e01b81526001600160a01b038416906323b872dd906102939030908690869060040161084a565b602060405180830381600087803b1580156102ad57600080fd5b505af11580156102c1573d6000803e3d6000fd5b505050506040513d601f19601f820116820180604052506102e5919081019061066e565b6102ee57600080fd5b505050565b4790565b6040516001600160a01b0383169082156108fc029083906000818181858888f193505050501580156102ee573d6000803e3d6000fd5b600280546001600160a01b0319166001600160a01b0392909216919091179055565b60018054604080516020600284861615610100026000190190941693909304601f810184900484028201840190925281815292918301828280156103d45780601f106103a9576101008083540402835291602001916103d4565b820191906000526020600020905b8154815290600101906020018083116103b757829003601f168201915b505050505081565b60025460035460405163f305d71960e01b8152600092839283926001600160a01b039283169263f305d71992349261042492909116908d908d908d908d908d90600401610894565b6060604051808303818588803b15801561043d57600080fd5b505af1158015610451573d6000803e3d6000fd5b50505050506040513d601f19601f82011682018060405250610476919081019061071d565b925092509250955095509592505050565b60405163a9059cbb60e01b81526001600160a01b0384169063a9059cbb906102939085908590600401610872565b60405163095ea7b360e01b81526001600160a01b0384169063095ea7b3906102939085908590600401610872565b6040516370a0823160e01b81526000906001600160a01b038316906370a082319061051290309060040161082e565b60206040518083038186803b15801561052a57600080fd5b505afa15801561053e573d6000803e3d6000fd5b505050506040513d601f19601f8201168201806040525061056291908101906106ff565b92915050565b60018054604080516020601f600260001961010087891615020190951694909404938401819004810282018101909252828152606093909290918301828280156105f35780601f106105c8576101008083540402835291602001916105f3565b820191906000526020600020905b8154815290600101906020018083116105d657829003601f168201915b5050505050905090565b8035610562816109a4565b8051610562816109bb565b8035610562816109c4565b8035610562816109cd565b8051610562816109cd565b6000806040838503121561064757600080fd5b600061065385856105fd565b92505060206106648582860161061e565b9150509250929050565b60006020828403121561068057600080fd5b600061068c8484610608565b949350505050565b6000602082840312156106a657600080fd5b600061068c8484610613565b6000806000606084860312156106c757600080fd5b60006106d38686610613565b93505060206106e4868287016105fd565b92505060406106f58682870161061e565b9150509250925092565b60006020828403121561071157600080fd5b600061068c8484610629565b60008060006060848603121561073257600080fd5b600061073e8686610629565b935050602061074f86828701610629565b92505060406106f586828701610629565b600080600080600060a0868803121561077857600080fd5b6000610784888861061e565b95505060206107958882890161061e565b94505060406107a68882890161061e565b93505060606107b7888289016105fd565b92505060806107c88882890161061e565b9150509295509295909350565b6107de8161095f565b82525050565b6107de81610935565b60006107f882610928565b610802818561092c565b935061081281856020860161096a565b61081b8161099a565b9093019392505050565b6107de8161095c565b6020810161056282846107d5565b6020810161056282846107e4565b6060810161085882866107d5565b61086560208301856107e4565b61068c6040830184610825565b6040810161088082856107e4565b61088d6020830184610825565b9392505050565b60c081016108a282896107e4565b6108af6020830188610825565b6108bc6040830187610825565b6108c96060830186610825565b6108d660808301856107e4565b6108e360a0830184610825565b979650505050505050565b6020808252810161088d81846107ed565b602081016105628284610825565b6060810161091b8286610825565b6108656020830185610825565b5190565b90815260200190565b600061056282610950565b151590565b600061056282610935565b6001600160a01b031690565b90565b600061056282610945565b60005b8381101561098557818101518382015260200161096d565b83811115610994576000848401525b50505050565b601f01601f191690565b6109ad81610935565b81146109b857600080fd5b50565b6109ad81610940565b6109ad81610945565b6109ad8161095c56fea365627a7a723158207b071f2d10c708d39815a2b2559495b4cbe50beeb28f275413d24cabf975c4456c6578706572696d656e74616cf564736f6c63430005100040a365627a7a723158206f618595dfa95bdb97bb721ab8d42bafcebfc0c18c4ac25cf7df4f2717a044716c6578706572696d656e74616cf564736f6c63430005100040",
  "source": "// Disco \r\npragma solidity >=0.4.21 <0.7.0;\r\n\r\nimport \"./libraries/SafeMath.sol\";\r\nimport \"./interfaces/IUniswapV2Router01.sol\";\r\nimport \"./interfaces/IErc20.sol\";\r\nimport \"./common/FundPool.sol\";\r\npragma experimental ABIEncoderV2;\r\n\r\ncontract Disco {\r\n    address private _owner;\r\n    using SafeMath for uint256;\r\n    IUniswapV2Router01 uniswap;\r\n    uint256 preFee;\r\n\r\n    // disco\r\n    struct DiscoInfo {\r\n        string id;\r\n        address payable walletAddr;\r\n        address tokenAddr;\r\n        string description;\r\n        uint256 fundRaisingStartedAt;\r\n        uint256 fundRaisingEndedAt;\r\n        uint256 investmentReward;\r\n        uint256 rewardDeclineRate;\r\n        uint256 shareToken;\r\n        uint256 minFundRaising;\r\n        uint256 addLiquidityPool;\r\n        uint256 totalDepositToken;\r\n    }\r\n\r\n    // disco \r\n    struct DiscoInvestor {\r\n        // \r\n        address payable investor;\r\n        // , \r\n        uint256 value;\r\n        // \r\n        uint256 time;\r\n        // dead\r\n        bool isDead;\r\n        // // TOKEN\r\n        // uint256 sharedToken;\r\n        // // TOKEN\r\n        // uint256 rewardedToken;\r\n    }\r\n\r\n    // disco\r\n    struct DiscoStatus {\r\n        // \r\n        bool isFinished;\r\n        // \r\n        bool isSuccess;\r\n        // \r\n        bool isEnabled;\r\n    }\r\n\r\n    struct DiscoInvestAddr {\r\n        // deposit pool.\r\n        DiscoAddr discoAddr;\r\n        //issue coin\r\n        IERC20 token;\r\n        //record deposit account when use to refund.\r\n        address payable depositAccount;\r\n        //\r\n        uint256 initLiquidity;\r\n        //reserve eth\r\n        uint256 swapEth;\r\n        //reserve token\r\n        uint256 swapToken;\r\n    }\r\n\r\n    //Raise status: start->all begin(init), end->all end(finally).\r\n    enum RaiseStatus{Start, Raising, Succeed, Failed, End}\r\n\r\n    // disco\r\n    mapping(string => DiscoInfo) public discos;\r\n    // \r\n    mapping(string => DiscoInvestor[]) public investors;\r\n    // \r\n    mapping(string => DiscoStatus) public status;\r\n    //  disco \r\n    mapping(string => DiscoInvestAddr) public discoAddress;\r\n\r\n    // \r\n    event createdDisco(string discoId, DiscoAddr addr);\r\n    // \r\n    // event enabledDisco(string discoId, address discoAddr);\r\n    event enabledDisco(string discoId);\r\n    // \r\n    event fundraisingSucceed(string discoId);\r\n    //\r\n    event fundraisingFinished(string discoIdo, bool success);\r\n    // \r\n    event fundraisingFailed(string discoId);\r\n    //  disco \r\n    event investToDisco(string discoId, address investorAddr, uint256 amount);\r\n\r\n    // \r\n    modifier isOwner() {\r\n        require(msg.sender == _owner, \"Caller is not owner!\");\r\n        _;\r\n    }\r\n\r\n    modifier canInvest(string memory id) {\r\n        uint256 checkPoint = getDate();\r\n        DiscoStatus memory discoStatus = status[id];\r\n        DiscoInfo memory discoInfo = discos[id];\r\n        require(discoStatus.isEnabled && !discoStatus.isFinished);\r\n        require(discoInfo.fundRaisingStartedAt < checkPoint, 'now must greater than the disco fund raising start time');\r\n        require(discoInfo.fundRaisingEndedAt > checkPoint, 'now must less than the disco fund raising end time');\r\n        _;\r\n    }\r\n\r\n    constructor()\r\n    public {\r\n        _owner = msg.sender;\r\n    }\r\n\r\n    function setSwap(address swapAddr)\r\n    isOwner\r\n    public {\r\n        uniswap = IUniswapV2Router01(swapAddr);\r\n    }\r\n\r\n    function setPreFee(uint256 pf)\r\n    isOwner\r\n    public {\r\n        preFee = pf;\r\n    }\r\n\r\n    function getPreFee() internal\r\n    returns (uint256){\r\n        if (preFee == 0) {\r\n            preFee = 0.1 * 10 ** 18;\r\n        }\r\n        return preFee;\r\n    }\r\n\r\n    //  \r\n    function getDate() public view returns (uint256){\r\n        return now;\r\n    }\r\n\r\n    // Disco\r\n    /**\r\n    * @param d  tuple forward.\r\n    **/\r\n    function newDisco(DiscoInfo memory d) public payable {\r\n        require(bytes(d.id).length != 0);\r\n        DiscoStatus memory s = DiscoStatus(\r\n            false,\r\n            false,\r\n            false\r\n        );\r\n        discos[d.id] = d;\r\n        status[d.id] = s;\r\n        // , discoAddr DiscoAddr  \r\n        DiscoAddr addr = new DiscoAddr(d.id);\r\n        IERC20 token = IERC20(d.tokenAddr);\r\n        addr.setToken(token);\r\n        addr.setSwap(uniswap);\r\n\r\n        // disco id  disco \r\n        DiscoInvestAddr memory discoInvestAddr = DiscoInvestAddr(addr, token, address(0), 0, 0, 0);\r\n        discoAddress[d.id] = discoInvestAddr;\r\n        // disco \r\n        emit createdDisco(d.id, addr);\r\n    }\r\n\r\n\r\n    /**\r\n     * @dev disco\r\n     */\r\n    function enableDisco(string memory id) public payable {\r\n        // require(address(uniswap) != address(0), 'need init uniswap');\r\n        uint256 fee = getPreFee();\r\n        require(msg.value >= fee, \"fee not enough!\");\r\n        uint256 checkPoint = getDate();\r\n        DiscoInfo memory disco = discos[id];\r\n        require(disco.fundRaisingStartedAt < checkPoint, 'now must greater than the disco fund raising start time');\r\n        require(disco.fundRaisingEndedAt > checkPoint, 'now must less than the disco fund raising end time');\r\n        DiscoStatus memory discoStatus = status[id];\r\n        require(!discoStatus.isEnabled, 'the disco must has not been started');\r\n\r\n        DiscoInvestAddr storage investAddr = discoAddress[id];\r\n        DiscoAddr discoAddr = investAddr.discoAddr;\r\n        discoAddr.getPool().transfer(fee);\r\n\r\n        IERC20 token = investAddr.token;\r\n        token.transferFrom(msg.sender, discoAddr.getPool(), disco.totalDepositToken);\r\n        discoStatus.isEnabled = true;\r\n        status[id] = discoStatus;\r\n        investAddr.depositAccount = msg.sender;\r\n\r\n        // \r\n        emit enabledDisco(id);\r\n    }\r\n\r\n    function getDeadline(uint256 pendingSecs) internal view returns (uint256){\r\n        return getDate() + pendingSecs;\r\n    }\r\n\r\n    function discoToken(string calldata id) external view returns (IERC20){\r\n        DiscoInvestAddr memory investAddr = discoAddress[id];\r\n        return investAddr.token;\r\n    }\r\n\r\n    function poolEthBalance(string calldata id) external view isOwner returns (uint256) {\r\n        DiscoInvestAddr memory investAddr = discoAddress[id];\r\n        DiscoAddr discoAddr = investAddr.discoAddr;\r\n        return discoAddr.ethBalance();\r\n    }\r\n\r\n\r\n    function poolTokenBalance(string calldata id) external view isOwner returns (uint256){\r\n        DiscoInvestAddr memory investAddr = discoAddress[id];\r\n        DiscoAddr discoAddr = investAddr.discoAddr;\r\n        IERC20 token = investAddr.token;\r\n        return discoAddr.tokenBalance(token);\r\n    }\r\n\r\n    /**\r\n    * @dev  disco disco\r\n    */\r\n    function finishedDisco(string calldata id) external {\r\n        DiscoStatus storage discoStatus = status[id];\r\n        require(!discoStatus.isFinished && discoStatus.isEnabled);\r\n        discoStatus.isFinished = true;\r\n        (,uint256 investAmt) = getInvestAmt(id);\r\n        DiscoInfo memory info = discos[id];\r\n        //if minFundRaising is a bottom of pool.\r\n        discoStatus.isSuccess = investAmt >= info.minFundRaising;\r\n        status[id] = discoStatus;\r\n        if (discoStatus.isSuccess) {\r\n            assign(id, investAmt);\r\n        } else {\r\n            refund(id);\r\n        }\r\n        emit fundraisingFinished(id, discoStatus.isSuccess);\r\n    }\r\n\r\n    function getInvestAmt(string memory id) public view returns (uint256, uint256){\r\n        uint256 investAmt = 0;\r\n        uint256 invCount = 0;\r\n        for (uint256 i = 0; i < investors[id].length; i++) {\r\n            DiscoInvestor memory investor = investors[id][i];\r\n            if (!investor.isDead) {\r\n                investAmt += investor.value;\r\n                invCount++;\r\n            }\r\n        }\r\n        return (invCount, investAmt);\r\n    }\r\n\r\n\r\n    function assign(string memory id, uint256 investAmt) public payable returns (uint256, uint256)  {\r\n        //uniswap add liquidity.\r\n        assignLiquidity(id);\r\n        //assign ether\r\n        uint256 platFee = assignEth(id, investAmt);\r\n        //assign token\r\n        uint256 refundToken = assignToken(id);\r\n        return (platFee, refundToken);\r\n    }\r\n\r\n\r\n    function assignEth(string memory id, uint256 investAmt) public payable returns (uint256)  {\r\n        DiscoInfo memory disco = discos[id];\r\n        DiscoInvestAddr memory investAddr = discoAddress[id];\r\n        DiscoAddr discoAddr = investAddr.discoAddr;\r\n        // 2% platFee\r\n        uint256 platFee = investAmt.mul(2).div(100);\r\n        //no chance to send another one except msg.sender. if need, use weth with uniswap.\r\n        if (platFee > 0) {\r\n            //the account for receiving platFee has not been confirmed.\r\n            discoAddr.ethTransfer(address(0), platFee);\r\n            investAmt -= platFee;\r\n        }\r\n        //remainAmt to wallet\r\n        uint256 withdrawEth = investAmt - platFee - investAddr.swapEth;\r\n        discoAddr.ethTransfer(disco.walletAddr, withdrawEth);\r\n        return platFee;\r\n    }\r\n\r\n    function assignToken(string memory id) public payable returns (uint256) {\r\n        DiscoInfo memory disco = discos[id];\r\n        DiscoInvestAddr memory investAddr = discoAddress[id];\r\n        DiscoInvestor[] memory assignInvestors = investors[id];\r\n        IERC20 token = investAddr.token;\r\n        uint256 payToken = 0;\r\n        for (uint256 i = 0; i < assignInvestors.length; i++) {\r\n            DiscoInvestor memory investor = assignInvestors[i];\r\n            if (investor.isDead) {\r\n                continue;\r\n            }\r\n            uint256 diff = investor.time.sub(disco.fundRaisingStartedAt).div(60 * 60 * 24);\r\n            uint256 declineDiff = disco.rewardDeclineRate.sub(diff);\r\n            if (declineDiff <= 0) {\r\n                declineDiff = 0;\r\n            }\r\n\r\n            //get the Liquidity - Uniswap when deposit to exchange factory.\r\n            uint256 tokenAmt = investor.value.mul(investAddr.initLiquidity).mul(declineDiff.add(1)).div(100);\r\n            investAddr.discoAddr.approve(token, address(this), tokenAmt);\r\n            token.transferFrom(investAddr.discoAddr.getPool(), investor.investor, tokenAmt);\r\n            payToken = payToken.add(tokenAmt);\r\n        }\r\n\r\n        //return the money to the original path(depositAccount).\r\n        uint256 refundToken = disco.totalDepositToken - payToken;\r\n        if (refundToken > 0) {\r\n            investAddr.discoAddr.approve(token, address(this), refundToken);\r\n            token.transferFrom(investAddr.discoAddr.getPool(), investAddr.depositAccount, refundToken);\r\n        }\r\n        return refundToken;\r\n    }\r\n\r\n    function assignLiquidity(string memory id) public payable {\r\n        DiscoInfo memory disco = discos[id];\r\n        DiscoInvestAddr memory investAddr = discoAddress[id];\r\n        DiscoAddr discoAddr = investAddr.discoAddr;\r\n        uint256 deadline = getDeadline(60);\r\n        (,uint256 investAmt) = getInvestAmt(id);\r\n\r\n        //approve token transfer\r\n        discoAddr.approve(investAddr.token, address(uniswap), disco.shareToken);\r\n\r\n        //eth transfer\r\n        uint256 desiredEth = investAmt.mul(disco.addLiquidityPool).div(100);\r\n        discoAddr.ethTransfer(address(uint160(address(uniswap))), desiredEth);\r\n\r\n        (uint256 amountToken, uint256 amountETH, uint256 liquidity) = discoAddr.addLiquidityETH.value(desiredEth)(disco.shareToken, 0, 0, address(investAddr.discoAddr), deadline);\r\n        investAddr.initLiquidity = liquidity;\r\n        investAddr.swapToken = amountToken;\r\n        investAddr.swapEth = amountETH;\r\n        discoAddress[id] = investAddr;\r\n    }\r\n\r\n    function addLiquidity(string calldata id, uint256 eth, uint256 token)\r\n    external payable returns (uint256, uint256, uint256)  {\r\n        require(address(uniswap) != address(0), 'Uniswap not initialized.');\r\n        DiscoInvestAddr memory investAddr = discoAddress[id];\r\n        require(investAddr.token.transferFrom(msg.sender, address(this), token));\r\n        DiscoInfo memory disco = discos[id];\r\n        investAddr.token.approve(address(uniswap), token);\r\n        uint256 deadline = getDeadline(120);\r\n        (uint256 amountToken, uint256 amountETH, uint256 liquidity) = uniswap.addLiquidityETH.value(eth)(disco.tokenAddr, token, 0, 0, msg.sender, deadline);\r\n        return (amountToken, amountETH, liquidity);\r\n    }\r\n\r\n    function removeLiquidity(string calldata id, uint256 token)\r\n    external payable returns (uint256, uint256)  {\r\n        require(address(uniswap) != address(0), 'Uniswap not initialized.');\r\n        DiscoInvestAddr memory investAddr = discoAddress[id];\r\n        investAddr.token.approve(address(uniswap), token);\r\n        DiscoInfo memory disco = discos[id];\r\n        uint256 deadline = getDeadline(120);\r\n        (uint256 amountToken, uint256 amountETH) = uniswap.removeLiquidityETH(disco.tokenAddr, token, 0, 0, msg.sender, deadline);\r\n        return (amountToken, amountETH);\r\n    }\r\n\r\n    /**\r\n     * refund-anti-pattern \r\n     */\r\n    function refund(string memory id) public payable {\r\n        require(bytes(id).length != 0);\r\n        DiscoInvestAddr memory investAddr = discoAddress[id];\r\n        DiscoAddr discoAddr = investAddr.discoAddr;\r\n        require(bytes(discoAddr.getDiscoId()).length != 0);\r\n        require(investAddr.depositAccount != address(0));\r\n        // solidity > 0.6 address payable pool = payable(address(discoAddr)) ;\r\n        // as follow is 0.5.x\r\n        // refund ether\r\n        for (uint256 i = 0; i < investors[id].length; i++) {\r\n            DiscoInvestor storage investor = investors[id][i];\r\n            discoAddr.ethTransfer(investor.investor, investor.value);\r\n            investor.isDead = true;\r\n        }\r\n\r\n        //refund token\r\n        DiscoInfo memory info = discos[id];\r\n        IERC20 token = investAddr.token;\r\n        discoAddr.approve(token, address(this), info.totalDepositToken);\r\n        token.transferFrom(discoAddr.getPool(), investAddr.depositAccount, info.totalDepositToken);\r\n    }\r\n\r\n    // ,  \r\n    function investor(string memory id, uint256 time) public payable canInvest(id) {\r\n        DiscoInvestor memory d = DiscoInvestor(\r\n            msg.sender,\r\n            msg.value,\r\n            time,\r\n            false\r\n        );\r\n        DiscoAddr discoAddr = discoAddress[id].discoAddr;\r\n        // solidity > 0.6 address payable pool = payable(address(discoAddr)) ;\r\n        // as follow is 0.5.x\r\n        discoAddr.getPool().transfer(msg.value);\r\n        investors[id].push(d);\r\n        emit investToDisco(id, _owner, msg.value);\r\n    }\r\n}\r\n\r\n// \r\n//Fund-Raising Contract\r\ncontract DiscoAddr is FundPool {\r\n\r\n    string public id;\r\n\r\n    IUniswapV2Router01 poolUniswap;\r\n\r\n    IERC20 poolToken;\r\n\r\n    // suppose the deployed contract has a purpose\r\n\r\n    //0.6.x\r\n    //receive() external payable {}\r\n    function() external payable {}\r\n\r\n    constructor(string memory discoId) FundPool(discoId) public {\r\n        id = discoId;\r\n    }\r\n\r\n    function getDiscoId() public view returns (string memory) {\r\n        return id;\r\n    }\r\n\r\n    function ethTransfer(address payable to, uint256 amount) external payable {\r\n        to.transfer(amount);\r\n    }\r\n\r\n    function approve(IERC20 token, address to, uint256 amount) external {\r\n        require(token.approve(to, amount));\r\n    }\r\n\r\n    function transferFrom(IERC20 token, address to, uint256 amount) external {\r\n        require(token.transferFrom(address(this), to, amount));\r\n    }\r\n\r\n    function transfer(IERC20 token, address to, uint256 amount) external {\r\n        require(token.transfer(to, amount));\r\n    }\r\n\r\n    function ethBalance() external view returns (uint256) {\r\n        return address(this).balance;\r\n    }\r\n\r\n    function tokenBalance(IERC20 token) external view returns (uint256) {\r\n        return token.balanceOf(address(this));\r\n    }\r\n\r\n    function getPool() public view returns (address payable) {\r\n        return address(uint160(address(this)));\r\n    }\r\n\r\n    function setSwap(IUniswapV2Router01 pu) public {\r\n        poolUniswap = pu;\r\n    }\r\n\r\n    function setToken(IERC20 pt) public {\r\n        poolToken = pt;\r\n    }\r\n\r\n    function addLiquidityETH(\r\n        uint256 amountTokenDesired,\r\n        uint256 amountTokenMin,\r\n        uint256 amountETHMin,\r\n        address to,\r\n        uint256 deadline\r\n    )\r\n    external payable returns (\r\n        uint256 amountToken,\r\n        uint256 amountETH,\r\n        uint256 liquidity\r\n    ) {\r\n        return poolUniswap.addLiquidityETH.value(msg.value)(address(poolToken), amountTokenDesired, amountTokenMin, amountETHMin, to, deadline);\r\n    }\r\n}\r\n",
  "sourcePath": "D:/comunion/cos-contract-com/contracts/Disco.sol",
  "compiler": {
    "name": "solc",
    "version": "0.5.16+commit.9c3226ce.Emscripten.clang"
  },
  "schemaVersion": "3.3.4",
  "updatedAt": "2021-05-26T14:52:13.898Z",
  "networkType": "ethereum",
  "devdoc": {
    "methods": {
      "enableDisco(string)": {
        "details": "disco"
      },
      "finishedDisco(string)": {
        "details": " disco disco"
      },
      "newDisco((string,address,address,string,uint256,uint256,uint256,uint256,uint256,uint256,uint256,uint256))": {
        "params": {
          "d": "tuple forward.*"
        }
      }
    }
  },
  "userdoc": {
    "methods": {
      "refund(string)": {
        "notice": "refund-anti-pattern "
      }
    }
  }
}