{
  "contractName": "FundPool",
  "abi": [
    {
      "inputs": [
        {
          "internalType": "string",
          "name": "id",
          "type": "string"
        }
      ],
      "payable": false,
      "stateMutability": "nonpayable",
      "type": "constructor"
    },
    {
      "payable": true,
      "stateMutability": "payable",
      "type": "fallback"
    },
    {
      "constant": true,
      "inputs": [],
      "name": "getDiscoId",
      "outputs": [
        {
          "internalType": "string",
          "name": "",
          "type": "string"
        }
      ],
      "payable": false,
      "stateMutability": "view",
      "type": "function"
    },
    {
      "constant": false,
      "inputs": [
        {
          "internalType": "address payable",
          "name": "to",
          "type": "address"
        },
        {
          "internalType": "uint256",
          "name": "amount",
          "type": "uint256"
        }
      ],
      "name": "ethTransfer",
      "outputs": [],
      "payable": true,
      "stateMutability": "payable",
      "type": "function"
    },
    {
      "constant": false,
      "inputs": [
        {
          "internalType": "contract IERC20",
          "name": "token",
          "type": "address"
        },
        {
          "internalType": "address",
          "name": "to",
          "type": "address"
        },
        {
          "internalType": "uint256",
          "name": "amount",
          "type": "uint256"
        }
      ],
      "name": "approve",
      "outputs": [],
      "payable": false,
      "stateMutability": "nonpayable",
      "type": "function"
    },
    {
      "constant": false,
      "inputs": [
        {
          "internalType": "contract IERC20",
          "name": "token",
          "type": "address"
        },
        {
          "internalType": "address",
          "name": "to",
          "type": "address"
        },
        {
          "internalType": "uint256",
          "name": "amount",
          "type": "uint256"
        }
      ],
      "name": "transfer",
      "outputs": [],
      "payable": false,
      "stateMutability": "nonpayable",
      "type": "function"
    },
    {
      "constant": true,
      "inputs": [],
      "name": "getAddress",
      "outputs": [
        {
          "internalType": "address payable",
          "name": "",
          "type": "address"
        }
      ],
      "payable": false,
      "stateMutability": "view",
      "type": "function"
    }
  ],
  "bytecode": "0x608060405234801561001057600080fd5b506040516106ce3803806106ce83398101604081905261002f91610138565b8051610042906000906020840190610049565b50506101f1565b828054600181600116156101000203166002900490600052602060002090601f016020900481019282601f1061008a57805160ff19168380011785556100b7565b828001600101855582156100b7579182015b828111156100b757825182559160200191906001019061009c565b506100c39291506100c7565b5090565b6100e191905b808211156100c357600081556001016100cd565b90565b600082601f8301126100f557600080fd5b81516101086101038261019a565b610174565b9150808252602083016020830185838301111561012457600080fd5b61012f8382846101c1565b50505092915050565b60006020828403121561014a57600080fd5b81516001600160401b0381111561016057600080fd5b61016c848285016100e4565b949350505050565b6040518181016001600160401b038111828210171561019257600080fd5b604052919050565b60006001600160401b038211156101b057600080fd5b506020601f91909101601f19160190565b60005b838110156101dc5781810151838201526020016101c4565b838111156101eb576000848401525b50505050565b6104ce806102006000396000f3fe60806040526004361061004a5760003560e01c806338cc48311461004c5780634f95a04b14610077578063beabacc81461008a578063e1f21c67146100aa578063fb1e6a62146100ca575b005b34801561005857600080fd5b506100616100ec565b60405161006e91906103a7565b60405180910390f35b61004a6100853660046102aa565b6100f0565b34801561009657600080fd5b5061004a6100a536600461030a565b61012b565b3480156100b657600080fd5b5061004a6100c536600461030a565b6101b4565b3480156100d657600080fd5b506100df6101e2565b60405161006e91906103d7565b3090565b6040516001600160a01b0383169082156108fc029083906000818181858888f19350505050158015610126573d6000803e3d6000fd5b505050565b60405163a9059cbb60e01b81526001600160a01b0384169063a9059cbb9061015990859085906004016103b5565b602060405180830381600087803b15801561017357600080fd5b505af1158015610187573d6000803e3d6000fd5b505050506040513d601f19601f820116820180604052506101ab91908101906102e4565b61012657600080fd5b60405163095ea7b360e01b81526001600160a01b0384169063095ea7b39061015990859085906004016103b5565b60008054604080516020601f600260001961010060018816150201909516949094049384018190048102820181019092528281526060939092909183018282801561026e5780601f106102435761010080835404028352916020019161026e565b820191906000526020600020905b81548152906001019060200180831161025157829003601f168201915b5050505050905090565b803561028381610459565b92915050565b805161028381610470565b803561028381610479565b803561028381610482565b600080604083850312156102bd57600080fd5b60006102c98585610278565b92505060206102da8582860161029f565b9150509250929050565b6000602082840312156102f657600080fd5b60006103028484610289565b949350505050565b60008060006060848603121561031f57600080fd5b600061032b8686610294565b935050602061033c86828701610278565b925050604061034d8682870161029f565b9150509250925092565b610360816103f5565b82525050565b6000610371826103e8565b61037b81856103ec565b935061038b81856020860161041f565b6103948161044f565b9093019392505050565b6103608161041c565b602081016102838284610357565b604081016103c38285610357565b6103d0602083018461039e565b9392505050565b602080825281016103d08184610366565b5190565b90815260200190565b600061028382610410565b151590565b6000610283826103f5565b6001600160a01b031690565b90565b60005b8381101561043a578181015183820152602001610422565b83811115610449576000848401525b50505050565b601f01601f191690565b610462816103f5565b811461046d57600080fd5b50565b61046281610400565b61046281610405565b6104628161041c56fea365627a7a723158207f379b51e6cd5aaa6d01675b5369a381b7b03472f4a4e3a95a2e0bbfa95afa9a6c6578706572696d656e74616cf564736f6c63430005100040",
  "source": "pragma solidity >=0.4.21 <0.7.0;\r\npragma experimental ABIEncoderV2;\r\n\r\nimport \"../interfaces/IErc20.sol\";\r\n\r\ncontract FundPool\r\n{\r\n    string private _id;\r\n\r\n    // suppose the deployed contract has a purpose\r\n\r\n    //0.6.x\r\n    //receive() external payable {}\r\n    function() external payable {}\r\n\r\n    constructor(string memory id) public {\r\n        _id = id;\r\n    }\r\n\r\n    function getDiscoId() public view returns (string memory) {\r\n        return _id;\r\n    }\r\n\r\n    function ethTransfer(address payable to, uint256 amount) external payable {\r\n        to.transfer(amount);\r\n    }\r\n\r\n    function approve(IERC20 token, address to, uint256 amount) external {\r\n        require(token.approve(to, amount));\r\n    }\r\n\r\n    function transfer(IERC20 token, address to, uint256 amount) external {\r\n        require(token.transfer(to, amount));\r\n    }\r\n\r\n    function getAddress() public view returns (address payable) {\r\n        return address(uint160(address(this)));\r\n    }\r\n}\r\n",
  "sourcePath": "D:/comunion/cos-contract-com/contracts/common/FundPool.sol",
  "compiler": {
    "name": "solc",
    "version": "0.5.16+commit.9c3226ce.Emscripten.clang"
  },
  "schemaVersion": "3.3.4",
  "updatedAt": "2021-05-09T13:54:58.182Z",
  "devdoc": {
    "methods": {}
  },
  "userdoc": {
    "methods": {}
  }
}