{
  "contractName": "IRO",
  "abi": [
    {
      "inputs": [],
      "payable": false,
      "stateMutability": "nonpayable",
      "type": "constructor"
    },
    {
      "anonymous": false,
      "inputs": [
        {
          "indexed": true,
          "internalType": "string",
          "name": "id",
          "type": "string"
        },
        {
          "components": [
            {
              "internalType": "string",
              "name": "id",
              "type": "string"
            },
            {
              "components": [
                {
                  "internalType": "string",
                  "name": "tokenName",
                  "type": "string"
                },
                {
                  "internalType": "string",
                  "name": "tokenSymbol",
                  "type": "string"
                },
                {
                  "internalType": "string",
                  "name": "tokenAddr",
                  "type": "string"
                },
                {
                  "internalType": "address[]",
                  "name": "walletAddrs",
                  "type": "address[]"
                }
              ],
              "internalType": "struct IRO.TokenSetting",
              "name": "tokenSetting",
              "type": "tuple"
            },
            {
              "components": [
                {
                  "internalType": "enum IRO.ProposerDriver",
                  "name": "driver",
                  "type": "uint8"
                },
                {
                  "internalType": "uint256",
                  "name": "tokenBalance",
                  "type": "uint256"
                },
                {
                  "internalType": "address[]",
                  "name": "assignAddresses",
                  "type": "address[]"
                }
              ],
              "internalType": "struct IRO.ProposerSetting",
              "name": "proposerSetting",
              "type": "tuple"
            },
            {
              "components": [
                {
                  "internalType": "enum IRO.VoteType",
                  "name": "voteType",
                  "type": "uint8"
                },
                {
                  "internalType": "string",
                  "name": "voteTokenLimit",
                  "type": "string"
                },
                {
                  "internalType": "address[]",
                  "name": "voteAssignAddrs",
                  "type": "address[]"
                },
                {
                  "internalType": "uint256",
                  "name": "voteMinSupporters",
                  "type": "uint256"
                },
                {
                  "internalType": "string",
                  "name": "voteMinApprovalPercent",
                  "type": "string"
                },
                {
                  "internalType": "string",
                  "name": "voteMinDurationHours",
                  "type": "string"
                },
                {
                  "internalType": "string",
                  "name": "voteMaxDurationHours",
                  "type": "string"
                }
              ],
              "internalType": "struct IRO.VoterSetting",
              "name": "voterSetting",
              "type": "tuple"
            }
          ],
          "indexed": false,
          "internalType": "struct IRO.Setting",
          "name": "setting",
          "type": "tuple"
        }
      ],
      "name": "sendWhenHasChanges",
      "type": "event"
    },
    {
      "constant": false,
      "inputs": [
        {
          "components": [
            {
              "internalType": "string",
              "name": "id",
              "type": "string"
            },
            {
              "components": [
                {
                  "internalType": "string",
                  "name": "tokenName",
                  "type": "string"
                },
                {
                  "internalType": "string",
                  "name": "tokenSymbol",
                  "type": "string"
                },
                {
                  "internalType": "string",
                  "name": "tokenAddr",
                  "type": "string"
                },
                {
                  "internalType": "address[]",
                  "name": "walletAddrs",
                  "type": "address[]"
                }
              ],
              "internalType": "struct IRO.TokenSetting",
              "name": "tokenSetting",
              "type": "tuple"
            },
            {
              "components": [
                {
                  "internalType": "enum IRO.ProposerDriver",
                  "name": "driver",
                  "type": "uint8"
                },
                {
                  "internalType": "uint256",
                  "name": "tokenBalance",
                  "type": "uint256"
                },
                {
                  "internalType": "address[]",
                  "name": "assignAddresses",
                  "type": "address[]"
                }
              ],
              "internalType": "struct IRO.ProposerSetting",
              "name": "proposerSetting",
              "type": "tuple"
            },
            {
              "components": [
                {
                  "internalType": "enum IRO.VoteType",
                  "name": "voteType",
                  "type": "uint8"
                },
                {
                  "internalType": "string",
                  "name": "voteTokenLimit",
                  "type": "string"
                },
                {
                  "internalType": "address[]",
                  "name": "voteAssignAddrs",
                  "type": "address[]"
                },
                {
                  "internalType": "uint256",
                  "name": "voteMinSupporters",
                  "type": "uint256"
                },
                {
                  "internalType": "string",
                  "name": "voteMinApprovalPercent",
                  "type": "string"
                },
                {
                  "internalType": "string",
                  "name": "voteMinDurationHours",
                  "type": "string"
                },
                {
                  "internalType": "string",
                  "name": "voteMaxDurationHours",
                  "type": "string"
                }
              ],
              "internalType": "struct IRO.VoterSetting",
              "name": "voterSetting",
              "type": "tuple"
            }
          ],
          "internalType": "struct IRO.Setting",
          "name": "setting",
          "type": "tuple"
        }
      ],
      "name": "fullSet",
      "outputs": [],
      "payable": false,
      "stateMutability": "nonpayable",
      "type": "function"
    },
    {
      "constant": false,
      "inputs": [
        {
          "components": [
            {
              "internalType": "string",
              "name": "id",
              "type": "string"
            },
            {
              "components": [
                {
                  "internalType": "string",
                  "name": "tokenName",
                  "type": "string"
                },
                {
                  "internalType": "string",
                  "name": "tokenSymbol",
                  "type": "string"
                },
                {
                  "internalType": "string",
                  "name": "tokenAddr",
                  "type": "string"
                },
                {
                  "internalType": "address[]",
                  "name": "walletAddrs",
                  "type": "address[]"
                }
              ],
              "internalType": "struct IRO.TokenSetting",
              "name": "tokenSetting",
              "type": "tuple"
            },
            {
              "components": [
                {
                  "internalType": "enum IRO.ProposerDriver",
                  "name": "driver",
                  "type": "uint8"
                },
                {
                  "internalType": "uint256",
                  "name": "tokenBalance",
                  "type": "uint256"
                },
                {
                  "internalType": "address[]",
                  "name": "assignAddresses",
                  "type": "address[]"
                }
              ],
              "internalType": "struct IRO.ProposerSetting",
              "name": "proposerSetting",
              "type": "tuple"
            },
            {
              "components": [
                {
                  "internalType": "enum IRO.VoteType",
                  "name": "voteType",
                  "type": "uint8"
                },
                {
                  "internalType": "string",
                  "name": "voteTokenLimit",
                  "type": "string"
                },
                {
                  "internalType": "address[]",
                  "name": "voteAssignAddrs",
                  "type": "address[]"
                },
                {
                  "internalType": "uint256",
                  "name": "voteMinSupporters",
                  "type": "uint256"
                },
                {
                  "internalType": "string",
                  "name": "voteMinApprovalPercent",
                  "type": "string"
                },
                {
                  "internalType": "string",
                  "name": "voteMinDurationHours",
                  "type": "string"
                },
                {
                  "internalType": "string",
                  "name": "voteMaxDurationHours",
                  "type": "string"
                }
              ],
              "internalType": "struct IRO.VoterSetting",
              "name": "voterSetting",
              "type": "tuple"
            }
          ],
          "internalType": "struct IRO.Setting",
          "name": "setting",
          "type": "tuple"
        }
      ],
      "name": "partialSet",
      "outputs": [],
      "payable": false,
      "stateMutability": "nonpayable",
      "type": "function"
    },
    {
      "constant": true,
      "inputs": [
        {
          "internalType": "string",
          "name": "id",
          "type": "string"
        }
      ],
      "name": "getTokenSetting",
      "outputs": [
        {
          "internalType": "string",
          "name": "tokenName",
          "type": "string"
        },
        {
          "internalType": "string",
          "name": "tokenSymbol",
          "type": "string"
        },
        {
          "internalType": "string",
          "name": "tokenAddr",
          "type": "string"
        },
        {
          "internalType": "address[]",
          "name": "walletAddrs",
          "type": "address[]"
        }
      ],
      "payable": false,
      "stateMutability": "view",
      "type": "function"
    },
    {
      "constant": true,
      "inputs": [
        {
          "internalType": "string",
          "name": "id",
          "type": "string"
        }
      ],
      "name": "getVoterSetting",
      "outputs": [
        {
          "internalType": "enum IRO.VoteType",
          "name": "voteType",
          "type": "uint8"
        },
        {
          "internalType": "string",
          "name": "voteTokenLimit",
          "type": "string"
        },
        {
          "internalType": "address[]",
          "name": "voteAssignAddrs",
          "type": "address[]"
        },
        {
          "internalType": "uint256",
          "name": "voteMinSupporters",
          "type": "uint256"
        },
        {
          "internalType": "string",
          "name": "voteMinApprovalPercent",
          "type": "string"
        },
        {
          "internalType": "string",
          "name": "voteMinDurationHours",
          "type": "string"
        },
        {
          "internalType": "string",
          "name": "voteMaxDurationHours",
          "type": "string"
        }
      ],
      "payable": false,
      "stateMutability": "view",
      "type": "function"
    },
    {
      "constant": true,
      "inputs": [
        {
          "internalType": "string",
          "name": "id",
          "type": "string"
        }
      ],
      "name": "setting",
      "outputs": [
        {
          "components": [
            {
              "internalType": "string",
              "name": "id",
              "type": "string"
            },
            {
              "components": [
                {
                  "internalType": "string",
                  "name": "tokenName",
                  "type": "string"
                },
                {
                  "internalType": "string",
                  "name": "tokenSymbol",
                  "type": "string"
                },
                {
                  "internalType": "string",
                  "name": "tokenAddr",
                  "type": "string"
                },
                {
                  "internalType": "address[]",
                  "name": "walletAddrs",
                  "type": "address[]"
                }
              ],
              "internalType": "struct IRO.TokenSetting",
              "name": "tokenSetting",
              "type": "tuple"
            },
            {
              "components": [
                {
                  "internalType": "enum IRO.ProposerDriver",
                  "name": "driver",
                  "type": "uint8"
                },
                {
                  "internalType": "uint256",
                  "name": "tokenBalance",
                  "type": "uint256"
                },
                {
                  "internalType": "address[]",
                  "name": "assignAddresses",
                  "type": "address[]"
                }
              ],
              "internalType": "struct IRO.ProposerSetting",
              "name": "proposerSetting",
              "type": "tuple"
            },
            {
              "components": [
                {
                  "internalType": "enum IRO.VoteType",
                  "name": "voteType",
                  "type": "uint8"
                },
                {
                  "internalType": "string",
                  "name": "voteTokenLimit",
                  "type": "string"
                },
                {
                  "internalType": "address[]",
                  "name": "voteAssignAddrs",
                  "type": "address[]"
                },
                {
                  "internalType": "uint256",
                  "name": "voteMinSupporters",
                  "type": "uint256"
                },
                {
                  "internalType": "string",
                  "name": "voteMinApprovalPercent",
                  "type": "string"
                },
                {
                  "internalType": "string",
                  "name": "voteMinDurationHours",
                  "type": "string"
                },
                {
                  "internalType": "string",
                  "name": "voteMaxDurationHours",
                  "type": "string"
                }
              ],
              "internalType": "struct IRO.VoterSetting",
              "name": "voterSetting",
              "type": "tuple"
            }
          ],
          "internalType": "struct IRO.Setting",
          "name": "",
          "type": "tuple"
        }
      ],
      "payable": false,
      "stateMutability": "view",
      "type": "function"
    }
  ],
  "bytecode": "0x608060405234801561001057600080fd5b50600080546001600160a01b031916331790556126e4806100326000396000f3fe608060405234801561001057600080fd5b50600436106100565760003560e01c8062cd8f2a1461005b5780632266de5114610070578063c5596aad1461009f578063ef7ae53f146100c2578063f1b56fda146100e2575b600080fd5b61006e610069366004612080565b6100f5565b005b61008361007e366004612044565b610a78565b6040516100969796959493929190612461565b60405180910390f35b6100b26100ad366004612044565b610e1a565b60405161009694939291906124eb565b6100d56100d0366004612003565b6110b2565b6040516100969190612562565b61006e6100f0366004612080565b61178a565b6000546001600160a01b0316331461010c57600080fd5b8051516101345760405162461bcd60e51b815260040161012b90612542565b60405180910390fd5b61013c6119d3565b815160405160019161014d9161244e565b9081526040805160209281900383018120805460026001821615610100026000190190911604601f8101859004909402820160a0908101909352608082018481529193909284929184918401828280156101e85780601f106101bd576101008083540402835291602001916101e8565b820191906000526020600020905b8154815290600101906020018083116101cb57829003601f168201915b5050505050815260200160018201604051806080016040529081600082018054600181600116156101000203166002900480601f01602080910402602001604051908101604052809291908181526020018280546001816001161561010002031660029004801561029a5780601f1061026f5761010080835404028352916020019161029a565b820191906000526020600020905b81548152906001019060200180831161027d57829003601f168201915b50505050508152602001600182018054600181600116156101000203166002900480601f01602080910402602001604051908101604052809291908181526020018280546001816001161561010002031660029004801561033c5780601f106103115761010080835404028352916020019161033c565b820191906000526020600020905b81548152906001019060200180831161031f57829003601f168201915b5050509183525050600282810180546040805160206001841615610100026000190190931694909404601f810183900483028501830190915280845293810193908301828280156103ce5780601f106103a3576101008083540402835291602001916103ce565b820191906000526020600020905b8154815290600101906020018083116103b157829003601f168201915b505050505081526020016003820180548060200260200160405190810160405280929190818152602001828054801561043057602002820191906000526020600020905b81546001600160a01b03168152600190910190602001808311610412575b5050509190925250505081526040805160608101909152600583018054602090930192829060ff16600381111561046357fe5b600381111561046e57fe5b815260200160018201548152602001600282018054806020026020016040519081016040528092919081815260200182805480156104d557602002820191906000526020600020905b81546001600160a01b031681526001909101906020018083116104b7575b5050509190925250505081526040805160e08101909152600883018054602090930192829060ff16600381111561050857fe5b600381111561051357fe5b8152602001600182018054600181600116156101000203166002900480601f0160208091040260200160405190810160405280929190818152602001828054600181600116156101000203166002900480156105b05780601f10610585576101008083540402835291602001916105b0565b820191906000526020600020905b81548152906001019060200180831161059357829003601f168201915b505050505081526020016002820180548060200260200160405190810160405280929190818152602001828054801561061257602002820191906000526020600020905b81546001600160a01b031681526001909101906020018083116105f4575b5050509183525050600382015460208083019190915260048301805460408051601f600260001961010060018716150201909416939093049283018590048502810185018252828152940193928301828280156106b05780601f10610685576101008083540402835291602001916106b0565b820191906000526020600020905b81548152906001019060200180831161069357829003601f168201915b505050918352505060058201805460408051602060026001851615610100026000190190941693909304601f81018490048402820184019092528181529382019392918301828280156107445780601f1061071957610100808354040283529160200191610744565b820191906000526020600020905b81548152906001019060200180831161072757829003601f168201915b505050918352505060068201805460408051602060026001851615610100026000190190941693909304601f81018490048402820184019092528181529382019392918301828280156107d85780601f106107ad576101008083540402835291602001916107d8565b820191906000526020600020905b8154815290600101906020018083116107bb57829003601f168201915b50505091909252505050905250805151909150156107f35750805b602082015151516000901561081057506020808301519082015260015b6000604084015151600381111561082357fe5b1461083657506040808301519082015260015b6000606084015151600381111561084957fe5b1461085c57506060808301519082015260015b8015610a73578160018460000151604051610877919061244e565b908152602001604051809103902060008201518160000190805190602001906108a1929190611a0c565b5060208281015180518051919260018501926108c09284920190611a0c565b5060208281015180516108d99260018501920190611a0c565b50604082015180516108f5916002840191602090910190611a0c565b5060608201518051610911916003840191602090910190611a8a565b50505060408201518051600583018054909190829060ff1916600183600381111561093857fe5b021790555060208281015160018301556040830151805161095f9260028501920190611a8a565b50505060608201518051600883018054909190829060ff1916600183600381111561098657fe5b021790555060208281015180516109a39260018501920190611a0c565b50604082015180516109bf916002840191602090910190611a8a565b5060608201516003820155608082015180516109e5916004840191602090910190611a0c565b5060a08201518051610a01916005840191602090910190611a0c565b5060c08201518051610a1d916006840191602090910190611a0c565b50508551604051610a339450909250905061244e565b60405180910390207ffffeb7440fe2a933c83a206522db839f8ccfc066ccaa2369dd937febaecf6e4783604051610a6a9190612562565b60405180910390a25b505050565b600060608060006060806060600188604051610a94919061244e565b9081526040519081900360200181206008015460ff1690600190610ab9908b9061244e565b90815260405190819003602001812060090190600190610ada908c9061244e565b908152604051908190036020018120600a0190600190610afb908d9061244e565b908152604051908190036020018120600b015490600190610b1d908e9061244e565b908152604051908190036020018120600c0190600190610b3e908f9061244e565b908152602001604051809103902060080160050160018e604051610b62919061244e565b9081526040805160209281900383018120885460026001821615610100026000190190911604601f8101859004850283018501909352828252600e019290918891830182828015610bf45780601f10610bc957610100808354040283529160200191610bf4565b820191906000526020600020905b815481529060010190602001808311610bd757829003601f168201915b5050505050955084805480602002602001604051908101604052809291908181526020018280548015610c5057602002820191906000526020600020905b81546001600160a01b03168152600190910190602001808311610c32575b5050865460408051602060026001851615610100026000190190941693909304601f8101849004840282018401909252818152959a5088945092508401905082828015610cde5780601f10610cb357610100808354040283529160200191610cde565b820191906000526020600020905b815481529060010190602001808311610cc157829003601f168201915b5050855460408051602060026001851615610100026000190190941693909304601f810184900484028201840190925281815295985087945092508401905082828015610d6c5780601f10610d4157610100808354040283529160200191610d6c565b820191906000526020600020905b815481529060010190602001808311610d4f57829003601f168201915b5050845460408051602060026001851615610100026000190190941693909304601f810184900484028201840190925281815295975086945092508401905082828015610dfa5780601f10610dcf57610100808354040283529160200191610dfa565b820191906000526020600020905b815481529060010190602001808311610ddd57829003601f168201915b505050505090509650965096509650965096509650919395979092949650565b606080606080600185604051610e30919061244e565b908152604051908190036020018120600190810191610e5090889061244e565b90815260405190819003602001812060020190600190610e7190899061244e565b90815260405190819003602001812060030190600190610e92908a9061244e565b9081526040805160209281900383018120865460026001821615610100026000190190911604601f81018590048502830185019093528282526004019290918691830182828015610f245780601f10610ef957610100808354040283529160200191610f24565b820191906000526020600020905b815481529060010190602001808311610f0757829003601f168201915b5050865460408051602060026001851615610100026000190190941693909304601f810184900484028201840190925281815295995088945092508401905082828015610fb25780601f10610f8757610100808354040283529160200191610fb2565b820191906000526020600020905b815481529060010190602001808311610f9557829003601f168201915b5050855460408051602060026001851615610100026000190190941693909304601f8101849004840282018401909252818152959850879450925084019050828280156110405780601f1061101557610100808354040283529160200191611040565b820191906000526020600020905b81548152906001019060200180831161102357829003601f168201915b505050505091508080548060200260200160405190810160405280929190818152602001828054801561109c57602002820191906000526020600020905b81546001600160a01b0316815260019091019060200180831161107e575b5050505050905093509350935093509193509193565b6110ba6119d3565b816110d75760405162461bcd60e51b815260040161012b90612552565b600183836040516110e9929190612441565b9081526040805160209281900383018120805460026001821615610100026000190190911604601f8101859004909402820160a0908101909352608082018481529193909284929184918401828280156111845780601f1061115957610100808354040283529160200191611184565b820191906000526020600020905b81548152906001019060200180831161116757829003601f168201915b5050505050815260200160018201604051806080016040529081600082018054600181600116156101000203166002900480601f0160208091040260200160405190810160405280929190818152602001828054600181600116156101000203166002900480156112365780601f1061120b57610100808354040283529160200191611236565b820191906000526020600020905b81548152906001019060200180831161121957829003601f168201915b50505050508152602001600182018054600181600116156101000203166002900480601f0160208091040260200160405190810160405280929190818152602001828054600181600116156101000203166002900480156112d85780601f106112ad576101008083540402835291602001916112d8565b820191906000526020600020905b8154815290600101906020018083116112bb57829003601f168201915b5050509183525050600282810180546040805160206001841615610100026000190190931694909404601f8101839004830285018301909152808452938101939083018282801561136a5780601f1061133f5761010080835404028352916020019161136a565b820191906000526020600020905b81548152906001019060200180831161134d57829003601f168201915b50505050508152602001600382018054806020026020016040519081016040528092919081815260200182805480156113cc57602002820191906000526020600020905b81546001600160a01b031681526001909101906020018083116113ae575b5050509190925250505081526040805160608101909152600583018054602090930192829060ff1660038111156113ff57fe5b600381111561140a57fe5b8152602001600182015481526020016002820180548060200260200160405190810160405280929190818152602001828054801561147157602002820191906000526020600020905b81546001600160a01b03168152600190910190602001808311611453575b5050509190925250505081526040805160e08101909152600883018054602090930192829060ff1660038111156114a457fe5b60038111156114af57fe5b8152602001600182018054600181600116156101000203166002900480601f01602080910402602001604051908101604052809291908181526020018280546001816001161561010002031660029004801561154c5780601f106115215761010080835404028352916020019161154c565b820191906000526020600020905b81548152906001019060200180831161152f57829003601f168201915b50505050508152602001600282018054806020026020016040519081016040528092919081815260200182805480156115ae57602002820191906000526020600020905b81546001600160a01b03168152600190910190602001808311611590575b5050509183525050600382015460208083019190915260048301805460408051601f6002600019610100600187161502019094169390930492830185900485028101850182528281529401939283018282801561164c5780601f106116215761010080835404028352916020019161164c565b820191906000526020600020905b81548152906001019060200180831161162f57829003601f168201915b505050918352505060058201805460408051602060026001851615610100026000190190941693909304601f81018490048402820184019092528181529382019392918301828280156116e05780601f106116b5576101008083540402835291602001916116e0565b820191906000526020600020905b8154815290600101906020018083116116c357829003601f168201915b505050918352505060068201805460408051602060026001851615610100026000190190941693909304601f81018490048402820184019092528181529382019392918301828280156117745780601f1061174957610100808354040283529160200191611774565b820191906000526020600020905b81548152906001019060200180831161175757829003601f168201915b5050505050815250508152505090505b92915050565b6000546001600160a01b031633146117a157600080fd5b8051516117c05760405162461bcd60e51b815260040161012b90612542565b80600182600001516040516117d5919061244e565b908152602001604051809103902060008201518160000190805190602001906117ff929190611a0c565b50602082810151805180519192600185019261181e9284920190611a0c565b5060208281015180516118379260018501920190611a0c565b5060408201518051611853916002840191602090910190611a0c565b506060820151805161186f916003840191602090910190611a8a565b50505060408201518051600583018054909190829060ff1916600183600381111561189657fe5b02179055506020828101516001830155604083015180516118bd9260028501920190611a8a565b50505060608201518051600883018054909190829060ff191660018360038111156118e457fe5b021790555060208281015180516119019260018501920190611a0c565b506040820151805161191d916002840191602090910190611a8a565b506060820151600382015560808201518051611943916004840191602090910190611a0c565b5060a0820151805161195f916005840191602090910190611a0c565b5060c0820151805161197b916006840191602090910190611a0c565b505083516040516119919450909250905061244e565b60405180910390207ffffeb7440fe2a933c83a206522db839f8ccfc066ccaa2369dd937febaecf6e47826040516119c89190612562565b60405180910390a250565b6040518060800160405280606081526020016119ed611aeb565b81526020016119fa611b13565b8152602001611a07611b35565b905290565b828054600181600116156101000203166002900490600052602060002090601f016020900481019282601f10611a4d57805160ff1916838001178555611a7a565b82800160010185558215611a7a579182015b82811115611a7a578251825591602001919060010190611a5f565b50611a86929150611b73565b5090565b828054828255906000526020600020908101928215611adf579160200282015b82811115611adf57825182546001600160a01b0319166001600160a01b03909116178255602090920191600190910190611aaa565b50611a86929150611b90565b6040518060800160405280606081526020016060815260200160608152602001606081525090565b6040805160608101909152806000815260200160008152602001606081525090565b6040805160e0810190915280600081526020016060815260200160608152602001600081526020016060815260200160608152602001606081525090565b611b8d91905b80821115611a865760008155600101611b79565b90565b611b8d91905b80821115611a865780546001600160a01b0319168155600101611b96565b803561178481612677565b600082601f830112611bd057600080fd5b8135611be3611bde82612599565b612573565b91508181835260208401935060208101905083856020840282011115611c0857600080fd5b60005b83811015611c345781611c1e8882611bb4565b8452506020928301929190910190600101611c0b565b5050505092915050565b80356117848161268b565b60008083601f840112611c5b57600080fd5b5081356001600160401b03811115611c7257600080fd5b602083019150836001820283011115611c8a57600080fd5b9250929050565b600082601f830112611ca257600080fd5b8135611cb0611bde826125b9565b91508082526020830160208301858383011115611ccc57600080fd5b611cd7838284612624565b50505092915050565b600060608284031215611cf257600080fd5b611cfc6060612573565b90506000611d0a8484611c3e565b8252506020611d1b84848301611ff8565b60208301525060408201356001600160401b03811115611d3a57600080fd5b611d4684828501611bbf565b60408301525092915050565b600060808284031215611d6457600080fd5b611d6e6080612573565b905081356001600160401b03811115611d8657600080fd5b611d9284828501611c91565b82525060208201356001600160401b03811115611dae57600080fd5b611dba84828501611e1c565b60208301525060408201356001600160401b03811115611dd957600080fd5b611de584828501611ce0565b60408301525060608201356001600160401b03811115611e0457600080fd5b611e1084828501611eda565b60608301525092915050565b600060808284031215611e2e57600080fd5b611e386080612573565b905081356001600160401b03811115611e5057600080fd5b611e5c84828501611c91565b82525060208201356001600160401b03811115611e7857600080fd5b611e8484828501611c91565b60208301525060408201356001600160401b03811115611ea357600080fd5b611eaf84828501611c91565b60408301525060608201356001600160401b03811115611ece57600080fd5b611e1084828501611bbf565b600060e08284031215611eec57600080fd5b611ef660e0612573565b90506000611f048484611c3e565b82525060208201356001600160401b03811115611f2057600080fd5b611f2c84828501611c91565b60208301525060408201356001600160401b03811115611f4b57600080fd5b611f5784828501611bbf565b6040830152506060611f6b84828501611ff8565b60608301525060808201356001600160401b03811115611f8a57600080fd5b611f9684828501611c91565b60808301525060a08201356001600160401b03811115611fb557600080fd5b611fc184828501611c91565b60a08301525060c08201356001600160401b03811115611fe057600080fd5b611fec84828501611c91565b60c08301525092915050565b803561178481612698565b6000806020838503121561201657600080fd5b82356001600160401b0381111561202c57600080fd5b61203885828601611c49565b92509250509250929050565b60006020828403121561205657600080fd5b81356001600160401b0381111561206c57600080fd5b61207884828501611c91565b949350505050565b60006020828403121561209257600080fd5b81356001600160401b038111156120a857600080fd5b61207884828501611d52565b60006120c083836120c8565b505060200190565b6120d1816125f8565b82525050565b60006120e2826125e6565b6120ec81856125ea565b93506120f7836125e0565b8060005b8381101561212557815161210f88826120b4565b975061211a836125e0565b9250506001016120fb565b509495945050505050565b600061213b826125e6565b61214581856125ea565b9350612150836125e0565b8060005b8381101561212557815161216888826120b4565b9750612173836125e0565b925050600101612154565b6120d181612619565b600061219383856125f3565b93506121a0838584612624565b50500190565b60006121b1826125e6565b6121bb81856125ea565b93506121cb818560208601612630565b6121d481612660565b9093019392505050565b60006121e9826125e6565b6121f381856125f3565b9350612203818560208601612630565b9290920192915050565b600061221a6026836125ea565b7f73657474696e6720697320656d7074792c20706c6561736520636865636b206981526537383aba399760d11b602082015260400192915050565b6000612262600c836125ea565b6b696420697320656d7074792160a01b815260200192915050565b80516000906060840190612291858261217e565b5060208301516122a46020860182612438565b50604083015184820360408601526122bc8282612130565b95945050505050565b80516080808452600091908401906122dd82826121a6565b915050602083015184820360208601526122f7828261232b565b91505060408301518482036040860152612311828261227d565b915050606083015184820360608601526122bc8282612391565b805160808084526000919084019061234382826121a6565b9150506020830151848203602086015261235d82826121a6565b9150506040830151848203604086015261237782826121a6565b915050606083015184820360608601526122bc8282612130565b805160009060e08401906123a5858261217e565b50602083015184820360208601526123bd82826121a6565b915050604083015184820360408601526123d78282612130565b91505060608301516123ec6060860182612438565b506080830151848203608086015261240482826121a6565b91505060a083015184820360a086015261241e82826121a6565b91505060c083015184820360c08601526122bc82826121a6565b6120d181611b8d565b6000612078828486612187565b600061245a82846121de565b9392505050565b60e0810161246f828a61217e565b818103602083015261248181896121a6565b9050818103604083015261249581886120d7565b90506124a46060830187612438565b81810360808301526124b681866121a6565b905081810360a08301526124ca81856121a6565b905081810360c08301526124de81846121a6565b9998505050505050505050565b608080825281016124fc81876121a6565b9050818103602083015261251081866121a6565b9050818103604083015261252481856121a6565b9050818103606083015261253881846120d7565b9695505050505050565b602080825281016117848161220d565b6020808252810161178481612255565b6020808252810161245a81846122c5565b6040518181016001600160401b038111828210171561259157600080fd5b604052919050565b60006001600160401b038211156125af57600080fd5b5060209081020190565b60006001600160401b038211156125cf57600080fd5b506020601f91909101601f19160190565b60200190565b5190565b90815260200190565b919050565b60006117848261260d565b806125f38161266a565b6001600160a01b031690565b600061178482612603565b82818337506000910152565b60005b8381101561264b578181015183820152602001612633565b8381111561265a576000848401525b50505050565b601f01601f191690565b6004811061267457fe5b50565b612680816125f8565b811461267457600080fd5b6004811061267457600080fd5b61268081611b8d56fea365627a7a7231582081090a37b8a0df384ce1978ffc761d31fd86c3da4100943bf635f87f9a5602b76c6578706572696d656e74616cf564736f6c63430005100040",
  "source": "pragma solidity >=0.4.21 <0.7.0;\r\npragma experimental ABIEncoderV2;\r\n\r\ncontract IRO\r\n{\r\n    address private _owner;\r\n\r\n    modifier isOwner() {\r\n        require(msg.sender == _owner);\r\n        _;\r\n    }\r\n\r\n    enum ProposerDriver{\r\n        None,\r\n        Founder_Assign,\r\n        POS,\r\n        All\r\n    }\r\n\r\n    enum VoteType{\r\n        None,\r\n        Founder_Assign,\r\n        POS,\r\n        All\r\n    }\r\n\r\n    struct TokenSetting {\r\n        string tokenName;\r\n        string tokenSymbol;\r\n        string tokenAddr;\r\n        address[] walletAddrs;\r\n    }\r\n\r\n    struct ProposerSetting {\r\n        ProposerDriver driver;\r\n        uint256 tokenBalance;\r\n        address[] assignAddresses;\r\n    }\r\n\r\n    struct VoterSetting {\r\n        VoteType voteType;\r\n        string voteTokenLimit;\r\n        address[] voteAssignAddrs;\r\n        uint256 voteMinSupporters;\r\n        string voteMinApprovalPercent;\r\n        string voteMinDurationHours;\r\n        string voteMaxDurationHours;\r\n    }\r\n\r\n    struct Setting {\r\n        string id;\r\n        TokenSetting tokenSetting;\r\n        ProposerSetting proposerSetting;\r\n        VoterSetting voterSetting;\r\n    }\r\n\r\n    mapping(string => Setting) IROs;\r\n\r\n    constructor()\r\n    public {\r\n        _owner = msg.sender;\r\n    }\r\n\r\n    event sendWhenHasChanges(string indexed id, Setting setting);\r\n\r\n    // function newSetting(string memory id,\r\n    //     string memory tokenName, string memory tokenSymbol, string memory tokenAddr,\r\n    //     address[] memory walletAddrs,\r\n    //     string memory voteType, string memory voteTokenLimit, address[] memory voteAssignAddrs,\r\n    //     string memory voteMSupportPercent, string memory voteMinApprovalPercent,\r\n    //     string memory voteMinDurationHours, string memory voteMaxDurationHours)\r\n    // public {\r\n    //     TokenSetting memory tokenSetting = TokenSetting(tokenName, tokenSymbol, tokenAddr, walletAddrs);\r\n    //     VoterSetting memory voterSetting = VoterSetting(voteType, voteTokenLimit,voteAssignAddrs, voteMSupportPercent, voteMinApprovalPercent, voteMinDurationHours, voteMaxDurationHours);\r\n    //     ProposerSetting memory proposerSetting = ProposerSetting(ProposerDriver.None,0,new address[](0));\r\n    //     Setting memory setting = Setting(id, tokenSetting, proposerSetting, voterSetting);\r\n    // }\r\n\r\n    function fullSet(Setting memory setting) public isOwner {\r\n        require(bytes(setting.id).length != 0, 'setting is empty, please check inputs.');\r\n        IROs[setting.id] = setting;\r\n        emit sendWhenHasChanges(setting.id, setting);\r\n    }\r\n\r\n    function partialSet(Setting memory setting) public isOwner {\r\n        require(bytes(setting.id).length != 0, 'setting is empty, please check inputs.');\r\n        Setting memory originSetting = IROs[setting.id];\r\n        if (bytes(originSetting.id).length != 0) {\r\n            originSetting = setting;\r\n        }\r\n\r\n        bool hasChanges = false;\r\n        if (bytes(setting.tokenSetting.tokenName).length != 0) {\r\n            originSetting.tokenSetting = setting.tokenSetting;\r\n            hasChanges = true;\r\n        }\r\n\r\n        if (setting.proposerSetting.driver != ProposerDriver.None) {\r\n            originSetting.proposerSetting = setting.proposerSetting;\r\n            hasChanges = true;\r\n        }\r\n\r\n        if (setting.voterSetting.voteType != VoteType.None) {\r\n            originSetting.voterSetting = setting.voterSetting;\r\n            hasChanges = true;\r\n        }\r\n\r\n        if (hasChanges) {\r\n            IROs[setting.id] = originSetting;\r\n            emit sendWhenHasChanges(setting.id, originSetting);\r\n        }\r\n    }\r\n\r\n    function getTokenSetting(string memory id)\r\n    public\r\n    view\r\n    returns (string memory tokenName, string memory tokenSymbol, string memory tokenAddr,\r\n        address[] memory walletAddrs){\r\n        return (IROs[id].tokenSetting.tokenName, IROs[id].tokenSetting.tokenSymbol,\r\n        IROs[id].tokenSetting.tokenAddr, IROs[id].tokenSetting.walletAddrs);\r\n    }\r\n\r\n    function getVoterSetting(string memory id)\r\n    public\r\n    view\r\n    returns (VoteType voteType, string memory voteTokenLimit, address[] memory voteAssignAddrs,\r\n        uint256 voteMinSupporters, string memory voteMinApprovalPercent,\r\n        string memory voteMinDurationHours, string memory voteMaxDurationHours){\r\n        return (IROs[id].voterSetting.voteType, IROs[id].voterSetting.voteTokenLimit, IROs[id].voterSetting.voteAssignAddrs,\r\n        IROs[id].voterSetting.voteMinSupporters, IROs[id].voterSetting.voteMinApprovalPercent,\r\n        IROs[id].voterSetting.voteMinDurationHours, IROs[id].voterSetting.voteMaxDurationHours);\r\n    }\r\n\r\n    function setting(string calldata id) external view returns (Setting memory) {\r\n        require(bytes(id).length != 0, \"id is empty!\");\r\n        return IROs[id];\r\n    }\r\n}\r\n",
  "sourcePath": "D:/comunion/cos-contract-com/contracts/IRO.sol",
  "compiler": {
    "name": "solc",
    "version": "0.5.16+commit.9c3226ce.Emscripten.clang"
  },
  "schemaVersion": "3.3.4",
  "updatedAt": "2021-05-26T14:52:13.820Z",
  "networkType": "ethereum",
  "devdoc": {
    "methods": {}
  },
  "userdoc": {
    "methods": {}
  }
}