{
  "contractName": "IRO",
  "abi": [
    {
      "inputs": [],
      "payable": false,
      "stateMutability": "nonpayable",
      "type": "constructor"
    },
    {
      "constant": false,
      "inputs": [
        {
          "internalType": "string",
          "name": "id",
          "type": "string"
        },
        {
          "internalType": "string",
          "name": "tokenName",
          "type": "string"
        },
        {
          "internalType": "string",
          "name": "tokenSymbol",
          "type": "string"
        },
        {
          "internalType": "string",
          "name": "tokenAddr",
          "type": "string"
        },
        {
          "internalType": "address[]",
          "name": "walletAddrs",
          "type": "address[]"
        },
        {
          "internalType": "string",
          "name": "voteType",
          "type": "string"
        },
        {
          "internalType": "string",
          "name": "voteTokenLimit",
          "type": "string"
        },
        {
          "internalType": "address[]",
          "name": "voteAssignAddrs",
          "type": "address[]"
        },
        {
          "internalType": "string",
          "name": "voteMSupportPercent",
          "type": "string"
        },
        {
          "internalType": "string",
          "name": "voteMinApprovalPercent",
          "type": "string"
        },
        {
          "internalType": "string",
          "name": "voteMinDurationHours",
          "type": "string"
        },
        {
          "internalType": "string",
          "name": "voteMaxDurationHours",
          "type": "string"
        }
      ],
      "name": "newSetting",
      "outputs": [],
      "payable": true,
      "stateMutability": "payable",
      "type": "function"
    },
    {
      "constant": true,
      "inputs": [
        {
          "internalType": "string",
          "name": "id",
          "type": "string"
        }
      ],
      "name": "getTokenSetting",
      "outputs": [
        {
          "internalType": "string",
          "name": "tokenName",
          "type": "string"
        },
        {
          "internalType": "string",
          "name": "tokenSymbol",
          "type": "string"
        },
        {
          "internalType": "string",
          "name": "tokenAddr",
          "type": "string"
        },
        {
          "internalType": "address[]",
          "name": "walletAddrs",
          "type": "address[]"
        }
      ],
      "payable": false,
      "stateMutability": "view",
      "type": "function"
    },
    {
      "constant": true,
      "inputs": [
        {
          "internalType": "string",
          "name": "id",
          "type": "string"
        }
      ],
      "name": "getVoteSetting",
      "outputs": [
        {
          "internalType": "string",
          "name": "voteType",
          "type": "string"
        },
        {
          "internalType": "string",
          "name": "voteTokenLimit",
          "type": "string"
        },
        {
          "internalType": "address[]",
          "name": "voteAssignAddrs",
          "type": "address[]"
        },
        {
          "internalType": "string",
          "name": "voteMSupportPercent",
          "type": "string"
        },
        {
          "internalType": "string",
          "name": "voteMinApprovalPercent",
          "type": "string"
        },
        {
          "internalType": "string",
          "name": "voteMinDurationHours",
          "type": "string"
        },
        {
          "internalType": "string",
          "name": "voteMaxDurationHours",
          "type": "string"
        }
      ],
      "payable": false,
      "stateMutability": "view",
      "type": "function"
    }
  ],
  "bytecode": "0x608060405234801561001057600080fd5b50336000806101000a81548173ffffffffffffffffffffffffffffffffffffffff021916908373ffffffffffffffffffffffffffffffffffffffff160217905550611d55806100606000396000f3fe6080604052600436106100335760003560e01c80627a0ee51461003857806303f7364d146103dd578063c5596aad14610b10575b600080fd5b34801561004457600080fd5b506100fe6004803603602081101561005b57600080fd5b810190808035906020019064010000000081111561007857600080fd5b82018360208201111561008a57600080fd5b803590602001918460018302840111640100000000831117156100ac57600080fd5b91908080601f016020809104026020016040519081016040528093929190818152602001838380828437600081840152601f19601f820116905080830192505050505050509192919290505050610d71565b604051808060200180602001806020018060200180602001806020018060200188810388528f818151815260200191508051906020019080838360005b8381101561015657808201518184015260208101905061013b565b50505050905090810190601f1680156101835780820380516001836020036101000a031916815260200191505b5088810387528e818151815260200191508051906020019080838360005b838110156101bc5780820151818401526020810190506101a1565b50505050905090810190601f1680156101e95780820380516001836020036101000a031916815260200191505b5088810386528d818151815260200191508051906020019060200280838360005b8381101561022557808201518184015260208101905061020a565b5050505090500188810385528c818151815260200191508051906020019080838360005b83811015610264578082015181840152602081019050610249565b50505050905090810190601f1680156102915780820380516001836020036101000a031916815260200191505b5088810384528b818151815260200191508051906020019080838360005b838110156102ca5780820151818401526020810190506102af565b50505050905090810190601f1680156102f75780820380516001836020036101000a031916815260200191505b5088810383528a818151815260200191508051906020019080838360005b83811015610330578082015181840152602081019050610315565b50505050905090810190601f16801561035d5780820380516001836020036101000a031916815260200191505b50888103825289818151815260200191508051906020019080838360005b8381101561039657808201518184015260208101905061037b565b50505050905090810190601f1680156103c35780820380516001836020036101000a031916815260200191505b509e50505050505050505050505050505060405180910390f35b610b0e60048036036101808110156103f457600080fd5b810190808035906020019064010000000081111561041157600080fd5b82018360208201111561042357600080fd5b8035906020019184600183028401116401000000008311171561044557600080fd5b91908080601f016020809104026020016040519081016040528093929190818152602001838380828437600081840152601f19601f820116905080830192505050505050509192919290803590602001906401000000008111156104a857600080fd5b8201836020820111156104ba57600080fd5b803590602001918460018302840111640100000000831117156104dc57600080fd5b91908080601f016020809104026020016040519081016040528093929190818152602001838380828437600081840152601f19601f8201169050808301925050505050505091929192908035906020019064010000000081111561053f57600080fd5b82018360208201111561055157600080fd5b8035906020019184600183028401116401000000008311171561057357600080fd5b91908080601f016020809104026020016040519081016040528093929190818152602001838380828437600081840152601f19601f820116905080830192505050505050509192919290803590602001906401000000008111156105d657600080fd5b8201836020820111156105e857600080fd5b8035906020019184600183028401116401000000008311171561060a57600080fd5b91908080601f016020809104026020016040519081016040528093929190818152602001838380828437600081840152601f19601f8201169050808301925050505050505091929192908035906020019064010000000081111561066d57600080fd5b82018360208201111561067f57600080fd5b803590602001918460208302840111640100000000831117156106a157600080fd5b919080806020026020016040519081016040528093929190818152602001838360200280828437600081840152601f19601f8201169050808301925050505050505091929192908035906020019064010000000081111561070157600080fd5b82018360208201111561071357600080fd5b8035906020019184600183028401116401000000008311171561073557600080fd5b91908080601f016020809104026020016040519081016040528093929190818152602001838380828437600081840152601f19601f8201169050808301925050505050505091929192908035906020019064010000000081111561079857600080fd5b8201836020820111156107aa57600080fd5b803590602001918460018302840111640100000000831117156107cc57600080fd5b91908080601f016020809104026020016040519081016040528093929190818152602001838380828437600081840152601f19601f8201169050808301925050505050505091929192908035906020019064010000000081111561082f57600080fd5b82018360208201111561084157600080fd5b8035906020019184602083028401116401000000008311171561086357600080fd5b919080806020026020016040519081016040528093929190818152602001838360200280828437600081840152601f19601f820116905080830192505050505050509192919290803590602001906401000000008111156108c357600080fd5b8201836020820111156108d557600080fd5b803590602001918460018302840111640100000000831117156108f757600080fd5b91908080601f016020809104026020016040519081016040528093929190818152602001838380828437600081840152601f19601f8201169050808301925050505050505091929192908035906020019064010000000081111561095a57600080fd5b82018360208201111561096c57600080fd5b8035906020019184600183028401116401000000008311171561098e57600080fd5b91908080601f016020809104026020016040519081016040528093929190818152602001838380828437600081840152601f19601f820116905080830192505050505050509192919290803590602001906401000000008111156109f157600080fd5b820183602082011115610a0357600080fd5b80359060200191846001830284011164010000000083111715610a2557600080fd5b91908080601f016020809104026020016040519081016040528093929190818152602001838380828437600081840152601f19601f82011690508083019250505050505050919291929080359060200190640100000000811115610a8857600080fd5b820183602082011115610a9a57600080fd5b80359060200191846001830284011164010000000083111715610abc57600080fd5b91908080601f016020809104026020016040519081016040528093929190818152602001838380828437600081840152601f19601f8201169050808301925050505050505091929192905050506114ce565b005b348015610b1c57600080fd5b50610bd660048036036020811015610b3357600080fd5b8101908080359060200190640100000000811115610b5057600080fd5b820183602082011115610b6257600080fd5b80359060200191846001830284011164010000000083111715610b8457600080fd5b91908080601f016020809104026020016040519081016040528093929190818152602001838380828437600081840152601f19601f82011690508083019250505050505050919291929050505061171c565b6040518080602001806020018060200180602001858103855289818151815260200191508051906020019080838360005b83811015610c22578082015181840152602081019050610c07565b50505050905090810190601f168015610c4f5780820380516001836020036101000a031916815260200191505b50858103845288818151815260200191508051906020019080838360005b83811015610c88578082015181840152602081019050610c6d565b50505050905090810190601f168015610cb55780820380516001836020036101000a031916815260200191505b50858103835287818151815260200191508051906020019080838360005b83811015610cee578082015181840152602081019050610cd3565b50505050905090810190601f168015610d1b5780820380516001836020036101000a031916815260200191505b50858103825286818151815260200191508051906020019060200280838360005b83811015610d57578082015181840152602081019050610d3c565b505050509050019850505050505050505060405180910390f35b60608060608060608060606001886040518082805190602001908083835b60208310610db25780518252602082019150602081019050602083039250610d8f565b6001836020036101000a03801982511681845116808217855250505050505090500191505090815260200160405180910390206004016000016001896040518082805190602001908083835b60208310610e215780518252602082019150602081019050602083039250610dfe565b6001836020036101000a038019825116818451168082178552505050505050905001915050908152602001604051809103902060040160010160018a6040518082805190602001908083835b60208310610e905780518252602082019150602081019050602083039250610e6d565b6001836020036101000a038019825116818451168082178552505050505050905001915050908152602001604051809103902060040160020160018b6040518082805190602001908083835b60208310610eff5780518252602082019150602081019050602083039250610edc565b6001836020036101000a038019825116818451168082178552505050505050905001915050908152602001604051809103902060040160030160018c6040518082805190602001908083835b60208310610f6e5780518252602082019150602081019050602083039250610f4b565b6001836020036101000a038019825116818451168082178552505050505050905001915050908152602001604051809103902060040160040160018d6040518082805190602001908083835b60208310610fdd5780518252602082019150602081019050602083039250610fba565b6001836020036101000a038019825116818451168082178552505050505050905001915050908152602001604051809103902060040160050160018e6040518082805190602001908083835b6020831061104c5780518252602082019150602081019050602083039250611029565b6001836020036101000a0380198251168184511680821785525050505050509050019150509081526020016040518091039020600401600601868054600181600116156101000203166002900480601f01602080910402602001604051908101604052809291908181526020018280546001816001161561010002031660029004801561111a5780601f106110ef5761010080835404028352916020019161111a565b820191906000526020600020905b8154815290600101906020018083116110fd57829003601f168201915b50505050509650858054600181600116156101000203166002900480601f0160208091040260200160405190810160405280929190818152602001828054600181600116156101000203166002900480156111b65780601f1061118b576101008083540402835291602001916111b6565b820191906000526020600020905b81548152906001019060200180831161119957829003601f168201915b505050505095508480548060200260200160405190810160405280929190818152602001828054801561123e57602002820191906000526020600020905b8160009054906101000a900473ffffffffffffffffffffffffffffffffffffffff1673ffffffffffffffffffffffffffffffffffffffff16815260200190600101908083116111f4575b50505050509450838054600181600116156101000203166002900480601f0160208091040260200160405190810160405280929190818152602001828054600181600116156101000203166002900480156112da5780601f106112af576101008083540402835291602001916112da565b820191906000526020600020905b8154815290600101906020018083116112bd57829003601f168201915b50505050509350828054600181600116156101000203166002900480601f0160208091040260200160405190810160405280929190818152602001828054600181600116156101000203166002900480156113765780601f1061134b57610100808354040283529160200191611376565b820191906000526020600020905b81548152906001019060200180831161135957829003601f168201915b50505050509250818054600181600116156101000203166002900480601f0160208091040260200160405190810160405280929190818152602001828054600181600116156101000203166002900480156114125780601f106113e757610100808354040283529160200191611412565b820191906000526020600020905b8154815290600101906020018083116113f557829003601f168201915b50505050509150808054600181600116156101000203166002900480601f0160208091040260200160405190810160405280929190818152602001828054600181600116156101000203166002900480156114ae5780601f10611483576101008083540402835291602001916114ae565b820191906000526020600020905b81548152906001019060200180831161149157829003601f168201915b505050505090509650965096509650965096509650919395979092949650565b6114d6611b49565b60405180608001604052808d81526020018c81526020018b81526020018a8152509050611501611b71565b6040518060e001604052808a815260200189815260200188815260200187815260200186815260200185815260200184815250905060405180604001604052808381526020018281525060018f6040518082805190602001908083835b60208310611581578051825260208201915060208101905060208303925061155e565b6001836020036101000a038019825116818451168082178552505050505050905001915050908152602001604051809103902060008201518160000160008201518160000190805190602001906115d9929190611bae565b5060208201518160010190805190602001906115f6929190611bae565b506040820151816002019080519060200190611613929190611bae565b506060820151816003019080519060200190611630929190611c2e565b5050506020820151816004016000820151816000019080519060200190611658929190611bae565b506020820151816001019080519060200190611675929190611bae565b506040820151816002019080519060200190611692929190611c2e565b5060608201518160030190805190602001906116af929190611bae565b5060808201518160040190805190602001906116cc929190611bae565b5060a08201518160050190805190602001906116e9929190611bae565b5060c0820151816006019080519060200190611706929190611bae565b5050509050505050505050505050505050505050565b6060806060806001856040518082805190602001908083835b602083106117585780518252602082019150602081019050602083039250611735565b6001836020036101000a03801982511681845116808217855250505050505090500191505090815260200160405180910390206000016000016001866040518082805190602001908083835b602083106117c757805182526020820191506020810190506020830392506117a4565b6001836020036101000a03801982511681845116808217855250505050505090500191505090815260200160405180910390206000016001016001876040518082805190602001908083835b602083106118365780518252602082019150602081019050602083039250611813565b6001836020036101000a03801982511681845116808217855250505050505090500191505090815260200160405180910390206000016002016001886040518082805190602001908083835b602083106118a55780518252602082019150602081019050602083039250611882565b6001836020036101000a0380198251168184511680821785525050505050509050019150509081526020016040518091039020600001600301838054600181600116156101000203166002900480601f0160208091040260200160405190810160405280929190818152602001828054600181600116156101000203166002900480156119735780601f1061194857610100808354040283529160200191611973565b820191906000526020600020905b81548152906001019060200180831161195657829003601f168201915b50505050509350828054600181600116156101000203166002900480601f016020809104026020016040519081016040528092919081815260200182805460018160011615610100020316600290048015611a0f5780601f106119e457610100808354040283529160200191611a0f565b820191906000526020600020905b8154815290600101906020018083116119f257829003601f168201915b50505050509250818054600181600116156101000203166002900480601f016020809104026020016040519081016040528092919081815260200182805460018160011615610100020316600290048015611aab5780601f10611a8057610100808354040283529160200191611aab565b820191906000526020600020905b815481529060010190602001808311611a8e57829003601f168201915b5050505050915080805480602002602001604051908101604052809291908181526020018280548015611b3357602002820191906000526020600020905b8160009054906101000a900473ffffffffffffffffffffffffffffffffffffffff1673ffffffffffffffffffffffffffffffffffffffff1681526020019060010190808311611ae9575b5050505050905093509350935093509193509193565b6040518060800160405280606081526020016060815260200160608152602001606081525090565b6040518060e00160405280606081526020016060815260200160608152602001606081526020016060815260200160608152602001606081525090565b828054600181600116156101000203166002900490600052602060002090601f016020900481019282601f10611bef57805160ff1916838001178555611c1d565b82800160010185558215611c1d579182015b82811115611c1c578251825591602001919060010190611c01565b5b509050611c2a9190611cb8565b5090565b828054828255906000526020600020908101928215611ca7579160200282015b82811115611ca65782518260006101000a81548173ffffffffffffffffffffffffffffffffffffffff021916908373ffffffffffffffffffffffffffffffffffffffff16021790555091602001919060010190611c4e565b5b509050611cb49190611cdd565b5090565b611cda91905b80821115611cd6576000816000905550600101611cbe565b5090565b90565b611d1d91905b80821115611d1957600081816101000a81549073ffffffffffffffffffffffffffffffffffffffff021916905550600101611ce3565b5090565b9056fea265627a7a72315820c3c766b0332c01144bc05dafc7cb933dc279f65bff2756664ae9b27c8a7340c764736f6c63430005100032",
  "source": "// start up  setting \r\npragma solidity >=0.4.21 <0.7.0;\r\n\r\ncontract IRO\r\n{\r\n    address private _owner;\r\n\r\n    modifier isOwner() {\r\n        require(msg.sender == _owner);\r\n        _;\r\n    }\r\n\r\n    struct TokenSetting {\r\n        string tokenName;\r\n        string tokenSymbol;\r\n        string tokenAddr;\r\n        address[] walletAddrs;\r\n    }\r\n\r\n    struct VoteSetting {\r\n        string voteType;\r\n        string voteTokenLimit;\r\n        address[] voteAssignAddrs;\r\n        string voteMSupportPercent;\r\n        string voteMinApprovalPercent;\r\n        string voteMinDurationHours;\r\n        string voteMaxDurationHours;\r\n    }\r\n\r\n    struct Setting {\r\n        TokenSetting tokenSetting;\r\n        VoteSetting voteSetting;\r\n    }\r\n\r\n    mapping (string => Setting) IROs;\r\n\r\n    constructor()\r\n        public {\r\n        _owner = msg.sender;\r\n    }\r\n\r\n    function newSetting(string memory id,\r\n                        string memory tokenName, string memory tokenSymbol, string memory tokenAddr,\r\n                        address[] memory walletAddrs,\r\n                        string memory voteType, string memory voteTokenLimit, address[] memory voteAssignAddrs,\r\n                        string memory voteMSupportPercent, string memory voteMinApprovalPercent,\r\n                        string memory voteMinDurationHours, string memory voteMaxDurationHours)\r\n                        public\r\n                        payable {\r\n        TokenSetting memory tokenSetting = TokenSetting(tokenName, tokenSymbol, tokenAddr, walletAddrs);\r\n        VoteSetting memory voteSetting = VoteSetting(voteType, voteTokenLimit,\r\n                                                     voteAssignAddrs,voteMSupportPercent,voteMinApprovalPercent,\r\n                                                     voteMinDurationHours, voteMaxDurationHours);\r\n        IROs[id] = Setting(tokenSetting, voteSetting);\r\n    }\r\n\r\n    function getTokenSetting(string memory id)\r\n        public\r\n        view\r\n        returns (string memory tokenName, string memory tokenSymbol, string memory tokenAddr,\r\n                address[] memory walletAddrs){\r\n        return (IROs[id].tokenSetting.tokenName, IROs[id].tokenSetting.tokenSymbol,\r\n                IROs[id].tokenSetting.tokenAddr, IROs[id].tokenSetting.walletAddrs);\r\n    }\r\n\r\n    function getVoteSetting(string memory id)\r\n        public\r\n        view\r\n        returns (string memory voteType, string memory voteTokenLimit, address[] memory voteAssignAddrs,\r\n                 string memory voteMSupportPercent, string memory voteMinApprovalPercent,\r\n                 string memory voteMinDurationHours, string memory voteMaxDurationHours){\r\n        return (IROs[id].voteSetting.voteType, IROs[id].voteSetting.voteTokenLimit, IROs[id].voteSetting.voteAssignAddrs,\r\n                IROs[id].voteSetting.voteMSupportPercent, IROs[id].voteSetting.voteMinApprovalPercent,\r\n                IROs[id].voteSetting.voteMinDurationHours, IROs[id].voteSetting.voteMaxDurationHours);\r\n    }\r\n}\r\n",
  "sourcePath": "D:/comunion/cos-contract-com/contracts/IRO.sol",
  "compiler": {
    "name": "solc",
    "version": "0.5.16+commit.9c3226ce.Emscripten.clang"
  },
  "schemaVersion": "3.3.4",
  "updatedAt": "2021-03-19T14:23:31.563Z",
  "networkType": "ethereum",
  "devdoc": {
    "methods": {}
  },
  "userdoc": {
    "methods": {}
  }
}