{
  "contractName": "NumUtils",
  "abi": [
    {
      "constant": true,
      "inputs": [
        {
          "internalType": "string",
          "name": "s",
          "type": "string"
        }
      ],
      "name": "stringToUint",
      "outputs": [
        {
          "internalType": "uint256",
          "name": "",
          "type": "uint256"
        }
      ],
      "payable": false,
      "stateMutability": "pure",
      "type": "function"
    }
  ],
  "bytecode": "0x6101ab610026600b82828239805160001a60731461001957fe5b30600052607381538281f3fe73000000000000000000000000000000000000000030146080604052600436106100355760003560e01c80631bd951551461003a575b600080fd5b6100e06004803603602081101561005057600080fd5b81019060208101813564010000000081111561006b57600080fd5b82018360208201111561007d57600080fd5b8035906020019184600183028401116401000000008311171561009f57600080fd5b91908080601f0160208091040260200160405190810160405280939291908181526020018383808284376000920191909152509295506100f2945050505050565b60408051918252519081900360200190f35b60008181805b825181101561016e57603083828151811061010f57fe5b016020015160f81c108015906101395750603983828151811061012e57fe5b016020015160f81c11155b1561016657603083828151811061014c57fe5b602001015160f81c60f81b60f81c0360ff1682600a020191505b6001016100f8565b50939250505056fea265627a7a7231582052109d538d6dd79adb887384638570536edc15ab91f6c54567e33fa717a9c0fe64736f6c63430005100032",
  "source": "pragma solidity ^0.5.6;\r\n\r\nlibrary NumUtils {\r\n    function stringToUint(string memory s) public pure returns (uint) {\r\n        bytes memory b = bytes(s);\r\n        uint result = 0;\r\n        for (uint i = 0; i < b.length; i++) {\r\n            if (uint8(b[i]) >= 48 && uint8(b[i]) <= 57) {\r\n                result = result * 10 + (uint8(b[i]) - 48);\r\n            }\r\n        }\r\n        return result;\r\n    }\r\n}",
  "sourcePath": "D:/comunion/cos-contract-com/contracts/libraries/NumUtils.sol",
  "compiler": {
    "name": "solc",
    "version": "0.5.16+commit.9c3226ce.Emscripten.clang"
  },
  "schemaVersion": "3.3.4",
  "updatedAt": "2021-05-26T14:52:13.976Z",
  "networkType": "ethereum",
  "devdoc": {
    "methods": {}
  },
  "userdoc": {
    "methods": {}
  }
}