{
  "contractName": "Proposal",
  "abi": [
    {
      "inputs": [
        {
          "internalType": "address",
          "name": "_iroAddress",
          "type": "address"
        },
        {
          "internalType": "address",
          "name": "_discoAddress",
          "type": "address"
        }
      ],
      "payable": false,
      "stateMutability": "nonpayable",
      "type": "constructor"
    },
    {
      "anonymous": false,
      "inputs": [
        {
          "indexed": true,
          "internalType": "string",
          "name": "id",
          "type": "string"
        },
        {
          "components": [
            {
              "internalType": "string",
              "name": "discoId",
              "type": "string"
            },
            {
              "internalType": "string",
              "name": "serialId",
              "type": "string"
            },
            {
              "internalType": "string",
              "name": "title",
              "type": "string"
            },
            {
              "internalType": "enum Proposal.ProposalStatus",
              "name": "status",
              "type": "uint8"
            },
            {
              "internalType": "enum Proposal.ProposalMode",
              "name": "mode",
              "type": "uint8"
            },
            {
              "internalType": "string",
              "name": "contact",
              "type": "string"
            },
            {
              "internalType": "string",
              "name": "description",
              "type": "string"
            },
            {
              "components": [
                {
                  "internalType": "address",
                  "name": "payer",
                  "type": "address"
                },
                {
                  "internalType": "enum Proposal.PaymentMode",
                  "name": "mode",
                  "type": "uint8"
                },
                {
                  "internalType": "uint256",
                  "name": "totalMonths",
                  "type": "uint256"
                },
                {
                  "internalType": "string",
                  "name": "date",
                  "type": "string"
                },
                {
                  "internalType": "contract IERC20",
                  "name": "token",
                  "type": "address"
                },
                {
                  "internalType": "uint256",
                  "name": "totalAmount",
                  "type": "uint256"
                },
                {
                  "internalType": "contract FundPool",
                  "name": "pool",
                  "type": "address"
                }
              ],
              "internalType": "struct Proposal.Payment",
              "name": "payment",
              "type": "tuple"
            },
            {
              "components": [
                {
                  "internalType": "enum IRO.ProposerDriver",
                  "name": "driver",
                  "type": "uint8"
                }
              ],
              "internalType": "struct Proposal.ProposerSetup",
              "name": "proposerSetup",
              "type": "tuple"
            },
            {
              "components": [
                {
                  "internalType": "uint256",
                  "name": "voteMinSupporters",
                  "type": "uint256"
                },
                {
                  "internalType": "string",
                  "name": "voteMinApprovalPercent",
                  "type": "string"
                },
                {
                  "internalType": "uint256",
                  "name": "voteDurationHours",
                  "type": "uint256"
                },
                {
                  "internalType": "uint256",
                  "name": "voteEndTime",
                  "type": "uint256"
                }
              ],
              "internalType": "struct Proposal.VoterSetup",
              "name": "voteSetup",
              "type": "tuple"
            },
            {
              "internalType": "uint256",
              "name": "blockTime",
              "type": "uint256"
            }
          ],
          "indexed": false,
          "internalType": "struct Proposal.ProposalDetail",
          "name": "proposal",
          "type": "tuple"
        },
        {
          "components": [
            {
              "internalType": "uint256",
              "name": "index",
              "type": "uint256"
            },
            {
              "internalType": "uint256",
              "name": "token",
              "type": "uint256"
            },
            {
              "internalType": "string",
              "name": "terms",
              "type": "string"
            }
          ],
          "indexed": false,
          "internalType": "struct Proposal.PaymentDetail[]",
          "name": "paymentDetails",
          "type": "tuple[]"
        }
      ],
      "name": "accepted",
      "type": "event"
    },
    {
      "anonymous": false,
      "inputs": [
        {
          "indexed": true,
          "internalType": "string",
          "name": "id",
          "type": "string"
        },
        {
          "indexed": false,
          "internalType": "enum Proposal.ProposalStatus",
          "name": "original",
          "type": "uint8"
        },
        {
          "indexed": false,
          "internalType": "enum Proposal.ProposalStatus",
          "name": "target",
          "type": "uint8"
        }
      ],
      "name": "statusChanged",
      "type": "event"
    },
    {
      "anonymous": false,
      "inputs": [
        {
          "indexed": true,
          "internalType": "string",
          "name": "id",
          "type": "string"
        },
        {
          "components": [
            {
              "internalType": "string",
              "name": "discoId",
              "type": "string"
            },
            {
              "internalType": "string",
              "name": "serialId",
              "type": "string"
            },
            {
              "internalType": "address",
              "name": "voter",
              "type": "address"
            },
            {
              "internalType": "uint256",
              "name": "pos",
              "type": "uint256"
            },
            {
              "internalType": "uint256",
              "name": "neg",
              "type": "uint256"
            },
            {
              "internalType": "uint256",
              "name": "voteBt",
              "type": "uint256"
            }
          ],
          "indexed": false,
          "internalType": "struct Proposal.Vote",
          "name": "v",
          "type": "tuple"
        }
      ],
      "name": "voted",
      "type": "event"
    },
    {
      "constant": false,
      "inputs": [
        {
          "components": [
            {
              "internalType": "string",
              "name": "discoId",
              "type": "string"
            },
            {
              "internalType": "string",
              "name": "serialId",
              "type": "string"
            },
            {
              "internalType": "string",
              "name": "title",
              "type": "string"
            },
            {
              "internalType": "enum Proposal.ProposalStatus",
              "name": "status",
              "type": "uint8"
            },
            {
              "internalType": "enum Proposal.ProposalMode",
              "name": "mode",
              "type": "uint8"
            },
            {
              "internalType": "string",
              "name": "contact",
              "type": "string"
            },
            {
              "internalType": "string",
              "name": "description",
              "type": "string"
            },
            {
              "components": [
                {
                  "internalType": "address",
                  "name": "payer",
                  "type": "address"
                },
                {
                  "internalType": "enum Proposal.PaymentMode",
                  "name": "mode",
                  "type": "uint8"
                },
                {
                  "internalType": "uint256",
                  "name": "totalMonths",
                  "type": "uint256"
                },
                {
                  "internalType": "string",
                  "name": "date",
                  "type": "string"
                },
                {
                  "internalType": "contract IERC20",
                  "name": "token",
                  "type": "address"
                },
                {
                  "internalType": "uint256",
                  "name": "totalAmount",
                  "type": "uint256"
                },
                {
                  "internalType": "contract FundPool",
                  "name": "pool",
                  "type": "address"
                }
              ],
              "internalType": "struct Proposal.Payment",
              "name": "payment",
              "type": "tuple"
            },
            {
              "components": [
                {
                  "internalType": "enum IRO.ProposerDriver",
                  "name": "driver",
                  "type": "uint8"
                }
              ],
              "internalType": "struct Proposal.ProposerSetup",
              "name": "proposerSetup",
              "type": "tuple"
            },
            {
              "components": [
                {
                  "internalType": "uint256",
                  "name": "voteMinSupporters",
                  "type": "uint256"
                },
                {
                  "internalType": "string",
                  "name": "voteMinApprovalPercent",
                  "type": "string"
                },
                {
                  "internalType": "uint256",
                  "name": "voteDurationHours",
                  "type": "uint256"
                },
                {
                  "internalType": "uint256",
                  "name": "voteEndTime",
                  "type": "uint256"
                }
              ],
              "internalType": "struct Proposal.VoterSetup",
              "name": "voteSetup",
              "type": "tuple"
            },
            {
              "internalType": "uint256",
              "name": "blockTime",
              "type": "uint256"
            }
          ],
          "internalType": "struct Proposal.ProposalDetail",
          "name": "proposal",
          "type": "tuple"
        },
        {
          "components": [
            {
              "internalType": "uint256",
              "name": "index",
              "type": "uint256"
            },
            {
              "internalType": "uint256",
              "name": "token",
              "type": "uint256"
            },
            {
              "internalType": "string",
              "name": "terms",
              "type": "string"
            }
          ],
          "internalType": "struct Proposal.PaymentDetail[]",
          "name": "paymentDetails",
          "type": "tuple[]"
        }
      ],
      "name": "accept",
      "outputs": [
        {
          "components": [
            {
              "internalType": "string",
              "name": "discoId",
              "type": "string"
            },
            {
              "internalType": "string",
              "name": "serialId",
              "type": "string"
            },
            {
              "internalType": "string",
              "name": "title",
              "type": "string"
            },
            {
              "internalType": "enum Proposal.ProposalStatus",
              "name": "status",
              "type": "uint8"
            },
            {
              "internalType": "enum Proposal.ProposalMode",
              "name": "mode",
              "type": "uint8"
            },
            {
              "internalType": "string",
              "name": "contact",
              "type": "string"
            },
            {
              "internalType": "string",
              "name": "description",
              "type": "string"
            },
            {
              "components": [
                {
                  "internalType": "address",
                  "name": "payer",
                  "type": "address"
                },
                {
                  "internalType": "enum Proposal.PaymentMode",
                  "name": "mode",
                  "type": "uint8"
                },
                {
                  "internalType": "uint256",
                  "name": "totalMonths",
                  "type": "uint256"
                },
                {
                  "internalType": "string",
                  "name": "date",
                  "type": "string"
                },
                {
                  "internalType": "contract IERC20",
                  "name": "token",
                  "type": "address"
                },
                {
                  "internalType": "uint256",
                  "name": "totalAmount",
                  "type": "uint256"
                },
                {
                  "internalType": "contract FundPool",
                  "name": "pool",
                  "type": "address"
                }
              ],
              "internalType": "struct Proposal.Payment",
              "name": "payment",
              "type": "tuple"
            },
            {
              "components": [
                {
                  "internalType": "enum IRO.ProposerDriver",
                  "name": "driver",
                  "type": "uint8"
                }
              ],
              "internalType": "struct Proposal.ProposerSetup",
              "name": "proposerSetup",
              "type": "tuple"
            },
            {
              "components": [
                {
                  "internalType": "uint256",
                  "name": "voteMinSupporters",
                  "type": "uint256"
                },
                {
                  "internalType": "string",
                  "name": "voteMinApprovalPercent",
                  "type": "string"
                },
                {
                  "internalType": "uint256",
                  "name": "voteDurationHours",
                  "type": "uint256"
                },
                {
                  "internalType": "uint256",
                  "name": "voteEndTime",
                  "type": "uint256"
                }
              ],
              "internalType": "struct Proposal.VoterSetup",
              "name": "voteSetup",
              "type": "tuple"
            },
            {
              "internalType": "uint256",
              "name": "blockTime",
              "type": "uint256"
            }
          ],
          "internalType": "struct Proposal.ProposalDetail",
          "name": "",
          "type": "tuple"
        }
      ],
      "payable": true,
      "stateMutability": "payable",
      "type": "function"
    },
    {
      "constant": true,
      "inputs": [
        {
          "internalType": "string",
          "name": "id",
          "type": "string"
        },
        {
          "internalType": "string",
          "name": "serialId",
          "type": "string"
        }
      ],
      "name": "proposalDetail",
      "outputs": [
        {
          "components": [
            {
              "internalType": "string",
              "name": "discoId",
              "type": "string"
            },
            {
              "internalType": "string",
              "name": "serialId",
              "type": "string"
            },
            {
              "internalType": "string",
              "name": "title",
              "type": "string"
            },
            {
              "internalType": "enum Proposal.ProposalStatus",
              "name": "status",
              "type": "uint8"
            },
            {
              "internalType": "enum Proposal.ProposalMode",
              "name": "mode",
              "type": "uint8"
            },
            {
              "internalType": "string",
              "name": "contact",
              "type": "string"
            },
            {
              "internalType": "string",
              "name": "description",
              "type": "string"
            },
            {
              "components": [
                {
                  "internalType": "address",
                  "name": "payer",
                  "type": "address"
                },
                {
                  "internalType": "enum Proposal.PaymentMode",
                  "name": "mode",
                  "type": "uint8"
                },
                {
                  "internalType": "uint256",
                  "name": "totalMonths",
                  "type": "uint256"
                },
                {
                  "internalType": "string",
                  "name": "date",
                  "type": "string"
                },
                {
                  "internalType": "contract IERC20",
                  "name": "token",
                  "type": "address"
                },
                {
                  "internalType": "uint256",
                  "name": "totalAmount",
                  "type": "uint256"
                },
                {
                  "internalType": "contract FundPool",
                  "name": "pool",
                  "type": "address"
                }
              ],
              "internalType": "struct Proposal.Payment",
              "name": "payment",
              "type": "tuple"
            },
            {
              "components": [
                {
                  "internalType": "enum IRO.ProposerDriver",
                  "name": "driver",
                  "type": "uint8"
                }
              ],
              "internalType": "struct Proposal.ProposerSetup",
              "name": "proposerSetup",
              "type": "tuple"
            },
            {
              "components": [
                {
                  "internalType": "uint256",
                  "name": "voteMinSupporters",
                  "type": "uint256"
                },
                {
                  "internalType": "string",
                  "name": "voteMinApprovalPercent",
                  "type": "string"
                },
                {
                  "internalType": "uint256",
                  "name": "voteDurationHours",
                  "type": "uint256"
                },
                {
                  "internalType": "uint256",
                  "name": "voteEndTime",
                  "type": "uint256"
                }
              ],
              "internalType": "struct Proposal.VoterSetup",
              "name": "voteSetup",
              "type": "tuple"
            },
            {
              "internalType": "uint256",
              "name": "blockTime",
              "type": "uint256"
            }
          ],
          "internalType": "struct Proposal.ProposalDetail",
          "name": "",
          "type": "tuple"
        },
        {
          "components": [
            {
              "internalType": "uint256",
              "name": "index",
              "type": "uint256"
            },
            {
              "internalType": "uint256",
              "name": "token",
              "type": "uint256"
            },
            {
              "internalType": "string",
              "name": "terms",
              "type": "string"
            }
          ],
          "internalType": "struct Proposal.PaymentDetail[]",
          "name": "paymentDetails",
          "type": "tuple[]"
        }
      ],
      "payable": false,
      "stateMutability": "view",
      "type": "function"
    },
    {
      "constant": true,
      "inputs": [
        {
          "internalType": "string",
          "name": "id",
          "type": "string"
        }
      ],
      "name": "discoProposalCount",
      "outputs": [
        {
          "internalType": "uint256",
          "name": "",
          "type": "uint256"
        }
      ],
      "payable": false,
      "stateMutability": "view",
      "type": "function"
    },
    {
      "constant": false,
      "inputs": [
        {
          "internalType": "string",
          "name": "id",
          "type": "string"
        },
        {
          "internalType": "string",
          "name": "serialId",
          "type": "string"
        },
        {
          "internalType": "enum Proposal.ProposalStatus",
          "name": "target",
          "type": "uint8"
        }
      ],
      "name": "decide",
      "outputs": [],
      "payable": false,
      "stateMutability": "nonpayable",
      "type": "function"
    },
    {
      "constant": true,
      "inputs": [
        {
          "internalType": "string",
          "name": "id",
          "type": "string"
        },
        {
          "internalType": "string",
          "name": "serialId",
          "type": "string"
        }
      ],
      "name": "proposalStatus",
      "outputs": [
        {
          "internalType": "enum Proposal.ProposalStatus",
          "name": "",
          "type": "uint8"
        }
      ],
      "payable": false,
      "stateMutability": "view",
      "type": "function"
    },
    {
      "constant": false,
      "inputs": [
        {
          "components": [
            {
              "internalType": "string",
              "name": "discoId",
              "type": "string"
            },
            {
              "internalType": "string",
              "name": "serialId",
              "type": "string"
            },
            {
              "internalType": "address",
              "name": "voter",
              "type": "address"
            },
            {
              "internalType": "uint256",
              "name": "pos",
              "type": "uint256"
            },
            {
              "internalType": "uint256",
              "name": "neg",
              "type": "uint256"
            },
            {
              "internalType": "uint256",
              "name": "voteBt",
              "type": "uint256"
            }
          ],
          "internalType": "struct Proposal.Vote",
          "name": "v",
          "type": "tuple"
        }
      ],
      "name": "doVote",
      "outputs": [],
      "payable": true,
      "stateMutability": "payable",
      "type": "function"
    },
    {
      "constant": false,
      "inputs": [
        {
          "internalType": "string",
          "name": "discoId",
          "type": "string"
        },
        {
          "internalType": "string",
          "name": "serialId",
          "type": "string"
        }
      ],
      "name": "releaseProposal",
      "outputs": [],
      "payable": false,
      "stateMutability": "nonpayable",
      "type": "function"
    },
    {
      "constant": false,
      "inputs": [
        {
          "components": [
            {
              "internalType": "string",
              "name": "discoId",
              "type": "string"
            },
            {
              "internalType": "string",
              "name": "serialId",
              "type": "string"
            },
            {
              "internalType": "string",
              "name": "title",
              "type": "string"
            },
            {
              "internalType": "enum Proposal.ProposalStatus",
              "name": "status",
              "type": "uint8"
            },
            {
              "internalType": "enum Proposal.ProposalMode",
              "name": "mode",
              "type": "uint8"
            },
            {
              "internalType": "string",
              "name": "contact",
              "type": "string"
            },
            {
              "internalType": "string",
              "name": "description",
              "type": "string"
            },
            {
              "components": [
                {
                  "internalType": "address",
                  "name": "payer",
                  "type": "address"
                },
                {
                  "internalType": "enum Proposal.PaymentMode",
                  "name": "mode",
                  "type": "uint8"
                },
                {
                  "internalType": "uint256",
                  "name": "totalMonths",
                  "type": "uint256"
                },
                {
                  "internalType": "string",
                  "name": "date",
                  "type": "string"
                },
                {
                  "internalType": "contract IERC20",
                  "name": "token",
                  "type": "address"
                },
                {
                  "internalType": "uint256",
                  "name": "totalAmount",
                  "type": "uint256"
                },
                {
                  "internalType": "contract FundPool",
                  "name": "pool",
                  "type": "address"
                }
              ],
              "internalType": "struct Proposal.Payment",
              "name": "payment",
              "type": "tuple"
            },
            {
              "components": [
                {
                  "internalType": "enum IRO.ProposerDriver",
                  "name": "driver",
                  "type": "uint8"
                }
              ],
              "internalType": "struct Proposal.ProposerSetup",
              "name": "proposerSetup",
              "type": "tuple"
            },
            {
              "components": [
                {
                  "internalType": "uint256",
                  "name": "voteMinSupporters",
                  "type": "uint256"
                },
                {
                  "internalType": "string",
                  "name": "voteMinApprovalPercent",
                  "type": "string"
                },
                {
                  "internalType": "uint256",
                  "name": "voteDurationHours",
                  "type": "uint256"
                },
                {
                  "internalType": "uint256",
                  "name": "voteEndTime",
                  "type": "uint256"
                }
              ],
              "internalType": "struct Proposal.VoterSetup",
              "name": "voteSetup",
              "type": "tuple"
            },
            {
              "internalType": "uint256",
              "name": "blockTime",
              "type": "uint256"
            }
          ],
          "internalType": "struct Proposal.ProposalDetail",
          "name": "proposal",
          "type": "tuple"
        },
        {
          "components": [
            {
              "internalType": "uint256",
              "name": "index",
              "type": "uint256"
            },
            {
              "internalType": "uint256",
              "name": "token",
              "type": "uint256"
            },
            {
              "internalType": "string",
              "name": "terms",
              "type": "string"
            }
          ],
          "internalType": "struct Proposal.PaymentDetail[]",
          "name": "paymentDetails",
          "type": "tuple[]"
        }
      ],
      "name": "fullSet",
      "outputs": [
        {
          "components": [
            {
              "internalType": "string",
              "name": "discoId",
              "type": "string"
            },
            {
              "internalType": "string",
              "name": "serialId",
              "type": "string"
            },
            {
              "internalType": "string",
              "name": "title",
              "type": "string"
            },
            {
              "internalType": "enum Proposal.ProposalStatus",
              "name": "status",
              "type": "uint8"
            },
            {
              "internalType": "enum Proposal.ProposalMode",
              "name": "mode",
              "type": "uint8"
            },
            {
              "internalType": "string",
              "name": "contact",
              "type": "string"
            },
            {
              "internalType": "string",
              "name": "description",
              "type": "string"
            },
            {
              "components": [
                {
                  "internalType": "address",
                  "name": "payer",
                  "type": "address"
                },
                {
                  "internalType": "enum Proposal.PaymentMode",
                  "name": "mode",
                  "type": "uint8"
                },
                {
                  "internalType": "uint256",
                  "name": "totalMonths",
                  "type": "uint256"
                },
                {
                  "internalType": "string",
                  "name": "date",
                  "type": "string"
                },
                {
                  "internalType": "contract IERC20",
                  "name": "token",
                  "type": "address"
                },
                {
                  "internalType": "uint256",
                  "name": "totalAmount",
                  "type": "uint256"
                },
                {
                  "internalType": "contract FundPool",
                  "name": "pool",
                  "type": "address"
                }
              ],
              "internalType": "struct Proposal.Payment",
              "name": "payment",
              "type": "tuple"
            },
            {
              "components": [
                {
                  "internalType": "enum IRO.ProposerDriver",
                  "name": "driver",
                  "type": "uint8"
                }
              ],
              "internalType": "struct Proposal.ProposerSetup",
              "name": "proposerSetup",
              "type": "tuple"
            },
            {
              "components": [
                {
                  "internalType": "uint256",
                  "name": "voteMinSupporters",
                  "type": "uint256"
                },
                {
                  "internalType": "string",
                  "name": "voteMinApprovalPercent",
                  "type": "string"
                },
                {
                  "internalType": "uint256",
                  "name": "voteDurationHours",
                  "type": "uint256"
                },
                {
                  "internalType": "uint256",
                  "name": "voteEndTime",
                  "type": "uint256"
                }
              ],
              "internalType": "struct Proposal.VoterSetup",
              "name": "voteSetup",
              "type": "tuple"
            },
            {
              "internalType": "uint256",
              "name": "blockTime",
              "type": "uint256"
            }
          ],
          "internalType": "struct Proposal.ProposalDetail",
          "name": "",
          "type": "tuple"
        }
      ],
      "payable": false,
      "stateMutability": "nonpayable",
      "type": "function"
    },
    {
      "constant": false,
      "inputs": [
        {
          "internalType": "address",
          "name": "_iroAddress",
          "type": "address"
        }
      ],
      "name": "setIROBase",
      "outputs": [],
      "payable": false,
      "stateMutability": "nonpayable",
      "type": "function"
    },
    {
      "constant": false,
      "inputs": [
        {
          "internalType": "address",
          "name": "_discoAddress",
          "type": "address"
        }
      ],
      "name": "setDiscoBase",
      "outputs": [],
      "payable": false,
      "stateMutability": "nonpayable",
      "type": "function"
    }
  ],
  "bytecode": "0x60806040523480156200001157600080fd5b50604051620050dd380380620050dd833981016040819052620000349162000158565b600080546001600160a01b031916331790556200005a826001600160e01b036200007616565b6200006e816001600160e01b03620000e216565b505062000266565b6000546001600160a01b031633146200008e57600080fd5b6001600160a01b038116620000c05760405162461bcd60e51b8152600401620000b7906200020d565b60405180910390fd5b600180546001600160a01b0319166001600160a01b0392909216919091179055565b6000546001600160a01b03163314620000fa57600080fd5b6001600160a01b038116620001235760405162461bcd60e51b8152600401620000b7906200021f565b600280546001600160a01b0319166001600160a01b0392909216919091179055565b805162000152816200024c565b92915050565b600080604083850312156200016c57600080fd5b60006200017a858562000145565b92505060206200018d8582860162000145565b9150509250929050565b6000620001a660158362000231565b7f69726f206164647265737320697320656d7074792e0000000000000000000000815260200192915050565b6000620001e160178362000231565b7f646973636f206164647265737320697320656d7074792e000000000000000000815260200192915050565b60208082528101620001528162000197565b602080825281016200015281620001d2565b90815260200190565b60006001600160a01b03821662000152565b62000257816200023a565b81146200026357600080fd5b50565b614e6780620002766000396000f3fe6080604052600436106200009e5760003560e01c80638f65e69711620000615780638f65e6971462000178578063cd1aaa2114620001ac578063d0ed475214620001d2578063d46d6d8a14620001f7578063ffb135a8146200021c576200009e565b80630f5e184914620000a35780633122fef114620000ca578063474b58c2146200010857806359f7f240146200013c57806372d92f281462000153575b600080fd5b348015620000b057600080fd5b50620000c8620000c2366004620038fc565b62000241565b005b348015620000d757600080fd5b50620000ef620000e9366004620038fc565b62000777565b604051620000ff92919062004539565b60405180910390f35b3480156200011557600080fd5b506200012d62000127366004620038fc565b62000958565b604051620000ff9190620043d6565b620000c86200014d36600462003aa4565b62000a0d565b3480156200016057600080fd5b50620000c86200017236600462003833565b62000db9565b3480156200018557600080fd5b506200019d62000197366004620038b7565b62000e1c565b604051620000ff919062004575565b620001c3620001bd366004620039fe565b62000e4a565b604051620000ff919062004526565b348015620001df57600080fd5b50620001c3620001f1366004620039fe565b62001ca0565b3480156200020457600080fd5b50620000c86200021636600462003971565b62002085565b3480156200022957600080fd5b50620000c86200023b36600462003833565b62002440565b6000546001600160a01b031633146200025957600080fd5b6200026362002b39565b620002d885858080601f01602080910402602001604051908101604052809392919081815260200183838082843760009201919091525050604080516020601f89018190048102820181019092528781529250879150869081908401838280828437600092019190915250620024a392505050565b905083620003035760405162461bcd60e51b8152600401620002fa90620044a8565b60405180910390fd5b6000816060015160038111156200031657fe5b1415620003375760405162461bcd60e51b8152600401620002fa9062004496565b60025481516040516366f61fb960e01b81526000926001600160a01b0316916366f61fb9916200036b919060040162004405565b60206040518083038186803b1580156200038457600080fd5b505afa15801562000399573d6000803e3d6000fd5b505050506040513d601f19601f82011682018060405250620003bf919081019062003896565b905060606200043887878080601f01602080910402602001604051908101604052809392919081815260200183838082843760009201919091525050604080516020601f8b01819004810282018101909252898152925089915088908190840183828082843760009201919091525062002aed92505050565b905060606006826040516200044e919062004352565b9081526020016040518091039020805480602002602001604051908101604052809291908181526020016000905b82821015620006205760008481526020908190206040805160068602909201805460026001821615610100026000190190911604601f8101859004909402830160e090810190925260c08301848152929390928492909184918401828280156200052a5780601f10620004fe576101008083540402835291602001916200052a565b820191906000526020600020905b8154815290600101906020018083116200050c57829003601f168201915b50505050508152602001600182018054600181600116156101000203166002900480601f016020809104026020016040519081016040528092919081815260200182805460018160011615610100020316600290048015620005d05780601f10620005a457610100808354040283529160200191620005d0565b820191906000526020600020905b815481529060010190602001808311620005b257829003601f168201915b505050918352505060028201546001600160a01b0316602080830191909152600383015460408301526004830154606083015260059092015460809091015290825260019290920191016200047c565b5050505060e085015160c0015190915060005b8251811015620006e0576200064762002bb7565b8382815181106200065457fe5b60200260200101519050826001600160a01b031663beabacc887836040015184608001518560600151016040518463ffffffff1660e01b81526004016200069e93929190620043b7565b600060405180830381600087803b158015620006b957600080fd5b505af1158015620006ce573d6000803e3d6000fd5b50506001909301925062000633915050565b50600185606001516003811115620006f457fe5b146200076c5760e0850151805160a0909101516040516317d5759960e31b81526001600160a01b0384169263beabacc892620007379289929190600401620043b7565b600060405180830381600087803b1580156200075257600080fd5b505af115801562000767573d6000803e3d6000fd5b505050505b505050505050505050565b6200078162002b39565b60606200078d62002b39565b6200080287878080601f01602080910402602001604051908101604052809392919081815260200183838082843760009201919091525050604080516020601f8b018190048102820181019092528981529250899150889081908401838280828437600092019190915250620024a392505050565b90506060620008118262002b1b565b90508160048260405162000826919062004352565b908152602001604051809103902080805480602002602001604051908101604052809291908181526020016000905b828210156200094357838290600052602060002090600302016040518060600160405290816000820154815260200160018201548152602001600282018054600181600116156101000203166002900480601f0160208091040260200160405190810160405280929190818152602001828054600181600116156101000203166002900480156200092a5780601f10620008fe576101008083540402835291602001916200092a565b820191906000526020600020905b8154815290600101906020018083116200090c57829003601f168201915b5050505050815250508152602001906001019062000855565b50505050905093509350505094509492505050565b60006200096462002b39565b620009d986868080601f01602080910402602001604051908101604052809392919081815260200183838082843760009201919091525050604080516020601f8a018190048102820181019092528881529250889150879081908401838280828437600092019190915250620024a392505050565b805151909150620009fe5760405162461bcd60e51b8152600401620002fa90620044a8565b6060015190505b949350505050565b62000a1762002b39565b62000a2b82600001518360200151620024a3565b82515190915062000a505760405162461bcd60e51b8152600401620002fa90620044a8565b60008160600151600381111562000a6357fe5b1462000a835760405162461bcd60e51b8152600401620002fa9062004514565b62000a8d62002bf6565b506101208101516060810151429081111562000abd5760405162461bcd60e51b8152600401620002fa90620044de565b600084608001518560600151011162000aea5760405162461bcd60e51b8152600401620002fa9062004484565b60025483516040516366f61fb960e01b81526000926001600160a01b0316916366f61fb99162000b1e919060040162004405565b60206040518083038186803b15801562000b3757600080fd5b505afa15801562000b4c573d6000803e3d6000fd5b505050506040513d601f19601f8201168201806040525062000b72919081019062003896565b9050806001600160a01b03166323b872dd338660e0015160c001516001600160a01b03166338cc48316040518163ffffffff1660e01b815260040160206040518083038186803b15801562000bc657600080fd5b505afa15801562000bdb573d6000803e3d6000fd5b505050506040513d601f19601f8201168201806040525062000c01919081019062003854565b88608001518960600151016040518463ffffffff1660e01b815260040162000c2c9392919062004389565b602060405180830381600087803b15801562000c4757600080fd5b505af115801562000c5c573d6000803e3d6000fd5b505050506040513d601f19601f8201168201806040525062000c82919081019062003875565b504260a08601523360408601528451602086015160609162000ca49162002aed565b905060068160405162000cb8919062004352565b908152604051602091819003820190208054600181018083556000928352918390208951805193948b9460069094029092019262000cfa928492019062002c1e565b50602082810151805162000d15926001850192019062002c1e565b506040828101516002830180546001600160a01b0319166001600160a01b03909216919091179055606083015160038301556080830151600483015560a0909201516005909101556020870151905162000d70925062004352565b60405180910390207f1fc2188cf86b2fdff0c37c3a4cc9ac40d660cb3ed78875f759054aa66515180f8760405162000da9919062004562565b60405180910390a2505050505050565b6000546001600160a01b0316331462000dd157600080fd5b6001600160a01b03811662000dfa5760405162461bcd60e51b8152600401620002fa90620044f0565b600280546001600160a01b0319166001600160a01b0392909216919091179055565b60006005838360405162000e3292919062004343565b90815260200160405180910390205490505b92915050565b62000e5462002b39565b60208301515162000e795760405162461bcd60e51b8152600401620002fa90620044cc565b82515162000e9b5760405162461bcd60e51b8152600401620002fa906200444e565b60006003846000015160405162000eb3919062004352565b9081526020016040518091039020905062000ecd62002b39565b81856020015160405162000ee2919062004352565b9081526040805160209281900383018120805460026001821615610100026000190190911604601f81018590049094028201610180908101909352610160820184815291939092849291849184018282801562000f835780601f1062000f575761010080835404028352916020019162000f83565b820191906000526020600020905b81548152906001019060200180831162000f6557829003601f168201915b50505050508152602001600182018054600181600116156101000203166002900480601f016020809104026020016040519081016040528092919081815260200182805460018160011615610100020316600290048015620010295780601f1062000ffd5761010080835404028352916020019162001029565b820191906000526020600020905b8154815290600101906020018083116200100b57829003601f168201915b5050509183525050600282810180546040805160206001841615610100026000190190931694909404601f81018390048302850183019091528084529381019390830182828015620010bf5780601f106200109357610100808354040283529160200191620010bf565b820191906000526020600020905b815481529060010190602001808311620010a157829003601f168201915b505050918352505060038281015460209092019160ff1690811115620010e157fe5b6003811115620010ed57fe5b81526020016003820160019054906101000a900460ff1660068111156200111057fe5b60068111156200111c57fe5b815260048201805460408051602060026001851615610100026000190190941693909304601f8101849004840282018401909252818152938201939291830182828015620011ae5780601f106200118257610100808354040283529160200191620011ae565b820191906000526020600020905b8154815290600101906020018083116200119057829003601f168201915b505050918352505060058201805460408051602060026001851615610100026000190190941693909304601f8101849004840282018401909252818152938201939291830182828015620012465780601f106200121a5761010080835404028352916020019162001246565b820191906000526020600020905b8154815290600101906020018083116200122857829003601f168201915b50505091835250506040805160e081019091526006830180546001600160a01b0381168352602093840193830190600160a01b900460ff1660018111156200128a57fe5b60018111156200129657fe5b815260200160018201548152602001600282018054600181600116156101000203166002900480601f016020809104026020016040519081016040528092919081815260200182805460018160011615610100020316600290048015620013415780601f10620013155761010080835404028352916020019162001341565b820191906000526020600020905b8154815290600101906020018083116200132357829003601f168201915b50505091835250506003828101546001600160a01b0390811660208085019190915260048501546040808601919091526005909501549091166060909301929092529284528151808201909252600c85018054949091019391929091839160ff90911690811115620013af57fe5b6003811115620013bb57fe5b905250815260408051608081018252600d840180548252600e850180548451602060026001841615610100026000190190931692909204601f8101839004830282018301909652858152958101959394929381860193909291830182828015620014695780601f106200143d5761010080835404028352916020019162001469565b820191906000526020600020905b8154815290600101906020018083116200144b57829003601f168201915b505050505081526020016002820154815260200160038201548152505081526020016011820154815250509050806000015151600014620014be5760405162461bcd60e51b8152600401620002fa90620044ba565b620014c862002ca3565b600154865160405163ef7ae53f60e01b81526001600160a01b039092169163ef7ae53f91620014fa9160040162004405565b60006040518083038186803b1580156200151357600080fd5b505afa15801562001528573d6000803e3d6000fd5b505050506040513d6000823e601f3d908101601f1916820160405262001552919081019062003a6c565b805151909150620015775760405162461bcd60e51b8152600401620002fa906200442a565b6200158162002ce2565b5060408101516000815160038111156200159757fe5b1415620015b85760405162461bcd60e51b8152600401620002fa906200443c565b604051806020016040528082600001516003811115620015d457fe5b9052610100880152620015e662002d04565b506060820151600081516003811115620015fc57fe5b14156200161d5760405162461bcd60e51b8152600401620002fa9062004502565b610120880151604001514290600090620016ca5760a0830151604051631bd9515560e01b815273__NumUtils______________________________91631bd95155916200166e919060040162004405565b60206040518083038186803b1580156200168757600080fd5b505af41580156200169c573d6000803e3d6000fd5b505050506040513d601f19601f82011682018060405250620016c2919081019062003adc565b9050620016d6565b50610120890151604001515b60408051608080820183526060808701518352908601516020830152818301849052610e1084028501908201526101208c01526002548b5191516366f61fb960e01b81526000926001600160a01b03909216916366f61fb9916200173e919060040162004405565b60206040518083038186803b1580156200175757600080fd5b505afa1580156200176c573d6000803e3d6000fd5b505050506040513d601f19601f8201168201806040525062001792919081019062003896565b60e08c01516001600160a01b03821660809091015290506060620017b68c62002b1b565b905080604051620017c79062002d42565b620017d3919062004405565b604051809103906000f080158015620017f0573d6000803e3d6000fd5b5060e08d0180516001600160a01b0390921660c0909201919091525160a00151156200192457816001600160a01b03166323b872dd338e60e0015160c001516001600160a01b03166338cc48316040518163ffffffff1660e01b815260040160206040518083038186803b1580156200186857600080fd5b505afa1580156200187d573d6000803e3d6000fd5b505050506040513d601f19601f82011682018060405250620018a3919081019062003854565b8f60e0015160a001516040518463ffffffff1660e01b8152600401620018cc9392919062004389565b602060405180830381600087803b158015620018e757600080fd5b505af1158015620018fc573d6000803e3d6000fd5b505050506040513d601f19601f8201168201806040525062001922919081019062003875565b505b8a5160005b81811015620019bf5760048360405162001944919062004352565b90815260200160405180910390208d82815181106200195f57fe5b60209081029190910181015182546001818101808655600095865294849020835160039093020191825582840151908201556040820151805192939192620019ae926002850192019062002c1e565b505060019092019150620019299050565b506101408d0185905260208d01516040518e918c91620019e0919062004352565b9081526020016040518091039020600082015181600001908051906020019062001a0c92919062002c1e565b50602082810151805162001a27926001850192019062002c1e565b506040820151805162001a4591600284019160209091019062002c1e565b5060608201518160030160006101000a81548160ff0219169083600381111562001a6b57fe5b0217905550608082015160038201805461ff00191661010083600681111562001a9057fe5b021790555060a0820151805162001ab291600484019160209091019062002c1e565b5060c0820151805162001ad091600584019160209091019062002c1e565b5060e082015180516006830180546001600160a01b0319166001600160a01b0390921691909117808255602083015190829060ff60a01b1916600160a01b83600181111562001b1b57fe5b0217905550604082015160018201556060820151805162001b4791600284019160209091019062002c1e565b506080820151600380830180546001600160a01b039384166001600160a01b03199182161790915560a0850151600485015560c0909401516005909301805493909216929093169190911790556101008301518051600c8401805492939092839160ff1990911690600190849081111562001bbe57fe5b021790555050506101208201518051600d8301908155602080830151805162001bee92600e870192019062002c1e565b50604082810151600283015560609092015160039091015561014092909201516011909101558d51905160059162001c269162004352565b9081526040519081900360209081018220805460010190558e015162001c4c9162004352565b60405180910390207fb0ae19235db096972d3feaac5f62dbb92fabed9b7305e1b244777034f866601e8e8e60405162001c8792919062004539565b60405180910390a2509a9b9a5050505050505050505050565b62001caa62002b39565b6000546001600160a01b0316331462001cc257600080fd5b60208301515162001ce75760405162461bcd60e51b8152600401620002fa90620044cc565b82515162001d095760405162461bcd60e51b8152600401620002fa906200444e565b60006003846000015160405162001d21919062004352565b908152602001604051809103902090508381856020015160405162001d47919062004352565b9081526020016040518091039020600082015181600001908051906020019062001d7392919062002c1e565b50602082810151805162001d8e926001850192019062002c1e565b506040820151805162001dac91600284019160209091019062002c1e565b5060608201518160030160006101000a81548160ff0219169083600381111562001dd257fe5b0217905550608082015160038201805461ff00191661010083600681111562001df757fe5b021790555060a0820151805162001e1991600484019160209091019062002c1e565b5060c0820151805162001e3791600584019160209091019062002c1e565b5060e082015180516006830180546001600160a01b0319166001600160a01b0390921691909117808255602083015190829060ff60a01b1916600160a01b83600181111562001e8257fe5b0217905550604082015160018201556060820151805162001eae91600284019160209091019062002c1e565b506080820151600380830180546001600160a01b039384166001600160a01b03199182161790915560a0850151600485015560c0909401516005909301805493909216929093169190911790556101008301518051600c8401805492939092839160ff1990911690600190849081111562001f2557fe5b021790555050506101208201518051600d8301908155602080830151805162001f5592600e870192019062002c1e565b5060408201516002820155606091820151600390910155610140929092015160119091015562001f858562002b1b565b845190915060005b81811015620020235760048360405162001fa8919062004352565b908152602001604051809103902086828151811062001fc357fe5b6020908102919091018101518254600181810180865560009586529484902083516003909302019182558284015190820155604082015180519293919262002012926002850192019062002c1e565b50506001909201915062001f8d9050565b50856020015160405162002038919062004352565b60405180910390207fb0ae19235db096972d3feaac5f62dbb92fabed9b7305e1b244777034f866601e87876040516200207392919062004539565b60405180910390a25093949350505050565b6200208f62002b39565b6200210486868080601f01602080910402602001604051908101604052809392919081815260200183838082843760009201919091525050604080516020601f8a018190048102820181019092528881529250889150879081908401838280828437600092019190915250620024a392505050565b805151909150620021295760405162461bcd60e51b8152600401620002fa9062004418565b806060015160038111156200213a57fe5b8260038111156200214757fe5b146200243857606081018051908360038111156200216157fe5b908160038111156200216f57fe5b905250815160405160009160039162002189919062004352565b9081526020016040518091039020905082818787604051620021ad92919062004343565b90815260200160405180910390206000820151816000019080519060200190620021d992919062002c1e565b506020828101518051620021f4926001850192019062002c1e565b50604082015180516200221291600284019160209091019062002c1e565b5060608201518160030160006101000a81548160ff021916908360038111156200223857fe5b0217905550608082015160038201805461ff0019166101008360068111156200225d57fe5b021790555060a082015180516200227f91600484019160209091019062002c1e565b5060c082015180516200229d91600584019160209091019062002c1e565b5060e082015180516006830180546001600160a01b0319166001600160a01b0390921691909117808255602083015190829060ff60a01b1916600160a01b836001811115620022e857fe5b021790555060408201516001820155606082015180516200231491600284019160209091019062002c1e565b506080820151600380830180546001600160a01b039384166001600160a01b03199182161790915560a0850151600485015560c0909401516005909301805493909216929093169190911790556101008301518051600c8401805492939092839160ff199091169060019084908111156200238b57fe5b021790555050506101208201518051600d83019081556020808301518051620023bb92600e870192019062002c1e565b506040820151816002015560608201518160030155505061014082015181601101559050508787604051620023f292919062004343565b60405180910390207f984b6675ffc22e1f752662b0ce0a6e95adb7944d816aa2d09e6995c9b20a198a83866040516200242d929190620043e6565b60405180910390a250505b505050505050565b6000546001600160a01b031633146200245857600080fd5b6001600160a01b038116620024815760405162461bcd60e51b8152600401620002fa9062004472565b600180546001600160a01b0319166001600160a01b0392909216919091179055565b620024ad62002b39565b8251620024ce5760405162461bcd60e51b8152600401620002fa9062004460565b8151620024ef5760405162461bcd60e51b8152600401620002fa90620044cc565b600060038460405162002503919062004352565b908152602001604051809103902090506200251d62002b39565b81846040516200252e919062004352565b9081526040805160209281900383018120805460026001821615610100026000190190911604601f810185900490940282016101809081019093526101608201848152919390928492918491840182828015620025cf5780601f10620025a357610100808354040283529160200191620025cf565b820191906000526020600020905b815481529060010190602001808311620025b157829003601f168201915b50505050508152602001600182018054600181600116156101000203166002900480601f016020809104026020016040519081016040528092919081815260200182805460018160011615610100020316600290048015620026755780601f10620026495761010080835404028352916020019162002675565b820191906000526020600020905b8154815290600101906020018083116200265757829003601f168201915b5050509183525050600282810180546040805160206001841615610100026000190190931694909404601f810183900483028501830190915280845293810193908301828280156200270b5780601f10620026df576101008083540402835291602001916200270b565b820191906000526020600020905b815481529060010190602001808311620026ed57829003601f168201915b505050918352505060038281015460209092019160ff16908111156200272d57fe5b60038111156200273957fe5b81526020016003820160019054906101000a900460ff1660068111156200275c57fe5b60068111156200276857fe5b815260048201805460408051602060026001851615610100026000190190941693909304601f8101849004840282018401909252818152938201939291830182828015620027fa5780601f10620027ce57610100808354040283529160200191620027fa565b820191906000526020600020905b815481529060010190602001808311620027dc57829003601f168201915b505050918352505060058201805460408051602060026001851615610100026000190190941693909304601f8101849004840282018401909252818152938201939291830182828015620028925780601f10620028665761010080835404028352916020019162002892565b820191906000526020600020905b8154815290600101906020018083116200287457829003601f168201915b50505091835250506040805160e081019091526006830180546001600160a01b0381168352602093840193830190600160a01b900460ff166001811115620028d657fe5b6001811115620028e257fe5b815260200160018201548152602001600282018054600181600116156101000203166002900480601f0160208091040260200160405190810160405280929190818152602001828054600181600116156101000203166002900480156200298d5780601f1062002961576101008083540402835291602001916200298d565b820191906000526020600020905b8154815290600101906020018083116200296f57829003601f168201915b50505091835250506003828101546001600160a01b0390811660208085019190915260048501546040808601919091526005909501549091166060909301929092529284528151808201909252600c85018054949091019391929091839160ff90911690811115620029fb57fe5b600381111562002a0757fe5b905250815260408051608081018252600d840180548252600e850180548451602060026001841615610100026000190190931692909204601f810183900483028201830190965285815295810195939492938186019390929183018282801562002ab55780601f1062002a895761010080835404028352916020019162002ab5565b820191906000526020600020905b81548152906001019060200180831162002a9757829003601f168201915b505050505081526020016002820154815260200160038201548152505081526020016011820154815250509050809250505092915050565b6060828260405160200162002b0492919062004360565b604051602081830303815290604052905092915050565b606062002b318260000151836020015162002aed565b90505b919050565b6040518061016001604052806060815260200160608152602001606081526020016000600381111562002b6857fe5b815260200160008152602001606081526020016060815260200162002b8c62002d50565b815260200162002b9b62002d8b565b815260200162002baa62002bf6565b8152602001600081525090565b6040518060c00160405280606081526020016060815260200160006001600160a01b031681526020016000815260200160008152602001600081525090565b6040518060800160405280600081526020016060815260200160008152602001600081525090565b828054600181600116156101000203166002900490600052602060002090601f016020900481019282601f1062002c6157805160ff191683800117855562002c91565b8280016001018555821562002c91579182015b8281111562002c9157825182559160200191906001019062002c74565b5062002c9f92915062002d9f565b5090565b60405180608001604052806060815260200162002cbf62002dbf565b815260200162002cce62002ce2565b815260200162002cdd62002d04565b905290565b6040805160608101909152806000815260200160008152602001606081525090565b6040805160e0810190915280600081526020016060815260200160608152602001600081526020016060815260200160608152602001606081525090565b6106ce806200475783390190565b6040805160e0810182526000808252602082018190529181018290526060808201526080810182905260a0810182905260c081019190915290565b604080516020810190915280600062002cdd565b62002dbc91905b8082111562002c9f576000815560010162002da6565b90565b6040518060800160405280606081526020016060815260200160608152602001606081525090565b803562000e4481620046f4565b805162000e4481620046f4565b600082601f83011262002e1357600080fd5b815162002e2a62002e2482620045ac565b62004585565b9150818183526020840193506020810190508385602084028201111562002e5057600080fd5b60005b8381101562002e80578162002e69888262002df4565b845250602092830192919091019060010162002e53565b5050505092915050565b600082601f83011262002e9c57600080fd5b813562002ead62002e2482620045ac565b81815260209384019390925082018360005b8381101562002e80578135860162002ed8888262003038565b845250602092830192919091019060010162002ebf565b805162000e44816200470b565b803562000e448162004716565b805162000e448162004716565b803562000e448162004721565b803562000e44816200472f565b803562000e44816200473d565b805162000e44816200473d565b60008083601f84011262002f5d57600080fd5b5081356001600160401b0381111562002f7557600080fd5b60208301915083600182028301111562002f8e57600080fd5b9250929050565b600082601f83011262002fa757600080fd5b813562002fb862002e2482620045cd565b9150808252602083016020830185838301111562002fd557600080fd5b62002fe28382846200468b565b50505092915050565b600082601f83011262002ffd57600080fd5b81516200300e62002e2482620045cd565b915080825260208301602083018583830111156200302b57600080fd5b62002fe283828462004697565b6000606082840312156200304b57600080fd5b62003057606062004585565b9050600062003067848462003819565b82525060206200307a8484830162003819565b60208301525060408201356001600160401b038111156200309a57600080fd5b620030a88482850162002f95565b60408301525092915050565b600060e08284031215620030c757600080fd5b620030d360e062004585565b90506000620030e3848462002de7565b8252506020620030f68484830162002f16565b60208301525060406200310c8482850162003819565b60408301525060608201356001600160401b038111156200312c57600080fd5b6200313a8482850162002f95565b6060830152506080620031508482850162002efc565b60808301525060a0620031668482850162003819565b60a08301525060c06200317c8482850162002efc565b60c08301525092915050565b600061016082840312156200319c57600080fd5b620031a961016062004585565b905081356001600160401b03811115620031c257600080fd5b620031d08482850162002f95565b82525060208201356001600160401b03811115620031ed57600080fd5b620031fb8482850162002f95565b60208301525060408201356001600160401b038111156200321b57600080fd5b620032298482850162002f95565b60408301525060606200323f8482850162002f30565b6060830152506080620032558482850162002f23565b60808301525060a08201356001600160401b038111156200327557600080fd5b620032838482850162002f95565b60a08301525060c08201356001600160401b03811115620032a357600080fd5b620032b18482850162002f95565b60c08301525060e08201356001600160401b03811115620032d157600080fd5b620032df84828501620030b4565b60e083015250610100620032f684828501620033bb565b610100830152506101208201356001600160401b038111156200331857600080fd5b620033268482850162003798565b610120830152506101406200333e8482850162003819565b6101408301525092915050565b6000606082840312156200335e57600080fd5b6200336a606062004585565b905060006200337a848462002f3d565b82525060206200338d8484830162003826565b60208301525060408201516001600160401b03811115620033ad57600080fd5b620030a88482850162002e01565b600060208284031215620033ce57600080fd5b620033da602062004585565b90506000620033ea848462002f30565b82525092915050565b6000608082840312156200340657600080fd5b62003412608062004585565b82519091506001600160401b038111156200342c57600080fd5b6200343a8482850162002feb565b82525060208201516001600160401b038111156200345757600080fd5b6200346584828501620034cd565b60208301525060408201516001600160401b038111156200348557600080fd5b62003493848285016200334b565b60408301525060608201516001600160401b03811115620034b357600080fd5b620034c18482850162003670565b60608301525092915050565b600060808284031215620034e057600080fd5b620034ec608062004585565b82519091506001600160401b038111156200350657600080fd5b620035148482850162002feb565b82525060208201516001600160401b038111156200353157600080fd5b6200353f8482850162002feb565b60208301525060408201516001600160401b038111156200355f57600080fd5b6200356d8482850162002feb565b60408301525060608201516001600160401b038111156200358d57600080fd5b620034c18482850162002e01565b600060c08284031215620035ae57600080fd5b620035ba60c062004585565b905081356001600160401b03811115620035d357600080fd5b620035e18482850162002f95565b82525060208201356001600160401b03811115620035fe57600080fd5b6200360c8482850162002f95565b6020830152506040620036228482850162002de7565b6040830152506060620036388482850162003819565b60608301525060806200364e8482850162003819565b60808301525060a0620036648482850162003819565b60a08301525092915050565b600060e082840312156200368357600080fd5b6200368f60e062004585565b905060006200369f848462002f3d565b82525060208201516001600160401b03811115620036bc57600080fd5b620036ca8482850162002feb565b60208301525060408201516001600160401b03811115620036ea57600080fd5b620036f88482850162002e01565b60408301525060606200370e8482850162003826565b60608301525060808201516001600160401b038111156200372e57600080fd5b6200373c8482850162002feb565b60808301525060a08201516001600160401b038111156200375c57600080fd5b6200376a8482850162002feb565b60a08301525060c08201516001600160401b038111156200378a57600080fd5b6200317c8482850162002feb565b600060808284031215620037ab57600080fd5b620037b7608062004585565b90506000620037c7848462003819565b82525060208201356001600160401b03811115620037e457600080fd5b620037f28482850162002f95565b6020830152506040620038088482850162003819565b6040830152506060620034c1848285015b803562000e44816200474b565b805162000e44816200474b565b6000602082840312156200384657600080fd5b600062000a05848462002de7565b6000602082840312156200386757600080fd5b600062000a05848462002df4565b6000602082840312156200388857600080fd5b600062000a05848462002eef565b600060208284031215620038a957600080fd5b600062000a05848462002f09565b60008060208385031215620038cb57600080fd5b82356001600160401b03811115620038e257600080fd5b620038f08582860162002f4a565b92509250509250929050565b600080600080604085870312156200391357600080fd5b84356001600160401b038111156200392a57600080fd5b620039388782880162002f4a565b945094505060208501356001600160401b038111156200395757600080fd5b620039658782880162002f4a565b95989497509550505050565b6000806000806000606086880312156200398a57600080fd5b85356001600160401b03811115620039a157600080fd5b620039af8882890162002f4a565b955095505060208601356001600160401b03811115620039ce57600080fd5b620039dc8882890162002f4a565b93509350506040620039f18882890162002f30565b9150509295509295909350565b6000806040838503121562003a1257600080fd5b82356001600160401b0381111562003a2957600080fd5b62003a378582860162003188565b92505060208301356001600160401b0381111562003a5457600080fd5b62003a628582860162002e8a565b9150509250929050565b60006020828403121562003a7f57600080fd5b81516001600160401b0381111562003a9657600080fd5b62000a0584828501620033f3565b60006020828403121562003ab757600080fd5b81356001600160401b0381111562003ace57600080fd5b62000a05848285016200359b565b60006020828403121562003aef57600080fd5b600062000a05848462003826565b600062003b0b83836200402c565b9392505050565b62003b1d8162004657565b82525050565b62003b1d8162004608565b600062003b3b82620045fb565b62003b478185620045ff565b93508360208202850162003b5b85620045f5565b8060005b8581101562003b9b578484038952815162003b7b858262003afd565b945062003b8883620045f5565b60209a909a019992505060010162003b5f565b5091979650505050505050565b62003b1d816200461a565b62003b1d8162004664565b62003b1d8162004671565b62003b1d816200467e565b600062003be2838562002b34565b935062003bf18385846200468b565b50500190565b600062003c0482620045fb565b62003c108185620045ff565b935062003c2281856020860162004697565b62003c2d81620046c6565b9093019392505050565b600062003c4482620045fb565b62003c50818562002b34565b935062003c6281856020860162004697565b9290920192915050565b600062003c7b601183620045ff565b70383937b837b9b0b61036b4b9b9b4b7339760791b815260200192915050565b600062003caa601883620045ff565b7f626173652073657474696e67206e6f74206578697374732e0000000000000000815260200192915050565b600062003ce5601c83620045ff565b7f70726f706f7365722073657474696e67206e6f74206578697374732e00000000815260200192915050565b600062003d20601a83620045ff565b7f70726f706f73616c20646973636f496420697320656d70747921000000000000815260200192915050565b600062003d5b601283620045ff565b71646973636f20696420697320656d7074792160701b815260200192915050565b600062003d8b601583620045ff565b7434b9379030b2323932b9b99034b99032b6b83a3c9760591b815260200192915050565b600062003dbe601e83620045ff565b7f6120696e76616c696420766f74652c20766f7465206e756d203c3d20302e0000815260200192915050565b600062003df9602383620045ff565b7f7468652070726f706f73616c20636f756c64206e6f742062652072656c65617381526232b21760e91b602082015260400192915050565b600062003e40601e83620045ff565b7f70726f706f73616c206d697373696e672c20636865636b2066697273742e0000815260200192915050565b600062003e7b603f83620045ff565b7f70726f706f73616c20616c7265616479206578697374732c20706c656173652081527f7265706c61636520776974682074686520636f6e7472616374206f776e657200602082015260400192915050565b600062003edc601b83620045ff565b7f70726f706f73616c2073657269616c496420697320656d707479210000000000815260200192915050565b600062003f17601083620045ff565b6f3b37ba329034b99032bc3834b932b21760811b815260200192915050565b600062003f45601783620045ff565b7f646973636f206164647265737320697320656d7074792e000000000000000000815260200192915050565b600062003f80601983620045ff565b7f766f7465722073657474696e67206e6f74206578697374732e00000000000000815260200192915050565b600062003fbb60018362002b34565b600160fe1b815260010192915050565b600062003fda603a83620045ff565b7f7468652070726f706f73616c20636f756c64206e6f7420626520766f7465642081527f7768656e20737461747573206973206e6f7420766f74696e672e000000000000602082015260400192915050565b8051600090606084019062004042858262004338565b50602083015162004057602086018262004338565b506040830151848203604086015262004071828262003bf7565b95945050505050565b805160009060e084019062004090858262003b23565b506020830151620040a5602086018262003bb3565b506040830151620040ba604086018262004338565b5060608301518482036060860152620040d4828262003bf7565b9150506080830151620040eb608086018262003ba8565b5060a08301516200410060a086018262004338565b5060c08301516200411560c086018262003ba8565b509392505050565b80516101608084526000919084019062004138828262003bf7565b9150506020830151848203602086015262004154828262003bf7565b9150506040830151848203604086015262004170828262003bf7565b915050606083015162004187606086018262003bc9565b5060808301516200419c608086018262003bbe565b5060a083015184820360a0860152620041b6828262003bf7565b91505060c083015184820360c0860152620041d2828262003bf7565b91505060e083015184820360e0860152620041ee82826200407a565b915050610100830151620042076101008601826200423c565b50610120830151848203610120860152620042238282620042e1565b9150506101408301516200411561014086018262004338565b805160208301906200424f848262003bc9565b50505050565b805160c0808452600091908401906200426f828262003bf7565b915050602083015184820360208601526200428b828262003bf7565b9150506040830151620042a2604086018262003b23565b506060830151620042b7606086018262004338565b506080830151620042cc608086018262004338565b5060a08301516200411560a086018262004338565b80516000906080840190620042f7858262004338565b506020830151848203602086015262004311828262003bf7565b915050604083015162004328604086018262004338565b5060608301516200411560608601825b62003b1d8162002dbc565b600062000a0582848662003bd4565b600062003b0b828462003c37565b60006200436e828562003c37565b91506200437b8262003fac565b915062000a05828462003c37565b6060810162004399828662003b12565b620043a8602083018562003b12565b62000a05604083018462004338565b60608101620043c7828662003ba8565b620043a8602083018562003b23565b6020810162000e44828462003bc9565b60408101620043f6828562003bc9565b62003b0b602083018462003bc9565b6020808252810162003b0b818462003bf7565b6020808252810162002b318162003c6c565b6020808252810162002b318162003c9b565b6020808252810162002b318162003cd6565b6020808252810162002b318162003d11565b6020808252810162002b318162003d4c565b6020808252810162002b318162003d7c565b6020808252810162002b318162003daf565b6020808252810162002b318162003dea565b6020808252810162002b318162003e31565b6020808252810162002b318162003e6c565b6020808252810162002b318162003ecd565b6020808252810162002b318162003f08565b6020808252810162002b318162003f36565b6020808252810162002b318162003f71565b6020808252810162002b318162003fcb565b6020808252810162003b0b81846200411d565b604080825281016200454c81856200411d565b9050818103602083015262000a05818462003b2e565b6020808252810162003b0b818462004255565b6020810162000e44828462004338565b6040518181016001600160401b0381118282101715620045a457600080fd5b604052919050565b60006001600160401b03821115620045c357600080fd5b5060209081020190565b60006001600160401b03821115620045e457600080fd5b506020601f91909101601f19160190565b60200190565b5190565b90815260200190565b600062002b31826200464b565b151590565b600062002b318262004608565b8062002b3481620046d0565b8062002b3481620046de565b8062002b3481620046e9565b6001600160a01b031690565b600062002b31826200461a565b600062002b318262004627565b600062002b318262004633565b600062002b31826200463f565b82818337506000910152565b60005b83811015620046b45781810151838201526020016200469a565b838111156200424f5750506000910152565b601f01601f191690565b60028110620046db57fe5b50565b60078110620046db57fe5b60048110620046db57fe5b620046ff8162004608565b8114620046db57600080fd5b620046ff8162004615565b620046ff816200461a565b60028110620046db57600080fd5b60078110620046db57600080fd5b60048110620046db57600080fd5b620046ff8162002dbc56fe608060405234801561001057600080fd5b506040516106ce3803806106ce83398101604081905261002f91610138565b8051610042906000906020840190610049565b50506101f1565b828054600181600116156101000203166002900490600052602060002090601f016020900481019282601f1061008a57805160ff19168380011785556100b7565b828001600101855582156100b7579182015b828111156100b757825182559160200191906001019061009c565b506100c39291506100c7565b5090565b6100e191905b808211156100c357600081556001016100cd565b90565b600082601f8301126100f557600080fd5b81516101086101038261019a565b610174565b9150808252602083016020830185838301111561012457600080fd5b61012f8382846101c1565b50505092915050565b60006020828403121561014a57600080fd5b81516001600160401b0381111561016057600080fd5b61016c848285016100e4565b949350505050565b6040518181016001600160401b038111828210171561019257600080fd5b604052919050565b60006001600160401b038211156101b057600080fd5b506020601f91909101601f19160190565b60005b838110156101dc5781810151838201526020016101c4565b838111156101eb576000848401525b50505050565b6104ce806102006000396000f3fe60806040526004361061004a5760003560e01c806338cc48311461004c5780634f95a04b14610077578063beabacc81461008a578063e1f21c67146100aa578063fb1e6a62146100ca575b005b34801561005857600080fd5b506100616100ec565b60405161006e91906103a7565b60405180910390f35b61004a6100853660046102aa565b6100f0565b34801561009657600080fd5b5061004a6100a536600461030a565b61012b565b3480156100b657600080fd5b5061004a6100c536600461030a565b6101b4565b3480156100d657600080fd5b506100df6101e2565b60405161006e91906103d7565b3090565b6040516001600160a01b0383169082156108fc029083906000818181858888f19350505050158015610126573d6000803e3d6000fd5b505050565b60405163a9059cbb60e01b81526001600160a01b0384169063a9059cbb9061015990859085906004016103b5565b602060405180830381600087803b15801561017357600080fd5b505af1158015610187573d6000803e3d6000fd5b505050506040513d601f19601f820116820180604052506101ab91908101906102e4565b61012657600080fd5b60405163095ea7b360e01b81526001600160a01b0384169063095ea7b39061015990859085906004016103b5565b60008054604080516020601f600260001961010060018816150201909516949094049384018190048102820181019092528281526060939092909183018282801561026e5780601f106102435761010080835404028352916020019161026e565b820191906000526020600020905b81548152906001019060200180831161025157829003601f168201915b5050505050905090565b803561028381610459565b92915050565b805161028381610470565b803561028381610479565b803561028381610482565b600080604083850312156102bd57600080fd5b60006102c98585610278565b92505060206102da8582860161029f565b9150509250929050565b6000602082840312156102f657600080fd5b60006103028484610289565b949350505050565b60008060006060848603121561031f57600080fd5b600061032b8686610294565b935050602061033c86828701610278565b925050604061034d8682870161029f565b9150509250925092565b610360816103f5565b82525050565b6000610371826103e8565b61037b81856103ec565b935061038b81856020860161041f565b6103948161044f565b9093019392505050565b6103608161041c565b602081016102838284610357565b604081016103c38285610357565b6103d0602083018461039e565b9392505050565b602080825281016103d08184610366565b5190565b90815260200190565b600061028382610410565b151590565b6000610283826103f5565b6001600160a01b031690565b90565b60005b8381101561043a578181015183820152602001610422565b83811115610449576000848401525b50505050565b601f01601f191690565b610462816103f5565b811461046d57600080fd5b50565b61046281610400565b61046281610405565b6104628161041c56fea365627a7a723158207f379b51e6cd5aaa6d01675b5369a381b7b03472f4a4e3a95a2e0bbfa95afa9a6c6578706572696d656e74616cf564736f6c63430005100040a365627a7a7231582054c48147240997aa28adf7cf5df484f711b95734f08a23ec172545ec666f67046c6578706572696d656e74616cf564736f6c63430005100040",
  "source": "pragma solidity >=0.4.21 <0.7.0;\r\npragma experimental ABIEncoderV2;\r\n\r\n\r\nimport \"./IRO.sol\";\r\nimport \"./Disco.sol\";\r\nimport \"./common/Base.sol\";\r\nimport \"./common/FundPool.sol\";\r\nimport \"./interfaces/IErc20.sol\";\r\nimport {NumUtils} from \"./libraries/NumUtils.sol\";\r\n\r\ncontract Proposal is Base\r\n{\r\n\r\n    IRO private _iroBase;\r\n\r\n    Disco private _discoBase;\r\n\r\n    enum ProposalStatus{\r\n        Voting, Pass, Defeated, Invalid\r\n    }\r\n\r\n    enum ProposalMode{\r\n        Finance, Governance, Strategy, Product, Media, Community, Node\r\n    }\r\n\r\n    enum PaymentMode{\r\n        MonthlyPay, OneTimePay\r\n    }\r\n\r\n    constructor(address _iroAddress, address _discoAddress) Base() public {\r\n        setIROBase(_iroAddress);\r\n        setDiscoBase(_discoAddress);\r\n    }\r\n\r\n    struct ProposalDetail {\r\n        string discoId;\r\n        string serialId;\r\n        string title;\r\n        ProposalStatus status;\r\n        ProposalMode mode;\r\n        string contact;\r\n        string description;\r\n        Payment payment;\r\n        ProposerSetup proposerSetup;\r\n        VoterSetup voteSetup;\r\n        uint256 blockTime;\r\n    }\r\n\r\n    struct Payment {\r\n        address payer;\r\n        PaymentMode mode;\r\n        uint256 totalMonths;\r\n        string date;     //require text! Good luck for any external caller or user.\r\n        IERC20 token;\r\n        uint256 totalAmount;\r\n        FundPool pool;\r\n    }\r\n\r\n    struct PaymentDetail {\r\n        uint256 index;\r\n        uint256 token;\r\n        string terms;\r\n    }\r\n\r\n    struct ProposerSetup {\r\n        IRO.ProposerDriver driver;\r\n    }\r\n\r\n    struct VoterSetup {\r\n        uint256 voteMinSupporters;\r\n        string voteMinApprovalPercent;\r\n        uint256 voteDurationHours;\r\n        uint256 voteEndTime;\r\n    }\r\n\r\n    struct Vote {\r\n        string discoId;\r\n        string serialId;\r\n        address voter;\r\n        uint256 pos;\r\n        uint256 neg;\r\n        uint256 voteBt;\r\n    }\r\n\r\n    mapping(string => mapping(string => ProposalDetail)) private discoProposals;\r\n    //unsupported copy struct memory xxx[] to xxx, so create mapping to save the payment details.\r\n    mapping(string => PaymentDetail[]) private proposalPaymentDetails;\r\n    mapping(string => uint256) private countDiscoProposals;\r\n    mapping(string => Vote[]) private votes;\r\n\r\n    event accepted(string indexed id, ProposalDetail proposal, PaymentDetail[] paymentDetails);\r\n\r\n    event statusChanged(string indexed id, ProposalStatus original, ProposalStatus target);\r\n\r\n    event voted(string indexed id, Vote v);\r\n\r\n    function accept(ProposalDetail memory proposal, PaymentDetail[] memory paymentDetails) public payable returns (ProposalDetail memory) {\r\n        require(bytes(proposal.serialId).length != 0, \"proposal serialId is empty!\");\r\n        require(bytes(proposal.discoId).length != 0, \"proposal discoId is empty!\");\r\n        mapping(string => ProposalDetail) storage discoProposalMapper = discoProposals[proposal.discoId];\r\n        ProposalDetail memory checkProposal = discoProposalMapper[proposal.serialId];\r\n        require(bytes(checkProposal.discoId).length == 0, \"proposal already exists, please replace with the contract owner\");\r\n\r\n        IRO.Setting memory baseSetting = _iroBase.setting(proposal.discoId);\r\n        require(bytes(baseSetting.id).length != 0, \"base setting not exists.\");\r\n\r\n        IRO.ProposerSetting memory proposerSetting = baseSetting.proposerSetting;\r\n        require(proposerSetting.driver != IRO.ProposerDriver.None, \"proposer setting not exists.\");\r\n        proposal.proposerSetup = ProposerSetup(proposerSetting.driver);\r\n\r\n        IRO.VoterSetting memory voterSetting = baseSetting.voterSetting;\r\n        require(voterSetting.voteType != IRO.VoteType.None, \"voter setting not exists.\");\r\n\r\n        uint256 bt = block.timestamp;\r\n        uint256 voteDurationHours;\r\n        if (proposal.voteSetup.voteDurationHours == 0) {\r\n            //string to uint\r\n            voteDurationHours = NumUtils.stringToUint(voterSetting.voteMinDurationHours);\r\n        } else {\r\n            voteDurationHours = proposal.voteSetup.voteDurationHours;\r\n        }\r\n\r\n        proposal.voteSetup = VoterSetup(voterSetting.voteMinSupporters, voterSetting.voteMinApprovalPercent, voteDurationHours, bt + voteDurationHours * 3600);\r\n\r\n        //lock init proposal token into a pool.\r\n        IERC20 token = _discoBase.discoToken(proposal.discoId);\r\n        proposal.payment.token = token;\r\n        //cal poolId\r\n        string memory poolId = getPoolId(proposal);\r\n        proposal.payment.pool = new FundPool(poolId);\r\n        if (proposal.payment.totalAmount > 0) {\r\n            token.transferFrom(msg.sender, proposal.payment.pool.getAddress(), proposal.payment.totalAmount);\r\n        }\r\n\r\n        uint256 paymentDetailsSize = paymentDetails.length;\r\n        for (uint256 i = 0; i < paymentDetailsSize; i++) {\r\n            proposalPaymentDetails[poolId].push(paymentDetails[i]);\r\n        }\r\n        //record block once\r\n        proposal.blockTime = bt;\r\n        discoProposalMapper[proposal.serialId] = proposal;\r\n        countDiscoProposals[proposal.discoId]++;\r\n        emit accepted(proposal.serialId, proposal, paymentDetails);\r\n        return proposal;\r\n    }\r\n\r\n    function proposalDetail(string calldata id, string calldata serialId) external view returns (ProposalDetail memory, PaymentDetail[] memory paymentDetails){\r\n        ProposalDetail memory proposal = internalProposal(id, serialId);\r\n        string memory poolId = getPoolId(proposal);\r\n        return (proposal, proposalPaymentDetails[poolId]);\r\n    }\r\n\r\n    function internalDiscoProposalDetail(string memory id) internal view returns (mapping(string => ProposalDetail) storage){\r\n        require(bytes(id).length != 0, \"disco id is empty!\");\r\n        mapping(string => ProposalDetail) storage discoProposalMapper = discoProposals[id];\r\n        // inappropriate when too much.\r\n        return discoProposalMapper;\r\n    }\r\n\r\n    /**\r\n     * get proposal count.\r\n     **/\r\n    function discoProposalCount(string calldata id) external view returns (uint256){\r\n        return countDiscoProposals[id];\r\n    }\r\n\r\n    /**\r\n    * decide proposal status.\r\n    **/\r\n    function decide(string calldata id, string calldata serialId, ProposalStatus target) external {\r\n        ProposalDetail memory proposal = internalProposal(id, serialId);\r\n        require(bytes(proposal.discoId).length != 0, \"proposal missing.\");\r\n        if (target != proposal.status) {\r\n            ProposalStatus original = proposal.status;\r\n            proposal.status = target;\r\n            mapping(string => ProposalDetail) storage discoProposalMapper = discoProposals[proposal.discoId];\r\n            discoProposalMapper[serialId] = proposal;\r\n            // notify to listener for status.\r\n            emit statusChanged(id, original, target);\r\n        }\r\n\r\n    }\r\n\r\n    /**\r\n    * get proposal status.\r\n    **/\r\n    function proposalStatus(string calldata id, string calldata serialId) external view returns (ProposalStatus){\r\n        ProposalDetail memory proposal = internalProposal(id, serialId);\r\n        require(bytes(proposal.discoId).length != 0, \"proposal missing, check first.\");\r\n        return proposal.status;\r\n    }\r\n\r\n    function internalProposal(string memory id, string memory serialId) internal view returns (ProposalDetail memory){\r\n        require(bytes(id).length != 0, \"disco id is empty!\");\r\n        require(bytes(serialId).length != 0, \"proposal serialId is empty!\");\r\n        mapping(string => ProposalDetail) storage discoProposalMapper = discoProposals[id];\r\n        ProposalDetail memory proposal = discoProposalMapper[serialId];\r\n        return proposal;\r\n    }\r\n\r\n    /**\r\n    * vote when proposal is voting.\r\n    * lock into the fundPool.\r\n    **/\r\n    function doVote(Vote memory v) public payable {\r\n        ProposalDetail memory proposal = internalProposal(v.discoId, v.serialId);\r\n        require(bytes(v.discoId).length != 0, \"proposal missing, check first.\");\r\n        require(proposal.status == ProposalStatus.Voting, \"the proposal could not be voted when status is not voting.\");\r\n        VoterSetup memory setup = proposal.voteSetup;\r\n        uint256 bt = block.timestamp;\r\n        require(bt <= setup.voteEndTime, \"vote is expired.\");\r\n        require(v.pos + v.neg > 0, \"a invalid vote, vote num <= 0.\");\r\n        IERC20 token = _discoBase.discoToken(proposal.discoId);\r\n        token.transferFrom(msg.sender, proposal.payment.pool.getAddress(), v.pos + v.neg);\r\n        v.voteBt = block.timestamp;\r\n        v.voter = msg.sender;\r\n        string memory poolId = getPoolId(v.discoId, v.serialId);\r\n        votes[poolId].push(v);\r\n        emit voted(proposal.serialId, v);\r\n    }\r\n\r\n    /**\r\n  * release pool vote token when proposal is not Voting.\r\n  * release pool payment token when proposal is not Pass.\r\n  **/\r\n    function releaseProposal(string calldata discoId, string calldata serialId) external isOwner {\r\n        ProposalDetail memory proposal = internalProposal(discoId, serialId);\r\n        require(bytes(discoId).length != 0, \"proposal missing, check first.\");\r\n        require(proposal.status != ProposalStatus.Voting, \"the proposal could not be released.\");\r\n        IERC20 token = _discoBase.discoToken(proposal.discoId);\r\n        string memory poolId = getPoolId(discoId, serialId);\r\n        Vote[] memory vs = votes[poolId];\r\n        FundPool pool = proposal.payment.pool;\r\n        for (uint256 i = 0; i < vs.length; i++) {\r\n            Vote memory v = vs[i];\r\n            pool.transfer(token, v.voter, v.pos + v.neg);\r\n        }\r\n        if (proposal.status != ProposalStatus.Pass) {\r\n            pool.transfer(token, proposal.payment.payer, proposal.payment.totalAmount);\r\n        }\r\n    }\r\n\r\n    //owner manage.\r\n    function fullSet(ProposalDetail memory proposal, PaymentDetail[] memory paymentDetails) public isOwner returns (ProposalDetail memory) {\r\n        require(bytes(proposal.serialId).length != 0, \"proposal serialId is empty!\");\r\n        require(bytes(proposal.discoId).length != 0, \"proposal discoId is empty!\");\r\n        mapping(string => ProposalDetail) storage discoProposalMapper = discoProposals[proposal.discoId];\r\n        discoProposalMapper[proposal.serialId] = proposal;\r\n        string memory poolId = getPoolId(proposal);\r\n        uint256 paymentDetailsSize = paymentDetails.length;\r\n        for (uint256 i = 0; i < paymentDetailsSize; i++) {\r\n            proposalPaymentDetails[poolId].push(paymentDetails[i]);\r\n        }\r\n        emit accepted(proposal.serialId, proposal, paymentDetails);\r\n        return proposal;\r\n    }\r\n\r\n    //internal utils\r\n    function getPoolId(string memory discoId, string memory serialId) internal pure returns (string memory){\r\n        return string(abi.encodePacked(discoId, \"@\", serialId));\r\n    }\r\n\r\n    function getPoolId(ProposalDetail memory proposal) internal pure returns (string memory){\r\n        return getPoolId(proposal.discoId, proposal.serialId);\r\n    }\r\n\r\n    function setIROBase(address _iroAddress) public isOwner {\r\n        require(_iroAddress != address(0), \"iro address is empty.\");\r\n        _iroBase = IRO(_iroAddress);\r\n    }\r\n\r\n    function setDiscoBase(address _discoAddress) public isOwner {\r\n        require(_discoAddress != address(0), \"disco address is empty.\");\r\n        _discoBase = Disco(_discoAddress);\r\n    }\r\n}",
  "sourcePath": "D:/comunion/cos-contract-com/contracts/Proposal.sol",
  "compiler": {
    "name": "solc",
    "version": "0.5.16+commit.9c3226ce.Emscripten.clang"
  },
  "schemaVersion": "3.3.4",
  "updatedAt": "2021-05-26T14:52:13.960Z",
  "networkType": "ethereum",
  "devdoc": {
    "methods": {}
  },
  "userdoc": {
    "methods": {
      "decide(string,string,uint8)": {
        "notice": "decide proposal status.*"
      },
      "discoProposalCount(string)": {
        "notice": "get proposal count.*"
      },
      "doVote((string,string,address,uint256,uint256,uint256))": {
        "notice": "vote when proposal is voting. lock into the fundPool.*"
      },
      "proposalStatus(string,string)": {
        "notice": "get proposal status.*"
      },
      "releaseProposal(string,string)": {
        "notice": "release pool vote token when proposal is not Voting. release pool payment token when proposal is not Pass.*"
      }
    }
  }
}