{
  "contractName": "Proposal",
  "abi": [
    {
      "inputs": [
        {
          "internalType": "address",
          "name": "_iroAddress",
          "type": "address"
        },
        {
          "internalType": "address",
          "name": "_discoAddress",
          "type": "address"
        }
      ],
      "payable": false,
      "stateMutability": "nonpayable",
      "type": "constructor"
    },
    {
      "anonymous": false,
      "inputs": [
        {
          "indexed": true,
          "internalType": "string",
          "name": "id",
          "type": "string"
        },
        {
          "components": [
            {
              "internalType": "string",
              "name": "discoId",
              "type": "string"
            },
            {
              "internalType": "string",
              "name": "serialId",
              "type": "string"
            },
            {
              "internalType": "string",
              "name": "title",
              "type": "string"
            },
            {
              "internalType": "enum Proposal.ProposalStatus",
              "name": "status",
              "type": "uint8"
            },
            {
              "internalType": "enum Proposal.ProposalMode",
              "name": "mode",
              "type": "uint8"
            },
            {
              "internalType": "string",
              "name": "contact",
              "type": "string"
            },
            {
              "internalType": "string",
              "name": "description",
              "type": "string"
            },
            {
              "components": [
                {
                  "internalType": "address",
                  "name": "payer",
                  "type": "address"
                },
                {
                  "internalType": "enum Proposal.PaymentMode",
                  "name": "mode",
                  "type": "uint8"
                },
                {
                  "internalType": "uint256",
                  "name": "totalMonths",
                  "type": "uint256"
                },
                {
                  "internalType": "string",
                  "name": "date",
                  "type": "string"
                },
                {
                  "internalType": "uint256",
                  "name": "paymentAmount",
                  "type": "uint256"
                },
                {
                  "internalType": "uint256",
                  "name": "totalAmount",
                  "type": "uint256"
                },
                {
                  "internalType": "contract IERC20",
                  "name": "token",
                  "type": "address"
                },
                {
                  "internalType": "contract FundPool",
                  "name": "pool",
                  "type": "address"
                }
              ],
              "internalType": "struct Proposal.Payment",
              "name": "payment",
              "type": "tuple"
            },
            {
              "components": [
                {
                  "internalType": "enum IRO.ProposerDriver",
                  "name": "driver",
                  "type": "uint8"
                }
              ],
              "internalType": "struct Proposal.ProposerSetup",
              "name": "proposerSetup",
              "type": "tuple"
            },
            {
              "components": [
                {
                  "internalType": "uint256",
                  "name": "voteMinSupporters",
                  "type": "uint256"
                },
                {
                  "internalType": "string",
                  "name": "voteMinApprovalPercent",
                  "type": "string"
                },
                {
                  "internalType": "uint256",
                  "name": "voteDurationHours",
                  "type": "uint256"
                },
                {
                  "internalType": "uint256",
                  "name": "voteEndTime",
                  "type": "uint256"
                }
              ],
              "internalType": "struct Proposal.VoterSetup",
              "name": "voteSetup",
              "type": "tuple"
            },
            {
              "internalType": "uint256",
              "name": "blockTime",
              "type": "uint256"
            },
            {
              "internalType": "address",
              "name": "proposer",
              "type": "address"
            }
          ],
          "indexed": false,
          "internalType": "struct Proposal.ProposalDetail",
          "name": "proposal",
          "type": "tuple"
        },
        {
          "components": [
            {
              "internalType": "uint256",
              "name": "index",
              "type": "uint256"
            },
            {
              "internalType": "uint256",
              "name": "token",
              "type": "uint256"
            },
            {
              "internalType": "string",
              "name": "terms",
              "type": "string"
            }
          ],
          "indexed": false,
          "internalType": "struct Proposal.PaymentDetail[]",
          "name": "paymentDetails",
          "type": "tuple[]"
        }
      ],
      "name": "accepted",
      "type": "event"
    },
    {
      "anonymous": false,
      "inputs": [
        {
          "indexed": true,
          "internalType": "string",
          "name": "id",
          "type": "string"
        },
        {
          "indexed": false,
          "internalType": "enum Proposal.ProposalStatus",
          "name": "original",
          "type": "uint8"
        },
        {
          "indexed": false,
          "internalType": "enum Proposal.ProposalStatus",
          "name": "target",
          "type": "uint8"
        }
      ],
      "name": "statusChanged",
      "type": "event"
    },
    {
      "anonymous": false,
      "inputs": [
        {
          "indexed": true,
          "internalType": "string",
          "name": "id",
          "type": "string"
        },
        {
          "components": [
            {
              "internalType": "string",
              "name": "discoId",
              "type": "string"
            },
            {
              "internalType": "string",
              "name": "serialId",
              "type": "string"
            },
            {
              "internalType": "address",
              "name": "voter",
              "type": "address"
            },
            {
              "internalType": "uint256",
              "name": "pos",
              "type": "uint256"
            },
            {
              "internalType": "uint256",
              "name": "neg",
              "type": "uint256"
            },
            {
              "internalType": "uint256",
              "name": "voteBt",
              "type": "uint256"
            }
          ],
          "indexed": false,
          "internalType": "struct Proposal.Vote",
          "name": "v",
          "type": "tuple"
        }
      ],
      "name": "voted",
      "type": "event"
    },
    {
      "constant": false,
      "inputs": [
        {
          "components": [
            {
              "internalType": "string",
              "name": "discoId",
              "type": "string"
            },
            {
              "internalType": "string",
              "name": "serialId",
              "type": "string"
            },
            {
              "internalType": "string",
              "name": "title",
              "type": "string"
            },
            {
              "internalType": "enum Proposal.ProposalStatus",
              "name": "status",
              "type": "uint8"
            },
            {
              "internalType": "enum Proposal.ProposalMode",
              "name": "mode",
              "type": "uint8"
            },
            {
              "internalType": "string",
              "name": "contact",
              "type": "string"
            },
            {
              "internalType": "string",
              "name": "description",
              "type": "string"
            },
            {
              "components": [
                {
                  "internalType": "address",
                  "name": "payer",
                  "type": "address"
                },
                {
                  "internalType": "enum Proposal.PaymentMode",
                  "name": "mode",
                  "type": "uint8"
                },
                {
                  "internalType": "uint256",
                  "name": "totalMonths",
                  "type": "uint256"
                },
                {
                  "internalType": "string",
                  "name": "date",
                  "type": "string"
                },
                {
                  "internalType": "uint256",
                  "name": "paymentAmount",
                  "type": "uint256"
                },
                {
                  "internalType": "uint256",
                  "name": "totalAmount",
                  "type": "uint256"
                },
                {
                  "internalType": "contract IERC20",
                  "name": "token",
                  "type": "address"
                },
                {
                  "internalType": "contract FundPool",
                  "name": "pool",
                  "type": "address"
                }
              ],
              "internalType": "struct Proposal.Payment",
              "name": "payment",
              "type": "tuple"
            },
            {
              "components": [
                {
                  "internalType": "enum IRO.ProposerDriver",
                  "name": "driver",
                  "type": "uint8"
                }
              ],
              "internalType": "struct Proposal.ProposerSetup",
              "name": "proposerSetup",
              "type": "tuple"
            },
            {
              "components": [
                {
                  "internalType": "uint256",
                  "name": "voteMinSupporters",
                  "type": "uint256"
                },
                {
                  "internalType": "string",
                  "name": "voteMinApprovalPercent",
                  "type": "string"
                },
                {
                  "internalType": "uint256",
                  "name": "voteDurationHours",
                  "type": "uint256"
                },
                {
                  "internalType": "uint256",
                  "name": "voteEndTime",
                  "type": "uint256"
                }
              ],
              "internalType": "struct Proposal.VoterSetup",
              "name": "voteSetup",
              "type": "tuple"
            },
            {
              "internalType": "uint256",
              "name": "blockTime",
              "type": "uint256"
            },
            {
              "internalType": "address",
              "name": "proposer",
              "type": "address"
            }
          ],
          "internalType": "struct Proposal.ProposalDetail",
          "name": "proposal",
          "type": "tuple"
        },
        {
          "components": [
            {
              "internalType": "uint256",
              "name": "index",
              "type": "uint256"
            },
            {
              "internalType": "uint256",
              "name": "token",
              "type": "uint256"
            },
            {
              "internalType": "string",
              "name": "terms",
              "type": "string"
            }
          ],
          "internalType": "struct Proposal.PaymentDetail[]",
          "name": "paymentDetails",
          "type": "tuple[]"
        }
      ],
      "name": "accept",
      "outputs": [
        {
          "components": [
            {
              "internalType": "string",
              "name": "discoId",
              "type": "string"
            },
            {
              "internalType": "string",
              "name": "serialId",
              "type": "string"
            },
            {
              "internalType": "string",
              "name": "title",
              "type": "string"
            },
            {
              "internalType": "enum Proposal.ProposalStatus",
              "name": "status",
              "type": "uint8"
            },
            {
              "internalType": "enum Proposal.ProposalMode",
              "name": "mode",
              "type": "uint8"
            },
            {
              "internalType": "string",
              "name": "contact",
              "type": "string"
            },
            {
              "internalType": "string",
              "name": "description",
              "type": "string"
            },
            {
              "components": [
                {
                  "internalType": "address",
                  "name": "payer",
                  "type": "address"
                },
                {
                  "internalType": "enum Proposal.PaymentMode",
                  "name": "mode",
                  "type": "uint8"
                },
                {
                  "internalType": "uint256",
                  "name": "totalMonths",
                  "type": "uint256"
                },
                {
                  "internalType": "string",
                  "name": "date",
                  "type": "string"
                },
                {
                  "internalType": "uint256",
                  "name": "paymentAmount",
                  "type": "uint256"
                },
                {
                  "internalType": "uint256",
                  "name": "totalAmount",
                  "type": "uint256"
                },
                {
                  "internalType": "contract IERC20",
                  "name": "token",
                  "type": "address"
                },
                {
                  "internalType": "contract FundPool",
                  "name": "pool",
                  "type": "address"
                }
              ],
              "internalType": "struct Proposal.Payment",
              "name": "payment",
              "type": "tuple"
            },
            {
              "components": [
                {
                  "internalType": "enum IRO.ProposerDriver",
                  "name": "driver",
                  "type": "uint8"
                }
              ],
              "internalType": "struct Proposal.ProposerSetup",
              "name": "proposerSetup",
              "type": "tuple"
            },
            {
              "components": [
                {
                  "internalType": "uint256",
                  "name": "voteMinSupporters",
                  "type": "uint256"
                },
                {
                  "internalType": "string",
                  "name": "voteMinApprovalPercent",
                  "type": "string"
                },
                {
                  "internalType": "uint256",
                  "name": "voteDurationHours",
                  "type": "uint256"
                },
                {
                  "internalType": "uint256",
                  "name": "voteEndTime",
                  "type": "uint256"
                }
              ],
              "internalType": "struct Proposal.VoterSetup",
              "name": "voteSetup",
              "type": "tuple"
            },
            {
              "internalType": "uint256",
              "name": "blockTime",
              "type": "uint256"
            },
            {
              "internalType": "address",
              "name": "proposer",
              "type": "address"
            }
          ],
          "internalType": "struct Proposal.ProposalDetail",
          "name": "",
          "type": "tuple"
        }
      ],
      "payable": true,
      "stateMutability": "payable",
      "type": "function"
    },
    {
      "constant": true,
      "inputs": [
        {
          "internalType": "string",
          "name": "id",
          "type": "string"
        },
        {
          "internalType": "string",
          "name": "serialId",
          "type": "string"
        }
      ],
      "name": "proposalDetail",
      "outputs": [
        {
          "components": [
            {
              "internalType": "string",
              "name": "discoId",
              "type": "string"
            },
            {
              "internalType": "string",
              "name": "serialId",
              "type": "string"
            },
            {
              "internalType": "string",
              "name": "title",
              "type": "string"
            },
            {
              "internalType": "enum Proposal.ProposalStatus",
              "name": "status",
              "type": "uint8"
            },
            {
              "internalType": "enum Proposal.ProposalMode",
              "name": "mode",
              "type": "uint8"
            },
            {
              "internalType": "string",
              "name": "contact",
              "type": "string"
            },
            {
              "internalType": "string",
              "name": "description",
              "type": "string"
            },
            {
              "components": [
                {
                  "internalType": "address",
                  "name": "payer",
                  "type": "address"
                },
                {
                  "internalType": "enum Proposal.PaymentMode",
                  "name": "mode",
                  "type": "uint8"
                },
                {
                  "internalType": "uint256",
                  "name": "totalMonths",
                  "type": "uint256"
                },
                {
                  "internalType": "string",
                  "name": "date",
                  "type": "string"
                },
                {
                  "internalType": "uint256",
                  "name": "paymentAmount",
                  "type": "uint256"
                },
                {
                  "internalType": "uint256",
                  "name": "totalAmount",
                  "type": "uint256"
                },
                {
                  "internalType": "contract IERC20",
                  "name": "token",
                  "type": "address"
                },
                {
                  "internalType": "contract FundPool",
                  "name": "pool",
                  "type": "address"
                }
              ],
              "internalType": "struct Proposal.Payment",
              "name": "payment",
              "type": "tuple"
            },
            {
              "components": [
                {
                  "internalType": "enum IRO.ProposerDriver",
                  "name": "driver",
                  "type": "uint8"
                }
              ],
              "internalType": "struct Proposal.ProposerSetup",
              "name": "proposerSetup",
              "type": "tuple"
            },
            {
              "components": [
                {
                  "internalType": "uint256",
                  "name": "voteMinSupporters",
                  "type": "uint256"
                },
                {
                  "internalType": "string",
                  "name": "voteMinApprovalPercent",
                  "type": "string"
                },
                {
                  "internalType": "uint256",
                  "name": "voteDurationHours",
                  "type": "uint256"
                },
                {
                  "internalType": "uint256",
                  "name": "voteEndTime",
                  "type": "uint256"
                }
              ],
              "internalType": "struct Proposal.VoterSetup",
              "name": "voteSetup",
              "type": "tuple"
            },
            {
              "internalType": "uint256",
              "name": "blockTime",
              "type": "uint256"
            },
            {
              "internalType": "address",
              "name": "proposer",
              "type": "address"
            }
          ],
          "internalType": "struct Proposal.ProposalDetail",
          "name": "",
          "type": "tuple"
        },
        {
          "components": [
            {
              "internalType": "uint256",
              "name": "index",
              "type": "uint256"
            },
            {
              "internalType": "uint256",
              "name": "token",
              "type": "uint256"
            },
            {
              "internalType": "string",
              "name": "terms",
              "type": "string"
            }
          ],
          "internalType": "struct Proposal.PaymentDetail[]",
          "name": "paymentDetails",
          "type": "tuple[]"
        }
      ],
      "payable": false,
      "stateMutability": "view",
      "type": "function"
    },
    {
      "constant": true,
      "inputs": [
        {
          "internalType": "string",
          "name": "id",
          "type": "string"
        }
      ],
      "name": "discoProposalCount",
      "outputs": [
        {
          "internalType": "uint256",
          "name": "",
          "type": "uint256"
        }
      ],
      "payable": false,
      "stateMutability": "view",
      "type": "function"
    },
    {
      "constant": false,
      "inputs": [
        {
          "internalType": "string",
          "name": "id",
          "type": "string"
        },
        {
          "internalType": "string",
          "name": "serialId",
          "type": "string"
        },
        {
          "internalType": "enum Proposal.ProposalStatus",
          "name": "target",
          "type": "uint8"
        }
      ],
      "name": "decide",
      "outputs": [],
      "payable": false,
      "stateMutability": "nonpayable",
      "type": "function"
    },
    {
      "constant": true,
      "inputs": [
        {
          "internalType": "string",
          "name": "id",
          "type": "string"
        },
        {
          "internalType": "string",
          "name": "serialId",
          "type": "string"
        }
      ],
      "name": "proposalStatus",
      "outputs": [
        {
          "internalType": "enum Proposal.ProposalStatus",
          "name": "",
          "type": "uint8"
        }
      ],
      "payable": false,
      "stateMutability": "view",
      "type": "function"
    },
    {
      "constant": false,
      "inputs": [
        {
          "components": [
            {
              "internalType": "string",
              "name": "discoId",
              "type": "string"
            },
            {
              "internalType": "string",
              "name": "serialId",
              "type": "string"
            },
            {
              "internalType": "address",
              "name": "voter",
              "type": "address"
            },
            {
              "internalType": "uint256",
              "name": "pos",
              "type": "uint256"
            },
            {
              "internalType": "uint256",
              "name": "neg",
              "type": "uint256"
            },
            {
              "internalType": "uint256",
              "name": "voteBt",
              "type": "uint256"
            }
          ],
          "internalType": "struct Proposal.Vote",
          "name": "v",
          "type": "tuple"
        }
      ],
      "name": "doVote",
      "outputs": [],
      "payable": true,
      "stateMutability": "payable",
      "type": "function"
    },
    {
      "constant": false,
      "inputs": [
        {
          "internalType": "string",
          "name": "discoId",
          "type": "string"
        },
        {
          "internalType": "string",
          "name": "serialId",
          "type": "string"
        }
      ],
      "name": "releaseProposal",
      "outputs": [],
      "payable": false,
      "stateMutability": "nonpayable",
      "type": "function"
    },
    {
      "constant": false,
      "inputs": [
        {
          "components": [
            {
              "internalType": "string",
              "name": "discoId",
              "type": "string"
            },
            {
              "internalType": "string",
              "name": "serialId",
              "type": "string"
            },
            {
              "internalType": "string",
              "name": "title",
              "type": "string"
            },
            {
              "internalType": "enum Proposal.ProposalStatus",
              "name": "status",
              "type": "uint8"
            },
            {
              "internalType": "enum Proposal.ProposalMode",
              "name": "mode",
              "type": "uint8"
            },
            {
              "internalType": "string",
              "name": "contact",
              "type": "string"
            },
            {
              "internalType": "string",
              "name": "description",
              "type": "string"
            },
            {
              "components": [
                {
                  "internalType": "address",
                  "name": "payer",
                  "type": "address"
                },
                {
                  "internalType": "enum Proposal.PaymentMode",
                  "name": "mode",
                  "type": "uint8"
                },
                {
                  "internalType": "uint256",
                  "name": "totalMonths",
                  "type": "uint256"
                },
                {
                  "internalType": "string",
                  "name": "date",
                  "type": "string"
                },
                {
                  "internalType": "uint256",
                  "name": "paymentAmount",
                  "type": "uint256"
                },
                {
                  "internalType": "uint256",
                  "name": "totalAmount",
                  "type": "uint256"
                },
                {
                  "internalType": "contract IERC20",
                  "name": "token",
                  "type": "address"
                },
                {
                  "internalType": "contract FundPool",
                  "name": "pool",
                  "type": "address"
                }
              ],
              "internalType": "struct Proposal.Payment",
              "name": "payment",
              "type": "tuple"
            },
            {
              "components": [
                {
                  "internalType": "enum IRO.ProposerDriver",
                  "name": "driver",
                  "type": "uint8"
                }
              ],
              "internalType": "struct Proposal.ProposerSetup",
              "name": "proposerSetup",
              "type": "tuple"
            },
            {
              "components": [
                {
                  "internalType": "uint256",
                  "name": "voteMinSupporters",
                  "type": "uint256"
                },
                {
                  "internalType": "string",
                  "name": "voteMinApprovalPercent",
                  "type": "string"
                },
                {
                  "internalType": "uint256",
                  "name": "voteDurationHours",
                  "type": "uint256"
                },
                {
                  "internalType": "uint256",
                  "name": "voteEndTime",
                  "type": "uint256"
                }
              ],
              "internalType": "struct Proposal.VoterSetup",
              "name": "voteSetup",
              "type": "tuple"
            },
            {
              "internalType": "uint256",
              "name": "blockTime",
              "type": "uint256"
            },
            {
              "internalType": "address",
              "name": "proposer",
              "type": "address"
            }
          ],
          "internalType": "struct Proposal.ProposalDetail",
          "name": "proposal",
          "type": "tuple"
        },
        {
          "components": [
            {
              "internalType": "uint256",
              "name": "index",
              "type": "uint256"
            },
            {
              "internalType": "uint256",
              "name": "token",
              "type": "uint256"
            },
            {
              "internalType": "string",
              "name": "terms",
              "type": "string"
            }
          ],
          "internalType": "struct Proposal.PaymentDetail[]",
          "name": "paymentDetails",
          "type": "tuple[]"
        }
      ],
      "name": "fullSet",
      "outputs": [
        {
          "components": [
            {
              "internalType": "string",
              "name": "discoId",
              "type": "string"
            },
            {
              "internalType": "string",
              "name": "serialId",
              "type": "string"
            },
            {
              "internalType": "string",
              "name": "title",
              "type": "string"
            },
            {
              "internalType": "enum Proposal.ProposalStatus",
              "name": "status",
              "type": "uint8"
            },
            {
              "internalType": "enum Proposal.ProposalMode",
              "name": "mode",
              "type": "uint8"
            },
            {
              "internalType": "string",
              "name": "contact",
              "type": "string"
            },
            {
              "internalType": "string",
              "name": "description",
              "type": "string"
            },
            {
              "components": [
                {
                  "internalType": "address",
                  "name": "payer",
                  "type": "address"
                },
                {
                  "internalType": "enum Proposal.PaymentMode",
                  "name": "mode",
                  "type": "uint8"
                },
                {
                  "internalType": "uint256",
                  "name": "totalMonths",
                  "type": "uint256"
                },
                {
                  "internalType": "string",
                  "name": "date",
                  "type": "string"
                },
                {
                  "internalType": "uint256",
                  "name": "paymentAmount",
                  "type": "uint256"
                },
                {
                  "internalType": "uint256",
                  "name": "totalAmount",
                  "type": "uint256"
                },
                {
                  "internalType": "contract IERC20",
                  "name": "token",
                  "type": "address"
                },
                {
                  "internalType": "contract FundPool",
                  "name": "pool",
                  "type": "address"
                }
              ],
              "internalType": "struct Proposal.Payment",
              "name": "payment",
              "type": "tuple"
            },
            {
              "components": [
                {
                  "internalType": "enum IRO.ProposerDriver",
                  "name": "driver",
                  "type": "uint8"
                }
              ],
              "internalType": "struct Proposal.ProposerSetup",
              "name": "proposerSetup",
              "type": "tuple"
            },
            {
              "components": [
                {
                  "internalType": "uint256",
                  "name": "voteMinSupporters",
                  "type": "uint256"
                },
                {
                  "internalType": "string",
                  "name": "voteMinApprovalPercent",
                  "type": "string"
                },
                {
                  "internalType": "uint256",
                  "name": "voteDurationHours",
                  "type": "uint256"
                },
                {
                  "internalType": "uint256",
                  "name": "voteEndTime",
                  "type": "uint256"
                }
              ],
              "internalType": "struct Proposal.VoterSetup",
              "name": "voteSetup",
              "type": "tuple"
            },
            {
              "internalType": "uint256",
              "name": "blockTime",
              "type": "uint256"
            },
            {
              "internalType": "address",
              "name": "proposer",
              "type": "address"
            }
          ],
          "internalType": "struct Proposal.ProposalDetail",
          "name": "",
          "type": "tuple"
        }
      ],
      "payable": false,
      "stateMutability": "nonpayable",
      "type": "function"
    },
    {
      "constant": false,
      "inputs": [
        {
          "internalType": "address",
          "name": "_iroAddress",
          "type": "address"
        }
      ],
      "name": "setIROBase",
      "outputs": [],
      "payable": false,
      "stateMutability": "nonpayable",
      "type": "function"
    },
    {
      "constant": false,
      "inputs": [
        {
          "internalType": "address",
          "name": "_discoAddress",
          "type": "address"
        }
      ],
      "name": "setDiscoBase",
      "outputs": [],
      "payable": false,
      "stateMutability": "nonpayable",
      "type": "function"
    }
  ],
  "bytecode": "0x60806040523480156200001157600080fd5b50604051620050a7380380620050a7833981016040819052620000349162000158565b600080546001600160a01b031916331790556200005a826001600160e01b036200007616565b6200006e816001600160e01b03620000e216565b505062000266565b6000546001600160a01b031633146200008e57600080fd5b6001600160a01b038116620000c05760405162461bcd60e51b8152600401620000b7906200020d565b60405180910390fd5b600180546001600160a01b0319166001600160a01b0392909216919091179055565b6000546001600160a01b03163314620000fa57600080fd5b6001600160a01b038116620001235760405162461bcd60e51b8152600401620000b7906200021f565b600280546001600160a01b0319166001600160a01b0392909216919091179055565b805162000152816200024c565b92915050565b600080604083850312156200016c57600080fd5b60006200017a858562000145565b92505060206200018d8582860162000145565b9150509250929050565b6000620001a660158362000231565b7f69726f206164647265737320697320656d7074792e0000000000000000000000815260200192915050565b6000620001e160178362000231565b7f646973636f206164647265737320697320656d7074792e000000000000000000815260200192915050565b60208082528101620001528162000197565b602080825281016200015281620001d2565b90815260200190565b60006001600160a01b03821662000152565b62000257816200023a565b81146200026357600080fd5b50565b614e3180620002766000396000f3fe6080604052600436106200009e5760003560e01c806359f7f240116200006157806359f7f240146200018757806372d92f28146200019e5780638f65e69714620001c3578063d46d6d8a14620001f7578063ffb135a8146200021c576200009e565b80630f5e184914620000a3578063268d792c14620000ca5780632b4a249f14620000f95780633122fef1146200011e578063474b58c21462000153575b600080fd5b348015620000b057600080fd5b50620000c8620000c236600462003899565b62000241565b005b620000e1620000db3660046200399b565b620006eb565b604051620000f09190620044f0565b60405180910390f35b3480156200010657600080fd5b50620000e1620001183660046200399b565b6200148e565b3480156200012b57600080fd5b50620001436200013d36600462003899565b620018a4565b604051620000f092919062004503565b3480156200016057600080fd5b50620001786200017236600462003899565b62001a85565b604051620000f09190620043a0565b620000c86200019836600462003a41565b62001b3a565b348015620001ab57600080fd5b50620000c8620001bd366004620037d0565b62001ee6565b348015620001d057600080fd5b50620001e8620001e236600462003854565b62001f49565b604051620000f091906200453f565b3480156200020457600080fd5b50620000c8620002163660046200390e565b62001f76565b3480156200022957600080fd5b50620000c86200023b366004620037d0565b62002361565b6000546001600160a01b031633146200025957600080fd5b6200026362002a76565b620002d885858080601f01602080910402602001604051908101604052809392919081815260200183838082843760009201919091525050604080516020601f89018190048102820181019092528781529250879150869081908401838280828437600092019190915250620023c492505050565b905083620003035760405162461bcd60e51b8152600401620002fa9062004472565b60405180910390fd5b6000816060015160038111156200031657fe5b1415620003375760405162461bcd60e51b8152600401620002fa9062004460565b60025481516040516366f61fb960e01b81526000926001600160a01b0316916366f61fb9916200036b9190600401620043cf565b60206040518083038186803b1580156200038457600080fd5b505afa15801562000399573d6000803e3d6000fd5b505050506040513d601f19601f82011682018060405250620003bf919081019062003833565b905060606200043887878080601f01602080910402602001604051908101604052809392919081815260200183838082843760009201919091525050604080516020601f8b01819004810282018101909252898152925089915088908190840183828082843760009201919091525062002a2a92505050565b905060606006826040516200044e91906200431c565b9081526020016040518091039020805480602002602001604051908101604052809291908181526020016000905b82821015620006205760008481526020908190206040805160068602909201805460026001821615610100026000190190911604601f8101859004909402830160e090810190925260c08301848152929390928492909184918401828280156200052a5780601f10620004fe576101008083540402835291602001916200052a565b820191906000526020600020905b8154815290600101906020018083116200050c57829003601f168201915b50505050508152602001600182018054600181600116156101000203166002900480601f016020809104026020016040519081016040528092919081815260200182805460018160011615610100020316600290048015620005d05780601f10620005a457610100808354040283529160200191620005d0565b820191906000526020600020905b815481529060010190602001808311620005b257829003601f168201915b505050918352505060028201546001600160a01b0316602080830191909152600383015460408301526004830154606083015260059092015460809091015290825260019290920191016200047c565b5050505060e085810151015190915060005b8251811015620006df576200064662002afb565b8382815181106200065357fe5b60200260200101519050826001600160a01b031663beabacc887836040015184608001518560600151016040518463ffffffff1660e01b81526004016200069d9392919062004381565b600060405180830381600087803b158015620006b857600080fd5b505af1158015620006cd573d6000803e3d6000fd5b50506001909301925062000632915050565b50505050505050505050565b620006f562002a76565b6020830151516200071a5760405162461bcd60e51b8152600401620002fa9062004496565b8251516200073c5760405162461bcd60e51b8152600401620002fa9062004418565b6000600384600001516040516200075491906200431c565b908152602001604051809103902090506200076e62002a76565b8185602001516040516200078391906200431c565b9081526040805160209281900383018120805460026001821615610100026000190190911604601f810185900490940282016101a09081019093526101808201848152919390928492918491840182828015620008245780601f10620007f85761010080835404028352916020019162000824565b820191906000526020600020905b8154815290600101906020018083116200080657829003601f168201915b50505050508152602001600182018054600181600116156101000203166002900480601f016020809104026020016040519081016040528092919081815260200182805460018160011615610100020316600290048015620008ca5780601f106200089e57610100808354040283529160200191620008ca565b820191906000526020600020905b815481529060010190602001808311620008ac57829003601f168201915b5050509183525050600282810180546040805160206001841615610100026000190190931694909404601f81018390048302850183019091528084529381019390830182828015620009605780601f10620009345761010080835404028352916020019162000960565b820191906000526020600020905b8154815290600101906020018083116200094257829003601f168201915b505050918352505060038281015460209092019160ff16908111156200098257fe5b60038111156200098e57fe5b81526020016003820160019054906101000a900460ff166006811115620009b157fe5b6006811115620009bd57fe5b815260048201805460408051602060026001851615610100026000190190941693909304601f810184900484028201840190925281815293820193929183018282801562000a4f5780601f1062000a235761010080835404028352916020019162000a4f565b820191906000526020600020905b81548152906001019060200180831162000a3157829003601f168201915b505050918352505060058201805460408051602060026001851615610100026000190190941693909304601f810184900484028201840190925281815293820193929183018282801562000ae75780601f1062000abb5761010080835404028352916020019162000ae7565b820191906000526020600020905b81548152906001019060200180831162000ac957829003601f168201915b50505091835250506040805161010081019091526006830180546001600160a01b0381168352602093840193830190600160a01b900460ff16600181111562000b2c57fe5b600181111562000b3857fe5b815260200160018201548152602001600282018054600181600116156101000203166002900480601f01602080910402602001604051908101604052809291908181526020018280546001816001161561010002031660029004801562000be35780601f1062000bb75761010080835404028352916020019162000be3565b820191906000526020600020905b81548152906001019060200180831162000bc557829003601f168201915b5050509183525050600382810154602080840191909152600484015460408085019190915260058501546001600160a01b0390811660608601526006909501549094166080909301929092529284528151808201909252600d85018054949091019391929091839160ff9091169081111562000c5b57fe5b600381111562000c6757fe5b905250815260408051608081018252600e840180548252600f850180548451602060026001841615610100026000190190931692909204601f810183900483028201830190965285815295810195939492938186019390929183018282801562000d155780601f1062000ce95761010080835404028352916020019162000d15565b820191906000526020600020905b81548152906001019060200180831162000cf757829003601f168201915b505050918352505060028201546020808301919091526003909201546040918201529183526012840154908301526013909201546001600160a01b03169101528051519091501562000d7b5760405162461bcd60e51b8152600401620002fa9062004484565b62000d8562002b3a565b600154865160405163ef7ae53f60e01b81526001600160a01b039092169163ef7ae53f9162000db791600401620043cf565b60006040518083038186803b15801562000dd057600080fd5b505afa15801562000de5573d6000803e3d6000fd5b505050506040513d6000823e601f3d908101601f1916820160405262000e0f919081019062003a09565b80515190915062000e345760405162461bcd60e51b8152600401620002fa90620043f4565b62000e3e62002b79565b50604081015160008151600381111562000e5457fe5b141562000e755760405162461bcd60e51b8152600401620002fa9062004406565b60405180602001604052808260000151600381111562000e9157fe5b905261010088015262000ea362002b9b565b50606082015160008151600381111562000eb957fe5b141562000eda5760405162461bcd60e51b8152600401620002fa90620044cc565b61012088015160400151429060009062000f875760a0830151604051631bd9515560e01b815273__NumUtils______________________________91631bd951559162000f2b9190600401620043cf565b60206040518083038186803b15801562000f4457600080fd5b505af415801562000f59573d6000803e3d6000fd5b505050506040513d601f19601f8201168201806040525062000f7f919081019062003a79565b905062000f93565b50610120890151604001515b60408051608080820183526060808701518352908601516020830152818301849052610e1084028501908201526101208c01526002548b5191516366f61fb960e01b81526000926001600160a01b03909216916366f61fb99162000ffb9190600401620043cf565b60206040518083038186803b1580156200101457600080fd5b505afa15801562001029573d6000803e3d6000fd5b505050506040513d601f19601f820116820180604052506200104f919081019062003833565b60e08c01516001600160a01b03821660c09091015290506060620010738c62002a58565b905080604051620010849062002bd9565b620010909190620043cf565b604051809103906000f080158015620010ad573d6000803e3d6000fd5b5060e0808e01516001600160a01b039092169101528a5160005b818110156200115d57600483604051620010e291906200431c565b90815260200160405180910390208d8281518110620010fd57fe5b602090810291909101810151825460018181018086556000958652948490208351600390930201918255828401519082015560408201518051929391926200114c926002850192019062002be7565b505060019092019150620010c79050565b506101608d01516001600160a01b03166200117a57336101608e01525b6101408d0185905260208d01516040518e918c916200119a91906200431c565b90815260200160405180910390206000820151816000019080519060200190620011c692919062002be7565b506020828101518051620011e1926001850192019062002be7565b5060408201518051620011ff91600284019160209091019062002be7565b5060608201518160030160006101000a81548160ff021916908360038111156200122557fe5b0217905550608082015160038201805461ff0019166101008360068111156200124a57fe5b021790555060a082015180516200126c91600484019160209091019062002be7565b5060c082015180516200128a91600584019160209091019062002be7565b5060e082015180516006830180546001600160a01b0319166001600160a01b0390921691909117808255602083015190829060ff60a01b1916600160a01b836001811115620012d557fe5b021790555060408201516001820155606082015180516200130191600284019160209091019062002be7565b50608082015160038281019190915560a0830151600483015560c08301516005830180546001600160a01b03199081166001600160a01b039384161790915560e090940151600690930180549094169216919091179091556101008301518051600d8401805492939092839160ff199091169060019084908111156200138357fe5b021790555050506101208201518051600e83019081556020808301518051620013b392600f870192019062002be7565b506040828101516002830155606090920151600390910155610140830151601283015561016090920151601390910180546001600160a01b0319166001600160a01b039092169190911790558d51905160059162001411916200431c565b9081526040519081900360209081018220805460010190558e015162001437916200431c565b60405180910390207f74b2e2a4d866c513222fe0222feef41e081ec60e6879885dd70b6b7a305c3c1e8e8e6040516200147292919062004503565b60405180910390a28c9a50505050505050505050505b92915050565b6200149862002a76565b6000546001600160a01b03163314620014b057600080fd5b602083015151620014d55760405162461bcd60e51b8152600401620002fa9062004496565b825151620014f75760405162461bcd60e51b8152600401620002fa9062004418565b6000600384600001516040516200150f91906200431c565b90815260200160405180910390209050838185602001516040516200153591906200431c565b908152602001604051809103902060008201518160000190805190602001906200156192919062002be7565b5060208281015180516200157c926001850192019062002be7565b50604082015180516200159a91600284019160209091019062002be7565b5060608201518160030160006101000a81548160ff02191690836003811115620015c057fe5b0217905550608082015160038201805461ff001916610100836006811115620015e557fe5b021790555060a082015180516200160791600484019160209091019062002be7565b5060c082015180516200162591600584019160209091019062002be7565b5060e082015180516006830180546001600160a01b0319166001600160a01b0390921691909117808255602083015190829060ff60a01b1916600160a01b8360018111156200167057fe5b021790555060408201516001820155606082015180516200169c91600284019160209091019062002be7565b50608082015160038281019190915560a0830151600483015560c08301516005830180546001600160a01b03199081166001600160a01b039384161790915560e090940151600690930180549094169216919091179091556101008301518051600d8401805492939092839160ff199091169060019084908111156200171e57fe5b021790555050506101208201518051600e830190815560208083015180516200174e92600f870192019062002be7565b5060408201516002820155606091820151600390910155610140830151601283015561016090920151601390910180546001600160a01b0319166001600160a01b03909216919091179055620017a48562002a58565b845190915060005b818110156200184257600483604051620017c791906200431c565b9081526020016040518091039020868281518110620017e257fe5b6020908102919091018101518254600181810180865560009586529484902083516003909302019182558284015190820155604082015180519293919262001831926002850192019062002be7565b505060019092019150620017ac9050565b5085602001516040516200185791906200431c565b60405180910390207f74b2e2a4d866c513222fe0222feef41e081ec60e6879885dd70b6b7a305c3c1e87876040516200189292919062004503565b60405180910390a25093949350505050565b620018ae62002a76565b6060620018ba62002a76565b6200192f87878080601f01602080910402602001604051908101604052809392919081815260200183838082843760009201919091525050604080516020601f8b018190048102820181019092528981529250899150889081908401838280828437600092019190915250620023c492505050565b905060606200193e8262002a58565b9050816004826040516200195391906200431c565b908152602001604051809103902080805480602002602001604051908101604052809291908181526020016000905b8282101562001a7057838290600052602060002090600302016040518060600160405290816000820154815260200160018201548152602001600282018054600181600116156101000203166002900480601f01602080910402602001604051908101604052809291908181526020018280546001816001161561010002031660029004801562001a575780601f1062001a2b5761010080835404028352916020019162001a57565b820191906000526020600020905b81548152906001019060200180831162001a3957829003601f168201915b5050505050815250508152602001906001019062001982565b50505050905093509350505094509492505050565b600062001a9162002a76565b62001b0686868080601f01602080910402602001604051908101604052809392919081815260200183838082843760009201919091525050604080516020601f8a018190048102820181019092528881529250889150879081908401838280828437600092019190915250620023c492505050565b80515190915062001b2b5760405162461bcd60e51b8152600401620002fa9062004472565b6060015190505b949350505050565b62001b4462002a76565b62001b5882600001518360200151620023c4565b82515190915062001b7d5760405162461bcd60e51b8152600401620002fa9062004472565b60008160600151600381111562001b9057fe5b1462001bb05760405162461bcd60e51b8152600401620002fa90620044de565b62001bba62002c6c565b506101208101516060810151429081111562001bea5760405162461bcd60e51b8152600401620002fa90620044a8565b600084608001518560600151011162001c175760405162461bcd60e51b8152600401620002fa906200444e565b60025483516040516366f61fb960e01b81526000926001600160a01b0316916366f61fb99162001c4b9190600401620043cf565b60206040518083038186803b15801562001c6457600080fd5b505afa15801562001c79573d6000803e3d6000fd5b505050506040513d601f19601f8201168201806040525062001c9f919081019062003833565b9050806001600160a01b03166323b872dd338660e0015160e001516001600160a01b03166338cc48316040518163ffffffff1660e01b815260040160206040518083038186803b15801562001cf357600080fd5b505afa15801562001d08573d6000803e3d6000fd5b505050506040513d601f19601f8201168201806040525062001d2e9190810190620037f1565b88608001518960600151016040518463ffffffff1660e01b815260040162001d599392919062004353565b602060405180830381600087803b15801562001d7457600080fd5b505af115801562001d89573d6000803e3d6000fd5b505050506040513d601f19601f8201168201806040525062001daf919081019062003812565b504260a08601523360408601528451602086015160609162001dd19162002a2a565b905060068160405162001de591906200431c565b908152604051602091819003820190208054600181018083556000928352918390208951805193948b9460069094029092019262001e27928492019062002be7565b50602082810151805162001e42926001850192019062002be7565b506040828101516002830180546001600160a01b0319166001600160a01b03909216919091179055606083015160038301556080830151600483015560a0909201516005909101556020870151905162001e9d92506200431c565b60405180910390207f1fc2188cf86b2fdff0c37c3a4cc9ac40d660cb3ed78875f759054aa66515180f8760405162001ed691906200452c565b60405180910390a2505050505050565b6000546001600160a01b0316331462001efe57600080fd5b6001600160a01b03811662001f275760405162461bcd60e51b8152600401620002fa90620044ba565b600280546001600160a01b0319166001600160a01b0392909216919091179055565b60006005838360405162001f5f9291906200430d565b908152602001604051809103902054905092915050565b62001f8062002a76565b62001ff586868080601f01602080910402602001604051908101604052809392919081815260200183838082843760009201919091525050604080516020601f8a018190048102820181019092528881529250889150879081908401838280828437600092019190915250620023c492505050565b8051519091506200201a5760405162461bcd60e51b8152600401620002fa90620043e2565b806060015160038111156200202b57fe5b8260038111156200203857fe5b146200235957606081018051908360038111156200205257fe5b908160038111156200206057fe5b90525081516040516000916003916200207a91906200431c565b90815260200160405180910390209050828187876040516200209e9291906200430d565b90815260200160405180910390206000820151816000019080519060200190620020ca92919062002be7565b506020828101518051620020e5926001850192019062002be7565b50604082015180516200210391600284019160209091019062002be7565b5060608201518160030160006101000a81548160ff021916908360038111156200212957fe5b0217905550608082015160038201805461ff0019166101008360068111156200214e57fe5b021790555060a082015180516200217091600484019160209091019062002be7565b5060c082015180516200218e91600584019160209091019062002be7565b5060e082015180516006830180546001600160a01b0319166001600160a01b0390921691909117808255602083015190829060ff60a01b1916600160a01b836001811115620021d957fe5b021790555060408201516001820155606082015180516200220591600284019160209091019062002be7565b50608082015160038281019190915560a0830151600483015560c08301516005830180546001600160a01b03199081166001600160a01b039384161790915560e090940151600690930180549094169216919091179091556101008301518051600d8401805492939092839160ff199091169060019084908111156200228757fe5b021790555050506101208201518051600e83019081556020808301518051620022b792600f870192019062002be7565b506040828101516002830155606090920151600390910155610140830151601283015561016090920151601390910180546001600160a01b0319166001600160a01b03909216919091179055516200231390899089906200430d565b60405180910390207f984b6675ffc22e1f752662b0ce0a6e95adb7944d816aa2d09e6995c9b20a198a83866040516200234e929190620043b0565b60405180910390a250505b505050505050565b6000546001600160a01b031633146200237957600080fd5b6001600160a01b038116620023a25760405162461bcd60e51b8152600401620002fa906200443c565b600180546001600160a01b0319166001600160a01b0392909216919091179055565b620023ce62002a76565b8251620023ef5760405162461bcd60e51b8152600401620002fa906200442a565b8151620024105760405162461bcd60e51b8152600401620002fa9062004496565b60006003846040516200242491906200431c565b908152602001604051809103902090506200243e62002a76565b81846040516200244f91906200431c565b9081526040805160209281900383018120805460026001821615610100026000190190911604601f810185900490940282016101a09081019093526101808201848152919390928492918491840182828015620024f05780601f10620024c457610100808354040283529160200191620024f0565b820191906000526020600020905b815481529060010190602001808311620024d257829003601f168201915b50505050508152602001600182018054600181600116156101000203166002900480601f016020809104026020016040519081016040528092919081815260200182805460018160011615610100020316600290048015620025965780601f106200256a5761010080835404028352916020019162002596565b820191906000526020600020905b8154815290600101906020018083116200257857829003601f168201915b5050509183525050600282810180546040805160206001841615610100026000190190931694909404601f810183900483028501830190915280845293810193908301828280156200262c5780601f1062002600576101008083540402835291602001916200262c565b820191906000526020600020905b8154815290600101906020018083116200260e57829003601f168201915b505050918352505060038281015460209092019160ff16908111156200264e57fe5b60038111156200265a57fe5b81526020016003820160019054906101000a900460ff1660068111156200267d57fe5b60068111156200268957fe5b815260048201805460408051602060026001851615610100026000190190941693909304601f81018490048402820184019092528181529382019392918301828280156200271b5780601f10620026ef576101008083540402835291602001916200271b565b820191906000526020600020905b815481529060010190602001808311620026fd57829003601f168201915b505050918352505060058201805460408051602060026001851615610100026000190190941693909304601f8101849004840282018401909252818152938201939291830182828015620027b35780601f106200278757610100808354040283529160200191620027b3565b820191906000526020600020905b8154815290600101906020018083116200279557829003601f168201915b50505091835250506040805161010081019091526006830180546001600160a01b0381168352602093840193830190600160a01b900460ff166001811115620027f857fe5b60018111156200280457fe5b815260200160018201548152602001600282018054600181600116156101000203166002900480601f016020809104026020016040519081016040528092919081815260200182805460018160011615610100020316600290048015620028af5780601f106200288357610100808354040283529160200191620028af565b820191906000526020600020905b8154815290600101906020018083116200289157829003601f168201915b5050509183525050600382810154602080840191909152600484015460408085019190915260058501546001600160a01b0390811660608601526006909501549094166080909301929092529284528151808201909252600d85018054949091019391929091839160ff909116908111156200292757fe5b60038111156200293357fe5b905250815260408051608081018252600e840180548252600f850180548451602060026001841615610100026000190190931692909204601f8101839004830282018301909652858152958101959394929381860193909291830182828015620029e15780601f10620029b557610100808354040283529160200191620029e1565b820191906000526020600020905b815481529060010190602001808311620029c357829003601f168201915b505050918352505060028201546020808301919091526003909201546040918201529183526012840154908301526013909201546001600160a01b031691015295945050505050565b6060828260405160200162002a419291906200432a565b604051602081830303815290604052905092915050565b606062002a6e8260000151836020015162002a2a565b90505b919050565b6040518061018001604052806060815260200160608152602001606081526020016000600381111562002aa557fe5b815260200160008152602001606081526020016060815260200162002ac962002c94565b815260200162002ad862002cec565b815260200162002ae762002c6c565b815260006020820181905260409091015290565b6040518060c00160405280606081526020016060815260200160006001600160a01b031681526020016000815260200160008152602001600081525090565b60405180608001604052806060815260200162002b5662002d00565b815260200162002b6562002b79565b815260200162002b7462002b9b565b905290565b6040805160608101909152806000815260200160008152602001606081525090565b6040805160e0810190915280600081526020016060815260200160608152602001600081526020016060815260200160608152602001606081525090565b6106ce806200472183390190565b828054600181600116156101000203166002900490600052602060002090601f016020900481019282601f1062002c2a57805160ff191683800117855562002c5a565b8280016001018555821562002c5a579182015b8281111562002c5a57825182559160200191906001019062002c3d565b5062002c6892915062002d28565b5090565b6040518060800160405280600081526020016060815260200160008152602001600081525090565b6040805161010081019091526000808252602082019081526020016000815260200160608152602001600081526020016000815260200160006001600160a01b0316815260200160006001600160a01b031681525090565b604080516020810190915280600062002b74565b6040518060800160405280606081526020016060815260200160608152602001606081525090565b62002d4591905b8082111562002c68576000815560010162002d2f565b90565b80356200148881620046be565b80516200148881620046be565b600082601f83011262002d7457600080fd5b815162002d8b62002d858262004576565b6200454f565b9150818183526020840193506020810190508385602084028201111562002db157600080fd5b60005b8381101562002de1578162002dca888262002d55565b845250602092830192919091019060010162002db4565b5050505092915050565b600082601f83011262002dfd57600080fd5b813562002e0e62002d858262004576565b81815260209384019390925082018360005b8381101562002de1578135860162002e39888262002f99565b845250602092830192919091019060010162002e20565b80516200148881620046d5565b80356200148881620046e0565b80516200148881620046e0565b80356200148881620046eb565b80356200148881620046f9565b8035620014888162004707565b8051620014888162004707565b60008083601f84011262002ebe57600080fd5b5081356001600160401b0381111562002ed657600080fd5b60208301915083600182028301111562002eef57600080fd5b9250929050565b600082601f83011262002f0857600080fd5b813562002f1962002d858262004597565b9150808252602083016020830185838301111562002f3657600080fd5b62002f4383828462004655565b50505092915050565b600082601f83011262002f5e57600080fd5b815162002f6f62002d858262004597565b9150808252602083016020830185838301111562002f8c57600080fd5b62002f4383828462004661565b60006060828403121562002fac57600080fd5b62002fb860606200454f565b9050600062002fc88484620037b6565b825250602062002fdb84848301620037b6565b60208301525060408201356001600160401b0381111562002ffb57600080fd5b620030098482850162002ef6565b60408301525092915050565b600061010082840312156200302957600080fd5b620030366101006200454f565b9050600062003046848462002d48565b8252506020620030598484830162002e77565b60208301525060406200306f84828501620037b6565b60408301525060608201356001600160401b038111156200308f57600080fd5b6200309d8482850162002ef6565b6060830152506080620030b384828501620037b6565b60808301525060a0620030c984828501620037b6565b60a08301525060c0620030df8482850162002e5d565b60c08301525060e0620030f58482850162002e5d565b60e08301525092915050565b600061018082840312156200311557600080fd5b620031226101806200454f565b905081356001600160401b038111156200313b57600080fd5b620031498482850162002ef6565b82525060208201356001600160401b038111156200316657600080fd5b620031748482850162002ef6565b60208301525060408201356001600160401b038111156200319457600080fd5b620031a28482850162002ef6565b6040830152506060620031b88482850162002e91565b6060830152506080620031ce8482850162002e84565b60808301525060a08201356001600160401b03811115620031ee57600080fd5b620031fc8482850162002ef6565b60a08301525060c08201356001600160401b038111156200321c57600080fd5b6200322a8482850162002ef6565b60c08301525060e08201356001600160401b038111156200324a57600080fd5b620032588482850162003015565b60e0830152506101006200326f848285016200334c565b610100830152506101208201356001600160401b038111156200329157600080fd5b6200329f8482850162003735565b61012083015250610140620032b784828501620037b6565b61014083015250610160620032cf8482850162002d48565b6101608301525092915050565b600060608284031215620032ef57600080fd5b620032fb60606200454f565b905060006200330b848462002e9e565b82525060206200331e84848301620037c3565b60208301525060408201516001600160401b038111156200333e57600080fd5b620030098482850162002d62565b6000602082840312156200335f57600080fd5b6200336b60206200454f565b905060006200337b848462002e91565b82525092915050565b6000608082840312156200339757600080fd5b620033a360806200454f565b82519091506001600160401b03811115620033bd57600080fd5b620033cb8482850162002f4c565b82525060208201516001600160401b03811115620033e857600080fd5b620033f6848285016200345e565b60208301525060408201516001600160401b038111156200341657600080fd5b6200342484828501620032dc565b60408301525060608201516001600160401b038111156200344457600080fd5b620034528482850162003601565b60608301525092915050565b6000608082840312156200347157600080fd5b6200347d60806200454f565b82519091506001600160401b038111156200349757600080fd5b620034a58482850162002f4c565b82525060208201516001600160401b03811115620034c257600080fd5b620034d08482850162002f4c565b60208301525060408201516001600160401b03811115620034f057600080fd5b620034fe8482850162002f4c565b60408301525060608201516001600160401b038111156200351e57600080fd5b620034528482850162002d62565b600060c082840312156200353f57600080fd5b6200354b60c06200454f565b905081356001600160401b038111156200356457600080fd5b620035728482850162002ef6565b82525060208201356001600160401b038111156200358f57600080fd5b6200359d8482850162002ef6565b6020830152506040620035b38482850162002d48565b6040830152506060620035c984828501620037b6565b6060830152506080620035df84828501620037b6565b60808301525060a0620035f584828501620037b6565b60a08301525092915050565b600060e082840312156200361457600080fd5b6200362060e06200454f565b9050600062003630848462002e9e565b82525060208201516001600160401b038111156200364d57600080fd5b6200365b8482850162002f4c565b60208301525060408201516001600160401b038111156200367b57600080fd5b620036898482850162002d62565b60408301525060606200369f84828501620037c3565b60608301525060808201516001600160401b03811115620036bf57600080fd5b620036cd8482850162002f4c565b60808301525060a08201516001600160401b03811115620036ed57600080fd5b620036fb8482850162002f4c565b60a08301525060c08201516001600160401b038111156200371b57600080fd5b620037298482850162002f4c565b60c08301525092915050565b6000608082840312156200374857600080fd5b6200375460806200454f565b90506000620037648484620037b6565b82525060208201356001600160401b038111156200378157600080fd5b6200378f8482850162002ef6565b6020830152506040620037a584828501620037b6565b604083015250606062003452848285015b8035620014888162004715565b8051620014888162004715565b600060208284031215620037e357600080fd5b600062001b32848462002d48565b6000602082840312156200380457600080fd5b600062001b32848462002d55565b6000602082840312156200382557600080fd5b600062001b32848462002e50565b6000602082840312156200384657600080fd5b600062001b32848462002e6a565b600080602083850312156200386857600080fd5b82356001600160401b038111156200387f57600080fd5b6200388d8582860162002eab565b92509250509250929050565b60008060008060408587031215620038b057600080fd5b84356001600160401b03811115620038c757600080fd5b620038d58782880162002eab565b945094505060208501356001600160401b03811115620038f457600080fd5b620039028782880162002eab565b95989497509550505050565b6000806000806000606086880312156200392757600080fd5b85356001600160401b038111156200393e57600080fd5b6200394c8882890162002eab565b955095505060208601356001600160401b038111156200396b57600080fd5b620039798882890162002eab565b935093505060406200398e8882890162002e91565b9150509295509295909350565b60008060408385031215620039af57600080fd5b82356001600160401b03811115620039c657600080fd5b620039d48582860162003101565b92505060208301356001600160401b03811115620039f157600080fd5b620039ff8582860162002deb565b9150509250929050565b60006020828403121562003a1c57600080fd5b81516001600160401b0381111562003a3357600080fd5b62001b328482850162003384565b60006020828403121562003a5457600080fd5b81356001600160401b0381111562003a6b57600080fd5b62001b32848285016200352c565b60006020828403121562003a8c57600080fd5b600062001b328484620037c3565b600062003aa8838362003fc9565b9392505050565b62003aba8162004621565b82525050565b62003aba81620045d2565b600062003ad882620045c5565b62003ae48185620045c9565b93508360208202850162003af885620045bf565b8060005b8581101562003b38578484038952815162003b18858262003a9a565b945062003b2583620045bf565b60209a909a019992505060010162003afc565b5091979650505050505050565b62003aba81620045e4565b62003aba816200462e565b62003aba816200463b565b62003aba8162004648565b600062003b7f838562002a71565b935062003b8e83858462004655565b50500190565b600062003ba182620045c5565b62003bad8185620045c9565b935062003bbf81856020860162004661565b62003bca8162004690565b9093019392505050565b600062003be182620045c5565b62003bed818562002a71565b935062003bff81856020860162004661565b9290920192915050565b600062003c18601183620045c9565b70383937b837b9b0b61036b4b9b9b4b7339760791b815260200192915050565b600062003c47601883620045c9565b7f626173652073657474696e67206e6f74206578697374732e0000000000000000815260200192915050565b600062003c82601c83620045c9565b7f70726f706f7365722073657474696e67206e6f74206578697374732e00000000815260200192915050565b600062003cbd601a83620045c9565b7f70726f706f73616c20646973636f496420697320656d70747921000000000000815260200192915050565b600062003cf8601283620045c9565b71646973636f20696420697320656d7074792160701b815260200192915050565b600062003d28601583620045c9565b7434b9379030b2323932b9b99034b99032b6b83a3c9760591b815260200192915050565b600062003d5b601e83620045c9565b7f6120696e76616c696420766f74652c20766f7465206e756d203c3d20302e0000815260200192915050565b600062003d96602383620045c9565b7f7468652070726f706f73616c20636f756c64206e6f742062652072656c65617381526232b21760e91b602082015260400192915050565b600062003ddd601e83620045c9565b7f70726f706f73616c206d697373696e672c20636865636b2066697273742e0000815260200192915050565b600062003e18603f83620045c9565b7f70726f706f73616c20616c7265616479206578697374732c20706c656173652081527f7265706c61636520776974682074686520636f6e7472616374206f776e657200602082015260400192915050565b600062003e79601b83620045c9565b7f70726f706f73616c2073657269616c496420697320656d707479210000000000815260200192915050565b600062003eb4601083620045c9565b6f3b37ba329034b99032bc3834b932b21760811b815260200192915050565b600062003ee2601783620045c9565b7f646973636f206164647265737320697320656d7074792e000000000000000000815260200192915050565b600062003f1d601983620045c9565b7f766f7465722073657474696e67206e6f74206578697374732e00000000000000815260200192915050565b600062003f5860018362002a71565b600160fe1b815260010192915050565b600062003f77603a83620045c9565b7f7468652070726f706f73616c20636f756c64206e6f7420626520766f7465642081527f7768656e20737461747573206973206e6f7420766f74696e672e000000000000602082015260400192915050565b8051600090606084019062003fdf858262004302565b50602083015162003ff4602086018262004302565b50604083015184820360408601526200400e828262003b94565b95945050505050565b80516000906101008401906200402e858262003ac0565b50602083015162004043602086018262003b50565b50604083015162004058604086018262004302565b506060830151848203606086015262004072828262003b94565b915050608083015162004089608086018262004302565b5060a08301516200409e60a086018262004302565b5060c0830151620040b360c086018262003b45565b5060e0830151620040c860e086018262003b45565b509392505050565b805161018080845260009190840190620040eb828262003b94565b9150506020830151848203602086015262004107828262003b94565b9150506040830151848203604086015262004123828262003b94565b91505060608301516200413a606086018262003b66565b5060808301516200414f608086018262003b5b565b5060a083015184820360a086015262004169828262003b94565b91505060c083015184820360c086015262004185828262003b94565b91505060e083015184820360e0860152620041a1828262004017565b915050610100830151620041ba61010086018262004206565b50610120830151848203610120860152620041d68282620042ab565b915050610140830151620041ef61014086018262004302565b50610160830151620040c861016086018262003ac0565b8051602083019062004219848262003b66565b50505050565b805160c08084526000919084019062004239828262003b94565b9150506020830151848203602086015262004255828262003b94565b91505060408301516200426c604086018262003ac0565b50606083015162004281606086018262004302565b50608083015162004296608086018262004302565b5060a0830151620040c860a086018262004302565b80516000906080840190620042c1858262004302565b5060208301518482036020860152620042db828262003b94565b9150506040830151620042f2604086018262004302565b506060830151620040c860608601825b62003aba8162002d45565b600062001b3282848662003b71565b600062003aa8828462003bd4565b600062004338828562003bd4565b9150620043458262003f49565b915062001b32828462003bd4565b6060810162004363828662003aaf565b62004372602083018562003aaf565b62001b32604083018462004302565b6060810162004391828662003b45565b62004372602083018562003ac0565b6020810162001488828462003b66565b60408101620043c0828562003b66565b62003aa8602083018462003b66565b6020808252810162003aa8818462003b94565b6020808252810162002a6e8162003c09565b6020808252810162002a6e8162003c38565b6020808252810162002a6e8162003c73565b6020808252810162002a6e8162003cae565b6020808252810162002a6e8162003ce9565b6020808252810162002a6e8162003d19565b6020808252810162002a6e8162003d4c565b6020808252810162002a6e8162003d87565b6020808252810162002a6e8162003dce565b6020808252810162002a6e8162003e09565b6020808252810162002a6e8162003e6a565b6020808252810162002a6e8162003ea5565b6020808252810162002a6e8162003ed3565b6020808252810162002a6e8162003f0e565b6020808252810162002a6e8162003f68565b6020808252810162003aa88184620040d0565b60408082528101620045168185620040d0565b9050818103602083015262001b32818462003acb565b6020808252810162003aa881846200421f565b6020810162001488828462004302565b6040518181016001600160401b03811182821017156200456e57600080fd5b604052919050565b60006001600160401b038211156200458d57600080fd5b5060209081020190565b60006001600160401b03821115620045ae57600080fd5b506020601f91909101601f19160190565b60200190565b5190565b90815260200190565b600062002a6e8262004615565b151590565b600062002a6e82620045d2565b8062002a71816200469a565b8062002a7181620046a8565b8062002a7181620046b3565b6001600160a01b031690565b600062002a6e82620045e4565b600062002a6e82620045f1565b600062002a6e82620045fd565b600062002a6e8262004609565b82818337506000910152565b60005b838110156200467e57818101518382015260200162004664565b83811115620042195750506000910152565b601f01601f191690565b60028110620046a557fe5b50565b60078110620046a557fe5b60048110620046a557fe5b620046c981620045d2565b8114620046a557600080fd5b620046c981620045df565b620046c981620045e4565b60028110620046a557600080fd5b60078110620046a557600080fd5b60048110620046a557600080fd5b620046c98162002d4556fe608060405234801561001057600080fd5b506040516106ce3803806106ce83398101604081905261002f91610138565b8051610042906000906020840190610049565b50506101f1565b828054600181600116156101000203166002900490600052602060002090601f016020900481019282601f1061008a57805160ff19168380011785556100b7565b828001600101855582156100b7579182015b828111156100b757825182559160200191906001019061009c565b506100c39291506100c7565b5090565b6100e191905b808211156100c357600081556001016100cd565b90565b600082601f8301126100f557600080fd5b81516101086101038261019a565b610174565b9150808252602083016020830185838301111561012457600080fd5b61012f8382846101c1565b50505092915050565b60006020828403121561014a57600080fd5b81516001600160401b0381111561016057600080fd5b61016c848285016100e4565b949350505050565b6040518181016001600160401b038111828210171561019257600080fd5b604052919050565b60006001600160401b038211156101b057600080fd5b506020601f91909101601f19160190565b60005b838110156101dc5781810151838201526020016101c4565b838111156101eb576000848401525b50505050565b6104ce806102006000396000f3fe60806040526004361061004a5760003560e01c806338cc48311461004c5780634f95a04b14610077578063beabacc81461008a578063e1f21c67146100aa578063fb1e6a62146100ca575b005b34801561005857600080fd5b506100616100ec565b60405161006e91906103a7565b60405180910390f35b61004a6100853660046102aa565b6100f0565b34801561009657600080fd5b5061004a6100a536600461030a565b61012b565b3480156100b657600080fd5b5061004a6100c536600461030a565b6101b4565b3480156100d657600080fd5b506100df6101e2565b60405161006e91906103d7565b3090565b6040516001600160a01b0383169082156108fc029083906000818181858888f19350505050158015610126573d6000803e3d6000fd5b505050565b60405163a9059cbb60e01b81526001600160a01b0384169063a9059cbb9061015990859085906004016103b5565b602060405180830381600087803b15801561017357600080fd5b505af1158015610187573d6000803e3d6000fd5b505050506040513d601f19601f820116820180604052506101ab91908101906102e4565b61012657600080fd5b60405163095ea7b360e01b81526001600160a01b0384169063095ea7b39061015990859085906004016103b5565b60008054604080516020601f600260001961010060018816150201909516949094049384018190048102820181019092528281526060939092909183018282801561026e5780601f106102435761010080835404028352916020019161026e565b820191906000526020600020905b81548152906001019060200180831161025157829003601f168201915b5050505050905090565b803561028381610459565b92915050565b805161028381610470565b803561028381610479565b803561028381610482565b600080604083850312156102bd57600080fd5b60006102c98585610278565b92505060206102da8582860161029f565b9150509250929050565b6000602082840312156102f657600080fd5b60006103028484610289565b949350505050565b60008060006060848603121561031f57600080fd5b600061032b8686610294565b935050602061033c86828701610278565b925050604061034d8682870161029f565b9150509250925092565b610360816103f5565b82525050565b6000610371826103e8565b61037b81856103ec565b935061038b81856020860161041f565b6103948161044f565b9093019392505050565b6103608161041c565b602081016102838284610357565b604081016103c38285610357565b6103d0602083018461039e565b9392505050565b602080825281016103d08184610366565b5190565b90815260200190565b600061028382610410565b151590565b6000610283826103f5565b6001600160a01b031690565b90565b60005b8381101561043a578181015183820152602001610422565b83811115610449576000848401525b50505050565b601f01601f191690565b610462816103f5565b811461046d57600080fd5b50565b61046281610400565b61046281610405565b6104628161041c56fea365627a7a723158207f379b51e6cd5aaa6d01675b5369a381b7b03472f4a4e3a95a2e0bbfa95afa9a6c6578706572696d656e74616cf564736f6c63430005100040a365627a7a723158201066c96c0f4109eba2e2901085b8c81d209d91b6fc98f850d91171ba50b90dfe6c6578706572696d656e74616cf564736f6c63430005100040",
  "source": "pragma solidity >=0.4.21 <0.7.0;\r\npragma experimental ABIEncoderV2;\r\n\r\n\r\nimport \"./IRO.sol\";\r\nimport \"./Disco.sol\";\r\nimport \"./common/Base.sol\";\r\nimport \"./common/FundPool.sol\";\r\nimport \"./interfaces/IErc20.sol\";\r\nimport {NumUtils} from \"./libraries/NumUtils.sol\";\r\n\r\ncontract Proposal is Base\r\n{\r\n\r\n    IRO private _iroBase;\r\n\r\n    Disco private _discoBase;\r\n\r\n    enum ProposalStatus{\r\n        Voting, Pass, Defeated, Invalid\r\n    }\r\n\r\n    enum ProposalMode{\r\n        Finance, Governance, Strategy, Product, Media, Community, Node\r\n    }\r\n\r\n    enum PaymentMode{\r\n        MonthlyPay, OneTimePay\r\n    }\r\n\r\n    constructor(address _iroAddress, address _discoAddress) Base() public {\r\n        setIROBase(_iroAddress);\r\n        setDiscoBase(_discoAddress);\r\n    }\r\n\r\n    struct ProposalDetail {\r\n        string discoId;\r\n        string serialId;\r\n        string title;\r\n        ProposalStatus status;\r\n        ProposalMode mode;\r\n        string contact;\r\n        string description;\r\n        Payment payment;\r\n        ProposerSetup proposerSetup;\r\n        VoterSetup voteSetup;\r\n        uint256 blockTime;\r\n        address proposer;\r\n    }\r\n\r\n    struct Payment {\r\n        address payer;\r\n        PaymentMode mode;\r\n        uint256 totalMonths;\r\n        string date;     //require text! Good luck for any external caller or user.\r\n        uint256 paymentAmount;\r\n        uint256 totalAmount;\r\n        IERC20 token;\r\n        FundPool pool;\r\n    }\r\n\r\n    struct PaymentDetail {\r\n        uint256 index;\r\n        uint256 token;\r\n        string terms;\r\n    }\r\n\r\n    struct ProposerSetup {\r\n        IRO.ProposerDriver driver;\r\n    }\r\n\r\n    struct VoterSetup {\r\n        uint256 voteMinSupporters;\r\n        string voteMinApprovalPercent;\r\n        uint256 voteDurationHours;\r\n        uint256 voteEndTime;\r\n    }\r\n\r\n    struct Vote {\r\n        string discoId;\r\n        string serialId;\r\n        address voter;\r\n        uint256 pos;\r\n        uint256 neg;\r\n        uint256 voteBt;\r\n    }\r\n\r\n    mapping(string => mapping(string => ProposalDetail)) private discoProposals;\r\n    //unsupported copy struct memory xxx[] to xxx, so create mapping to save the payment details.\r\n    mapping(string => PaymentDetail[]) private proposalPaymentDetails;\r\n    mapping(string => uint256) private countDiscoProposals;\r\n    mapping(string => Vote[]) private votes;\r\n\r\n    event accepted(string indexed id, ProposalDetail proposal, PaymentDetail[] paymentDetails);\r\n\r\n    event statusChanged(string indexed id, ProposalStatus original, ProposalStatus target);\r\n\r\n    event voted(string indexed id, Vote v);\r\n\r\n    function accept(ProposalDetail memory proposal, PaymentDetail[] memory paymentDetails) public payable returns (ProposalDetail memory) {\r\n        require(bytes(proposal.serialId).length != 0, \"proposal serialId is empty!\");\r\n        require(bytes(proposal.discoId).length != 0, \"proposal discoId is empty!\");\r\n        mapping(string => ProposalDetail) storage discoProposalMapper = discoProposals[proposal.discoId];\r\n        ProposalDetail memory checkProposal = discoProposalMapper[proposal.serialId];\r\n        require(bytes(checkProposal.discoId).length == 0, \"proposal already exists, please replace with the contract owner\");\r\n\r\n        IRO.Setting memory baseSetting = _iroBase.setting(proposal.discoId);\r\n        require(bytes(baseSetting.id).length != 0, \"base setting not exists.\");\r\n\r\n        IRO.ProposerSetting memory proposerSetting = baseSetting.proposerSetting;\r\n        require(proposerSetting.driver != IRO.ProposerDriver.None, \"proposer setting not exists.\");\r\n        proposal.proposerSetup = ProposerSetup(proposerSetting.driver);\r\n\r\n        IRO.VoterSetting memory voterSetting = baseSetting.voterSetting;\r\n        require(voterSetting.voteType != IRO.VoteType.None, \"voter setting not exists.\");\r\n\r\n        uint256 bt = block.timestamp;\r\n        uint256 voteDurationHours;\r\n        if (proposal.voteSetup.voteDurationHours == 0) {\r\n            //string to uint\r\n            voteDurationHours = NumUtils.stringToUint(voterSetting.voteMinDurationHours);\r\n        } else {\r\n            voteDurationHours = proposal.voteSetup.voteDurationHours;\r\n        }\r\n\r\n        proposal.voteSetup = VoterSetup(voterSetting.voteMinSupporters, voterSetting.voteMinApprovalPercent, voteDurationHours, bt + voteDurationHours * 3600);\r\n\r\n        //lock init proposal token into a pool.\r\n        IERC20 token = _discoBase.discoToken(proposal.discoId);\r\n        proposal.payment.token = token;\r\n        //cal poolId\r\n        string memory poolId = getPoolId(proposal);\r\n        proposal.payment.pool = new FundPool(poolId);\r\n        //        disable lock payment token in pool.\r\n        //        proposal.payment.payer = msg.sender;\r\n        //        if (proposal.payment.totalAmount > 0) {\r\n        //            token.transferFrom(msg.sender, proposal.payment.pool.getAddress(), proposal.payment.totalAmount);\r\n        //        }\r\n\r\n        uint256 paymentDetailsSize = paymentDetails.length;\r\n        for (uint256 i = 0; i < paymentDetailsSize; i++) {\r\n            proposalPaymentDetails[poolId].push(paymentDetails[i]);\r\n        }\r\n\r\n        //record block once\r\n        if (proposal.proposer == address(0)) {\r\n            proposal.proposer = msg.sender;\r\n        }\r\n        proposal.blockTime = bt;\r\n        discoProposalMapper[proposal.serialId] = proposal;\r\n        countDiscoProposals[proposal.discoId]++;\r\n        emit accepted(proposal.serialId, proposal, paymentDetails);\r\n        return proposal;\r\n    }\r\n\r\n    function proposalDetail(string calldata id, string calldata serialId) external view returns (ProposalDetail memory, PaymentDetail[] memory paymentDetails){\r\n        ProposalDetail memory proposal = internalProposal(id, serialId);\r\n        string memory poolId = getPoolId(proposal);\r\n        return (proposal, proposalPaymentDetails[poolId]);\r\n    }\r\n\r\n    function internalDiscoProposalDetail(string memory id) internal view returns (mapping(string => ProposalDetail) storage){\r\n        require(bytes(id).length != 0, \"disco id is empty!\");\r\n        mapping(string => ProposalDetail) storage discoProposalMapper = discoProposals[id];\r\n        // inappropriate when too much.\r\n        return discoProposalMapper;\r\n    }\r\n\r\n    /**\r\n     * get proposal count.\r\n     **/\r\n    function discoProposalCount(string calldata id) external view returns (uint256){\r\n        return countDiscoProposals[id];\r\n    }\r\n\r\n    /**\r\n    * decide proposal status.\r\n    **/\r\n    function decide(string calldata id, string calldata serialId, ProposalStatus target) external {\r\n        ProposalDetail memory proposal = internalProposal(id, serialId);\r\n        require(bytes(proposal.discoId).length != 0, \"proposal missing.\");\r\n        if (target != proposal.status) {\r\n            ProposalStatus original = proposal.status;\r\n            proposal.status = target;\r\n            mapping(string => ProposalDetail) storage discoProposalMapper = discoProposals[proposal.discoId];\r\n            discoProposalMapper[serialId] = proposal;\r\n            // notify to listener for status.\r\n            emit statusChanged(id, original, target);\r\n        }\r\n\r\n    }\r\n\r\n    /**\r\n    * get proposal status.\r\n    **/\r\n    function proposalStatus(string calldata id, string calldata serialId) external view returns (ProposalStatus){\r\n        ProposalDetail memory proposal = internalProposal(id, serialId);\r\n        require(bytes(proposal.discoId).length != 0, \"proposal missing, check first.\");\r\n        return proposal.status;\r\n    }\r\n\r\n    function internalProposal(string memory id, string memory serialId) internal view returns (ProposalDetail memory){\r\n        require(bytes(id).length != 0, \"disco id is empty!\");\r\n        require(bytes(serialId).length != 0, \"proposal serialId is empty!\");\r\n        mapping(string => ProposalDetail) storage discoProposalMapper = discoProposals[id];\r\n        ProposalDetail memory proposal = discoProposalMapper[serialId];\r\n        return proposal;\r\n    }\r\n\r\n    /**\r\n    * vote when proposal is voting.\r\n    * lock into the fundPool.\r\n    **/\r\n    function doVote(Vote memory v) public payable {\r\n        ProposalDetail memory proposal = internalProposal(v.discoId, v.serialId);\r\n        require(bytes(v.discoId).length != 0, \"proposal missing, check first.\");\r\n        require(proposal.status == ProposalStatus.Voting, \"the proposal could not be voted when status is not voting.\");\r\n        VoterSetup memory setup = proposal.voteSetup;\r\n        uint256 bt = block.timestamp;\r\n        require(bt <= setup.voteEndTime, \"vote is expired.\");\r\n        require(v.pos + v.neg > 0, \"a invalid vote, vote num <= 0.\");\r\n        IERC20 token = _discoBase.discoToken(proposal.discoId);\r\n        token.transferFrom(msg.sender, proposal.payment.pool.getAddress(), v.pos + v.neg);\r\n        v.voteBt = block.timestamp;\r\n        v.voter = msg.sender;\r\n        string memory poolId = getPoolId(v.discoId, v.serialId);\r\n        votes[poolId].push(v);\r\n        emit voted(proposal.serialId, v);\r\n    }\r\n\r\n    /**\r\n    * release pool vote token when proposal is not Voting.\r\n    * release pool payment token when proposal is not Pass.\r\n    **/\r\n    function releaseProposal(string calldata discoId, string calldata serialId) external isOwner {\r\n        ProposalDetail memory proposal = internalProposal(discoId, serialId);\r\n        require(bytes(discoId).length != 0, \"proposal missing, check first.\");\r\n        require(proposal.status != ProposalStatus.Voting, \"the proposal could not be released.\");\r\n        IERC20 token = _discoBase.discoToken(proposal.discoId);\r\n        string memory poolId = getPoolId(discoId, serialId);\r\n        Vote[] memory vs = votes[poolId];\r\n        FundPool pool = proposal.payment.pool;\r\n        for (uint256 i = 0; i < vs.length; i++) {\r\n            Vote memory v = vs[i];\r\n            pool.transfer(token, v.voter, v.pos + v.neg);\r\n        }\r\n        //        disable lock payment token in pool.\r\n        //        if (proposal.status != ProposalStatus.Pass) {\r\n        //            pool.transfer(token, proposal.payment.payer, proposal.payment.totalAmount);\r\n        //        }\r\n    }\r\n\r\n    //owner manage.\r\n    function fullSet(ProposalDetail memory proposal, PaymentDetail[] memory paymentDetails) public isOwner returns (ProposalDetail memory) {\r\n        require(bytes(proposal.serialId).length != 0, \"proposal serialId is empty!\");\r\n        require(bytes(proposal.discoId).length != 0, \"proposal discoId is empty!\");\r\n        mapping(string => ProposalDetail) storage discoProposalMapper = discoProposals[proposal.discoId];\r\n        discoProposalMapper[proposal.serialId] = proposal;\r\n        string memory poolId = getPoolId(proposal);\r\n        uint256 paymentDetailsSize = paymentDetails.length;\r\n        for (uint256 i = 0; i < paymentDetailsSize; i++) {\r\n            proposalPaymentDetails[poolId].push(paymentDetails[i]);\r\n        }\r\n        emit accepted(proposal.serialId, proposal, paymentDetails);\r\n        return proposal;\r\n    }\r\n\r\n    //internal utils\r\n    function getPoolId(string memory discoId, string memory serialId) internal pure returns (string memory){\r\n        return string(abi.encodePacked(discoId, \"@\", serialId));\r\n    }\r\n\r\n    function getPoolId(ProposalDetail memory proposal) internal pure returns (string memory){\r\n        return getPoolId(proposal.discoId, proposal.serialId);\r\n    }\r\n\r\n    function setIROBase(address _iroAddress) public isOwner {\r\n        require(_iroAddress != address(0), \"iro address is empty.\");\r\n        _iroBase = IRO(_iroAddress);\r\n    }\r\n\r\n    function setDiscoBase(address _discoAddress) public isOwner {\r\n        require(_discoAddress != address(0), \"disco address is empty.\");\r\n        _discoBase = Disco(_discoAddress);\r\n    }\r\n}",
  "sourcePath": "D:/comunion/cos-contract-com/contracts/Proposal.sol",
  "compiler": {
    "name": "solc",
    "version": "0.5.16+commit.9c3226ce.Emscripten.clang"
  },
  "schemaVersion": "3.3.4",
  "updatedAt": "2021-06-01T15:42:19.925Z",
  "devdoc": {
    "methods": {}
  },
  "userdoc": {
    "methods": {
      "decide(string,string,uint8)": {
        "notice": "decide proposal status.*"
      },
      "discoProposalCount(string)": {
        "notice": "get proposal count.*"
      },
      "doVote((string,string,address,uint256,uint256,uint256))": {
        "notice": "vote when proposal is voting. lock into the fundPool.*"
      },
      "proposalStatus(string,string)": {
        "notice": "get proposal status.*"
      },
      "releaseProposal(string,string)": {
        "notice": "release pool vote token when proposal is not Voting. release pool payment token when proposal is not Pass.*"
      }
    }
  }
}