{
  "contractName": "UniswapV2Router01",
  "abi": [
    {
      "inputs": [
        {
          "internalType": "address",
          "name": "_factory",
          "type": "address"
        },
        {
          "internalType": "address",
          "name": "_WETH",
          "type": "address"
        }
      ],
      "payable": false,
      "stateMutability": "nonpayable",
      "type": "constructor"
    },
    {
      "payable": true,
      "stateMutability": "payable",
      "type": "fallback"
    },
    {
      "constant": true,
      "inputs": [],
      "name": "WETH",
      "outputs": [
        {
          "internalType": "address",
          "name": "",
          "type": "address"
        }
      ],
      "payable": false,
      "stateMutability": "view",
      "type": "function"
    },
    {
      "constant": true,
      "inputs": [],
      "name": "factory",
      "outputs": [
        {
          "internalType": "address",
          "name": "",
          "type": "address"
        }
      ],
      "payable": false,
      "stateMutability": "view",
      "type": "function"
    },
    {
      "constant": false,
      "inputs": [
        {
          "internalType": "address",
          "name": "tokenA",
          "type": "address"
        },
        {
          "internalType": "address",
          "name": "tokenB",
          "type": "address"
        },
        {
          "internalType": "uint256",
          "name": "amountADesired",
          "type": "uint256"
        },
        {
          "internalType": "uint256",
          "name": "amountBDesired",
          "type": "uint256"
        },
        {
          "internalType": "uint256",
          "name": "amountAMin",
          "type": "uint256"
        },
        {
          "internalType": "uint256",
          "name": "amountBMin",
          "type": "uint256"
        },
        {
          "internalType": "address",
          "name": "to",
          "type": "address"
        },
        {
          "internalType": "uint256",
          "name": "deadline",
          "type": "uint256"
        }
      ],
      "name": "addLiquidity",
      "outputs": [
        {
          "internalType": "uint256",
          "name": "amountA",
          "type": "uint256"
        },
        {
          "internalType": "uint256",
          "name": "amountB",
          "type": "uint256"
        },
        {
          "internalType": "uint256",
          "name": "liquidity",
          "type": "uint256"
        }
      ],
      "payable": false,
      "stateMutability": "nonpayable",
      "type": "function"
    },
    {
      "constant": false,
      "inputs": [
        {
          "internalType": "address",
          "name": "token",
          "type": "address"
        },
        {
          "internalType": "uint256",
          "name": "amountTokenDesired",
          "type": "uint256"
        },
        {
          "internalType": "uint256",
          "name": "amountTokenMin",
          "type": "uint256"
        },
        {
          "internalType": "uint256",
          "name": "amountETHMin",
          "type": "uint256"
        },
        {
          "internalType": "address",
          "name": "to",
          "type": "address"
        },
        {
          "internalType": "uint256",
          "name": "deadline",
          "type": "uint256"
        }
      ],
      "name": "addLiquidityETH",
      "outputs": [
        {
          "internalType": "uint256",
          "name": "amountToken",
          "type": "uint256"
        },
        {
          "internalType": "uint256",
          "name": "amountETH",
          "type": "uint256"
        },
        {
          "internalType": "uint256",
          "name": "liquidity",
          "type": "uint256"
        }
      ],
      "payable": true,
      "stateMutability": "payable",
      "type": "function"
    },
    {
      "constant": false,
      "inputs": [
        {
          "internalType": "address",
          "name": "tokenA",
          "type": "address"
        },
        {
          "internalType": "address",
          "name": "tokenB",
          "type": "address"
        },
        {
          "internalType": "uint256",
          "name": "liquidity",
          "type": "uint256"
        },
        {
          "internalType": "uint256",
          "name": "amountAMin",
          "type": "uint256"
        },
        {
          "internalType": "uint256",
          "name": "amountBMin",
          "type": "uint256"
        },
        {
          "internalType": "address",
          "name": "to",
          "type": "address"
        },
        {
          "internalType": "uint256",
          "name": "deadline",
          "type": "uint256"
        }
      ],
      "name": "removeLiquidity",
      "outputs": [
        {
          "internalType": "uint256",
          "name": "amountA",
          "type": "uint256"
        },
        {
          "internalType": "uint256",
          "name": "amountB",
          "type": "uint256"
        }
      ],
      "payable": false,
      "stateMutability": "nonpayable",
      "type": "function"
    },
    {
      "constant": false,
      "inputs": [
        {
          "internalType": "address",
          "name": "token",
          "type": "address"
        },
        {
          "internalType": "uint256",
          "name": "liquidity",
          "type": "uint256"
        },
        {
          "internalType": "uint256",
          "name": "amountTokenMin",
          "type": "uint256"
        },
        {
          "internalType": "uint256",
          "name": "amountETHMin",
          "type": "uint256"
        },
        {
          "internalType": "address",
          "name": "to",
          "type": "address"
        },
        {
          "internalType": "uint256",
          "name": "deadline",
          "type": "uint256"
        }
      ],
      "name": "removeLiquidityETH",
      "outputs": [
        {
          "internalType": "uint256",
          "name": "amountToken",
          "type": "uint256"
        },
        {
          "internalType": "uint256",
          "name": "amountETH",
          "type": "uint256"
        }
      ],
      "payable": false,
      "stateMutability": "nonpayable",
      "type": "function"
    },
    {
      "constant": false,
      "inputs": [
        {
          "internalType": "address",
          "name": "tokenA",
          "type": "address"
        },
        {
          "internalType": "address",
          "name": "tokenB",
          "type": "address"
        },
        {
          "internalType": "uint256",
          "name": "liquidity",
          "type": "uint256"
        },
        {
          "internalType": "uint256",
          "name": "amountAMin",
          "type": "uint256"
        },
        {
          "internalType": "uint256",
          "name": "amountBMin",
          "type": "uint256"
        },
        {
          "internalType": "address",
          "name": "to",
          "type": "address"
        },
        {
          "internalType": "uint256",
          "name": "deadline",
          "type": "uint256"
        },
        {
          "internalType": "bool",
          "name": "approveMax",
          "type": "bool"
        },
        {
          "internalType": "uint8",
          "name": "v",
          "type": "uint8"
        },
        {
          "internalType": "bytes32",
          "name": "r",
          "type": "bytes32"
        },
        {
          "internalType": "bytes32",
          "name": "s",
          "type": "bytes32"
        }
      ],
      "name": "removeLiquidityWithPermit",
      "outputs": [
        {
          "internalType": "uint256",
          "name": "amountA",
          "type": "uint256"
        },
        {
          "internalType": "uint256",
          "name": "amountB",
          "type": "uint256"
        }
      ],
      "payable": false,
      "stateMutability": "nonpayable",
      "type": "function"
    },
    {
      "constant": false,
      "inputs": [
        {
          "internalType": "address",
          "name": "token",
          "type": "address"
        },
        {
          "internalType": "uint256",
          "name": "liquidity",
          "type": "uint256"
        },
        {
          "internalType": "uint256",
          "name": "amountTokenMin",
          "type": "uint256"
        },
        {
          "internalType": "uint256",
          "name": "amountETHMin",
          "type": "uint256"
        },
        {
          "internalType": "address",
          "name": "to",
          "type": "address"
        },
        {
          "internalType": "uint256",
          "name": "deadline",
          "type": "uint256"
        },
        {
          "internalType": "bool",
          "name": "approveMax",
          "type": "bool"
        },
        {
          "internalType": "uint8",
          "name": "v",
          "type": "uint8"
        },
        {
          "internalType": "bytes32",
          "name": "r",
          "type": "bytes32"
        },
        {
          "internalType": "bytes32",
          "name": "s",
          "type": "bytes32"
        }
      ],
      "name": "removeLiquidityETHWithPermit",
      "outputs": [
        {
          "internalType": "uint256",
          "name": "amountToken",
          "type": "uint256"
        },
        {
          "internalType": "uint256",
          "name": "amountETH",
          "type": "uint256"
        }
      ],
      "payable": false,
      "stateMutability": "nonpayable",
      "type": "function"
    },
    {
      "constant": false,
      "inputs": [
        {
          "internalType": "uint256",
          "name": "amountOutMin",
          "type": "uint256"
        },
        {
          "internalType": "address[]",
          "name": "path",
          "type": "address[]"
        },
        {
          "internalType": "address",
          "name": "to",
          "type": "address"
        },
        {
          "internalType": "uint256",
          "name": "deadline",
          "type": "uint256"
        }
      ],
      "name": "swapExactETHForTokens",
      "outputs": [
        {
          "internalType": "uint256[]",
          "name": "amounts",
          "type": "uint256[]"
        }
      ],
      "payable": true,
      "stateMutability": "payable",
      "type": "function"
    },
    {
      "constant": false,
      "inputs": [
        {
          "internalType": "uint256",
          "name": "amountOut",
          "type": "uint256"
        },
        {
          "internalType": "uint256",
          "name": "amountInMax",
          "type": "uint256"
        },
        {
          "internalType": "address[]",
          "name": "path",
          "type": "address[]"
        },
        {
          "internalType": "address",
          "name": "to",
          "type": "address"
        },
        {
          "internalType": "uint256",
          "name": "deadline",
          "type": "uint256"
        }
      ],
      "name": "swapTokensForExactETH",
      "outputs": [
        {
          "internalType": "uint256[]",
          "name": "amounts",
          "type": "uint256[]"
        }
      ],
      "payable": false,
      "stateMutability": "nonpayable",
      "type": "function"
    },
    {
      "constant": false,
      "inputs": [
        {
          "internalType": "uint256",
          "name": "amountIn",
          "type": "uint256"
        },
        {
          "internalType": "uint256",
          "name": "amountOutMin",
          "type": "uint256"
        },
        {
          "internalType": "address[]",
          "name": "path",
          "type": "address[]"
        },
        {
          "internalType": "address",
          "name": "to",
          "type": "address"
        },
        {
          "internalType": "uint256",
          "name": "deadline",
          "type": "uint256"
        }
      ],
      "name": "swapExactTokensForETH",
      "outputs": [
        {
          "internalType": "uint256[]",
          "name": "amounts",
          "type": "uint256[]"
        }
      ],
      "payable": false,
      "stateMutability": "nonpayable",
      "type": "function"
    },
    {
      "constant": false,
      "inputs": [
        {
          "internalType": "uint256",
          "name": "amountOut",
          "type": "uint256"
        },
        {
          "internalType": "address[]",
          "name": "path",
          "type": "address[]"
        },
        {
          "internalType": "address",
          "name": "to",
          "type": "address"
        },
        {
          "internalType": "uint256",
          "name": "deadline",
          "type": "uint256"
        }
      ],
      "name": "swapETHForExactTokens",
      "outputs": [
        {
          "internalType": "uint256[]",
          "name": "amounts",
          "type": "uint256[]"
        }
      ],
      "payable": true,
      "stateMutability": "payable",
      "type": "function"
    },
    {
      "constant": true,
      "inputs": [
        {
          "internalType": "uint256",
          "name": "amountA",
          "type": "uint256"
        },
        {
          "internalType": "uint256",
          "name": "reserveA",
          "type": "uint256"
        },
        {
          "internalType": "uint256",
          "name": "reserveB",
          "type": "uint256"
        }
      ],
      "name": "quote",
      "outputs": [
        {
          "internalType": "uint256",
          "name": "amountB",
          "type": "uint256"
        }
      ],
      "payable": false,
      "stateMutability": "pure",
      "type": "function"
    },
    {
      "constant": true,
      "inputs": [
        {
          "internalType": "uint256",
          "name": "amountIn",
          "type": "uint256"
        },
        {
          "internalType": "uint256",
          "name": "reserveIn",
          "type": "uint256"
        },
        {
          "internalType": "uint256",
          "name": "reserveOut",
          "type": "uint256"
        }
      ],
      "name": "getAmountOut",
      "outputs": [
        {
          "internalType": "uint256",
          "name": "amountOut",
          "type": "uint256"
        }
      ],
      "payable": false,
      "stateMutability": "pure",
      "type": "function"
    },
    {
      "constant": true,
      "inputs": [
        {
          "internalType": "uint256",
          "name": "amountOut",
          "type": "uint256"
        },
        {
          "internalType": "uint256",
          "name": "reserveIn",
          "type": "uint256"
        },
        {
          "internalType": "uint256",
          "name": "reserveOut",
          "type": "uint256"
        }
      ],
      "name": "getAmountIn",
      "outputs": [
        {
          "internalType": "uint256",
          "name": "amountIn",
          "type": "uint256"
        }
      ],
      "payable": false,
      "stateMutability": "pure",
      "type": "function"
    },
    {
      "constant": true,
      "inputs": [
        {
          "internalType": "uint256",
          "name": "amountIn",
          "type": "uint256"
        },
        {
          "internalType": "address[]",
          "name": "path",
          "type": "address[]"
        }
      ],
      "name": "getAmountsOut",
      "outputs": [
        {
          "internalType": "uint256[]",
          "name": "amounts",
          "type": "uint256[]"
        }
      ],
      "payable": false,
      "stateMutability": "view",
      "type": "function"
    },
    {
      "constant": true,
      "inputs": [
        {
          "internalType": "uint256",
          "name": "amountOut",
          "type": "uint256"
        },
        {
          "internalType": "address[]",
          "name": "path",
          "type": "address[]"
        }
      ],
      "name": "getAmountsIn",
      "outputs": [
        {
          "internalType": "uint256[]",
          "name": "amounts",
          "type": "uint256[]"
        }
      ],
      "payable": false,
      "stateMutability": "view",
      "type": "function"
    }
  ],
  "bytecode": "0x608060405234801561001057600080fd5b50604051612e2b380380612e2b8339818101604052604081101561003357600080fd5b508051602090910151600080546001600160a01b039384166001600160a01b03199182161790915560018054939092169216919091179055612db18061007a6000396000f3fe6080604052600436106100fe5760003560e01c8063ad5c464811610095578063d06ca61f11610064578063d06ca61f146105d4578063ded9382a14610689578063e8e33700146106fc578063f305d7191461077c578063fb3bdb41146107c2576100fe565b8063ad5c4648146104fb578063ad615dec1461052c578063baa2abde14610562578063c45a0155146105bf576100fe565b80632195995c116100d15780632195995c146103635780634a25d94a146103e15780637ff36ab51461047757806385f8c25914610180576100fe565b806302751cec14610114578063054d50d41461018057806318cbafe5146101c85780631f00ca74146102ae575b6001546001600160a01b0316331461011257fe5b005b34801561012057600080fd5b50610167600480360360c081101561013757600080fd5b506001600160a01b0381358116916020810135916040820135916060810135916080820135169060a00135610846565b6040805192835260208301919091528051918290030190f35b34801561018c57600080fd5b506101b6600480360360608110156101a357600080fd5b5080359060208101359060400135610934565b60408051918252519081900360200190f35b3480156101d457600080fd5b5061025e600480360360a08110156101eb57600080fd5b813591602081013591810190606081016040820135600160201b81111561021157600080fd5b82018360208201111561022357600080fd5b803590602001918460208302840111600160201b8311171561024457600080fd5b91935091506001600160a01b038135169060200135610949565b60408051602080825283518183015283519192839290830191858101910280838360005b8381101561029a578181015183820152602001610282565b505050509050019250505060405180910390f35b3480156102ba57600080fd5b5061025e600480360360408110156102d157600080fd5b81359190810190604081016020820135600160201b8111156102f257600080fd5b82018360208201111561030457600080fd5b803590602001918460208302840111600160201b8311171561032557600080fd5b919080806020026020016040519081016040528093929190818152602001838360200280828437600092019190915250929550610c20945050505050565b34801561036f57600080fd5b50610167600480360361016081101561038757600080fd5b506001600160a01b038135811691602081013582169160408201359160608101359160808201359160a08101359091169060c08101359060e081013515159060ff6101008201351690610120810135906101400135610c43565b3480156103ed57600080fd5b5061025e600480360360a081101561040457600080fd5b813591602081013591810190606081016040820135600160201b81111561042a57600080fd5b82018360208201111561043c57600080fd5b803590602001918460208302840111600160201b8311171561045d57600080fd5b91935091506001600160a01b038135169060200135610d29565b61025e6004803603608081101561048d57600080fd5b81359190810190604081016020820135600160201b8111156104ae57600080fd5b8201836020820111156104c057600080fd5b803590602001918460208302840111600160201b831117156104e157600080fd5b91935091506001600160a01b038135169060200135610e83565b34801561050757600080fd5b50610510611171565b604080516001600160a01b039092168252519081900360200190f35b34801561053857600080fd5b506101b66004803603606081101561054f57600080fd5b5080359060208101359060400135611180565b34801561056e57600080fd5b50610167600480360360e081101561058557600080fd5b506001600160a01b038135811691602081013582169160408201359160608101359160808201359160a08101359091169060c0013561118d565b3480156105cb57600080fd5b506105106113bc565b3480156105e057600080fd5b5061025e600480360360408110156105f757600080fd5b81359190810190604081016020820135600160201b81111561061857600080fd5b82018360208201111561062a57600080fd5b803590602001918460208302840111600160201b8311171561064b57600080fd5b9190808060200260200160405190810160405280939291908181526020018383602002808284376000920191909152509295506113cb945050505050565b34801561069557600080fd5b5061016760048036036101408110156106ad57600080fd5b506001600160a01b0381358116916020810135916040820135916060810135916080820135169060a08101359060c081013515159060ff60e082013516906101008101359061012001356113e5565b34801561070857600080fd5b5061075e600480360361010081101561072057600080fd5b506001600160a01b038135811691602081013582169160408201359160608101359160808201359160a08101359160c0820135169060e001356114e2565b60408051938452602084019290925282820152519081900360600190f35b61075e600480360360c081101561079257600080fd5b506001600160a01b0381358116916020810135916040820135916060810135916080820135169060a0013561160b565b61025e600480360360808110156107d857600080fd5b81359190810190604081016020820135600160201b8111156107f957600080fd5b82018360208201111561080b57600080fd5b803590602001918460208302840111600160201b8311171561082c57600080fd5b91935091506001600160a01b03813516906020013561183a565b600080824281101561088d576040805162461bcd60e51b81526020600482015260186024820152600080516020612d5d833981519152604482015290519081900360640190fd5b6001546108a9908a906001600160a01b03168a8a8a308a61118d565b90935091506108b9898685611b3a565b60015460408051632e1a7d4d60e01b81526004810185905290516001600160a01b0390921691632e1a7d4d9160248082019260009290919082900301818387803b15801561090657600080fd5b505af115801561091a573d6000803e3d6000fd5b505050506109288583611ca4565b50965096945050505050565b6000610941848484611d9c565b949350505050565b6060814281101561098f576040805162461bcd60e51b81526020600482015260186024820152600080516020612d5d833981519152604482015290519081900360640190fd5b6001546001600160a01b0316868660001981018181106109ab57fe5b905060200201356001600160a01b03166001600160a01b031614610a04576040805162461bcd60e51b815260206004820152601d6024820152600080516020612c7a833981519152604482015290519081900360640190fd5b6000546040805160208089028281018201909352888252610a4e936001600160a01b0316928c92918b918b91829190850190849080828437600092019190915250611e8c92505050565b91508682600184510381518110610a6157fe5b60200260200101511015610aa65760405162461bcd60e51b815260040180806020018281038252602b815260200180612ce3602b913960400191505060405180910390fd5b610b3886866000818110610ab657fe5b905060200201356001600160a01b031633610b1e6000809054906101000a90046001600160a01b03168a8a6000818110610aec57fe5b905060200201356001600160a01b03168b8b6001818110610b0957fe5b905060200201356001600160a01b0316611fc1565b85600081518110610b2b57fe5b6020026020010151612081565b610b77828787808060200260200160405190810160405280939291908181526020018383602002808284376000920191909152503092506121de915050565b60015482516001600160a01b0390911690632e1a7d4d9084906000198101908110610b9e57fe5b60200260200101516040518263ffffffff1660e01b815260040180828152602001915050600060405180830381600087803b158015610bdc57600080fd5b505af1158015610bf0573d6000803e3d6000fd5b50505050610c158483600185510381518110610c0857fe5b6020026020010151611ca4565b509695505050505050565b600054606090610c3a906001600160a01b03168484612401565b90505b92915050565b6000805481908190610c5f906001600160a01b03168f8f611fc1565b9050600087610c6e578c610c72565b6000195b6040805163d505accf60e01b815233600482015230602482015260448101839052606481018c905260ff8a16608482015260a4810189905260c4810188905290519192506001600160a01b0384169163d505accf9160e48082019260009290919082900301818387803b158015610ce857600080fd5b505af1158015610cfc573d6000803e3d6000fd5b50505050610d0f8f8f8f8f8f8f8f61118d565b809450819550505050509b509b9950505050505050505050565b60608142811015610d6f576040805162461bcd60e51b81526020600482015260186024820152600080516020612d5d833981519152604482015290519081900360640190fd5b6001546001600160a01b031686866000198101818110610d8b57fe5b905060200201356001600160a01b03166001600160a01b031614610de4576040805162461bcd60e51b815260206004820152601d6024820152600080516020612c7a833981519152604482015290519081900360640190fd5b6000546040805160208089028281018201909352888252610e2e936001600160a01b0316928c92918b918b9182919085019084908082843760009201919091525061240192505050565b91508682600081518110610e3e57fe5b60200260200101511115610aa65760405162461bcd60e51b8152600401808060200182810382526027815260200180612c536027913960400191505060405180910390fd5b60608142811015610ec9576040805162461bcd60e51b81526020600482015260186024820152600080516020612d5d833981519152604482015290519081900360640190fd5b6001546001600160a01b03168686600081610ee057fe5b905060200201356001600160a01b03166001600160a01b031614610f39576040805162461bcd60e51b815260206004820152601d6024820152600080516020612c7a833981519152604482015290519081900360640190fd5b6000546040805160208089028281018201909352888252610f83936001600160a01b0316923492918b918b91829190850190849080828437600092019190915250611e8c92505050565b91508682600184510381518110610f9657fe5b60200260200101511015610fdb5760405162461bcd60e51b815260040180806020018281038252602b815260200180612ce3602b913960400191505060405180910390fd5b60015482516001600160a01b039091169063d0e30db0908490600090610ffd57fe5b60200260200101516040518263ffffffff1660e01b81526004016000604051808303818588803b15801561103057600080fd5b505af1158015611044573d6000803e3d6000fd5b5050600154600080546001600160a01b03928316955063a9059cbb94506110929350909116908a908a908161107557fe5b905060200201356001600160a01b03168a8a6001818110610b0957fe5b8460008151811061109f57fe5b60200260200101516040518363ffffffff1660e01b815260040180836001600160a01b03166001600160a01b0316815260200182815260200192505050602060405180830381600087803b1580156110f657600080fd5b505af115801561110a573d6000803e3d6000fd5b505050506040513d602081101561112057600080fd5b505161112857fe5b611167828787808060200260200160405190810160405280939291908181526020018383602002808284376000920191909152508992506121de915050565b5095945050505050565b6001546001600160a01b031681565b6000610941848484612522565b60008082428110156111d4576040805162461bcd60e51b81526020600482015260186024820152600080516020612d5d833981519152604482015290519081900360640190fd5b600080546111ec906001600160a01b03168c8c611fc1565b604080516323b872dd60e01b81523360048201526001600160a01b03831660248201819052604482018d9052915192935090916323b872dd916064808201926020929091908290030181600087803b15801561124757600080fd5b505af115801561125b573d6000803e3d6000fd5b505050506040513d602081101561127157600080fd5b50506040805163226bf2d160e21b81526001600160a01b03888116600483015282516000938493928616926389afcb44926024808301939282900301818787803b1580156112be57600080fd5b505af11580156112d2573d6000803e3d6000fd5b505050506040513d60408110156112e857600080fd5b508051602090910151909250905060006113028e8e6125ce565b509050806001600160a01b03168e6001600160a01b031614611325578183611328565b82825b90975095508a87101561136c5760405162461bcd60e51b8152600401808060200182810382526026815260200180612c9a6026913960400191505060405180910390fd5b898610156113ab5760405162461bcd60e51b8152600401808060200182810382526026815260200180612be06026913960400191505060405180910390fd5b505050505097509795505050505050565b6000546001600160a01b031681565b600054606090610c3a906001600160a01b03168484611e8c565b600080600061141e6000809054906101000a90046001600160a01b03168e600160009054906101000a90046001600160a01b0316611fc1565b905060008761142d578c611431565b6000195b6040805163d505accf60e01b815233600482015230602482015260448101839052606481018c905260ff8a16608482015260a4810189905260c4810188905290519192506001600160a01b0384169163d505accf9160e48082019260009290919082900301818387803b1580156114a757600080fd5b505af11580156114bb573d6000803e3d6000fd5b505050506114cd8e8e8e8e8e8e610846565b909f909e509c50505050505050505050505050565b6000806000834281101561152b576040805162461bcd60e51b81526020600482015260186024820152600080516020612d5d833981519152604482015290519081900360640190fd5b6115398c8c8c8c8c8c6126ac565b6000805492965090945090611558906001600160a01b03168e8e611fc1565b90506115668d338388612081565b6115728c338387612081565b806001600160a01b0316636a627842886040518263ffffffff1660e01b815260040180826001600160a01b03166001600160a01b03168152602001915050602060405180830381600087803b1580156115ca57600080fd5b505af11580156115de573d6000803e3d6000fd5b505050506040513d60208110156115f457600080fd5b5051949d939c50939a509198505050505050505050565b60008060008342811015611654576040805162461bcd60e51b81526020600482015260186024820152600080516020612d5d833981519152604482015290519081900360640190fd5b60015461166f908b906001600160a01b03168b348c8c6126ac565b6000805460015493975091955091611695916001600160a01b03908116918e9116611fc1565b90506116a38b338388612081565b600160009054906101000a90046001600160a01b03166001600160a01b031663d0e30db0856040518263ffffffff1660e01b81526004016000604051808303818588803b1580156116f357600080fd5b505af1158015611707573d6000803e3d6000fd5b50506001546040805163a9059cbb60e01b81526001600160a01b038781166004830152602482018b9052915191909216945063a9059cbb9350604480830193506020928290030181600087803b15801561176057600080fd5b505af1158015611774573d6000803e3d6000fd5b505050506040513d602081101561178a57600080fd5b505161179257fe5b806001600160a01b0316636a627842886040518263ffffffff1660e01b815260040180826001600160a01b03166001600160a01b03168152602001915050602060405180830381600087803b1580156117ea57600080fd5b505af11580156117fe573d6000803e3d6000fd5b505050506040513d602081101561181457600080fd5b505192503484101561182c5761182c33853403611ca4565b505096509650969350505050565b60608142811015611880576040805162461bcd60e51b81526020600482015260186024820152600080516020612d5d833981519152604482015290519081900360640190fd5b6001546001600160a01b0316868660008161189757fe5b905060200201356001600160a01b03166001600160a01b0316146118f0576040805162461bcd60e51b815260206004820152601d6024820152600080516020612c7a833981519152604482015290519081900360640190fd5b600054604080516020808902828101820190935288825261193a936001600160a01b0316928b92918b918b9182919085019084908082843760009201919091525061240192505050565b9150348260008151811061194a57fe5b6020026020010151111561198f5760405162461bcd60e51b8152600401808060200182810382526027815260200180612c536027913960400191505060405180910390fd5b60015482516001600160a01b039091169063d0e30db09084906000906119b157fe5b60200260200101516040518263ffffffff1660e01b81526004016000604051808303818588803b1580156119e457600080fd5b505af11580156119f8573d6000803e3d6000fd5b5050600154600080546001600160a01b03928316955063a9059cbb9450611a299350909116908a908a908161107557fe5b84600081518110611a3657fe5b60200260200101516040518363ffffffff1660e01b815260040180836001600160a01b03166001600160a01b0316815260200182815260200192505050602060405180830381600087803b158015611a8d57600080fd5b505af1158015611aa1573d6000803e3d6000fd5b505050506040513d6020811015611ab757600080fd5b5051611abf57fe5b611afe828787808060200260200160405190810160405280939291908181526020018383602002808284376000920191909152508992506121de915050565b81600081518110611b0b57fe5b6020026020010151341115611167576111673383600081518110611b2b57fe5b60200260200101513403611ca4565b604080516001600160a01b038481166024830152604480830185905283518084039091018152606490920183526020820180516001600160e01b031663a9059cbb60e01b178152925182516000946060949389169392918291908083835b60208310611bb75780518252601f199092019160209182019101611b98565b6001836020036101000a0380198251168184511680821785525050505050509050019150506000604051808303816000865af19150503d8060008114611c19576040519150601f19603f3d011682016040523d82523d6000602084013e611c1e565b606091505b5091509150818015611c4c575080511580611c4c5750808060200190516020811015611c4957600080fd5b50515b611c9d576040805162461bcd60e51b815260206004820152601f60248201527f5472616e7366657248656c7065723a205452414e534645525f4641494c454400604482015290519081900360640190fd5b5050505050565b604080516000808252602082019092526001600160a01b0384169083906040518082805190602001908083835b60208310611cf05780518252601f199092019160209182019101611cd1565b6001836020036101000a03801982511681845116808217855250505050505090500191505060006040518083038185875af1925050503d8060008114611d52576040519150601f19603f3d011682016040523d82523d6000602084013e611d57565b606091505b5050905080611d975760405162461bcd60e51b8152600401808060200182810382526023815260200180612cc06023913960400191505060405180910390fd5b505050565b6000808411611ddc5760405162461bcd60e51b815260040180806020018281038252602b815260200180612d32602b913960400191505060405180910390fd5b600083118015611dec5750600082115b611e275760405162461bcd60e51b8152600401808060200182810382526028815260200180612c066028913960400191505060405180910390fd5b6000611e3b856103e563ffffffff6128ce16565b90506000611e4f828563ffffffff6128ce16565b90506000611e7583611e69886103e863ffffffff6128ce16565b9063ffffffff61293116565b9050808281611e8057fe5b04979650505050505050565b6060600282511015611ee5576040805162461bcd60e51b815260206004820152601e60248201527f556e697377617056324c6962726172793a20494e56414c49445f504154480000604482015290519081900360640190fd5b8151604051908082528060200260200182016040528015611f10578160200160208202803883390190505b5090508281600081518110611f2157fe5b60200260200101818152505060005b6001835103811015611fb957600080611f7387868581518110611f4f57fe5b6020026020010151878660010181518110611f6657fe5b6020026020010151612980565b91509150611f95848481518110611f8657fe5b60200260200101518383611d9c565b848460010181518110611fa457fe5b60209081029190910101525050600101611f30565b509392505050565b6000806000611fd085856125ce565b604080516bffffffffffffffffffffffff19606094851b811660208084019190915293851b81166034830152825160288184030181526048830184528051908501206001600160f81b031960688401529a90941b9093166069840152607d8301989098527f8062edb6672844d2d7efbcf1a7ec23daab2b526c3ac13797f3030f7775c74986609d808401919091528851808403909101815260bd909201909752805196019590952095945050505050565b604080516001600160a01b0385811660248301528481166044830152606480830185905283518084039091018152608490920183526020820180516001600160e01b03166323b872dd60e01b17815292518251600094606094938a169392918291908083835b602083106121065780518252601f1990920191602091820191016120e7565b6001836020036101000a0380198251168184511680821785525050505050509050019150506000604051808303816000865af19150503d8060008114612168576040519150601f19603f3d011682016040523d82523d6000602084013e61216d565b606091505b509150915081801561219b57508051158061219b575080806020019051602081101561219857600080fd5b50515b6121d65760405162461bcd60e51b8152600401808060200182810382526024815260200180612d0e6024913960400191505060405180910390fd5b505050505050565b60005b60018351038110156123fb576000808483815181106121fc57fe5b602002602001015185846001018151811061221357fe5b602002602001015191509150600061222b83836125ce565b509050600087856001018151811061223f57fe5b60200260200101519050600080836001600160a01b0316866001600160a01b03161461226d57826000612271565b6000835b91509150600060028a5103881061228857886122b9565b6000548a516122b9916001600160a01b03169088908d9060028d019081106122ac57fe5b6020026020010151611fc1565b6000549091506122d3906001600160a01b03168888611fc1565b6001600160a01b031663022c0d9f84848460006040519080825280601f01601f191660200182016040528015612310576020820181803883390190505b506040518563ffffffff1660e01b815260040180858152602001848152602001836001600160a01b03166001600160a01b0316815260200180602001828103825283818151815260200191508051906020019080838360005b83811015612381578181015183820152602001612369565b50505050905090810190601f1680156123ae5780820380516001836020036101000a031916815260200191505b5095505050505050600060405180830381600087803b1580156123d057600080fd5b505af11580156123e4573d6000803e3d6000fd5b5050600190990198506121e1975050505050505050565b50505050565b606060028251101561245a576040805162461bcd60e51b815260206004820152601e60248201527f556e697377617056324c6962726172793a20494e56414c49445f504154480000604482015290519081900360640190fd5b8151604051908082528060200260200182016040528015612485578160200160208202803883390190505b509050828160018351038151811061249957fe5b60209081029190910101528151600019015b8015611fb9576000806124db878660018603815181106124c757fe5b6020026020010151878681518110611f6657fe5b915091506124fd8484815181106124ee57fe5b60200260200101518383612a4e565b84600185038151811061250c57fe5b60209081029190910101525050600019016124ab565b60008084116125625760405162461bcd60e51b8152600401808060200182810382526025815260200180612c2e6025913960400191505060405180910390fd5b6000831180156125725750600082115b6125ad5760405162461bcd60e51b8152600401808060200182810382526028815260200180612c066028913960400191505060405180910390fd5b826125be858463ffffffff6128ce16565b816125c557fe5b04949350505050565b600080826001600160a01b0316846001600160a01b031614156126225760405162461bcd60e51b8152600401808060200182810382526025815260200180612bbb6025913960400191505060405180910390fd5b826001600160a01b0316846001600160a01b031610612642578284612645565b83835b90925090506001600160a01b0382166126a5576040805162461bcd60e51b815260206004820152601e60248201527f556e697377617056324c6962726172793a205a45524f5f414444524553530000604482015290519081900360640190fd5b9250929050565b600080546040805163e6a4390560e01b81526001600160a01b038a811660048301528981166024830152915184938493169163e6a43905916044808301926020929190829003018186803b15801561270357600080fd5b505afa158015612717573d6000803e3d6000fd5b505050506040513d602081101561272d57600080fd5b50516001600160a01b031614156127c55760008054604080516364e329cb60e11b81526001600160a01b038c811660048301528b811660248301529151919092169263c9c6539692604480820193602093909283900390910190829087803b15801561279857600080fd5b505af11580156127ac573d6000803e3d6000fd5b505050506040513d60208110156127c257600080fd5b50505b6000805481906127df906001600160a01b03168b8b612980565b915091508160001480156127f1575080155b15612801578793508692506128c1565b600061280e898484612522565b905087811161286157858110156128565760405162461bcd60e51b8152600401808060200182810382526026815260200180612be06026913960400191505060405180910390fd5b8894509250826128bf565b600061286e898486612522565b90508981111561287a57fe5b878110156128b95760405162461bcd60e51b8152600401808060200182810382526026815260200180612c9a6026913960400191505060405180910390fd5b94508793505b505b5050965096945050505050565b60008115806128e9575050808202828282816128e657fe5b04145b610c3d576040805162461bcd60e51b815260206004820152601460248201527364732d6d6174682d6d756c2d6f766572666c6f7760601b604482015290519081900360640190fd5b80820182811015610c3d576040805162461bcd60e51b815260206004820152601460248201527364732d6d6174682d6164642d6f766572666c6f7760601b604482015290519081900360640190fd5b600080600061298f85856125ce565b5090506000806129a0888888611fc1565b6001600160a01b0316630902f1ac6040518163ffffffff1660e01b815260040160606040518083038186803b1580156129d857600080fd5b505afa1580156129ec573d6000803e3d6000fd5b505050506040513d6060811015612a0257600080fd5b5080516020909101516dffffffffffffffffffffffffffff91821693501690506001600160a01b0387811690841614612a3c578082612a3f565b81815b90999098509650505050505050565b6000808411612a8e5760405162461bcd60e51b815260040180806020018281038252602c815260200180612b8f602c913960400191505060405180910390fd5b600083118015612a9e5750600082115b612ad95760405162461bcd60e51b8152600401808060200182810382526028815260200180612c066028913960400191505060405180910390fd5b6000612afd6103e8612af1868863ffffffff6128ce16565b9063ffffffff6128ce16565b90506000612b176103e5612af1868963ffffffff612b3e16565b9050612b346001828481612b2757fe5b049063ffffffff61293116565b9695505050505050565b80820382811115610c3d576040805162461bcd60e51b815260206004820152601560248201527464732d6d6174682d7375622d756e646572666c6f7760581b604482015290519081900360640190fdfe556e697377617056324c6962726172793a20494e53554646494349454e545f4f55545055545f414d4f554e54556e697377617056324c6962726172793a204944454e544943414c5f414444524553534553556e69737761705632526f757465723a20494e53554646494349454e545f425f414d4f554e54556e697377617056324c6962726172793a20494e53554646494349454e545f4c4951554944495459556e697377617056324c6962726172793a20494e53554646494349454e545f414d4f554e54556e69737761705632526f757465723a204558434553534956455f494e5055545f414d4f554e54556e69737761705632526f757465723a20494e56414c49445f50415448000000556e69737761705632526f757465723a20494e53554646494349454e545f415f414d4f554e545472616e7366657248656c7065723a204554485f5452414e534645525f4641494c4544556e69737761705632526f757465723a20494e53554646494349454e545f4f55545055545f414d4f554e545472616e7366657248656c7065723a205452414e534645525f46524f4d5f4641494c4544556e697377617056324c6962726172793a20494e53554646494349454e545f494e5055545f414d4f554e54556e69737761705632526f757465723a20455850495245440000000000000000a265627a7a723158209fc185b39762e1657bd07c3914aaf923c459337b9847a653226701f909b59ef164736f6c63430005100032",
  "source": "// File: @uniswap/v2-core/contracts/interfaces/IUniswapV2Factory.sol\r\npragma solidity ^0.5.6;\r\n\r\ninterface IUniswapV2Factory {\r\n    event PairCreated(\r\n        address indexed token0,\r\n        address indexed token1,\r\n        address pair,\r\n        uint256\r\n    );\r\n\r\n    function feeTo() external view returns (address);\r\n\r\n    function feeToSetter() external view returns (address);\r\n\r\n    function getPair(address tokenA, address tokenB)\r\n    external\r\n    view\r\n    returns (address pair);\r\n\r\n    function allPairs(uint256) external view returns (address pair);\r\n\r\n    function allPairsLength() external view returns (uint256);\r\n\r\n    function createPair(address tokenA, address tokenB)\r\n    external\r\n    returns (address pair);\r\n\r\n    function setFeeTo(address) external;\r\n\r\n    function setFeeToSetter(address) external;\r\n}\r\n\r\n// File: @uniswap/lib/contracts/libraries/TransferHelper.sol\r\n\r\n// helper methods for interacting with ERC20 tokens and sending ETH that do not consistently return true/false\r\nlibrary TransferHelper {\r\n    function safeApprove(\r\n        address token,\r\n        address to,\r\n        uint256 value\r\n    ) internal {\r\n        // bytes4(keccak256(bytes('approve(address,uint256)')));\r\n        // solium-disable-next-line\r\n        (bool success, bytes memory data) = token.call(\r\n            abi.encodeWithSelector(0x095ea7b3, to, value)\r\n        );\r\n        require(\r\n            success && (data.length == 0 || abi.decode(data, (bool))),\r\n            \"TransferHelper: APPROVE_FAILED\"\r\n        );\r\n    }\r\n\r\n    function safeTransfer(\r\n        address token,\r\n        address to,\r\n        uint256 value\r\n    ) internal {\r\n        // bytes4(keccak256(bytes('transfer(address,uint256)')));\r\n        // solium-disable-next-line\r\n        (bool success, bytes memory data) = token.call(\r\n            abi.encodeWithSelector(0xa9059cbb, to, value)\r\n        );\r\n        require(\r\n            success && (data.length == 0 || abi.decode(data, (bool))),\r\n            \"TransferHelper: TRANSFER_FAILED\"\r\n        );\r\n    }\r\n\r\n    function safeTransferFrom(\r\n        address token,\r\n        address from,\r\n        address to,\r\n        uint256 value\r\n    ) internal {\r\n        // bytes4(keccak256(bytes('transferFrom(address,address,uint256)')));\r\n        // solium-disable-next-line\r\n        (bool success, bytes memory data) = token.call(\r\n            abi.encodeWithSelector(0x23b872dd, from, to, value)\r\n        );\r\n        require(\r\n            success && (data.length == 0 || abi.decode(data, (bool))),\r\n            \"TransferHelper: TRANSFER_FROM_FAILED\"\r\n        );\r\n    }\r\n\r\n    function safeTransferETH(address to, uint256 value) internal {\r\n        // solium-disable-next-line\r\n        (bool success,) = to.call.value(value)(new bytes(0));\r\n        require(success, \"TransferHelper: ETH_TRANSFER_FAILED\");\r\n    }\r\n}\r\n\r\n// File: @uniswap/v2-core/contracts/interfaces/IUniswapV2Pair.sol\r\n\r\ninterface IUniswapV2Pair {\r\n    event Approval(\r\n        address indexed owner,\r\n        address indexed spender,\r\n        uint256 value\r\n    );\r\n    event Transfer(address indexed from, address indexed to, uint256 value);\r\n\r\n    function name() external pure returns (string memory);\r\n\r\n    function symbol() external pure returns (string memory);\r\n\r\n    function decimals() external pure returns (uint8);\r\n\r\n    function totalSupply() external view returns (uint256);\r\n\r\n    function balanceOf(address owner) external view returns (uint256);\r\n\r\n    function allowance(address owner, address spender)\r\n    external\r\n    view\r\n    returns (uint256);\r\n\r\n    function approve(address spender, uint256 value) external returns (bool);\r\n\r\n    function transfer(address to, uint256 value) external returns (bool);\r\n\r\n    function transferFrom(\r\n        address from,\r\n        address to,\r\n        uint256 value\r\n    ) external returns (bool);\r\n\r\n    function DOMAIN_SEPARATOR() external view returns (bytes32);\r\n\r\n    function PERMIT_TYPEHASH() external pure returns (bytes32);\r\n\r\n    function nonces(address owner) external view returns (uint256);\r\n\r\n    function permit(\r\n        address owner,\r\n        address spender,\r\n        uint256 value,\r\n        uint256 deadline,\r\n        uint8 v,\r\n        bytes32 r,\r\n        bytes32 s\r\n    ) external;\r\n\r\n    event Mint(address indexed sender, uint256 amount0, uint256 amount1);\r\n    event Burn(\r\n        address indexed sender,\r\n        uint256 amount0,\r\n        uint256 amount1,\r\n        address indexed to\r\n    );\r\n    event Swap(\r\n        address indexed sender,\r\n        uint256 amount0In,\r\n        uint256 amount1In,\r\n        uint256 amount0Out,\r\n        uint256 amount1Out,\r\n        address indexed to\r\n    );\r\n    event Sync(uint112 reserve0, uint112 reserve1);\r\n\r\n    function MINIMUM_LIQUIDITY() external pure returns (uint256);\r\n\r\n    function factory() external view returns (address);\r\n\r\n    function token0() external view returns (address);\r\n\r\n    function token1() external view returns (address);\r\n\r\n    function getReserves()\r\n    external\r\n    view\r\n    returns (\r\n        uint112 reserve0,\r\n        uint112 reserve1,\r\n        uint32 blockTimestampLast\r\n    );\r\n\r\n    function price0CumulativeLast() external view returns (uint256);\r\n\r\n    function price1CumulativeLast() external view returns (uint256);\r\n\r\n    function kLast() external view returns (uint256);\r\n\r\n    function mint(address to) external returns (uint256 liquidity);\r\n\r\n    function burn(address to)\r\n    external\r\n    returns (uint256 amount0, uint256 amount1);\r\n\r\n    function swap(\r\n        uint256 amount0Out,\r\n        uint256 amount1Out,\r\n        address to,\r\n        bytes calldata data\r\n    ) external;\r\n\r\n    function skim(address to) external;\r\n\r\n    function sync() external;\r\n\r\n    function initialize(address, address) external;\r\n}\r\n\r\n// File: contracts/libraries/SafeMath.sol\r\n\r\n// a library for performing overflow-safe math, courtesy of DappHub (https://github.com/dapphub/ds-math)\r\n\r\nlibrary SafeMath {\r\n    function add(uint256 x, uint256 y) internal pure returns (uint256 z) {\r\n        require((z = x + y) >= x, \"ds-math-add-overflow\");\r\n    }\r\n\r\n    function sub(uint256 x, uint256 y) internal pure returns (uint256 z) {\r\n        require((z = x - y) <= x, \"ds-math-sub-underflow\");\r\n    }\r\n\r\n    function mul(uint256 x, uint256 y) internal pure returns (uint256 z) {\r\n        require(y == 0 || (z = x * y) / y == x, \"ds-math-mul-overflow\");\r\n    }\r\n\r\n    function div(uint256 a, uint256 b) internal pure returns (uint256) {\r\n        require(b > 0, \"SafeMath: division by zero\");\r\n        return a / b;\r\n    }\r\n}\r\n\r\n// File: contracts/libraries/UniswapV2Library.sol\r\n\r\nlibrary UniswapV2Library {\r\n    using SafeMath for uint256;\r\n\r\n    /**\r\n     * @dev token\r\n     * @notice \r\n     * @param tokenA TokenA\r\n     * @param tokenB TokenB\r\n     * @return token0  Token0\r\n     * @return token1  Token1\r\n     */\r\n    // returns sorted token addresses, used to handle return values from pairs sorted in this order\r\n    function sortTokens(address tokenA, address tokenB)\r\n    internal\r\n    pure\r\n    returns (address token0, address token1)\r\n    {\r\n        //tokenAtokenB\r\n        require(tokenA != tokenB, \"UniswapV2Library: IDENTICAL_ADDRESSES\");\r\n        //token\r\n        (token0, token1) = tokenA < tokenB\r\n        ? (tokenA, tokenB)\r\n        : (tokenB, tokenA);\r\n        //token0\r\n        require(token0 != address(0), \"UniswapV2Library: ZERO_ADDRESS\");\r\n    }\r\n\r\n    /**\r\n     * @dev pair\r\n     * @notice CREATE2\r\n     * @param factory \r\n     * @param tokenA TokenA\r\n     * @param tokenB TokenB\r\n     * @return pair  pair\r\n     */\r\n    // calculates the CREATE2 address for a pair without making any external calls\r\n    function pairFor(\r\n        address factory,\r\n        address tokenA,\r\n        address tokenB\r\n    ) internal pure returns (address pair) {\r\n        //token\r\n        (address token0, address token1) = sortTokens(tokenA, tokenB);\r\n        //tokencreate2pair\r\n        pair = address(\r\n            uint256(\r\n                keccak256(\r\n                    abi.encodePacked(\r\n                        hex\"ff\",\r\n                        factory,\r\n                        keccak256(abi.encodePacked(token0, token1)),\r\n                    // pairbytecodekeccak256\r\n                    //hex\"96e8ac4277198ff8b6f785478aa9a39f403cb768dd02cbee326c3e7da348845f\"\r\n                        hex\"8062edb6672844d2d7efbcf1a7ec23daab2b526c3ac13797f3030f7775c74986\"\r\n                    )\r\n                )\r\n            )\r\n        );\r\n    }\r\n\r\n    /**\r\n     * @dev \r\n     * @notice \r\n     * @param factory \r\n     * @param tokenA TokenA\r\n     * @param tokenB TokenB\r\n     * @return reserveA  A\r\n     * @return reserveB  B\r\n     */\r\n    // fetches and sorts the reserves for a pair\r\n    function getReserves(\r\n        address factory,\r\n        address tokenA,\r\n        address tokenB\r\n    ) internal view returns (uint256 reserveA, uint256 reserveB) {\r\n        //token\r\n        (address token0,) = sortTokens(tokenA, tokenB);\r\n        //tokenpair,pair0,1\r\n        (uint256 reserve0, uint256 reserve1,) = IUniswapV2Pair(\r\n            pairFor(factory, tokenA, tokenB)\r\n        )\r\n        .getReserves();\r\n        //token\r\n        (reserveA, reserveB) = tokenA == token0\r\n        ? (reserve0, reserve1)\r\n        : (reserve1, reserve0);\r\n    }\r\n\r\n    /**\r\n     * @dev \r\n     * @notice \r\n     * @param amountA A\r\n     * @param reserveA A\r\n     * @param reserveB B\r\n     * @return amounts  B\r\n     */\r\n    // given some amount of an asset and pair reserves, returns an equivalent amount of the other asset\r\n    function quote(\r\n        uint256 amountA,\r\n        uint256 reserveA,\r\n        uint256 reserveB\r\n    ) internal pure returns (uint256 amountB) {\r\n        //A>0\r\n        require(amountA > 0, \"UniswapV2Library: INSUFFICIENT_AMOUNT\");\r\n        //A,B0\r\n        require(\r\n            reserveA > 0 && reserveB > 0,\r\n            \"UniswapV2Library: INSUFFICIENT_LIQUIDITY\"\r\n        );\r\n        //B = A * B / A\r\n        amountB = amountA.mul(reserveB) / reserveA;\r\n    }\r\n\r\n    /**\r\n     * @dev \r\n     * @notice \r\n     * @param amountIn \r\n     * @param reserveIn In\r\n     * @param reserveOut Out\r\n     * @return amounts  \r\n     */\r\n    // given an input amount of an asset and pair reserves, returns the maximum output amount of the other asset\r\n    function getAmountOut(\r\n        uint256 amountIn,\r\n        uint256 reserveIn,\r\n        uint256 reserveOut\r\n    ) internal pure returns (uint256 amountOut) {\r\n        //0\r\n        require(amountIn > 0, \"UniswapV2Library: INSUFFICIENT_INPUT_AMOUNT\");\r\n        //InOut0\r\n        require(\r\n            reserveIn > 0 && reserveOut > 0,\r\n            \"UniswapV2Library: INSUFFICIENT_LIQUIDITY\"\r\n        );\r\n        // =  * 997\r\n        uint256 amountInWithFee = amountIn.mul(997);\r\n        // =  * Out\r\n        uint256 numerator = amountInWithFee.mul(reserveOut);\r\n        // = In * 1000 + \r\n        uint256 denominator = reserveIn.mul(1000).add(amountInWithFee);\r\n        // =  / \r\n        amountOut = numerator / denominator;\r\n    }\r\n\r\n    /**\r\n     * @dev \r\n     * @notice \r\n     * @param amountOut \r\n     * @param reserveIn In\r\n     * @param reserveOut Out\r\n     * @return amounts  \r\n     */\r\n    // given an output amount of an asset and pair reserves, returns a required input amount of the other asset\r\n    function getAmountIn(\r\n        uint256 amountOut,\r\n        uint256 reserveIn,\r\n        uint256 reserveOut\r\n    ) internal pure returns (uint256 amountIn) {\r\n        //0\r\n        require(amountOut > 0, \"UniswapV2Library: INSUFFICIENT_OUTPUT_AMOUNT\");\r\n        //InOut0\r\n        require(\r\n            reserveIn > 0 && reserveOut > 0,\r\n            \"UniswapV2Library: INSUFFICIENT_LIQUIDITY\"\r\n        );\r\n        // = In * Out * 1000\r\n        uint256 numerator = reserveIn.mul(amountOut).mul(1000);\r\n        // = Out -  * 997\r\n        uint256 denominator = reserveOut.sub(amountOut).mul(997);\r\n        // = ( / ) + 1\r\n        amountIn = (numerator / denominator).add(1);\r\n    }\r\n\r\n    /**\r\n     * @dev \r\n     * @notice getAmountOut\r\n     * @param factory \r\n     * @param amountIn \r\n     * @param path \r\n     * @return amounts[]  \r\n     */\r\n    // performs chained getAmountOut calculations on any number of pairs\r\n    function getAmountsOut(\r\n        address factory,\r\n        uint256 amountIn,\r\n        address[] memory path\r\n    ) internal view returns (uint256[] memory amounts) {\r\n        //2\r\n        require(path.length >= 2, \"UniswapV2Library: INVALID_PATH\");\r\n        //\r\n        amounts = new uint256[](path.length);\r\n        //[0] = \r\n        amounts[0] = amountIn;\r\n        //,path-1\r\n        for (uint256 i; i < path.length - 1; i++) {\r\n            //(In,Out) = (,)\r\n            (uint256 reserveIn, uint256 reserveOut) = getReserves(\r\n                factory,\r\n                path[i],\r\n                path[i + 1]\r\n            );\r\n            // = (,In,Out)\r\n            amounts[i + 1] = getAmountOut(amounts[i], reserveIn, reserveOut);\r\n        }\r\n    }\r\n\r\n    /**\r\n     * @dev \r\n     * @notice getAmountIn\r\n     * @param factory \r\n     * @param amountOut \r\n     * @param path \r\n     * @return amounts[]  \r\n     */\r\n    // performs chained getAmountIn calculations on any number of pairs\r\n    function getAmountsIn(\r\n        address factory,\r\n        uint256 amountOut,\r\n        address[] memory path\r\n    ) internal view returns (uint256[] memory amounts) {\r\n        //2\r\n        require(path.length >= 2, \"UniswapV2Library: INVALID_PATH\");\r\n        //\r\n        amounts = new uint256[](path.length);\r\n        // = \r\n        amounts[amounts.length - 1] = amountOut;\r\n        //\r\n        for (uint256 i = path.length - 1; i > 0; i--) {\r\n            //(In,Out) = (,)\r\n            (uint256 reserveIn, uint256 reserveOut) = getReserves(\r\n                factory,\r\n                path[i - 1],\r\n                path[i]\r\n            );\r\n            // = (,In,Out)\r\n            amounts[i - 1] = getAmountIn(amounts[i], reserveIn, reserveOut);\r\n        }\r\n    }\r\n}\r\n\r\n// File: contracts/interfaces/IUniswapV2Router01.sol\r\n\r\ninterface IUniswapV2Router01 {\r\n    function factory() external pure returns (address);\r\n\r\n    function WETH() external pure returns (address);\r\n\r\n    function addLiquidity(\r\n        address tokenA,\r\n        address tokenB,\r\n        uint256 amountADesired,\r\n        uint256 amountBDesired,\r\n        uint256 amountAMin,\r\n        uint256 amountBMin,\r\n        address to,\r\n        uint256 deadline\r\n    )\r\n    external\r\n    returns (\r\n        uint256 amountA,\r\n        uint256 amountB,\r\n        uint256 liquidity\r\n    );\r\n\r\n    function addLiquidityETH(\r\n        address token,\r\n        uint256 amountTokenDesired,\r\n        uint256 amountTokenMin,\r\n        uint256 amountETHMin,\r\n        address to,\r\n        uint256 deadline\r\n    )\r\n    external\r\n    payable\r\n    returns (\r\n        uint256 amountToken,\r\n        uint256 amountETH,\r\n        uint256 liquidity\r\n    );\r\n\r\n    function removeLiquidity(\r\n        address tokenA,\r\n        address tokenB,\r\n        uint256 liquidity,\r\n        uint256 amountAMin,\r\n        uint256 amountBMin,\r\n        address to,\r\n        uint256 deadline\r\n    ) external returns (uint256 amountA, uint256 amountB);\r\n\r\n    function removeLiquidityETH(\r\n        address token,\r\n        uint256 liquidity,\r\n        uint256 amountTokenMin,\r\n        uint256 amountETHMin,\r\n        address to,\r\n        uint256 deadline\r\n    ) external returns (uint256 amountToken, uint256 amountETH);\r\n\r\n    function removeLiquidityWithPermit(\r\n        address tokenA,\r\n        address tokenB,\r\n        uint256 liquidity,\r\n        uint256 amountAMin,\r\n        uint256 amountBMin,\r\n        address to,\r\n        uint256 deadline,\r\n        bool approveMax,\r\n        uint8 v,\r\n        bytes32 r,\r\n        bytes32 s\r\n    ) external returns (uint256 amountA, uint256 amountB);\r\n\r\n    function removeLiquidityETHWithPermit(\r\n        address token,\r\n        uint256 liquidity,\r\n        uint256 amountTokenMin,\r\n        uint256 amountETHMin,\r\n        address to,\r\n        uint256 deadline,\r\n        bool approveMax,\r\n        uint8 v,\r\n        bytes32 r,\r\n        bytes32 s\r\n    ) external returns (uint256 amountToken, uint256 amountETH);\r\n    \r\n    function swapExactETHForTokens(\r\n        uint256 amountOutMin,\r\n        address[] calldata path,\r\n        address to,\r\n        uint256 deadline\r\n    ) external payable returns (uint256[] memory amounts);\r\n\r\n    function swapTokensForExactETH(\r\n        uint256 amountOut,\r\n        uint256 amountInMax,\r\n        address[] calldata path,\r\n        address to,\r\n        uint256 deadline\r\n    ) external returns (uint256[] memory amounts);\r\n\r\n    function swapExactTokensForETH(\r\n        uint256 amountIn,\r\n        uint256 amountOutMin,\r\n        address[] calldata path,\r\n        address to,\r\n        uint256 deadline\r\n    ) external returns (uint256[] memory amounts);\r\n\r\n    function swapETHForExactTokens(\r\n        uint256 amountOut,\r\n        address[] calldata path,\r\n        address to,\r\n        uint256 deadline\r\n    ) external payable returns (uint256[] memory amounts);\r\n\r\n    function quote(\r\n        uint256 amountA,\r\n        uint256 reserveA,\r\n        uint256 reserveB\r\n    ) external pure returns (uint256 amountB);\r\n\r\n    function getAmountOut(\r\n        uint256 amountIn,\r\n        uint256 reserveIn,\r\n        uint256 reserveOut\r\n    ) external pure returns (uint256 amountOut);\r\n\r\n    function getAmountIn(\r\n        uint256 amountOut,\r\n        uint256 reserveIn,\r\n        uint256 reserveOut\r\n    ) external pure returns (uint256 amountIn);\r\n\r\n    function getAmountsOut(uint256 amountIn, address[] calldata path)\r\n    external\r\n    view\r\n    returns (uint256[] memory amounts);\r\n\r\n    function getAmountsIn(uint256 amountOut, address[] calldata path)\r\n    external\r\n    view\r\n    returns (uint256[] memory amounts);\r\n}\r\n\r\n// File: contracts/interfaces/IERC20.sol\r\n\r\ninterface IERC20 {\r\n    event Approval(\r\n        address indexed owner,\r\n        address indexed spender,\r\n        uint256 value\r\n    );\r\n    event Transfer(address indexed from, address indexed to, uint256 value);\r\n\r\n    function name() external view returns (string memory);\r\n\r\n    function symbol() external view returns (string memory);\r\n\r\n    function decimals() external view returns (uint8);\r\n\r\n    function totalSupply() external view returns (uint256);\r\n\r\n    function balanceOf(address owner) external view returns (uint256);\r\n\r\n    function allowance(address owner, address spender)\r\n    external\r\n    view\r\n    returns (uint256);\r\n\r\n    function approve(address spender, uint256 value) external returns (bool);\r\n\r\n    function transfer(address to, uint256 value) external returns (bool);\r\n\r\n    function transferFrom(\r\n        address from,\r\n        address to,\r\n        uint256 value\r\n    ) external returns (bool);\r\n}\r\n\r\n// File: contracts/interfaces/IWETH.sol\r\n\r\ninterface IWETH {\r\n    function deposit() external payable;\r\n\r\n    function transfer(address to, uint256 value) external returns (bool);\r\n\r\n    function withdraw(uint256) external;\r\n}\r\n\r\n// File: contracts/UniswapV2Router01.sol\r\n\r\ncontract UniswapV2Router01 is IUniswapV2Router01 {\r\n    //weth\r\n    address public factory;\r\n    address public WETH;\r\n    //:\r\n    modifier ensure(uint256 deadline) {\r\n        // solium-disable-next-line security/no-block-members\r\n        require(deadline >= block.timestamp, \"UniswapV2Router: EXPIRED\");\r\n        _;\r\n    }\r\n\r\n    //:weth\r\n    constructor(address _factory, address _WETH) public {\r\n        factory = _factory;\r\n        WETH = _WETH;\r\n    }\r\n\r\n    //\r\n    function() external payable {\r\n        //weth\r\n        assert(msg.sender == WETH);\r\n        // only accept ETH via fallback from the WETH contract\r\n    }\r\n\r\n    // **** ADD LIQUIDITY ****\r\n    /**\r\n     * @dev \r\n     * @param tokenA tokenA\r\n     * @param tokenB tokenB\r\n     * @param amountADesired A\r\n     * @param amountBDesired B\r\n     * @param amountAMin A\r\n     * @param amountBMin B\r\n     * @return amountA   A\r\n     * @return amountB   B\r\n     */\r\n    function _addLiquidity(\r\n        address tokenA,\r\n        address tokenB,\r\n        uint256 amountADesired,\r\n        uint256 amountBDesired,\r\n        uint256 amountAMin,\r\n        uint256 amountBMin\r\n    ) private returns (uint256 amountA, uint256 amountB) {\r\n        // create the pair if it doesn't exist yet\r\n        //,\r\n        if (IUniswapV2Factory(factory).getPair(tokenA, tokenB) == address(0)) {\r\n            IUniswapV2Factory(factory).createPair(tokenA, tokenB);\r\n        }\r\n        //reserve{A,B}\r\n        (uint256 reserveA, uint256 reserveB) = UniswapV2Library.getReserves(\r\n            factory,\r\n            tokenA,\r\n            tokenB\r\n        );\r\n        //reserve{A,B}==0\r\n        if (reserveA == 0 && reserveB == 0) {\r\n            //amount{A,B} = A,B\r\n            (amountA, amountB) = (amountADesired, amountBDesired);\r\n        } else {\r\n            //B = A * B / A\r\n            uint256 amountBOptimal = UniswapV2Library.quote(\r\n                amountADesired,\r\n                reserveA,\r\n                reserveB\r\n            );\r\n            //B <= B\r\n            if (amountBOptimal <= amountBDesired) {\r\n                //B >= B\r\n                require(\r\n                    amountBOptimal >= amountBMin,\r\n                    \"UniswapV2Router: INSUFFICIENT_B_AMOUNT\"\r\n                );\r\n                //amount{A,B} = A, B\r\n                (amountA, amountB) = (amountADesired, amountBOptimal);\r\n            } else {\r\n                //A = A * A / B\r\n                uint256 amountAOptimal = UniswapV2Library.quote(\r\n                    amountBDesired,\r\n                    reserveB,\r\n                    reserveA\r\n                );\r\n                //A <= A\r\n                assert(amountAOptimal <= amountADesired);\r\n                //A >= A\r\n                require(\r\n                    amountAOptimal >= amountAMin,\r\n                    \"UniswapV2Router: INSUFFICIENT_A_AMOUNT\"\r\n                );\r\n                //amount{A,B} = A, B\r\n                (amountA, amountB) = (amountAOptimal, amountBDesired);\r\n            }\r\n        }\r\n    }\r\n\r\n    /**\r\n     * @dev \r\n     * @param tokenA tokenA\r\n     * @param tokenB tokenB\r\n     * @param amountADesired A\r\n     * @param amountBDesired B\r\n     * @param amountAMin A\r\n     * @param amountBMin B\r\n     * @param to to\r\n     * @param deadline \r\n     * @return amountA   A\r\n     * @return amountB   B\r\n     * @return liquidity   \r\n     */\r\n    function addLiquidity(\r\n        address tokenA,\r\n        address tokenB,\r\n        uint256 amountADesired,\r\n        uint256 amountBDesired,\r\n        uint256 amountAMin,\r\n        uint256 amountBMin,\r\n        address to,\r\n        uint256 deadline\r\n    )\r\n    external\r\n    ensure(deadline)\r\n    returns (\r\n        uint256 amountA,\r\n        uint256 amountB,\r\n        uint256 liquidity\r\n    )\r\n    {\r\n        //A,B\r\n        (amountA, amountB) = _addLiquidity(\r\n            tokenA,\r\n            tokenB,\r\n            amountADesired,\r\n            amountBDesired,\r\n            amountAMin,\r\n            amountBMin\r\n        );\r\n        //TokenA,TokenB,`pair`\r\n        address pair = UniswapV2Library.pairFor(factory, tokenA, tokenB);\r\n        //amountAtokenAmsg.senderpair\r\n        TransferHelper.safeTransferFrom(tokenA, msg.sender, pair, amountA);\r\n        //amountBtokenBmsg.senderpair\r\n        TransferHelper.safeTransferFrom(tokenB, msg.sender, pair, amountB);\r\n        // = pairto\r\n        liquidity = IUniswapV2Pair(pair).mint(to);\r\n    }\r\n\r\n    /**\r\n     * @dev ETH\r\n     * @param token token\r\n     * @param amountTokenDesired Token\r\n     * @param amountTokenMin Token\r\n     * @param amountETHMin ETH\r\n     * @param to to\r\n     * @param deadline \r\n     * @return amountToken   Token\r\n     * @return amountETH   ETH\r\n     * @return liquidity   \r\n     */\r\n    function addLiquidityETH(\r\n        address token,\r\n        uint256 amountTokenDesired,\r\n        uint256 amountTokenMin,\r\n        uint256 amountETHMin,\r\n        address to,\r\n        uint256 deadline\r\n    )\r\n    external\r\n    payable\r\n    ensure(deadline)\r\n    returns (\r\n        uint256 amountToken,\r\n        uint256 amountETH,\r\n        uint256 liquidity\r\n    )\r\n    {\r\n        //Token,ETH\r\n        (amountToken, amountETH) = _addLiquidity(\r\n            token,\r\n            WETH,\r\n            amountTokenDesired,\r\n            msg.value,\r\n            amountTokenMin,\r\n            amountETHMin\r\n        );\r\n        //Token,WETH,`pair`\r\n        address pair = UniswapV2Library.pairFor(factory, token, WETH);\r\n        //`Token`tokenmsg.sender`pair`\r\n        TransferHelper.safeTransferFrom(token, msg.sender, pair, amountToken);\r\n        //`WETH``ETH`\r\n        IWETH(WETH).deposit.value(amountETH)();\r\n        //`ETH``WETH`token`pair`\r\n        assert(IWETH(WETH).transfer(pair, amountETH));\r\n        // = pair`to`\r\n        liquidity = IUniswapV2Pair(pair).mint(to);\r\n        //``>`ETH` ``-`ETH`\r\n        if (msg.value > amountETH)\r\n            TransferHelper.safeTransferETH(msg.sender, msg.value - amountETH);\r\n        // refund dust eth, if any\r\n    }\r\n\r\n    // **** REMOVE LIQUIDITY ****\r\n    /**\r\n     * @dev \r\n     * @param tokenA tokenA\r\n     * @param tokenB tokenB\r\n     * @param liquidity \r\n     * @param amountAMin A\r\n     * @param amountBMin B\r\n     * @param to to\r\n     * @param deadline \r\n     * @return amountA   A\r\n     * @return amountB   B\r\n     */\r\n    function removeLiquidity(\r\n        address tokenA,\r\n        address tokenB,\r\n        uint256 liquidity,\r\n        uint256 amountAMin,\r\n        uint256 amountBMin,\r\n        address to,\r\n        uint256 deadline\r\n    ) public ensure(deadline) returns (uint256 amountA, uint256 amountB) {\r\n        //TokenA,TokenBCREATE2\r\n        address pair = UniswapV2Library.pairFor(factory, tokenA, tokenB);\r\n        //pair()\r\n        IUniswapV2Pair(pair).transferFrom(msg.sender, pair, liquidity);\r\n        // send liquidity to pair\r\n        //pair,0,1tokento\r\n        (uint256 amount0, uint256 amount1) = IUniswapV2Pair(pair).burn(to);\r\n        //tokenA,tokenB\r\n        (address token0,) = UniswapV2Library.sortTokens(tokenA, tokenB);\r\n        //tokenAB\r\n        (amountA, amountB) = tokenA == token0\r\n        ? (amount0, amount1)\r\n        : (amount1, amount0);\r\n        //ABAB\r\n        require(\r\n            amountA >= amountAMin,\r\n            \"UniswapV2Router: INSUFFICIENT_A_AMOUNT\"\r\n        );\r\n        require(\r\n            amountB >= amountBMin,\r\n            \"UniswapV2Router: INSUFFICIENT_B_AMOUNT\"\r\n        );\r\n    }\r\n\r\n    /**\r\n     * @dev ETH\r\n     * @param token token\r\n     * @param liquidity \r\n     * @param amountTokenMin token\r\n     * @param amountETHMin ETH\r\n     * @param to to\r\n     * @param deadline \r\n     * @return amountToken   token\r\n     * @return amountETH   ETH\r\n     */\r\n    function removeLiquidityETH(\r\n        address token,\r\n        uint256 liquidity,\r\n        uint256 amountTokenMin,\r\n        uint256 amountETHMin,\r\n        address to,\r\n        uint256 deadline\r\n    ) public ensure(deadline) returns (uint256 amountToken, uint256 amountETH) {\r\n        //(token,ETH) = (token,WETH,,token,ETH,,)\r\n        (amountToken, amountETH) = removeLiquidity(\r\n            token,\r\n            WETH,\r\n            liquidity,\r\n            amountTokenMin,\r\n            amountETHMin,\r\n            address(this),\r\n            deadline\r\n        );\r\n        //tokentokento\r\n        TransferHelper.safeTransfer(token, to, amountToken);\r\n        //WETHETH\r\n        IWETH(WETH).withdraw(amountETH);\r\n        //ETHETHto\r\n        TransferHelper.safeTransferETH(to, amountETH);\r\n    }\r\n\r\n    /**\r\n     * @dev \r\n     * @param tokenA tokenA\r\n     * @param tokenB tokenB\r\n     * @param liquidity \r\n     * @param amountAMin A\r\n     * @param amountBMin B\r\n     * @param to to\r\n     * @param deadline \r\n     * @param approveMax \r\n     * @param v v\r\n     * @param r r\r\n     * @param s s\r\n     * @return amountA   A\r\n     * @return amountB   B\r\n     */\r\n    function removeLiquidityWithPermit(\r\n        address tokenA,\r\n        address tokenB,\r\n        uint256 liquidity,\r\n        uint256 amountAMin,\r\n        uint256 amountBMin,\r\n        address to,\r\n        uint256 deadline,\r\n        bool approveMax,\r\n        uint8 v,\r\n        bytes32 r,\r\n        bytes32 s\r\n    ) external returns (uint256 amountA, uint256 amountB) {\r\n        //TokenA,TokenBCREATE2\r\n        address pair = UniswapV2Library.pairFor(factory, tokenA, tokenB);\r\n        //,valueuint256,\r\n        uint256 value = approveMax ? uint256(- 1) : liquidity;\r\n        //pair(,,,,v,r,s)\r\n        IUniswapV2Pair(pair).permit(\r\n            msg.sender,\r\n            address(this),\r\n            value,\r\n            deadline,\r\n            v,\r\n            r,\r\n            s\r\n        );\r\n        //(A,B) = (tokenA,tokenB,,A,B,to,)\r\n        (amountA, amountB) = removeLiquidity(\r\n            tokenA,\r\n            tokenB,\r\n            liquidity,\r\n            amountAMin,\r\n            amountBMin,\r\n            to,\r\n            deadline\r\n        );\r\n    }\r\n\r\n    /**\r\n     * @dev ETH\r\n     * @param token token\r\n     * @param liquidity \r\n     * @param amountTokenMin token\r\n     * @param amountETHMin ETH\r\n     * @param to to\r\n     * @param deadline \r\n     * @param approveMax \r\n     * @param v v\r\n     * @param r r\r\n     * @param s s\r\n     * @return amountToken   token\r\n     * @return amountETH   ETH\r\n     */\r\n    function removeLiquidityETHWithPermit(\r\n        address token,\r\n        uint256 liquidity,\r\n        uint256 amountTokenMin,\r\n        uint256 amountETHMin,\r\n        address to,\r\n        uint256 deadline,\r\n        bool approveMax,\r\n        uint8 v,\r\n        bytes32 r,\r\n        bytes32 s\r\n    ) external returns (uint256 amountToken, uint256 amountETH) {\r\n        //Token,WETHCREATE2\r\n        address pair = UniswapV2Library.pairFor(factory, token, WETH);\r\n        //,valueuint256,\r\n        uint256 value = approveMax ? uint256(- 1) : liquidity;\r\n        //pair(,,,,v,r,s)\r\n        IUniswapV2Pair(pair).permit(\r\n            msg.sender,\r\n            address(this),\r\n            value,\r\n            deadline,\r\n            v,\r\n            r,\r\n            s\r\n        );\r\n        //(token,ETH) = ETH(token,,token,ETH,to,)\r\n        (amountToken, amountETH) = removeLiquidityETH(\r\n            token,\r\n            liquidity,\r\n            amountTokenMin,\r\n            amountETHMin,\r\n            to,\r\n            deadline\r\n        );\r\n    }\r\n\r\n    // **** SWAP ****\r\n    /**\r\n     * @dev \r\n     * @notice \r\n     * @param amounts \r\n     * @param path \r\n     * @param _to to\r\n     */\r\n    // requires the initial amount to have already been sent to the first pair\r\n    function _swap(\r\n        uint256[] memory amounts,\r\n        address[] memory path,\r\n        address _to\r\n    ) private {\r\n        //\r\n        for (uint256 i; i < path.length - 1; i++) {\r\n            //(,) = (,)\r\n            (address input, address output) = (path[i], path[i + 1]);\r\n            //token0 = (,)\r\n            (address token0,) = UniswapV2Library.sortTokens(input, output);\r\n            // = \r\n            uint256 amountOut = amounts[i + 1];\r\n            //(0,1) = ==token0 ? (0,) : (,0)\r\n            (uint256 amount0Out, uint256 amount1Out) = input == token0\r\n            ? (uint256(0), amountOut)\r\n            : (amountOut, uint256(0));\r\n            //to = i<-2 ? (,)pair : to\r\n            address to = i < path.length - 2\r\n            ? UniswapV2Library.pairFor(factory, output, path[i + 2])\r\n            : _to;\r\n            //(,)pair(0,1,to,0x00)\r\n            IUniswapV2Pair(UniswapV2Library.pairFor(factory, input, output))\r\n            .swap(amount0Out, amount1Out, to, new bytes(0));\r\n        }\r\n    }\r\n\r\n    /**\r\n     * @dev ETHtoken\r\n     * @param amountOutMin \r\n     * @param path \r\n     * @param to to\r\n     * @param deadline \r\n     * @return amounts[]  \r\n     */\r\n    function swapExactETHForTokens(\r\n        uint256 amountOutMin,\r\n        address[] calldata path,\r\n        address to,\r\n        uint256 deadline\r\n    ) external payable ensure(deadline) returns (uint256[] memory amounts) {\r\n        //WETH\r\n        require(path[0] == WETH, \"UniswapV2Router: INVALID_PATH\");\r\n        //  ((msg.value * 997 * Out) / (In * 1000 + msg.value * 997))\r\n        amounts = UniswapV2Library.getAmountsOut(factory, msg.value, path);\r\n        //>=\r\n        require(\r\n            amounts[amounts.length - 1] >= amountOutMin,\r\n            \"UniswapV2Router: INSUFFICIENT_OUTPUT_AMOUNT\"\r\n        );\r\n        //[0]ETHWETH\r\n        IWETH(WETH).deposit.value(amounts[0])();\r\n        //[0]WETH(0,1)pair\r\n        assert(\r\n            IWETH(WETH).transfer(\r\n                UniswapV2Library.pairFor(factory, path[0], path[1]),\r\n                amounts[0]\r\n            )\r\n        );\r\n        //(,,to)\r\n        _swap(amounts, path, to);\r\n    }\r\n\r\n    /**\r\n     * @dev tokenETH\r\n     * @param amountOut \r\n     * @param amountInMax \r\n     * @param path \r\n     * @param to to\r\n     * @param deadline \r\n     * @return amounts[]  \r\n     */\r\n    function swapTokensForExactETH(\r\n        uint256 amountOut,\r\n        uint256 amountInMax,\r\n        address[] calldata path,\r\n        address to,\r\n        uint256 deadline\r\n    ) external ensure(deadline) returns (uint256[] memory amounts) {\r\n        //WETH\r\n        require(path[path.length - 1] == WETH, \"UniswapV2Router: INVALID_PATH\");\r\n        //  ((In * Out * 1000) / (Out -  * 997) + 1)\r\n        amounts = UniswapV2Library.getAmountsIn(factory, amountOut, path);\r\n        //<=\r\n        require(\r\n            amounts[0] <= amountInMax,\r\n            \"UniswapV2Router: EXCESSIVE_INPUT_AMOUNT\"\r\n        );\r\n        //[0][0]token0,1pair\r\n        TransferHelper.safeTransferFrom(\r\n            path[0],\r\n            msg.sender,\r\n            UniswapV2Library.pairFor(factory, path[0], path[1]),\r\n            amounts[0]\r\n        );\r\n        //(,,)\r\n        _swap(amounts, path, address(this));\r\n        //WETHETH\r\n        IWETH(WETH).withdraw(amounts[amounts.length - 1]);\r\n        //ETHto\r\n        TransferHelper.safeTransferETH(to, amounts[amounts.length - 1]);\r\n    }\r\n\r\n    /**\r\n     * @dev tokenETH\r\n     * @param amountIn \r\n     * @param amountOutMin hard code\r\n     * @param path token ether \r\n     * @param to to \r\n     * @param deadline \r\n     * @return amounts[]  \r\n     */\r\n    function swapExactTokensForETH(\r\n        uint256 amountIn,\r\n        uint256 amountOutMin,\r\n        address[] calldata path,\r\n        address to,\r\n        uint256 deadline\r\n    ) external ensure(deadline) returns (uint256[] memory amounts) {\r\n        //WETH\r\n        require(path[path.length - 1] == WETH, \"UniswapV2Router: INVALID_PATH\");\r\n        //  (( * 997 * Out) / (In * 1000 +  * 997))\r\n        amounts = UniswapV2Library.getAmountsOut(factory, amountIn, path);\r\n        //>=\r\n        require(\r\n            amounts[amounts.length - 1] >= amountOutMin,\r\n            \"UniswapV2Router: INSUFFICIENT_OUTPUT_AMOUNT\"\r\n        );\r\n        //[0][0]token0,1pair\r\n        TransferHelper.safeTransferFrom(\r\n            path[0],\r\n            msg.sender,\r\n            UniswapV2Library.pairFor(factory, path[0], path[1]),\r\n            amounts[0]\r\n        );\r\n        //(,,)\r\n        _swap(amounts, path, address(this));\r\n        //WETHETH\r\n        IWETH(WETH).withdraw(amounts[amounts.length - 1]);\r\n        //ETHto\r\n        TransferHelper.safeTransferETH(to, amounts[amounts.length - 1]);\r\n    }\r\n\r\n    /**\r\n     * @dev ETHtoken\r\n     * @param amountOut \r\n     * @param path \r\n     * @param to to\r\n     * @param deadline \r\n     * @return amounts[]  \r\n     */\r\n    function swapETHForExactTokens(\r\n        uint256 amountOut,\r\n        address[] calldata path,\r\n        address to,\r\n        uint256 deadline\r\n    ) external payable ensure(deadline) returns (uint256[] memory amounts) {\r\n        //WETH\r\n        require(path[0] == WETH, \"UniswapV2Router: INVALID_PATH\");\r\n        //  ((In * Out * 1000) / (Out -  * 997) + 1)\r\n        amounts = UniswapV2Library.getAmountsIn(factory, amountOut, path);\r\n        //<=msg.value\r\n        require(\r\n            amounts[0] <= msg.value,\r\n            \"UniswapV2Router: EXCESSIVE_INPUT_AMOUNT\"\r\n        );\r\n        //[0]ETHWETH\r\n        IWETH(WETH).deposit.value(amounts[0])();\r\n        //[0]WETH(0,1)pair\r\n        assert(\r\n            IWETH(WETH).transfer(\r\n                UniswapV2Library.pairFor(factory, path[0], path[1]),\r\n                amounts[0]\r\n            )\r\n        );\r\n        //(,,to)\r\n        _swap(amounts, path, to);\r\n        //``>`[0]` ``-`[0]`\r\n        if (msg.value > amounts[0])\r\n            TransferHelper.safeTransferETH(msg.sender, msg.value - amounts[0]);\r\n        // refund dust eth, if any\r\n    }\r\n\r\n    function quote(\r\n        uint256 amountA,\r\n        uint256 reserveA,\r\n        uint256 reserveB\r\n    ) public pure returns (uint256 amountB) {\r\n        return UniswapV2Library.quote(amountA, reserveA, reserveB);\r\n    }\r\n\r\n    // **** LIBRARY FUNCTIONS ****\r\n    function getAmountOut(\r\n        uint256 amountIn,\r\n        uint256 reserveIn,\r\n        uint256 reserveOut\r\n    ) public pure returns (uint256 amountOut) {\r\n        return UniswapV2Library.getAmountOut(amountIn, reserveIn, reserveOut);\r\n    }\r\n\r\n    function getAmountIn(\r\n        uint256 amountOut,\r\n        uint256 reserveIn,\r\n        uint256 reserveOut\r\n    ) public pure returns (uint256 amountIn) {\r\n        return UniswapV2Library.getAmountOut(amountOut, reserveIn, reserveOut);\r\n    }\r\n\r\n    function getAmountsOut(uint256 amountIn, address[] memory path)\r\n    public\r\n    view\r\n    returns (uint256[] memory amounts)\r\n    {\r\n        return UniswapV2Library.getAmountsOut(factory, amountIn, path);\r\n    }\r\n\r\n    function getAmountsIn(uint256 amountOut, address[] memory path)\r\n    public\r\n    view\r\n    returns (uint256[] memory amounts)\r\n    {\r\n        return UniswapV2Library.getAmountsIn(factory, amountOut, path);\r\n    }\r\n}\r\n",
  "sourcePath": "D:/comunion/cos-contract-com/contracts/UniswapV2Router01.sol",
  "compiler": {
    "name": "solc",
    "version": "0.5.16+commit.9c3226ce.Emscripten.clang"
  },
  "schemaVersion": "3.3.4",
  "updatedAt": "2021-05-26T14:52:14.081Z",
  "networkType": "ethereum",
  "devdoc": {
    "methods": {
      "addLiquidity(address,address,uint256,uint256,uint256,uint256,address,uint256)": {
        "details": "",
        "params": {
          "amountADesired": "A",
          "amountAMin": "A",
          "amountBDesired": "B",
          "amountBMin": "B",
          "deadline": "",
          "to": "to",
          "tokenA": "tokenA",
          "tokenB": "tokenB"
        },
        "return": "amountA   AamountB   Bliquidity   "
      },
      "addLiquidityETH(address,uint256,uint256,uint256,address,uint256)": {
        "details": "ETH",
        "params": {
          "amountETHMin": "ETH",
          "amountTokenDesired": "Token",
          "amountTokenMin": "Token",
          "deadline": "",
          "to": "to",
          "token": "token"
        },
        "return": "amountToken   TokenamountETH   ETHliquidity   "
      },
      "removeLiquidity(address,address,uint256,uint256,uint256,address,uint256)": {
        "details": "",
        "params": {
          "amountAMin": "A",
          "amountBMin": "B",
          "deadline": "",
          "liquidity": "",
          "to": "to",
          "tokenA": "tokenA",
          "tokenB": "tokenB"
        },
        "return": "amountA   AamountB   B"
      },
      "removeLiquidityETH(address,uint256,uint256,uint256,address,uint256)": {
        "details": "ETH",
        "params": {
          "amountETHMin": "ETH",
          "amountTokenMin": "token",
          "deadline": "",
          "liquidity": "",
          "to": "to",
          "token": "token"
        },
        "return": "amountToken   tokenamountETH   ETH"
      },
      "removeLiquidityETHWithPermit(address,uint256,uint256,uint256,address,uint256,bool,uint8,bytes32,bytes32)": {
        "details": "ETH",
        "params": {
          "amountETHMin": "ETH",
          "amountTokenMin": "token",
          "approveMax": "",
          "deadline": "",
          "liquidity": "",
          "r": "r",
          "s": "s",
          "to": "to",
          "token": "token",
          "v": "v"
        },
        "return": "amountToken   tokenamountETH   ETH"
      },
      "removeLiquidityWithPermit(address,address,uint256,uint256,uint256,address,uint256,bool,uint8,bytes32,bytes32)": {
        "details": "",
        "params": {
          "amountAMin": "A",
          "amountBMin": "B",
          "approveMax": "",
          "deadline": "",
          "liquidity": "",
          "r": "r",
          "s": "s",
          "to": "to",
          "tokenA": "tokenA",
          "tokenB": "tokenB",
          "v": "v"
        },
        "return": "amountA   AamountB   B"
      },
      "swapETHForExactTokens(uint256,address[],address,uint256)": {
        "details": "ETHtoken",
        "params": {
          "amountOut": "",
          "deadline": "",
          "path": "",
          "to": "to"
        },
        "return": "amounts[]  "
      },
      "swapExactETHForTokens(uint256,address[],address,uint256)": {
        "details": "ETHtoken",
        "params": {
          "amountOutMin": "",
          "deadline": "",
          "path": "",
          "to": "to"
        },
        "return": "amounts[]  "
      },
      "swapExactTokensForETH(uint256,uint256,address[],address,uint256)": {
        "details": "tokenETH",
        "params": {
          "amountIn": "",
          "amountOutMin": "hard code",
          "deadline": "",
          "path": "token ether ",
          "to": "to "
        },
        "return": "amounts[]  "
      },
      "swapTokensForExactETH(uint256,uint256,address[],address,uint256)": {
        "details": "tokenETH",
        "params": {
          "amountInMax": "",
          "amountOut": "",
          "deadline": "",
          "path": "",
          "to": "to"
        },
        "return": "amounts[]  "
      }
    }
  },
  "userdoc": {
    "methods": {}
  }
}